{
  "contractName": "CryptoPres",
  "abi": [
    {
      "anonymous": false,
      "inputs": [
        {
          "indexed": true,
          "internalType": "address",
          "name": "owner",
          "type": "address"
        },
        {
          "indexed": true,
          "internalType": "address",
          "name": "approved",
          "type": "address"
        },
        {
          "indexed": true,
          "internalType": "uint256",
          "name": "tokenId",
          "type": "uint256"
        }
      ],
      "name": "Approval",
      "type": "event"
    },
    {
      "anonymous": false,
      "inputs": [
        {
          "indexed": true,
          "internalType": "address",
          "name": "owner",
          "type": "address"
        },
        {
          "indexed": true,
          "internalType": "address",
          "name": "operator",
          "type": "address"
        },
        {
          "indexed": false,
          "internalType": "bool",
          "name": "approved",
          "type": "bool"
        }
      ],
      "name": "ApprovalForAll",
      "type": "event"
    },
    {
      "anonymous": false,
      "inputs": [
        {
          "indexed": true,
          "internalType": "address",
          "name": "previousOwner",
          "type": "address"
        },
        {
          "indexed": true,
          "internalType": "address",
          "name": "newOwner",
          "type": "address"
        }
      ],
      "name": "OwnershipTransferred",
      "type": "event"
    },
    {
      "anonymous": false,
      "inputs": [
        {
          "indexed": true,
          "internalType": "address",
          "name": "from",
          "type": "address"
        },
        {
          "indexed": true,
          "internalType": "address",
          "name": "to",
          "type": "address"
        },
        {
          "indexed": true,
          "internalType": "uint256",
          "name": "tokenId",
          "type": "uint256"
        }
      ],
      "name": "Transfer",
      "type": "event"
    },
    {
      "constant": false,
      "inputs": [
        {
          "internalType": "address",
          "name": "to",
          "type": "address"
        },
        {
          "internalType": "uint256",
          "name": "tokenId",
          "type": "uint256"
        }
      ],
      "name": "approve",
      "outputs": [],
      "payable": false,
      "stateMutability": "nonpayable",
      "type": "function"
    },
    {
      "constant": true,
      "inputs": [
        {
          "internalType": "address",
          "name": "owner",
          "type": "address"
        }
      ],
      "name": "balanceOf",
      "outputs": [
        {
          "internalType": "uint256",
          "name": "",
          "type": "uint256"
        }
      ],
      "payable": false,
      "stateMutability": "view",
      "type": "function"
    },
    {
      "constant": true,
      "inputs": [],
      "name": "baseURI",
      "outputs": [
        {
          "internalType": "string",
          "name": "",
          "type": "string"
        }
      ],
      "payable": false,
      "stateMutability": "view",
      "type": "function"
    },
    {
      "constant": false,
      "inputs": [],
      "name": "claimOwnership",
      "outputs": [],
      "payable": false,
      "stateMutability": "nonpayable",
      "type": "function"
    },
    {
      "constant": true,
      "inputs": [],
      "name": "doctor",
      "outputs": [
        {
          "internalType": "address",
          "name": "",
          "type": "address"
        }
      ],
      "payable": false,
      "stateMutability": "view",
      "type": "function"
    },
    {
      "constant": true,
      "inputs": [
        {
          "internalType": "uint256",
          "name": "tokenId",
          "type": "uint256"
        }
      ],
      "name": "getApproved",
      "outputs": [
        {
          "internalType": "address",
          "name": "",
          "type": "address"
        }
      ],
      "payable": false,
      "stateMutability": "view",
      "type": "function"
    },
    {
      "constant": true,
      "inputs": [
        {
          "internalType": "address",
          "name": "owner",
          "type": "address"
        },
        {
          "internalType": "address",
          "name": "operator",
          "type": "address"
        }
      ],
      "name": "isApprovedForAll",
      "outputs": [
        {
          "internalType": "bool",
          "name": "",
          "type": "bool"
        }
      ],
      "payable": false,
      "stateMutability": "view",
      "type": "function"
    },
    {
      "constant": true,
      "inputs": [],
      "name": "name",
      "outputs": [
        {
          "internalType": "string",
          "name": "",
          "type": "string"
        }
      ],
      "payable": false,
      "stateMutability": "view",
      "type": "function"
    },
    {
      "constant": true,
      "inputs": [],
      "name": "owner",
      "outputs": [
        {
          "internalType": "address",
          "name": "",
          "type": "address"
        }
      ],
      "payable": false,
      "stateMutability": "view",
      "type": "function"
    },
    {
      "constant": true,
      "inputs": [
        {
          "internalType": "uint256",
          "name": "tokenId",
          "type": "uint256"
        }
      ],
      "name": "ownerOf",
      "outputs": [
        {
          "internalType": "address",
          "name": "",
          "type": "address"
        }
      ],
      "payable": false,
      "stateMutability": "view",
      "type": "function"
    },
    {
      "constant": true,
      "inputs": [],
      "name": "pendingOwner",
      "outputs": [
        {
          "internalType": "address",
          "name": "",
          "type": "address"
        }
      ],
      "payable": false,
      "stateMutability": "view",
      "type": "function"
    },
    {
      "constant": false,
      "inputs": [
        {
          "internalType": "address",
          "name": "from",
          "type": "address"
        },
        {
          "internalType": "address",
          "name": "to",
          "type": "address"
        },
        {
          "internalType": "uint256",
          "name": "tokenId",
          "type": "uint256"
        }
      ],
      "name": "safeTransferFrom",
      "outputs": [],
      "payable": false,
      "stateMutability": "nonpayable",
      "type": "function"
    },
    {
      "constant": false,
      "inputs": [
        {
          "internalType": "address",
          "name": "from",
          "type": "address"
        },
        {
          "internalType": "address",
          "name": "to",
          "type": "address"
        },
        {
          "internalType": "uint256",
          "name": "tokenId",
          "type": "uint256"
        },
        {
          "internalType": "bytes",
          "name": "_data",
          "type": "bytes"
        }
      ],
      "name": "safeTransferFrom",
      "outputs": [],
      "payable": false,
      "stateMutability": "nonpayable",
      "type": "function"
    },
    {
      "constant": false,
      "inputs": [
        {
          "internalType": "address",
          "name": "to",
          "type": "address"
        },
        {
          "internalType": "bool",
          "name": "approved",
          "type": "bool"
        }
      ],
      "name": "setApprovalForAll",
      "outputs": [],
      "payable": false,
      "stateMutability": "nonpayable",
      "type": "function"
    },
    {
      "constant": false,
      "inputs": [
        {
          "internalType": "address",
          "name": "_doctor",
          "type": "address"
        }
      ],
      "name": "setDoctor",
      "outputs": [],
      "payable": false,
      "stateMutability": "nonpayable",
      "type": "function"
    },
    {
      "constant": true,
      "inputs": [
        {
          "internalType": "bytes4",
          "name": "interfaceId",
          "type": "bytes4"
        }
      ],
      "name": "supportsInterface",
      "outputs": [
        {
          "internalType": "bool",
          "name": "",
          "type": "bool"
        }
      ],
      "payable": false,
      "stateMutability": "view",
      "type": "function"
    },
    {
      "constant": true,
      "inputs": [],
      "name": "symbol",
      "outputs": [
        {
          "internalType": "string",
          "name": "",
          "type": "string"
        }
      ],
      "payable": false,
      "stateMutability": "view",
      "type": "function"
    },
    {
      "constant": true,
      "inputs": [
        {
          "internalType": "uint256",
          "name": "index",
          "type": "uint256"
        }
      ],
      "name": "tokenByIndex",
      "outputs": [
        {
          "internalType": "uint256",
          "name": "",
          "type": "uint256"
        }
      ],
      "payable": false,
      "stateMutability": "view",
      "type": "function"
    },
    {
      "constant": true,
      "inputs": [
        {
          "internalType": "address",
          "name": "owner",
          "type": "address"
        },
        {
          "internalType": "uint256",
          "name": "index",
          "type": "uint256"
        }
      ],
      "name": "tokenOfOwnerByIndex",
      "outputs": [
        {
          "internalType": "uint256",
          "name": "",
          "type": "uint256"
        }
      ],
      "payable": false,
      "stateMutability": "view",
      "type": "function"
    },
    {
      "constant": true,
      "inputs": [
        {
          "internalType": "uint256",
          "name": "tokenId",
          "type": "uint256"
        }
      ],
      "name": "tokenURI",
      "outputs": [
        {
          "internalType": "string",
          "name": "",
          "type": "string"
        }
      ],
      "payable": false,
      "stateMutability": "view",
      "type": "function"
    },
    {
      "constant": false,
      "inputs": [
        {
          "internalType": "address",
          "name": "from",
          "type": "address"
        },
        {
          "internalType": "address",
          "name": "to",
          "type": "address"
        },
        {
          "internalType": "uint256",
          "name": "tokenId",
          "type": "uint256"
        }
      ],
      "name": "transferFrom",
      "outputs": [],
      "payable": false,
      "stateMutability": "nonpayable",
      "type": "function"
    },
    {
      "constant": false,
      "inputs": [
        {
          "internalType": "address",
          "name": "newOwner",
          "type": "address"
        }
      ],
      "name": "transferOwnership",
      "outputs": [],
      "payable": false,
      "stateMutability": "nonpayable",
      "type": "function"
    },
    {
      "constant": false,
      "inputs": [
        {
          "internalType": "address",
          "name": "_to",
          "type": "address"
        },
        {
          "internalType": "uint256",
          "name": "_id",
          "type": "uint256"
        }
      ],
      "name": "mint",
      "outputs": [],
      "payable": false,
      "stateMutability": "nonpayable",
      "type": "function"
    },
    {
      "constant": true,
      "inputs": [
        {
          "internalType": "address",
          "name": "_holder",
          "type": "address"
        }
      ],
      "name": "arrayOfPrescriptionsByAddress",
      "outputs": [
        {
          "internalType": "uint256[]",
          "name": "",
          "type": "uint256[]"
        }
      ],
      "payable": false,
      "stateMutability": "view",
      "type": "function"
    },
    {
      "constant": true,
      "inputs": [
        {
          "internalType": "uint256",
          "name": "_presId",
          "type": "uint256"
        }
      ],
      "name": "prescriptionsURI",
      "outputs": [
        {
          "internalType": "string",
          "name": "",
          "type": "string"
        }
      ],
      "payable": false,
      "stateMutability": "view",
      "type": "function"
    },
    {
      "constant": true,
      "inputs": [
        {
          "internalType": "address",
          "name": "_owner",
          "type": "address"
        },
        {
          "internalType": "uint256",
          "name": "_index",
          "type": "uint256"
        }
      ],
      "name": "prescriptionOfOwnerByIndex",
      "outputs": [
        {
          "internalType": "uint256",
          "name": "",
          "type": "uint256"
        }
      ],
      "payable": false,
      "stateMutability": "view",
      "type": "function"
    },
    {
      "constant": true,
      "inputs": [],
      "name": "totalSupply",
      "outputs": [
        {
          "internalType": "uint256",
          "name": "",
          "type": "uint256"
        }
      ],
      "payable": false,
      "stateMutability": "view",
      "type": "function"
    },
    {
      "constant": true,
      "inputs": [
        {
          "internalType": "uint256",
          "name": "_index",
          "type": "uint256"
        }
      ],
      "name": "prescriptionByIndex",
      "outputs": [
        {
          "internalType": "uint256",
          "name": "",
          "type": "uint256"
        }
      ],
      "payable": false,
      "stateMutability": "view",
      "type": "function"
    },
    {
      "constant": false,
      "inputs": [
        {
          "internalType": "string",
          "name": "_drugName",
          "type": "string"
        },
        {
          "internalType": "string",
          "name": "_drugCode",
          "type": "string"
        },
        {
          "internalType": "string",
          "name": "_dosage",
          "type": "string"
        }
      ],
      "name": "addprescriptionDatatoArray",
      "outputs": [],
      "payable": false,
      "stateMutability": "nonpayable",
      "type": "function"
    },
    {
      "constant": false,
      "inputs": [
        {
          "internalType": "uint256",
          "name": "_presId",
          "type": "uint256"
        }
      ],
      "name": "addprescriptionData",
      "outputs": [],
      "payable": false,
      "stateMutability": "nonpayable",
      "type": "function"
    },
    {
      "constant": true,
      "inputs": [
        {
          "internalType": "uint256",
          "name": "_presId",
          "type": "uint256"
        }
      ],
      "name": "getprescriptionData",
      "outputs": [
        {
          "components": [
            {
              "internalType": "string",
              "name": "drugName",
              "type": "string"
            },
            {
              "internalType": "string",
              "name": "drugCode",
              "type": "string"
            },
            {
              "internalType": "string",
              "name": "dosage",
              "type": "string"
            }
          ],
          "internalType": "struct CryptoPres.Data[]",
          "name": "_array",
          "type": "tuple[]"
        }
      ],
      "payable": false,
      "stateMutability": "view",
      "type": "function"
    }
  ],
  "bytecode": "0x60806040526040518060400160405280600a81526020017f43727970746f50726573000000000000000000000000000000000000000000008152506040518060400160405280600481526020017f505245530000000000000000000000000000000000000000000000000000000081525081816200008a6301ffc9a760e01b6200014f60201b60201c565b620000a26380ac58cd60e01b6200014f60201b60201c565b620000ba63780e9d6360e01b6200014f60201b60201c565b8160099080519060200190620000d292919062000227565b5080600a9080519060200190620000eb92919062000227565b5062000104635b5e139f60e01b6200014f60201b60201c565b5050505033600d60006101000a81548173ffffffffffffffffffffffffffffffffffffffff021916908373ffffffffffffffffffffffffffffffffffffffff1602179055506200034b565b63ffffffff60e01b817bffffffffffffffffffffffffffffffffffffffffffffffffffffffff19161415620001bb576040517f08c379a0000000000000000000000000000000000000000000000000000000008152600401620001b29062000318565b60405180910390fd5b6001600080837bffffffffffffffffffffffffffffffffffffffffffffffffffffffff19167bffffffffffffffffffffffffffffffffffffffffffffffffffffffff1916815260200190815260200160002060006101000a81548160ff02191690831515021790555050565b828054600181600116156101000203166002900490600052602060002090601f016020900481019282601f106200026a57805160ff19168380011785556200029b565b828001600101855582156200029b579182015b828111156200029a5782518255916020019190600101906200027d565b5b509050620002aa9190620002ae565b5090565b620002d391905b80821115620002cf576000816000905550600101620002b5565b5090565b90565b6000620002e5601c836200033a565b91507f4552433136353a20696e76616c696420696e74657266616365206964000000006000830152602082019050919050565b600060208201905081810360008301526200033381620002d6565b9050919050565b600082825260208201905092915050565b6141e4806200035b6000396000f3fe608060405234801561001057600080fd5b50600436106101e55760003560e01c80636352211e1161010f578063b88d4fde116100a2578063e0adb7f911610071578063e0adb7f9146105c8578063e30c3978146105e4578063e985e9c514610602578063f2fde38b14610632576101e5565b8063b88d4fde1461051c578063c6e26a2014610538578063c87b56dd14610568578063d60999c214610598576101e5565b80637ef1b4b3116100de5780637ef1b4b3146104945780638da5cb5b146104c457806395d89b41146104e2578063a22cb46514610500576101e5565b80636352211e146103f85780636c0360eb1461042857806370a08231146104465780637ea7118c14610476576101e5565b806325ea2cd41161018757806342842e0e1161015657806342842e0e1461038657806348103e65146103a25780634e71e0c8146103be5780634f6ccce7146103c8576101e5565b806325ea2cd4146102ee5780632f745c591461030a57806330652fe01461033a57806340c10f191461036a576101e5565b8063095ea7b3116101c3578063095ea7b31461026857806318160ddd146102845780631cf43d61146102a257806323b872dd146102d2576101e5565b806301ffc9a7146101ea57806306fdde031461021a578063081812fc14610238575b600080fd5b61020460048036036101ff9190810190612f95565b61064e565b6040516102119190613bfe565b60405180910390f35b6102226106b5565b60405161022f9190613c19565b60405180910390f35b610252600480360361024d919081019061307e565b610757565b60405161025f9190613b53565b60405180910390f35b610282600480360361027d9190810190612f59565b6107dc565b005b61028c610997565b6040516102999190613edb565b60405180910390f35b6102bc60048036036102b79190810190612f59565b6109a4565b6040516102c99190613edb565b60405180910390f35b6102ec60048036036102e79190810190612e53565b610a4d565b005b6103086004803603610303919081019061307e565b610aad565b005b610324600480360361031f9190810190612f59565b610bcc565b6040516103319190613edb565b60405180910390f35b610354600480360361034f9190810190612dee565b610c75565b6040516103619190613bdc565b60405180910390f35b610384600480360361037f9190810190612f59565b610d0c565b005b6103a0600480360361039b9190810190612e53565b610d74565b005b6103bc60048036036103b79190810190612dee565b610d94565b005b6103c6610e6c565b005b6103e260048036036103dd919081019061307e565b61100b565b6040516103ef9190613edb565b60405180910390f35b610412600480360361040d919081019061307e565b611075565b60405161041f9190613b53565b60405180910390f35b610430611127565b60405161043d9190613c19565b60405180910390f35b610460600480360361045b9190810190612dee565b6111c9565b60405161046d9190613edb565b60405180910390f35b61047e611288565b60405161048b9190613b53565b60405180910390f35b6104ae60048036036104a9919081019061307e565b6112ae565b6040516104bb9190613bba565b60405180910390f35b6104cc61154e565b6040516104d99190613b53565b60405180910390f35b6104ea611574565b6040516104f79190613c19565b60405180910390f35b61051a60048036036105159190810190612f1d565b611616565b005b61053660048036036105319190810190612ea2565b611797565b005b610552600480360361054d919081019061307e565b6117f9565b60405161055f9190613edb565b60405180910390f35b610582600480360361057d919081019061307e565b611863565b60405161058f9190613c19565b60405180910390f35b6105b260048036036105ad919081019061307e565b6119ab565b6040516105bf9190613c19565b60405180910390f35b6105e260048036036105dd9190810190612fe7565b611aa8565b005b6105ec611bb5565b6040516105f99190613b53565b60405180910390f35b61061c60048036036106179190810190612e17565b611bdb565b6040516106299190613bfe565b60405180910390f35b61064c60048036036106479190810190612dee565b611c6f565b005b6000806000837bffffffffffffffffffffffffffffffffffffffffffffffffffffffff19167bffffffffffffffffffffffffffffffffffffffffffffffffffffffff1916815260200190815260200160002060009054906101000a900460ff169050919050565b606060098054600181600116156101000203166002900480601f01602080910402602001604051908101604052809291908181526020018280546001816001161561010002031660029004801561074d5780601f106107225761010080835404028352916020019161074d565b820191906000526020600020905b81548152906001019060200180831161073057829003601f168201915b5050505050905090565b600061076282611d0d565b6107a1576040517f08c379a000000000000000000000000000000000000000000000000000000000815260040161079890613dfb565b60405180910390fd5b6002600083815260200190815260200160002060009054906101000a900473ffffffffffffffffffffffffffffffffffffffff169050919050565b60006107e782611075565b90508073ffffffffffffffffffffffffffffffffffffffff168373ffffffffffffffffffffffffffffffffffffffff161415610858576040517f08c379a000000000000000000000000000000000000000000000000000000000815260040161084f90613e5b565b60405180910390fd5b8073ffffffffffffffffffffffffffffffffffffffff16610877611d7f565b73ffffffffffffffffffffffffffffffffffffffff1614806108a657506108a5816108a0611d7f565b611bdb565b5b6108e5576040517f08c379a00000000000000000000000000000000000000000000000000000000081526004016108dc90613d7b565b60405180910390fd5b826002600084815260200190815260200160002060006101000a81548173ffffffffffffffffffffffffffffffffffffffff021916908373ffffffffffffffffffffffffffffffffffffffff160217905550818373ffffffffffffffffffffffffffffffffffffffff168273ffffffffffffffffffffffffffffffffffffffff167f8c5be1e5ebec7d5bd14f71427d1e84f3dd0314c0f7b2291e5b200ac8c7c3b92560405160405180910390a4505050565b6000601280549050905090565b60006109af836111c9565b82106109f0576040517f08c379a00000000000000000000000000000000000000000000000000000000081526004016109e790613cdb565b60405180910390fd5b601060008473ffffffffffffffffffffffffffffffffffffffff1673ffffffffffffffffffffffffffffffffffffffff1681526020019081526020016000208281548110610a3a57fe5b9060005260206000200154905092915050565b610a5e610a58611d7f565b82611d87565b610a9d576040517f08c379a0000000000000000000000000000000000000000000000000000000008152600401610a9490613e7b565b60405180910390fd5b610aa8838383611e65565b505050565b600f60009054906101000a900473ffffffffffffffffffffffffffffffffffffffff1673ffffffffffffffffffffffffffffffffffffffff163373ffffffffffffffffffffffffffffffffffffffff1614610b0757600080fd5b3373ffffffffffffffffffffffffffffffffffffffff16600f60009054906101000a900473ffffffffffffffffffffffffffffffffffffffff1673ffffffffffffffffffffffffffffffffffffffff1614610b97576040517f08c379a0000000000000000000000000000000000000000000000000000000008152600401610b8e90613cbb565b60405180910390fd5b601560166000838152602001908152602001600020908054610bba9291906129d9565b5060156000610bc99190612aa9565b50565b6000610bd7836111c9565b8210610c18576040517f08c379a0000000000000000000000000000000000000000000000000000000008152600401610c0f90613c5b565b60405180910390fd5b600560008473ffffffffffffffffffffffffffffffffffffffff1673ffffffffffffffffffffffffffffffffffffffff1681526020019081526020016000208281548110610c6257fe5b9060005260206000200154905092915050565b6060601060008373ffffffffffffffffffffffffffffffffffffffff1673ffffffffffffffffffffffffffffffffffffffff168152602001908152602001600020805480602002602001604051908101604052809291908181526020018280548015610d0057602002820191906000526020600020905b815481526020019060010190808311610cec575b50505050509050919050565b600f60009054906101000a900473ffffffffffffffffffffffffffffffffffffffff1673ffffffffffffffffffffffffffffffffffffffff163373ffffffffffffffffffffffffffffffffffffffff1614610d6657600080fd5b610d708282611e89565b5050565b610d8f83838360405180602001604052806000815250611797565b505050565b600d60009054906101000a900473ffffffffffffffffffffffffffffffffffffffff1673ffffffffffffffffffffffffffffffffffffffff163373ffffffffffffffffffffffffffffffffffffffff1614610dee57600080fd5b600073ffffffffffffffffffffffffffffffffffffffff168173ffffffffffffffffffffffffffffffffffffffff161415610e2857600080fd5b80600f60006101000a81548173ffffffffffffffffffffffffffffffffffffffff021916908373ffffffffffffffffffffffffffffffffffffffff16021790555050565b600e60009054906101000a900473ffffffffffffffffffffffffffffffffffffffff1673ffffffffffffffffffffffffffffffffffffffff163373ffffffffffffffffffffffffffffffffffffffff1614610ec657600080fd5b600e60009054906101000a900473ffffffffffffffffffffffffffffffffffffffff1673ffffffffffffffffffffffffffffffffffffffff16600d60009054906101000a900473ffffffffffffffffffffffffffffffffffffffff1673ffffffffffffffffffffffffffffffffffffffff167f8be0079c531659141344cd1fd0a4f28419497f9722a3daafe3b4186f6b6457e060405160405180910390a3600e60009054906101000a900473ffffffffffffffffffffffffffffffffffffffff16600d60006101000a81548173ffffffffffffffffffffffffffffffffffffffff021916908373ffffffffffffffffffffffffffffffffffffffff1602179055506000600e60006101000a81548173ffffffffffffffffffffffffffffffffffffffff021916908373ffffffffffffffffffffffffffffffffffffffff160217905550565b6000611015610997565b8210611056576040517f08c379a000000000000000000000000000000000000000000000000000000000815260040161104d90613e9b565b60405180910390fd5b6007828154811061106357fe5b90600052602060002001549050919050565b6000806001600084815260200190815260200160002060009054906101000a900473ffffffffffffffffffffffffffffffffffffffff169050600073ffffffffffffffffffffffffffffffffffffffff168173ffffffffffffffffffffffffffffffffffffffff16141561111e576040517f08c379a000000000000000000000000000000000000000000000000000000000815260040161111590613dbb565b60405180910390fd5b80915050919050565b6060600b8054600181600116156101000203166002900480601f0160208091040260200160405190810160405280929190818152602001828054600181600116156101000203166002900480156111bf5780601f10611194576101008083540402835291602001916111bf565b820191906000526020600020905b8154815290600101906020018083116111a257829003601f168201915b5050505050905090565b60008073ffffffffffffffffffffffffffffffffffffffff168273ffffffffffffffffffffffffffffffffffffffff16141561123a576040517f08c379a000000000000000000000000000000000000000000000000000000000815260040161123190613d9b565b60405180910390fd5b611281600360008473ffffffffffffffffffffffffffffffffffffffff1673ffffffffffffffffffffffffffffffffffffffff168152602001908152602001600020611edb565b9050919050565b600f60009054906101000a900473ffffffffffffffffffffffffffffffffffffffff1681565b60606112b982611d0d565b6112f8576040517f08c379a00000000000000000000000000000000000000000000000000000000081526004016112ef90613ebb565b60405180910390fd5b60166000838152602001908152602001600020805480602002602001604051908101604052809291908181526020016000905b828210156115435783829060005260206000209060030201604051806060016040529081600082018054600181600116156101000203166002900480601f0160208091040260200160405190810160405280929190818152602001828054600181600116156101000203166002900480156113e75780601f106113bc576101008083540402835291602001916113e7565b820191906000526020600020905b8154815290600101906020018083116113ca57829003601f168201915b50505050508152602001600182018054600181600116156101000203166002900480601f0160208091040260200160405190810160405280929190818152602001828054600181600116156101000203166002900480156114895780601f1061145e57610100808354040283529160200191611489565b820191906000526020600020905b81548152906001019060200180831161146c57829003601f168201915b50505050508152602001600282018054600181600116156101000203166002900480601f01602080910402602001604051908101604052809291908181526020018280546001816001161561010002031660029004801561152b5780601f106115005761010080835404028352916020019161152b565b820191906000526020600020905b81548152906001019060200180831161150e57829003601f168201915b5050505050815250508152602001906001019061132b565b505050509050919050565b600d60009054906101000a900473ffffffffffffffffffffffffffffffffffffffff1681565b6060600a8054600181600116156101000203166002900480601f01602080910402602001604051908101604052809291908181526020018280546001816001161561010002031660029004801561160c5780601f106115e15761010080835404028352916020019161160c565b820191906000526020600020905b8154815290600101906020018083116115ef57829003601f168201915b5050505050905090565b61161e611d7f565b73ffffffffffffffffffffffffffffffffffffffff168273ffffffffffffffffffffffffffffffffffffffff16141561168c576040517f08c379a000000000000000000000000000000000000000000000000000000000815260040161168390613d1b565b60405180910390fd5b8060046000611699611d7f565b73ffffffffffffffffffffffffffffffffffffffff1673ffffffffffffffffffffffffffffffffffffffff16815260200190815260200160002060008473ffffffffffffffffffffffffffffffffffffffff1673ffffffffffffffffffffffffffffffffffffffff16815260200190815260200160002060006101000a81548160ff0219169083151502179055508173ffffffffffffffffffffffffffffffffffffffff16611746611d7f565b73ffffffffffffffffffffffffffffffffffffffff167f17307eab39ab6107e8899845ad3d59bd9653f200f220920489ca2b5937696c318360405161178b9190613bfe565b60405180910390a35050565b6117a86117a2611d7f565b83611d87565b6117e7576040517f08c379a00000000000000000000000000000000000000000000000000000000081526004016117de90613e7b565b60405180910390fd5b6117f384848484611ee9565b50505050565b6000611803610997565b8210611844576040517f08c379a000000000000000000000000000000000000000000000000000000000815260040161183b90613d3b565b60405180910390fd5b6012828154811061185157fe5b90600052602060002001549050919050565b606061186e82611d0d565b6118ad576040517f08c379a00000000000000000000000000000000000000000000000000000000081526004016118a490613e3b565b60405180910390fd5b6060600c60008481526020019081526020016000208054600181600116156101000203166002900480601f0160208091040260200160405190810160405280929190818152602001828054600181600116156101000203166002900480156119565780601f1061192b57610100808354040283529160200191611956565b820191906000526020600020905b81548152906001019060200180831161193957829003601f168201915b5050505050905060008151141561197f57604051806020016040528060008152509150506119a6565b600b81604051602001611993929190613b2f565b6040516020818303038152906040529150505b919050565b60606119b682611d0d565b6119f5576040517f08c379a00000000000000000000000000000000000000000000000000000000081526004016119ec90613c3b565b60405180910390fd5b601460008381526020019081526020016000208054600181600116156101000203166002900480601f016020809104026020016040519081016040528092919081815260200182805460018160011615610100020316600290048015611a9c5780601f10611a7157610100808354040283529160200191611a9c565b820191906000526020600020905b815481529060010190602001808311611a7f57829003601f168201915b50505050509050919050565b600f60009054906101000a900473ffffffffffffffffffffffffffffffffffffffff1673ffffffffffffffffffffffffffffffffffffffff163373ffffffffffffffffffffffffffffffffffffffff1614611b0257600080fd5b611b0a612acd565b6040518060600160405280858152602001848152602001838152509050601581908060018154018082558091505090600182039060005260206000209060030201600090919290919091506000820151816000019080519060200190611b71929190612aee565b506020820151816001019080519060200190611b8e929190612aee565b506040820151816002019080519060200190611bab929190612aee565b5050505050505050565b600e60009054906101000a900473ffffffffffffffffffffffffffffffffffffffff1681565b6000600460008473ffffffffffffffffffffffffffffffffffffffff1673ffffffffffffffffffffffffffffffffffffffff16815260200190815260200160002060008373ffffffffffffffffffffffffffffffffffffffff1673ffffffffffffffffffffffffffffffffffffffff16815260200190815260200160002060009054906101000a900460ff16905092915050565b600d60009054906101000a900473ffffffffffffffffffffffffffffffffffffffff1673ffffffffffffffffffffffffffffffffffffffff163373ffffffffffffffffffffffffffffffffffffffff1614611cc957600080fd5b80600e60006101000a81548173ffffffffffffffffffffffffffffffffffffffff021916908373ffffffffffffffffffffffffffffffffffffffff16021790555050565b6000806001600084815260200190815260200160002060009054906101000a900473ffffffffffffffffffffffffffffffffffffffff169050600073ffffffffffffffffffffffffffffffffffffffff168173ffffffffffffffffffffffffffffffffffffffff161415915050919050565b600033905090565b6000611d9282611d0d565b611dd1576040517f08c379a0000000000000000000000000000000000000000000000000000000008152600401611dc890613d5b565b60405180910390fd5b6000611ddc83611075565b90508073ffffffffffffffffffffffffffffffffffffffff168473ffffffffffffffffffffffffffffffffffffffff161480611e4b57508373ffffffffffffffffffffffffffffffffffffffff16611e3384610757565b73ffffffffffffffffffffffffffffffffffffffff16145b80611e5c5750611e5b8185611bdb565b5b91505092915050565b611e70838383611f45565b611e7a8382612174565b611e848282612312565b505050565b6012819080600181540180825580915050906001820390600052602060002001600090919290919091505550806013600083815260200190815260200160002081905550611ed782826123d9565b5050565b600081600001549050919050565b611ef4848484611e65565b611f00848484846123fa565b611f3f576040517f08c379a0000000000000000000000000000000000000000000000000000000008152600401611f3690613c7b565b60405180910390fd5b50505050565b8273ffffffffffffffffffffffffffffffffffffffff16611f6582611075565b73ffffffffffffffffffffffffffffffffffffffff1614611fbb576040517f08c379a0000000000000000000000000000000000000000000000000000000008152600401611fb290613e1b565b60405180910390fd5b600073ffffffffffffffffffffffffffffffffffffffff168273ffffffffffffffffffffffffffffffffffffffff16141561202b576040517f08c379a000000000000000000000000000000000000000000000000000000000815260040161202290613cfb565b60405180910390fd5b612034816125f4565b61207b600360008573ffffffffffffffffffffffffffffffffffffffff1673ffffffffffffffffffffffffffffffffffffffff1681526020019081526020016000206126b2565b6120c2600360008473ffffffffffffffffffffffffffffffffffffffff1673ffffffffffffffffffffffffffffffffffffffff1681526020019081526020016000206126d5565b816001600083815260200190815260200160002060006101000a81548173ffffffffffffffffffffffffffffffffffffffff021916908373ffffffffffffffffffffffffffffffffffffffff160217905550808273ffffffffffffffffffffffffffffffffffffffff168473ffffffffffffffffffffffffffffffffffffffff167fddf252ad1be2c89b69c2b068fc378daa952ba7f163c4a11628f55a4df523b3ef60405160405180910390a4505050565b60006121cc6001600560008673ffffffffffffffffffffffffffffffffffffffff1673ffffffffffffffffffffffffffffffffffffffff168152602001908152602001600020805490506126eb90919063ffffffff16565b90506000600660008481526020019081526020016000205490508181146122b9576000600560008673ffffffffffffffffffffffffffffffffffffffff1673ffffffffffffffffffffffffffffffffffffffff168152602001908152602001600020838154811061223957fe5b9060005260206000200154905080600560008773ffffffffffffffffffffffffffffffffffffffff1673ffffffffffffffffffffffffffffffffffffffff168152602001908152602001600020838154811061229157fe5b9060005260206000200181905550816006600083815260200190815260200160002081905550505b600560008573ffffffffffffffffffffffffffffffffffffffff1673ffffffffffffffffffffffffffffffffffffffff16815260200190815260200160002080548091906001900361230b9190612b6e565b5050505050565b600560008373ffffffffffffffffffffffffffffffffffffffff1673ffffffffffffffffffffffffffffffffffffffff168152602001908152602001600020805490506006600083815260200190815260200160002081905550600560008373ffffffffffffffffffffffffffffffffffffffff1673ffffffffffffffffffffffffffffffffffffffff1681526020019081526020016000208190806001815401808255809150509060018203906000526020600020016000909192909190915055505050565b6123e38282612735565b6123ed8282612312565b6123f6816128e7565b5050565b600061241b8473ffffffffffffffffffffffffffffffffffffffff16612933565b61242857600190506125ec565b600060608573ffffffffffffffffffffffffffffffffffffffff168673ffffffffffffffffffffffffffffffffffffffff1663150b7a02905060e01b61246c611d7f565b8988886040516024016124829493929190613b6e565b604051602081830303815290604052907bffffffffffffffffffffffffffffffffffffffffffffffffffffffff19166020820180517bffffffffffffffffffffffffffffffffffffffffffffffffffffffff83818316178352505050506040516124ec9190613b18565b6000604051808303816000865af19150503d8060008114612529576040519150601f19603f3d011682016040523d82523d6000602084013e61252e565b606091505b5091509150816125865760008151111561254b5780518082602001fd5b6040517f08c379a000000000000000000000000000000000000000000000000000000000815260040161257d90613c7b565b60405180910390fd5b60008180602001905161259c9190810190612fbe565b905063150b7a0260e01b7bffffffffffffffffffffffffffffffffffffffffffffffffffffffff1916817bffffffffffffffffffffffffffffffffffffffffffffffffffffffff19161493505050505b949350505050565b600073ffffffffffffffffffffffffffffffffffffffff166002600083815260200190815260200160002060009054906101000a900473ffffffffffffffffffffffffffffffffffffffff1673ffffffffffffffffffffffffffffffffffffffff16146126af5760006002600083815260200190815260200160002060006101000a81548173ffffffffffffffffffffffffffffffffffffffff021916908373ffffffffffffffffffffffffffffffffffffffff1602179055505b50565b6126ca600182600001546126eb90919063ffffffff16565b816000018190555050565b6001816000016000828254019250508190555050565b600061272d83836040518060400160405280601e81526020017f536166654d6174683a207375627472616374696f6e206f766572666c6f77000081525061297e565b905092915050565b600073ffffffffffffffffffffffffffffffffffffffff168273ffffffffffffffffffffffffffffffffffffffff1614156127a5576040517f08c379a000000000000000000000000000000000000000000000000000000000815260040161279c90613ddb565b60405180910390fd5b6127ae81611d0d565b156127ee576040517f08c379a00000000000000000000000000000000000000000000000000000000081526004016127e590613c9b565b60405180910390fd5b816001600083815260200190815260200160002060006101000a81548173ffffffffffffffffffffffffffffffffffffffff021916908373ffffffffffffffffffffffffffffffffffffffff160217905550612887600360008473ffffffffffffffffffffffffffffffffffffffff1673ffffffffffffffffffffffffffffffffffffffff1681526020019081526020016000206126d5565b808273ffffffffffffffffffffffffffffffffffffffff16600073ffffffffffffffffffffffffffffffffffffffff167fddf252ad1be2c89b69c2b068fc378daa952ba7f163c4a11628f55a4df523b3ef60405160405180910390a45050565b6007805490506008600083815260200190815260200160002081905550600781908060018154018082558091505090600182039060005260206000200160009091929091909150555050565b60008060007fc5d2460186f7233c927e7db2dcc703c0e500b653ca82273b7bfad8045d85a47060001b9050833f915080821415801561297557506000801b8214155b92505050919050565b60008383111582906129c6576040517f08c379a00000000000000000000000000000000000000000000000000000000081526004016129bd9190613c19565b60405180910390fd5b5060008385039050809150509392505050565b828054828255906000526020600020906003028101928215612a985760005260206000209160030282015b82811115612a9757828260008201816000019080546001816001161561010002031660029004612a35929190612b9a565b5060018201816001019080546001816001161561010002031660029004612a5d929190612b9a565b5060028201816002019080546001816001161561010002031660029004612a85929190612b9a565b50505091600301919060030190612a04565b5b509050612aa59190612c21565b5090565b5080546000825560030290600052602060002090810190612aca9190612c21565b50565b60405180606001604052806060815260200160608152602001606081525090565b828054600181600116156101000203166002900490600052602060002090601f016020900481019282601f10612b2f57805160ff1916838001178555612b5d565b82800160010185558215612b5d579182015b82811115612b5c578251825591602001919060010190612b41565b5b509050612b6a9190612c70565b5090565b815481835581811115612b9557818360005260206000209182019101612b949190612c70565b5b505050565b828054600181600116156101000203166002900490600052602060002090601f016020900481019282601f10612bd35780548555612c10565b82800160010185558215612c1057600052602060002091601f016020900482015b82811115612c0f578254825591600101919060010190612bf4565b5b509050612c1d9190612c70565b5090565b612c6d91905b80821115612c695760008082016000612c409190612c95565b600182016000612c509190612c95565b600282016000612c609190612c95565b50600301612c27565b5090565b90565b612c9291905b80821115612c8e576000816000905550600101612c76565b5090565b90565b50805460018160011615610100020316600290046000825580601f10612cbb5750612cda565b601f016020900490600052602060002090810190612cd99190612c70565b5b50565b600081359050612cec81614145565b92915050565b600081359050612d018161415c565b92915050565b600081359050612d1681614173565b92915050565b600081519050612d2b81614173565b92915050565b600082601f830112612d4257600080fd5b8135612d55612d5082613f23565b613ef6565b91508082526020830160208301858383011115612d7157600080fd5b612d7c8382846140f2565b50505092915050565b600082601f830112612d9657600080fd5b8135612da9612da482613f4f565b613ef6565b91508082526020830160208301858383011115612dc557600080fd5b612dd08382846140f2565b50505092915050565b600081359050612de88161418a565b92915050565b600060208284031215612e0057600080fd5b6000612e0e84828501612cdd565b91505092915050565b60008060408385031215612e2a57600080fd5b6000612e3885828601612cdd565b9250506020612e4985828601612cdd565b9150509250929050565b600080600060608486031215612e6857600080fd5b6000612e7686828701612cdd565b9350506020612e8786828701612cdd565b9250506040612e9886828701612dd9565b9150509250925092565b60008060008060808587031215612eb857600080fd5b6000612ec687828801612cdd565b9450506020612ed787828801612cdd565b9350506040612ee887828801612dd9565b925050606085013567ffffffffffffffff811115612f0557600080fd5b612f1187828801612d31565b91505092959194509250565b60008060408385031215612f3057600080fd5b6000612f3e85828601612cdd565b9250506020612f4f85828601612cf2565b9150509250929050565b60008060408385031215612f6c57600080fd5b6000612f7a85828601612cdd565b9250506020612f8b85828601612dd9565b9150509250929050565b600060208284031215612fa757600080fd5b6000612fb584828501612d07565b91505092915050565b600060208284031215612fd057600080fd5b6000612fde84828501612d1c565b91505092915050565b600080600060608486031215612ffc57600080fd5b600084013567ffffffffffffffff81111561301657600080fd5b61302286828701612d85565b935050602084013567ffffffffffffffff81111561303f57600080fd5b61304b86828701612d85565b925050604084013567ffffffffffffffff81111561306857600080fd5b61307486828701612d85565b9150509250925092565b60006020828403121561309057600080fd5b600061309e84828501612dd9565b91505092915050565b60006130b38383613a9c565b905092915050565b60006130c78383613afa565b60208301905092915050565b6130dc8161407e565b82525050565b6130eb8161406c565b82525050565b60006130fc82613fb0565b6131068185614001565b93508360208202850161311885613f7b565b8060005b85811015613154578484038952815161313585826130a7565b945061314083613fe7565b925060208a0199505060018101905061311c565b50829750879550505050505092915050565b600061317182613fbb565b61317b8185614012565b935061318683613f8b565b8060005b838110156131b757815161319e88826130bb565b97506131a983613ff4565b92505060018101905061318a565b5085935050505092915050565b6131cd81614090565b82525050565b60006131de82613fc6565b6131e88185614023565b93506131f8818560208601614101565b61320181614134565b840191505092915050565b600061321782613fc6565b6132218185614034565b9350613231818560208601614101565b80840191505092915050565b600061324882613fdc565b6132528185614050565b9350613262818560208601614101565b61326b81614134565b840191505092915050565b600061328182613fdc565b61328b8185614061565b935061329b818560208601614101565b80840191505092915050565b60006132b282613fd1565b6132bc818561403f565b93506132cc818560208601614101565b6132d581614134565b840191505092915050565b6000815460018116600081146132fd576001811461332257613366565b607f600283041661330e8187614061565b955060ff1983168652808601935050613366565b600282046133308187614061565b955061333b85613f9b565b60005b8281101561335d5781548189015260018201915060208101905061333e565b82880195505050505b505092915050565b600061337b601083614050565b91507f707265736372697074696f6e73555249000000000000000000000000000000006000830152602082019050919050565b60006133bb602b83614050565b91507f455243373231456e756d657261626c653a206f776e657220696e646578206f7560008301527f74206f6620626f756e64730000000000000000000000000000000000000000006020830152604082019050919050565b6000613421603283614050565b91507f4552433732313a207472616e7366657220746f206e6f6e20455243373231526560008301527f63656976657220696d706c656d656e74657200000000000000000000000000006020830152604082019050919050565b6000613487601c83614050565b91507f4552433732313a20746f6b656e20616c7265616479206d696e746564000000006000830152602082019050919050565b60006134c7601383614050565b91507f616464707265736372697074696f6e44617461000000000000000000000000006000830152602082019050919050565b6000613507601383614050565b91507f746f6b656e4f664f776e65724279496e646578000000000000000000000000006000830152602082019050919050565b6000613547602483614050565b91507f4552433732313a207472616e7366657220746f20746865207a65726f2061646460008301527f72657373000000000000000000000000000000000000000000000000000000006020830152604082019050919050565b60006135ad601983614050565b91507f4552433732313a20617070726f766520746f2063616c6c6572000000000000006000830152602082019050919050565b60006135ed601383614050565b91507f707265736372697074696f6e4279496e646578000000000000000000000000006000830152602082019050919050565b600061362d602c83614050565b91507f4552433732313a206f70657261746f7220717565727920666f72206e6f6e657860008301527f697374656e7420746f6b656e00000000000000000000000000000000000000006020830152604082019050919050565b6000613693603883614050565b91507f4552433732313a20617070726f76652063616c6c6572206973206e6f74206f7760008301527f6e6572206e6f7220617070726f76656420666f7220616c6c00000000000000006020830152604082019050919050565b60006136f9602a83614050565b91507f4552433732313a2062616c616e636520717565727920666f7220746865207a6560008301527f726f2061646472657373000000000000000000000000000000000000000000006020830152604082019050919050565b600061375f602983614050565b91507f4552433732313a206f776e657220717565727920666f72206e6f6e657869737460008301527f656e7420746f6b656e00000000000000000000000000000000000000000000006020830152604082019050919050565b60006137c5602083614050565b91507f4552433732313a206d696e7420746f20746865207a65726f20616464726573736000830152602082019050919050565b6000613805602c83614050565b91507f4552433732313a20617070726f76656420717565727920666f72206e6f6e657860008301527f697374656e7420746f6b656e00000000000000000000000000000000000000006020830152604082019050919050565b600061386b602983614050565b91507f4552433732313a207472616e73666572206f6620746f6b656e2074686174206960008301527f73206e6f74206f776e00000000000000000000000000000000000000000000006020830152604082019050919050565b60006138d1602f83614050565b91507f4552433732314d657461646174613a2055524920717565727920666f72206e6f60008301527f6e6578697374656e7420746f6b656e00000000000000000000000000000000006020830152604082019050919050565b6000613937602183614050565b91507f4552433732313a20617070726f76616c20746f2063757272656e74206f776e6560008301527f72000000000000000000000000000000000000000000000000000000000000006020830152604082019050919050565b600061399d603183614050565b91507f4552433732313a207472616e736665722063616c6c6572206973206e6f74206f60008301527f776e6572206e6f7220617070726f7665640000000000000000000000000000006020830152604082019050919050565b6000613a03602c83614050565b91507f455243373231456e756d657261626c653a20676c6f62616c20696e646578206f60008301527f7574206f6620626f756e647300000000000000000000000000000000000000006020830152604082019050919050565b6000613a69601383614050565b91507f676574707265736372697074696f6e44617461000000000000000000000000006000830152602082019050919050565b60006060830160008301518482036000860152613ab982826132a7565b91505060208301518482036020860152613ad382826132a7565b91505060408301518482036040860152613aed82826132a7565b9150508091505092915050565b613b03816140e8565b82525050565b613b12816140e8565b82525050565b6000613b24828461320c565b915081905092915050565b6000613b3b82856132e0565b9150613b478284613276565b91508190509392505050565b6000602082019050613b6860008301846130e2565b92915050565b6000608082019050613b8360008301876130d3565b613b9060208301866130e2565b613b9d6040830185613b09565b8181036060830152613baf81846131d3565b905095945050505050565b60006020820190508181036000830152613bd481846130f1565b905092915050565b60006020820190508181036000830152613bf68184613166565b905092915050565b6000602082019050613c1360008301846131c4565b92915050565b60006020820190508181036000830152613c33818461323d565b905092915050565b60006020820190508181036000830152613c548161336e565b9050919050565b60006020820190508181036000830152613c74816133ae565b9050919050565b60006020820190508181036000830152613c9481613414565b9050919050565b60006020820190508181036000830152613cb48161347a565b9050919050565b60006020820190508181036000830152613cd4816134ba565b9050919050565b60006020820190508181036000830152613cf4816134fa565b9050919050565b60006020820190508181036000830152613d148161353a565b9050919050565b60006020820190508181036000830152613d34816135a0565b9050919050565b60006020820190508181036000830152613d54816135e0565b9050919050565b60006020820190508181036000830152613d7481613620565b9050919050565b60006020820190508181036000830152613d9481613686565b9050919050565b60006020820190508181036000830152613db4816136ec565b9050919050565b60006020820190508181036000830152613dd481613752565b9050919050565b60006020820190508181036000830152613df4816137b8565b9050919050565b60006020820190508181036000830152613e14816137f8565b9050919050565b60006020820190508181036000830152613e348161385e565b9050919050565b60006020820190508181036000830152613e54816138c4565b9050919050565b60006020820190508181036000830152613e748161392a565b9050919050565b60006020820190508181036000830152613e9481613990565b9050919050565b60006020820190508181036000830152613eb4816139f6565b9050919050565b60006020820190508181036000830152613ed481613a5c565b9050919050565b6000602082019050613ef06000830184613b09565b92915050565b6000604051905081810181811067ffffffffffffffff82111715613f1957600080fd5b8060405250919050565b600067ffffffffffffffff821115613f3a57600080fd5b601f19601f8301169050602081019050919050565b600067ffffffffffffffff821115613f6657600080fd5b601f19601f8301169050602081019050919050565b6000819050602082019050919050565b6000819050602082019050919050565b60008190508160005260206000209050919050565b600081519050919050565b600081519050919050565b600081519050919050565b600081519050919050565b600081519050919050565b6000602082019050919050565b6000602082019050919050565b600082825260208201905092915050565b600082825260208201905092915050565b600082825260208201905092915050565b600081905092915050565b600082825260208201905092915050565b600082825260208201905092915050565b600081905092915050565b6000614077826140c8565b9050919050565b6000614089826140c8565b9050919050565b60008115159050919050565b60007fffffffff0000000000000000000000000000000000000000000000000000000082169050919050565b600073ffffffffffffffffffffffffffffffffffffffff82169050919050565b6000819050919050565b82818337600083830152505050565b60005b8381101561411f578082015181840152602081019050614104565b8381111561412e576000848401525b50505050565b6000601f19601f8301169050919050565b61414e8161406c565b811461415957600080fd5b50565b61416581614090565b811461417057600080fd5b50565b61417c8161409c565b811461418757600080fd5b50565b614193816140e8565b811461419e57600080fd5b5056fea365627a7a7231582041bfebc64e5c100ba6070dd393a7ce10cdfbe19654a68a9a7dcfc10d82ea23f76c6578706572696d656e74616cf564736f6c634300050c0040",
  "source": "// File: contracts\\PresChain.sol\r\n\r\npragma solidity ^0.5.12;\r\n\r\npragma experimental ABIEncoderV2;\r\n\r\nimport \"./ERC721Full.sol\";\r\nimport \"./Ownable.sol\";\r\n\r\ncontract CryptoPres is  ERC721Full(\"CryptoPres\",\"PRES\"), Ownable {\r\n\r\n\r\n\r\n\r\n\r\n    // Token name \"CryptoPres\";\r\n\r\n\r\n    // Token symbol \"PRES\";\r\n\r\n\r\n    // Mapping from owner to list of owned token IDs\r\n\r\n    mapping(address => uint256[]) internal ownedPrescriptions;\r\n\r\n\r\n    // Mapping from token ID to index of the owner tokens list\r\n\r\n    mapping(uint256 => uint256) internal ownedPrescriptionsIndex;\r\n\r\n\r\n    // Array with all token ids, used for enumeration\r\n\r\n    uint256[] internal allPrescriptions;\r\n\r\n\r\n    // Mapping from token id to position in the allPrescriptions array\r\n\r\n    mapping(uint256 => uint256) internal allPrescriptionsIndex;\r\n\r\n\r\n    // Optional mapping for token URIs\r\n\r\n    mapping(uint256 => string) internal PrescriptionURIs;\r\n\r\n\r\n    struct Data{\r\n\r\n        string drugName;\r\n\r\n        string drugCode;\r\n\r\n        string dosage;\r\n\r\n    }\r\n\r\n    Data[] dataArray;\r\n\r\n\r\n\r\n    mapping(uint256 => Data[]) internal prescriptionData;\r\n\r\n\r\n    /**\r\n\r\n     * @dev External function to mint a new token\r\n\r\n     * @dev Reverts if the given token ID already exists\r\n\r\n     * @param _to address the beneficiary that will own the minted token\r\n\r\n     */\r\n\r\n    function mint(address _to, uint256 _id) external onlyDoctor {\r\n\r\n        _mint(_to, _id);\r\n\r\n    }\r\n\r\n\r\n    function arrayOfPrescriptionsByAddress(address _holder) public view returns(uint256[] memory) {\r\n\r\n        return ownedPrescriptions[_holder];\r\n\r\n    }\r\n\r\n\r\n    /**\r\n\r\n     * @dev Returns an URI for a given token ID\r\n\r\n     * @dev Throws if the token ID does not exist. May return an empty string.\r\n\r\n     * @param _presId uint256 ID of the token to query\r\n\r\n     */\r\n\r\n    function prescriptionsURI(uint256 _presId) public view returns (string memory) {\r\n\r\n        require(_exists(_presId),\"prescriptionsURI\");\r\n\r\n        return PrescriptionURIs[_presId];\r\n\r\n    }\r\n\r\n\r\n    /**\r\n\r\n     * @dev Gets the token ID at a given index of the tokens list of the requested owner\r\n\r\n     * @param _owner address owning the tokens list to be accessed\r\n\r\n     * @param _index uint256 representing the index to be accessed of the requested tokens list\r\n\r\n     * @return uint256 token ID at the given index of the tokens list owned by the requested address\r\n\r\n     */\r\n\r\n    function prescriptionOfOwnerByIndex(address _owner, uint256 _index) public view returns (uint256) {\r\n\r\n        require(_index < balanceOf(_owner), \"tokenOfOwnerByIndex\");\r\n\r\n        return ownedPrescriptions[_owner][_index];\r\n\r\n    }\r\n\r\n\r\n    /**\r\n\r\n     * @dev Gets the total amount of tokens stored by the contract\r\n\r\n     * @return uint256 representing the total amount of tokens\r\n\r\n     */\r\n\r\n    function totalSupply() public view returns (uint256) {\r\n\r\n        return allPrescriptions.length;\r\n\r\n    }\r\n\r\n\r\n    /**\r\n\r\n     * @dev Gets the token ID at a given index of all the tokens in this contract\r\n\r\n     * @dev Reverts if the index is greater or equal to the total number of tokens\r\n\r\n     * @param _index uint256 representing the index to be accessed of the tokens list\r\n\r\n     * @return uint256 token ID at the given index of the tokens list\r\n\r\n     */\r\n\r\n    function prescriptionByIndex(uint256 _index) public view returns (uint256) {\r\n\r\n        require(_index < totalSupply(),\"prescriptionByIndex\");\r\n\r\n        return allPrescriptions[_index];\r\n\r\n    }\r\n\r\n\r\n    /**\r\n\r\n     * @dev Internal function to set the token URI for a given token\r\n\r\n     * @dev Reverts if the token ID does not exist\r\n\r\n     * @param _presId uint256 ID of the token to set its URI\r\n\r\n     * @param _uri string URI to assign\r\n\r\n     */\r\n\r\n    function _setprescriptionsURI(uint256 _presId, string memory _uri) internal {\r\n\r\n        require(_exists(_presId),\"_setprescriptionsURI\");\r\n\r\n        PrescriptionURIs[_presId] = _uri;\r\n\r\n    }\r\n\r\n\r\n\r\n\r\n    /**\r\n\r\n     * @dev Internal function to add a token ID to the list of a given address\r\n\r\n     * @param _to address representing the new owner of the given token ID\r\n\r\n     * @param _presId uint256 ID of the token to be added to the tokens list of the given address\r\n\r\n     */\r\n\r\n    function addPrescriptionTo(address _to, uint256 _presId) internal {\r\n\r\n        super._mint(_to, _presId);\r\n\r\n        uint256 length = ownedPrescriptions[_to].length;\r\n\r\n        ownedPrescriptions[_to].push(_presId);\r\n\r\n        ownedPrescriptionsIndex[_presId] = length;\r\n\r\n    }\r\n\r\n\r\n    /**\r\n\r\n     * @dev Internal function to mint a new token\r\n\r\n     * @dev Reverts if the given token ID already exists\r\n\r\n     * @param _to address the beneficiary that will own the minted token\r\n\r\n     */\r\n\r\n    function _mint(address _to, uint256 _id) internal {\r\n\r\n        allPrescriptions.push(_id);\r\n\r\n        allPrescriptionsIndex[_id] = _id;\r\n\r\n        super._mint(_to, _id);\r\n\r\n    }\r\n\r\n    function addprescriptionDatatoArray(string memory _drugName, string memory _drugCode, string memory _dosage) public onlyDoctor{\r\n        Data memory d = Data(_drugName,_drugCode,_dosage);\r\n        dataArray.push(d);\r\n    }\r\n\r\n\r\n    function addprescriptionData(uint _presId) public onlyDoctor{\r\n\r\n            require(doctor == msg.sender,\"addprescriptionData\");\r\n\r\n            prescriptionData[_presId] = dataArray;\r\n            delete dataArray;\r\n\r\n\r\n\r\n    }\r\n\r\n    function getprescriptionData(uint _presId) public view returns(Data[] memory _array){\r\n        require(_exists(_presId),\"getprescriptionData\");\r\n        _array = prescriptionData[_presId];\r\n    }\r\n\r\n}\r\n",
  "sourcePath": "C:/Users/Shane/Documents/truffleProjects/Currenty Working Directory/PresChain/contracts/PresChain.sol",
  "compiler": {
    "name": "solc",
    "version": "0.5.12+commit.7709ece9.Emscripten.clang"
  },
  "schemaVersion": "3.0.16",
  "updatedAt": "2020-04-28T16:22:12.528Z",
  "devdoc": {
    "methods": {
      "approve(address,uint256)": {
        "details": "Approves another address to transfer the given token ID The zero address indicates there is no approved address. There can only be one approved address per token at a given time. Can only be called by the token owner or an approved operator.",
        "params": {
          "to": "address to be approved for the given token ID",
          "tokenId": "uint256 ID of the token to be approved"
        }
      },
      "balanceOf(address)": {
        "details": "Gets the balance of the specified address.",
        "params": {
          "owner": "address to query the balance of"
        },
        "return": "uint256 representing the amount owned by the passed address"
      },
      "baseURI()": {
        "details": "Returns the base URI set via {_setBaseURI}. This will be automatically added as a preffix in {tokenURI} to each token's URI, when they are non-empty.     * _Available since v2.5.0._"
      },
      "claimOwnership()": {
        "details": "Allows the pendingOwner address to finalize the transfer."
      },
      "getApproved(uint256)": {
        "details": "Gets the approved address for a token ID, or zero if no address set Reverts if the token ID does not exist.",
        "params": {
          "tokenId": "uint256 ID of the token to query the approval of"
        },
        "return": "address currently approved for the given token ID"
      },
      "isApprovedForAll(address,address)": {
        "details": "Tells whether an operator is approved by a given owner.",
        "params": {
          "operator": "operator address which you want to query the approval of",
          "owner": "owner address which you want to query the approval of"
        },
        "return": "bool whether the given operator is approved by the given owner"
      },
      "mint(address,uint256)": {
        "details": "External function to mint a new tokenReverts if the given token ID already exists",
        "params": {
          "_to": "address the beneficiary that will own the minted token"
        }
      },
      "name()": {
        "details": "Gets the token name.",
        "return": "string representing the token name"
      },
      "ownerOf(uint256)": {
        "details": "Gets the owner of the specified token ID.",
        "params": {
          "tokenId": "uint256 ID of the token to query the owner of"
        },
        "return": "address currently marked as the owner of the given token ID"
      },
      "prescriptionByIndex(uint256)": {
        "details": "Gets the token ID at a given index of all the tokens in this contractReverts if the index is greater or equal to the total number of tokens",
        "params": {
          "_index": "uint256 representing the index to be accessed of the tokens list"
        },
        "return": "uint256 token ID at the given index of the tokens list"
      },
      "prescriptionOfOwnerByIndex(address,uint256)": {
        "details": "Gets the token ID at a given index of the tokens list of the requested owner",
        "params": {
          "_index": "uint256 representing the index to be accessed of the requested tokens list",
          "_owner": "address owning the tokens list to be accessed"
        },
        "return": "uint256 token ID at the given index of the tokens list owned by the requested address"
      },
      "prescriptionsURI(uint256)": {
        "details": "Returns an URI for a given token IDThrows if the token ID does not exist. May return an empty string.",
        "params": {
          "_presId": "uint256 ID of the token to query"
        }
      },
      "safeTransferFrom(address,address,uint256)": {
        "details": "Safely transfers the ownership of a given token ID to another address If the target address is a contract, it must implement {IERC721Receiver-onERC721Received}, which is called upon a safe transfer, and return the magic value `bytes4(keccak256(\"onERC721Received(address,address,uint256,bytes)\"))`; otherwise, the transfer is reverted. Requires the msg.sender to be the owner, approved, or operator",
        "params": {
          "from": "current owner of the token",
          "to": "address to receive the ownership of the given token ID",
          "tokenId": "uint256 ID of the token to be transferred"
        }
      },
      "safeTransferFrom(address,address,uint256,bytes)": {
        "details": "Safely transfers the ownership of a given token ID to another address If the target address is a contract, it must implement {IERC721Receiver-onERC721Received}, which is called upon a safe transfer, and return the magic value `bytes4(keccak256(\"onERC721Received(address,address,uint256,bytes)\"))`; otherwise, the transfer is reverted. Requires the _msgSender() to be the owner, approved, or operator",
        "params": {
          "_data": "bytes data to send along with a safe transfer check",
          "from": "current owner of the token",
          "to": "address to receive the ownership of the given token ID",
          "tokenId": "uint256 ID of the token to be transferred"
        }
      },
      "setApprovalForAll(address,bool)": {
        "details": "Sets or unsets the approval of a given operator An operator is allowed to transfer all tokens of the sender on their behalf.",
        "params": {
          "approved": "representing the status of the approval to be set",
          "to": "operator address to set the approval"
        }
      },
      "setDoctor(address)": {
        "details": "Sets the doctor address.",
        "params": {
          "_doctor": "The doctor address."
        }
      },
      "supportsInterface(bytes4)": {
        "details": "See {IERC165-supportsInterface}.      * Time complexity O(1), guaranteed to always use less than 30 000 gas."
      },
      "symbol()": {
        "details": "Gets the token symbol.",
        "return": "string representing the token symbol"
      },
      "tokenByIndex(uint256)": {
        "details": "Gets the token ID at a given index of all the tokens in this contract Reverts if the index is greater or equal to the total number of tokens.",
        "params": {
          "index": "uint256 representing the index to be accessed of the tokens list"
        },
        "return": "uint256 token ID at the given index of the tokens list"
      },
      "tokenOfOwnerByIndex(address,uint256)": {
        "details": "Gets the token ID at a given index of the tokens list of the requested owner.",
        "params": {
          "index": "uint256 representing the index to be accessed of the requested tokens list",
          "owner": "address owning the tokens list to be accessed"
        },
        "return": "uint256 token ID at the given index of the tokens list owned by the requested address"
      },
      "tokenURI(uint256)": {
        "details": "Returns the URI for a given token ID. May return an empty string.      * If the token's URI is non-empty and a base URI was set (via {_setBaseURI}), it will be added to the token ID's URI as a prefix.      * Reverts if the token ID does not exist."
      },
      "totalSupply()": {
        "details": "Gets the total amount of tokens stored by the contract",
        "return": "uint256 representing the total amount of tokens"
      },
      "transferFrom(address,address,uint256)": {
        "details": "Transfers the ownership of a given token ID to another address. Usage of this method is discouraged, use {safeTransferFrom} whenever possible. Requires the msg.sender to be the owner, approved, or operator.",
        "params": {
          "from": "current owner of the token",
          "to": "address to receive the ownership of the given token ID",
          "tokenId": "uint256 ID of the token to be transferred"
        }
      },
      "transferOwnership(address)": {
        "details": "Allows the current owner to set the pendingOwner address.",
        "params": {
          "newOwner": "The address to transfer ownership to."
        }
      }
    }
  },
  "userdoc": {
    "methods": {}
  }
}