{
  "contractName": "CryptoPres",
  "abi": [
    {
      "anonymous": false,
      "inputs": [
        {
          "indexed": true,
          "internalType": "address",
          "name": "owner",
          "type": "address"
        },
        {
          "indexed": true,
          "internalType": "address",
          "name": "approved",
          "type": "address"
        },
        {
          "indexed": true,
          "internalType": "uint256",
          "name": "tokenId",
          "type": "uint256"
        }
      ],
      "name": "Approval",
      "type": "event"
    },
    {
      "anonymous": false,
      "inputs": [
        {
          "indexed": true,
          "internalType": "address",
          "name": "owner",
          "type": "address"
        },
        {
          "indexed": true,
          "internalType": "address",
          "name": "operator",
          "type": "address"
        },
        {
          "indexed": false,
          "internalType": "bool",
          "name": "approved",
          "type": "bool"
        }
      ],
      "name": "ApprovalForAll",
      "type": "event"
    },
    {
      "anonymous": false,
      "inputs": [
        {
          "indexed": true,
          "internalType": "address",
          "name": "previousOwner",
          "type": "address"
        },
        {
          "indexed": true,
          "internalType": "address",
          "name": "newOwner",
          "type": "address"
        }
      ],
      "name": "OwnershipTransferred",
      "type": "event"
    },
    {
      "anonymous": false,
      "inputs": [
        {
          "indexed": true,
          "internalType": "address",
          "name": "from",
          "type": "address"
        },
        {
          "indexed": true,
          "internalType": "address",
          "name": "to",
          "type": "address"
        },
        {
          "indexed": true,
          "internalType": "uint256",
          "name": "tokenId",
          "type": "uint256"
        }
      ],
      "name": "Transfer",
      "type": "event"
    },
    {
      "constant": false,
      "inputs": [
        {
          "internalType": "address",
          "name": "to",
          "type": "address"
        },
        {
          "internalType": "uint256",
          "name": "tokenId",
          "type": "uint256"
        }
      ],
      "name": "approve",
      "outputs": [],
      "payable": false,
      "stateMutability": "nonpayable",
      "type": "function"
    },
    {
      "constant": true,
      "inputs": [
        {
          "internalType": "address",
          "name": "owner",
          "type": "address"
        }
      ],
      "name": "balanceOf",
      "outputs": [
        {
          "internalType": "uint256",
          "name": "",
          "type": "uint256"
        }
      ],
      "payable": false,
      "stateMutability": "view",
      "type": "function"
    },
    {
      "constant": true,
      "inputs": [],
      "name": "baseURI",
      "outputs": [
        {
          "internalType": "string",
          "name": "",
          "type": "string"
        }
      ],
      "payable": false,
      "stateMutability": "view",
      "type": "function"
    },
    {
      "constant": false,
      "inputs": [],
      "name": "claimOwnership",
      "outputs": [],
      "payable": false,
      "stateMutability": "nonpayable",
      "type": "function"
    },
    {
      "constant": true,
      "inputs": [],
      "name": "doctor",
      "outputs": [
        {
          "internalType": "address",
          "name": "",
          "type": "address"
        }
      ],
      "payable": false,
      "stateMutability": "view",
      "type": "function"
    },
    {
      "constant": true,
      "inputs": [
        {
          "internalType": "uint256",
          "name": "tokenId",
          "type": "uint256"
        }
      ],
      "name": "getApproved",
      "outputs": [
        {
          "internalType": "address",
          "name": "",
          "type": "address"
        }
      ],
      "payable": false,
      "stateMutability": "view",
      "type": "function"
    },
    {
      "constant": true,
      "inputs": [
        {
          "internalType": "address",
          "name": "owner",
          "type": "address"
        },
        {
          "internalType": "address",
          "name": "operator",
          "type": "address"
        }
      ],
      "name": "isApprovedForAll",
      "outputs": [
        {
          "internalType": "bool",
          "name": "",
          "type": "bool"
        }
      ],
      "payable": false,
      "stateMutability": "view",
      "type": "function"
    },
    {
      "constant": true,
      "inputs": [],
      "name": "name",
      "outputs": [
        {
          "internalType": "string",
          "name": "",
          "type": "string"
        }
      ],
      "payable": false,
      "stateMutability": "view",
      "type": "function"
    },
    {
      "constant": true,
      "inputs": [],
      "name": "owner",
      "outputs": [
        {
          "internalType": "address",
          "name": "",
          "type": "address"
        }
      ],
      "payable": false,
      "stateMutability": "view",
      "type": "function"
    },
    {
      "constant": true,
      "inputs": [
        {
          "internalType": "uint256",
          "name": "tokenId",
          "type": "uint256"
        }
      ],
      "name": "ownerOf",
      "outputs": [
        {
          "internalType": "address",
          "name": "",
          "type": "address"
        }
      ],
      "payable": false,
      "stateMutability": "view",
      "type": "function"
    },
    {
      "constant": true,
      "inputs": [],
      "name": "pendingOwner",
      "outputs": [
        {
          "internalType": "address",
          "name": "",
          "type": "address"
        }
      ],
      "payable": false,
      "stateMutability": "view",
      "type": "function"
    },
    {
      "constant": false,
      "inputs": [
        {
          "internalType": "address",
          "name": "from",
          "type": "address"
        },
        {
          "internalType": "address",
          "name": "to",
          "type": "address"
        },
        {
          "internalType": "uint256",
          "name": "tokenId",
          "type": "uint256"
        }
      ],
      "name": "safeTransferFrom",
      "outputs": [],
      "payable": false,
      "stateMutability": "nonpayable",
      "type": "function"
    },
    {
      "constant": false,
      "inputs": [
        {
          "internalType": "address",
          "name": "from",
          "type": "address"
        },
        {
          "internalType": "address",
          "name": "to",
          "type": "address"
        },
        {
          "internalType": "uint256",
          "name": "tokenId",
          "type": "uint256"
        },
        {
          "internalType": "bytes",
          "name": "_data",
          "type": "bytes"
        }
      ],
      "name": "safeTransferFrom",
      "outputs": [],
      "payable": false,
      "stateMutability": "nonpayable",
      "type": "function"
    },
    {
      "constant": false,
      "inputs": [
        {
          "internalType": "address",
          "name": "to",
          "type": "address"
        },
        {
          "internalType": "bool",
          "name": "approved",
          "type": "bool"
        }
      ],
      "name": "setApprovalForAll",
      "outputs": [],
      "payable": false,
      "stateMutability": "nonpayable",
      "type": "function"
    },
    {
      "constant": false,
      "inputs": [
        {
          "internalType": "address",
          "name": "_doctor",
          "type": "address"
        }
      ],
      "name": "setDoctor",
      "outputs": [],
      "payable": false,
      "stateMutability": "nonpayable",
      "type": "function"
    },
    {
      "constant": true,
      "inputs": [
        {
          "internalType": "bytes4",
          "name": "interfaceId",
          "type": "bytes4"
        }
      ],
      "name": "supportsInterface",
      "outputs": [
        {
          "internalType": "bool",
          "name": "",
          "type": "bool"
        }
      ],
      "payable": false,
      "stateMutability": "view",
      "type": "function"
    },
    {
      "constant": true,
      "inputs": [],
      "name": "symbol",
      "outputs": [
        {
          "internalType": "string",
          "name": "",
          "type": "string"
        }
      ],
      "payable": false,
      "stateMutability": "view",
      "type": "function"
    },
    {
      "constant": true,
      "inputs": [
        {
          "internalType": "uint256",
          "name": "index",
          "type": "uint256"
        }
      ],
      "name": "tokenByIndex",
      "outputs": [
        {
          "internalType": "uint256",
          "name": "",
          "type": "uint256"
        }
      ],
      "payable": false,
      "stateMutability": "view",
      "type": "function"
    },
    {
      "constant": true,
      "inputs": [
        {
          "internalType": "address",
          "name": "owner",
          "type": "address"
        },
        {
          "internalType": "uint256",
          "name": "index",
          "type": "uint256"
        }
      ],
      "name": "tokenOfOwnerByIndex",
      "outputs": [
        {
          "internalType": "uint256",
          "name": "",
          "type": "uint256"
        }
      ],
      "payable": false,
      "stateMutability": "view",
      "type": "function"
    },
    {
      "constant": true,
      "inputs": [
        {
          "internalType": "uint256",
          "name": "tokenId",
          "type": "uint256"
        }
      ],
      "name": "tokenURI",
      "outputs": [
        {
          "internalType": "string",
          "name": "",
          "type": "string"
        }
      ],
      "payable": false,
      "stateMutability": "view",
      "type": "function"
    },
    {
      "constant": false,
      "inputs": [
        {
          "internalType": "address",
          "name": "from",
          "type": "address"
        },
        {
          "internalType": "address",
          "name": "to",
          "type": "address"
        },
        {
          "internalType": "uint256",
          "name": "tokenId",
          "type": "uint256"
        }
      ],
      "name": "transferFrom",
      "outputs": [],
      "payable": false,
      "stateMutability": "nonpayable",
      "type": "function"
    },
    {
      "constant": false,
      "inputs": [
        {
          "internalType": "address",
          "name": "newOwner",
          "type": "address"
        }
      ],
      "name": "transferOwnership",
      "outputs": [],
      "payable": false,
      "stateMutability": "nonpayable",
      "type": "function"
    },
    {
      "constant": false,
      "inputs": [
        {
          "internalType": "address",
          "name": "_to",
          "type": "address"
        },
        {
          "internalType": "uint256",
          "name": "_id",
          "type": "uint256"
        }
      ],
      "name": "mint",
      "outputs": [],
      "payable": false,
      "stateMutability": "nonpayable",
      "type": "function"
    },
    {
      "constant": true,
      "inputs": [
        {
          "internalType": "address",
          "name": "_holder",
          "type": "address"
        }
      ],
      "name": "arrayOfPrescriptionsByAddress",
      "outputs": [
        {
          "internalType": "uint256[]",
          "name": "",
          "type": "uint256[]"
        }
      ],
      "payable": false,
      "stateMutability": "view",
      "type": "function"
    },
    {
      "constant": true,
      "inputs": [
        {
          "internalType": "uint256",
          "name": "_presId",
          "type": "uint256"
        }
      ],
      "name": "prescriptionsURI",
      "outputs": [
        {
          "internalType": "string",
          "name": "",
          "type": "string"
        }
      ],
      "payable": false,
      "stateMutability": "view",
      "type": "function"
    },
    {
      "constant": true,
      "inputs": [
        {
          "internalType": "address",
          "name": "_owner",
          "type": "address"
        },
        {
          "internalType": "uint256",
          "name": "_index",
          "type": "uint256"
        }
      ],
      "name": "prescriptionOfOwnerByIndex",
      "outputs": [
        {
          "internalType": "uint256",
          "name": "",
          "type": "uint256"
        }
      ],
      "payable": false,
      "stateMutability": "view",
      "type": "function"
    },
    {
      "constant": true,
      "inputs": [],
      "name": "totalSupply",
      "outputs": [
        {
          "internalType": "uint256",
          "name": "",
          "type": "uint256"
        }
      ],
      "payable": false,
      "stateMutability": "view",
      "type": "function"
    },
    {
      "constant": true,
      "inputs": [
        {
          "internalType": "uint256",
          "name": "_index",
          "type": "uint256"
        }
      ],
      "name": "prescriptionByIndex",
      "outputs": [
        {
          "internalType": "uint256",
          "name": "",
          "type": "uint256"
        }
      ],
      "payable": false,
      "stateMutability": "view",
      "type": "function"
    },
    {
      "constant": false,
      "inputs": [
        {
          "internalType": "address",
          "name": "_to",
          "type": "address"
        },
        {
          "internalType": "uint256",
          "name": "_presId",
          "type": "uint256"
        },
        {
          "internalType": "string[]",
          "name": "_drugName",
          "type": "string[]"
        },
        {
          "internalType": "string[]",
          "name": "_drugCode",
          "type": "string[]"
        },
        {
          "internalType": "string[]",
          "name": "_dosage",
          "type": "string[]"
        }
      ],
      "name": "addprescriptionDatatoArrayBatch",
      "outputs": [],
      "payable": false,
      "stateMutability": "nonpayable",
      "type": "function"
    },
    {
      "constant": true,
      "inputs": [
        {
          "internalType": "uint256",
          "name": "_presId",
          "type": "uint256"
        }
      ],
      "name": "getprescriptionData",
      "outputs": [
        {
          "components": [
            {
              "internalType": "string",
              "name": "drugName",
              "type": "string"
            },
            {
              "internalType": "string",
              "name": "drugCode",
              "type": "string"
            },
            {
              "internalType": "string",
              "name": "dosage",
              "type": "string"
            }
          ],
          "internalType": "struct CryptoPres.Data[]",
          "name": "_array",
          "type": "tuple[]"
        }
      ],
      "payable": false,
      "stateMutability": "view",
      "type": "function"
    }
  ],
  "bytecode": "0x60806040526040518060400160405280600a81526020017f43727970746f50726573000000000000000000000000000000000000000000008152506040518060400160405280600481526020017f505245530000000000000000000000000000000000000000000000000000000081525081816200008a6301ffc9a760e01b6200014f60201b60201c565b620000a26380ac58cd60e01b6200014f60201b60201c565b620000ba63780e9d6360e01b6200014f60201b60201c565b8160099080519060200190620000d292919062000227565b5080600a9080519060200190620000eb92919062000227565b5062000104635b5e139f60e01b6200014f60201b60201c565b5050505033600d60006101000a81548173ffffffffffffffffffffffffffffffffffffffff021916908373ffffffffffffffffffffffffffffffffffffffff1602179055506200034b565b63ffffffff60e01b817bffffffffffffffffffffffffffffffffffffffffffffffffffffffff19161415620001bb576040517f08c379a0000000000000000000000000000000000000000000000000000000008152600401620001b29062000318565b60405180910390fd5b6001600080837bffffffffffffffffffffffffffffffffffffffffffffffffffffffff19167bffffffffffffffffffffffffffffffffffffffffffffffffffffffff1916815260200190815260200160002060006101000a81548160ff02191690831515021790555050565b828054600181600116156101000203166002900490600052602060002090601f016020900481019282601f106200026a57805160ff19168380011785556200029b565b828001600101855582156200029b579182015b828111156200029a5782518255916020019190600101906200027d565b5b509050620002aa9190620002ae565b5090565b620002d391905b80821115620002cf576000816000905550600101620002b5565b5090565b90565b6000620002e5601c836200033a565b91507f4552433136353a20696e76616c696420696e74657266616365206964000000006000830152602082019050919050565b600060208201905081810360008301526200033381620002d6565b9050919050565b600082825260208201905092915050565b614470806200035b6000396000f3fe608060405234801561001057600080fd5b50600436106101da5760003560e01c80636c0360eb11610104578063aae0cc73116100a2578063d60999c211610071578063d60999c21461058d578063e30c3978146105bd578063e985e9c5146105db578063f2fde38b1461060b576101da565b8063aae0cc73146104f5578063b88d4fde14610511578063c6e26a201461052d578063c87b56dd1461055d576101da565b80637ef1b4b3116100de5780637ef1b4b31461046d5780638da5cb5b1461049d57806395d89b41146104bb578063a22cb465146104d9576101da565b80636c0360eb1461040157806370a082311461041f5780637ea7118c1461044f576101da565b80632f745c591161017c57806348103e651161014b57806348103e651461037b5780634e71e0c8146103975780634f6ccce7146103a15780636352211e146103d1576101da565b80632f745c59146102e357806330652fe01461031357806340c10f191461034357806342842e0e1461035f576101da565b8063095ea7b3116101b8578063095ea7b31461025d57806318160ddd146102795780631cf43d611461029757806323b872dd146102c7576101da565b806301ffc9a7146101df57806306fdde031461020f578063081812fc1461022d575b600080fd5b6101f960048036036101f49190810190613230565b610627565b6040516102069190613e42565b60405180910390f35b61021761068e565b6040516102249190613e5d565b60405180910390f35b61024760048036036102429190810190613282565b610730565b6040516102549190613d97565b60405180910390f35b61027760048036036102729190810190613135565b6107b5565b005b610281610970565b60405161028e919061413f565b60405180910390f35b6102b160048036036102ac9190810190613135565b61097d565b6040516102be919061413f565b60405180910390f35b6102e160048036036102dc919081019061302f565b610a26565b005b6102fd60048036036102f89190810190613135565b610a86565b60405161030a919061413f565b60405180910390f35b61032d60048036036103289190810190612fca565b610b2f565b60405161033a9190613e20565b60405180910390f35b61035d60048036036103589190810190613135565b610bc6565b005b6103796004803603610374919081019061302f565b610c2e565b005b61039560048036036103909190810190612fca565b610c4e565b005b61039f610d26565b005b6103bb60048036036103b69190810190613282565b610ec5565b6040516103c8919061413f565b60405180910390f35b6103eb60048036036103e69190810190613282565b610f2f565b6040516103f89190613d97565b60405180910390f35b610409610fe1565b6040516104169190613e5d565b60405180910390f35b61043960048036036104349190810190612fca565b611083565b604051610446919061413f565b60405180910390f35b610457611142565b6040516104649190613d97565b60405180910390f35b61048760048036036104829190810190613282565b611168565b6040516104949190613dfe565b60405180910390f35b6104a5611408565b6040516104b29190613d97565b60405180910390f35b6104c361142e565b6040516104d09190613e5d565b60405180910390f35b6104f360048036036104ee91908101906130f9565b6114d0565b005b61050f600480360361050a9190810190613171565b611651565b005b61052b6004803603610526919081019061307e565b611777565b005b61054760048036036105429190810190613282565b6117d9565b604051610554919061413f565b60405180910390f35b61057760048036036105729190810190613282565b611843565b6040516105849190613e5d565b60405180910390f35b6105a760048036036105a29190810190613282565b61198b565b6040516105b49190613e5d565b60405180910390f35b6105c5611a88565b6040516105d29190613d97565b60405180910390f35b6105f560048036036105f09190810190612ff3565b611aae565b6040516106029190613e42565b60405180910390f35b61062560048036036106209190810190612fca565b611b42565b005b6000806000837bffffffffffffffffffffffffffffffffffffffffffffffffffffffff19167bffffffffffffffffffffffffffffffffffffffffffffffffffffffff1916815260200190815260200160002060009054906101000a900460ff169050919050565b606060098054600181600116156101000203166002900480601f0160208091040260200160405190810160405280929190818152602001828054600181600116156101000203166002900480156107265780601f106106fb57610100808354040283529160200191610726565b820191906000526020600020905b81548152906001019060200180831161070957829003601f168201915b5050505050905090565b600061073b82611be0565b61077a576040517f08c379a00000000000000000000000000000000000000000000000000000000081526004016107719061405f565b60405180910390fd5b6002600083815260200190815260200160002060009054906101000a900473ffffffffffffffffffffffffffffffffffffffff169050919050565b60006107c082610f2f565b90508073ffffffffffffffffffffffffffffffffffffffff168373ffffffffffffffffffffffffffffffffffffffff161415610831576040517f08c379a0000000000000000000000000000000000000000000000000000000008152600401610828906140bf565b60405180910390fd5b8073ffffffffffffffffffffffffffffffffffffffff16610850611c52565b73ffffffffffffffffffffffffffffffffffffffff16148061087f575061087e81610879611c52565b611aae565b5b6108be576040517f08c379a00000000000000000000000000000000000000000000000000000000081526004016108b590613fdf565b60405180910390fd5b826002600084815260200190815260200160002060006101000a81548173ffffffffffffffffffffffffffffffffffffffff021916908373ffffffffffffffffffffffffffffffffffffffff160217905550818373ffffffffffffffffffffffffffffffffffffffff168273ffffffffffffffffffffffffffffffffffffffff167f8c5be1e5ebec7d5bd14f71427d1e84f3dd0314c0f7b2291e5b200ac8c7c3b92560405160405180910390a4505050565b6000601280549050905090565b600061098883611083565b82106109c9576040517f08c379a00000000000000000000000000000000000000000000000000000000081526004016109c090613f3f565b60405180910390fd5b601060008473ffffffffffffffffffffffffffffffffffffffff1673ffffffffffffffffffffffffffffffffffffffff1681526020019081526020016000208281548110610a1357fe5b9060005260206000200154905092915050565b610a37610a31611c52565b82611c5a565b610a76576040517f08c379a0000000000000000000000000000000000000000000000000000000008152600401610a6d906140df565b60405180910390fd5b610a81838383611d38565b505050565b6000610a9183611083565b8210610ad2576040517f08c379a0000000000000000000000000000000000000000000000000000000008152600401610ac990613ebf565b60405180910390fd5b600560008473ffffffffffffffffffffffffffffffffffffffff1673ffffffffffffffffffffffffffffffffffffffff1681526020019081526020016000208281548110610b1c57fe5b9060005260206000200154905092915050565b6060601060008373ffffffffffffffffffffffffffffffffffffffff1673ffffffffffffffffffffffffffffffffffffffff168152602001908152602001600020805480602002602001604051908101604052809291908181526020018280548015610bba57602002820191906000526020600020905b815481526020019060010190808311610ba6575b50505050509050919050565b600f60009054906101000a900473ffffffffffffffffffffffffffffffffffffffff1673ffffffffffffffffffffffffffffffffffffffff163373ffffffffffffffffffffffffffffffffffffffff1614610c2057600080fd5b610c2a8282611d5c565b5050565b610c4983838360405180602001604052806000815250611777565b505050565b600d60009054906101000a900473ffffffffffffffffffffffffffffffffffffffff1673ffffffffffffffffffffffffffffffffffffffff163373ffffffffffffffffffffffffffffffffffffffff1614610ca857600080fd5b600073ffffffffffffffffffffffffffffffffffffffff168173ffffffffffffffffffffffffffffffffffffffff161415610ce257600080fd5b80600f60006101000a81548173ffffffffffffffffffffffffffffffffffffffff021916908373ffffffffffffffffffffffffffffffffffffffff16021790555050565b600e60009054906101000a900473ffffffffffffffffffffffffffffffffffffffff1673ffffffffffffffffffffffffffffffffffffffff163373ffffffffffffffffffffffffffffffffffffffff1614610d8057600080fd5b600e60009054906101000a900473ffffffffffffffffffffffffffffffffffffffff1673ffffffffffffffffffffffffffffffffffffffff16600d60009054906101000a900473ffffffffffffffffffffffffffffffffffffffff1673ffffffffffffffffffffffffffffffffffffffff167f8be0079c531659141344cd1fd0a4f28419497f9722a3daafe3b4186f6b6457e060405160405180910390a3600e60009054906101000a900473ffffffffffffffffffffffffffffffffffffffff16600d60006101000a81548173ffffffffffffffffffffffffffffffffffffffff021916908373ffffffffffffffffffffffffffffffffffffffff1602179055506000600e60006101000a81548173ffffffffffffffffffffffffffffffffffffffff021916908373ffffffffffffffffffffffffffffffffffffffff160217905550565b6000610ecf610970565b8210610f10576040517f08c379a0000000000000000000000000000000000000000000000000000000008152600401610f07906140ff565b60405180910390fd5b60078281548110610f1d57fe5b90600052602060002001549050919050565b6000806001600084815260200190815260200160002060009054906101000a900473ffffffffffffffffffffffffffffffffffffffff169050600073ffffffffffffffffffffffffffffffffffffffff168173ffffffffffffffffffffffffffffffffffffffff161415610fd8576040517f08c379a0000000000000000000000000000000000000000000000000000000008152600401610fcf9061401f565b60405180910390fd5b80915050919050565b6060600b8054600181600116156101000203166002900480601f0160208091040260200160405190810160405280929190818152602001828054600181600116156101000203166002900480156110795780601f1061104e57610100808354040283529160200191611079565b820191906000526020600020905b81548152906001019060200180831161105c57829003601f168201915b5050505050905090565b60008073ffffffffffffffffffffffffffffffffffffffff168273ffffffffffffffffffffffffffffffffffffffff1614156110f4576040517f08c379a00000000000000000000000000000000000000000000000000000000081526004016110eb90613fff565b60405180910390fd5b61113b600360008473ffffffffffffffffffffffffffffffffffffffff1673ffffffffffffffffffffffffffffffffffffffff168152602001908152602001600020611e17565b9050919050565b600f60009054906101000a900473ffffffffffffffffffffffffffffffffffffffff1681565b606061117382611be0565b6111b2576040517f08c379a00000000000000000000000000000000000000000000000000000000081526004016111a99061411f565b60405180910390fd5b60166000838152602001908152602001600020805480602002602001604051908101604052809291908181526020016000905b828210156113fd5783829060005260206000209060030201604051806060016040529081600082018054600181600116156101000203166002900480601f0160208091040260200160405190810160405280929190818152602001828054600181600116156101000203166002900480156112a15780601f10611276576101008083540402835291602001916112a1565b820191906000526020600020905b81548152906001019060200180831161128457829003601f168201915b50505050508152602001600182018054600181600116156101000203166002900480601f0160208091040260200160405190810160405280929190818152602001828054600181600116156101000203166002900480156113435780601f1061131857610100808354040283529160200191611343565b820191906000526020600020905b81548152906001019060200180831161132657829003601f168201915b50505050508152602001600282018054600181600116156101000203166002900480601f0160208091040260200160405190810160405280929190818152602001828054600181600116156101000203166002900480156113e55780601f106113ba576101008083540402835291602001916113e5565b820191906000526020600020905b8154815290600101906020018083116113c857829003601f168201915b505050505081525050815260200190600101906111e5565b505050509050919050565b600d60009054906101000a900473ffffffffffffffffffffffffffffffffffffffff1681565b6060600a8054600181600116156101000203166002900480601f0160208091040260200160405190810160405280929190818152602001828054600181600116156101000203166002900480156114c65780601f1061149b576101008083540402835291602001916114c6565b820191906000526020600020905b8154815290600101906020018083116114a957829003601f168201915b5050505050905090565b6114d8611c52565b73ffffffffffffffffffffffffffffffffffffffff168273ffffffffffffffffffffffffffffffffffffffff161415611546576040517f08c379a000000000000000000000000000000000000000000000000000000000815260040161153d90613f7f565b60405180910390fd5b8060046000611553611c52565b73ffffffffffffffffffffffffffffffffffffffff1673ffffffffffffffffffffffffffffffffffffffff16815260200190815260200160002060008473ffffffffffffffffffffffffffffffffffffffff1673ffffffffffffffffffffffffffffffffffffffff16815260200190815260200160002060006101000a81548160ff0219169083151502179055508173ffffffffffffffffffffffffffffffffffffffff16611600611c52565b73ffffffffffffffffffffffffffffffffffffffff167f17307eab39ab6107e8899845ad3d59bd9653f200f220920489ca2b5937696c31836040516116459190613e42565b60405180910390a35050565b600f60009054906101000a900473ffffffffffffffffffffffffffffffffffffffff1673ffffffffffffffffffffffffffffffffffffffff163373ffffffffffffffffffffffffffffffffffffffff16146116ab57600080fd5b815183511480156116bd575080518251145b6116fc576040517f08c379a00000000000000000000000000000000000000000000000000000000081526004016116f390613e9f565b60405180910390fd5b6117068585611d5c565b60008090505b83518110156117665761175984828151811061172457fe5b602002602001015184838151811061173857fe5b602002602001015184848151811061174c57fe5b6020026020010151611e25565b808060010191505061170c565b5061177084611f32565b5050505050565b611788611782611c52565b83611c5a565b6117c7576040517f08c379a00000000000000000000000000000000000000000000000000000000081526004016117be906140df565b60405180910390fd5b6117d384848484612051565b50505050565b60006117e3610970565b8210611824576040517f08c379a000000000000000000000000000000000000000000000000000000000815260040161181b90613f9f565b60405180910390fd5b6012828154811061183157fe5b90600052602060002001549050919050565b606061184e82611be0565b61188d576040517f08c379a00000000000000000000000000000000000000000000000000000000081526004016118849061409f565b60405180910390fd5b6060600c60008481526020019081526020016000208054600181600116156101000203166002900480601f0160208091040260200160405190810160405280929190818152602001828054600181600116156101000203166002900480156119365780601f1061190b57610100808354040283529160200191611936565b820191906000526020600020905b81548152906001019060200180831161191957829003601f168201915b5050505050905060008151141561195f5760405180602001604052806000815250915050611986565b600b81604051602001611973929190613d73565b6040516020818303038152906040529150505b919050565b606061199682611be0565b6119d5576040517f08c379a00000000000000000000000000000000000000000000000000000000081526004016119cc90613e7f565b60405180910390fd5b601460008381526020019081526020016000208054600181600116156101000203166002900480601f016020809104026020016040519081016040528092919081815260200182805460018160011615610100020316600290048015611a7c5780601f10611a5157610100808354040283529160200191611a7c565b820191906000526020600020905b815481529060010190602001808311611a5f57829003601f168201915b50505050509050919050565b600e60009054906101000a900473ffffffffffffffffffffffffffffffffffffffff1681565b6000600460008473ffffffffffffffffffffffffffffffffffffffff1673ffffffffffffffffffffffffffffffffffffffff16815260200190815260200160002060008373ffffffffffffffffffffffffffffffffffffffff1673ffffffffffffffffffffffffffffffffffffffff16815260200190815260200160002060009054906101000a900460ff16905092915050565b600d60009054906101000a900473ffffffffffffffffffffffffffffffffffffffff1673ffffffffffffffffffffffffffffffffffffffff163373ffffffffffffffffffffffffffffffffffffffff1614611b9c57600080fd5b80600e60006101000a81548173ffffffffffffffffffffffffffffffffffffffff021916908373ffffffffffffffffffffffffffffffffffffffff16021790555050565b6000806001600084815260200190815260200160002060009054906101000a900473ffffffffffffffffffffffffffffffffffffffff169050600073ffffffffffffffffffffffffffffffffffffffff168173ffffffffffffffffffffffffffffffffffffffff161415915050919050565b600033905090565b6000611c6582611be0565b611ca4576040517f08c379a0000000000000000000000000000000000000000000000000000000008152600401611c9b90613fbf565b60405180910390fd5b6000611caf83610f2f565b90508073ffffffffffffffffffffffffffffffffffffffff168473ffffffffffffffffffffffffffffffffffffffff161480611d1e57508373ffffffffffffffffffffffffffffffffffffffff16611d0684610730565b73ffffffffffffffffffffffffffffffffffffffff16145b80611d2f5750611d2e8185611aae565b5b91505092915050565b611d438383836120ad565b611d4d83826122dc565b611d57828261247a565b505050565b6012819080600181540180825580915050906001820390600052602060002001600090919290919091505550806013600083815260200190815260200160002081905550611daa8282612541565b601060008373ffffffffffffffffffffffffffffffffffffffff1673ffffffffffffffffffffffffffffffffffffffff1681526020019081526020016000208190806001815401808255809150509060018203906000526020600020016000909192909190915055505050565b600081600001549050919050565b600f60009054906101000a900473ffffffffffffffffffffffffffffffffffffffff1673ffffffffffffffffffffffffffffffffffffffff163373ffffffffffffffffffffffffffffffffffffffff1614611e7f57600080fd5b611e87612b41565b6040518060600160405280858152602001848152602001838152509050601581908060018154018082558091505090600182039060005260206000209060030201600090919290919091506000820151816000019080519060200190611eee929190612b62565b506020820151816001019080519060200190611f0b929190612b62565b506040820151816002019080519060200190611f28929190612b62565b5050505050505050565b600f60009054906101000a900473ffffffffffffffffffffffffffffffffffffffff1673ffffffffffffffffffffffffffffffffffffffff163373ffffffffffffffffffffffffffffffffffffffff1614611f8c57600080fd5b3373ffffffffffffffffffffffffffffffffffffffff16600f60009054906101000a900473ffffffffffffffffffffffffffffffffffffffff1673ffffffffffffffffffffffffffffffffffffffff161461201c576040517f08c379a000000000000000000000000000000000000000000000000000000000815260040161201390613f1f565b60405180910390fd5b60156016600083815260200190815260200160002090805461203f929190612be2565b506015600061204e9190612cb2565b50565b61205c848484611d38565b61206884848484612562565b6120a7576040517f08c379a000000000000000000000000000000000000000000000000000000000815260040161209e90613edf565b60405180910390fd5b50505050565b8273ffffffffffffffffffffffffffffffffffffffff166120cd82610f2f565b73ffffffffffffffffffffffffffffffffffffffff1614612123576040517f08c379a000000000000000000000000000000000000000000000000000000000815260040161211a9061407f565b60405180910390fd5b600073ffffffffffffffffffffffffffffffffffffffff168273ffffffffffffffffffffffffffffffffffffffff161415612193576040517f08c379a000000000000000000000000000000000000000000000000000000000815260040161218a90613f5f565b60405180910390fd5b61219c8161275c565b6121e3600360008573ffffffffffffffffffffffffffffffffffffffff1673ffffffffffffffffffffffffffffffffffffffff16815260200190815260200160002061281a565b61222a600360008473ffffffffffffffffffffffffffffffffffffffff1673ffffffffffffffffffffffffffffffffffffffff16815260200190815260200160002061283d565b816001600083815260200190815260200160002060006101000a81548173ffffffffffffffffffffffffffffffffffffffff021916908373ffffffffffffffffffffffffffffffffffffffff160217905550808273ffffffffffffffffffffffffffffffffffffffff168473ffffffffffffffffffffffffffffffffffffffff167fddf252ad1be2c89b69c2b068fc378daa952ba7f163c4a11628f55a4df523b3ef60405160405180910390a4505050565b60006123346001600560008673ffffffffffffffffffffffffffffffffffffffff1673ffffffffffffffffffffffffffffffffffffffff1681526020019081526020016000208054905061285390919063ffffffff16565b9050600060066000848152602001908152602001600020549050818114612421576000600560008673ffffffffffffffffffffffffffffffffffffffff1673ffffffffffffffffffffffffffffffffffffffff16815260200190815260200160002083815481106123a157fe5b9060005260206000200154905080600560008773ffffffffffffffffffffffffffffffffffffffff1673ffffffffffffffffffffffffffffffffffffffff16815260200190815260200160002083815481106123f957fe5b9060005260206000200181905550816006600083815260200190815260200160002081905550505b600560008573ffffffffffffffffffffffffffffffffffffffff1673ffffffffffffffffffffffffffffffffffffffff1681526020019081526020016000208054809190600190036124739190612cd6565b5050505050565b600560008373ffffffffffffffffffffffffffffffffffffffff1673ffffffffffffffffffffffffffffffffffffffff168152602001908152602001600020805490506006600083815260200190815260200160002081905550600560008373ffffffffffffffffffffffffffffffffffffffff1673ffffffffffffffffffffffffffffffffffffffff1681526020019081526020016000208190806001815401808255809150509060018203906000526020600020016000909192909190915055505050565b61254b828261289d565b612555828261247a565b61255e81612a4f565b5050565b60006125838473ffffffffffffffffffffffffffffffffffffffff16612a9b565b6125905760019050612754565b600060608573ffffffffffffffffffffffffffffffffffffffff168673ffffffffffffffffffffffffffffffffffffffff1663150b7a02905060e01b6125d4611c52565b8988886040516024016125ea9493929190613db2565b604051602081830303815290604052907bffffffffffffffffffffffffffffffffffffffffffffffffffffffff19166020820180517bffffffffffffffffffffffffffffffffffffffffffffffffffffffff83818316178352505050506040516126549190613d5c565b6000604051808303816000865af19150503d8060008114612691576040519150601f19603f3d011682016040523d82523d6000602084013e612696565b606091505b5091509150816126ee576000815111156126b35780518082602001fd5b6040517f08c379a00000000000000000000000000000000000000000000000000000000081526004016126e590613edf565b60405180910390fd5b6000818060200190516127049190810190613259565b905063150b7a0260e01b7bffffffffffffffffffffffffffffffffffffffffffffffffffffffff1916817bffffffffffffffffffffffffffffffffffffffffffffffffffffffff19161493505050505b949350505050565b600073ffffffffffffffffffffffffffffffffffffffff166002600083815260200190815260200160002060009054906101000a900473ffffffffffffffffffffffffffffffffffffffff1673ffffffffffffffffffffffffffffffffffffffff16146128175760006002600083815260200190815260200160002060006101000a81548173ffffffffffffffffffffffffffffffffffffffff021916908373ffffffffffffffffffffffffffffffffffffffff1602179055505b50565b6128326001826000015461285390919063ffffffff16565b816000018190555050565b6001816000016000828254019250508190555050565b600061289583836040518060400160405280601e81526020017f536166654d6174683a207375627472616374696f6e206f766572666c6f770000815250612ae6565b905092915050565b600073ffffffffffffffffffffffffffffffffffffffff168273ffffffffffffffffffffffffffffffffffffffff16141561290d576040517f08c379a00000000000000000000000000000000000000000000000000000000081526004016129049061403f565b60405180910390fd5b61291681611be0565b15612956576040517f08c379a000000000000000000000000000000000000000000000000000000000815260040161294d90613eff565b60405180910390fd5b816001600083815260200190815260200160002060006101000a81548173ffffffffffffffffffffffffffffffffffffffff021916908373ffffffffffffffffffffffffffffffffffffffff1602179055506129ef600360008473ffffffffffffffffffffffffffffffffffffffff1673ffffffffffffffffffffffffffffffffffffffff16815260200190815260200160002061283d565b808273ffffffffffffffffffffffffffffffffffffffff16600073ffffffffffffffffffffffffffffffffffffffff167fddf252ad1be2c89b69c2b068fc378daa952ba7f163c4a11628f55a4df523b3ef60405160405180910390a45050565b6007805490506008600083815260200190815260200160002081905550600781908060018154018082558091505090600182039060005260206000200160009091929091909150555050565b60008060007fc5d2460186f7233c927e7db2dcc703c0e500b653ca82273b7bfad8045d85a47060001b9050833f9150808214158015612add57506000801b8214155b92505050919050565b6000838311158290612b2e576040517f08c379a0000000000000000000000000000000000000000000000000000000008152600401612b259190613e5d565b60405180910390fd5b5060008385039050809150509392505050565b60405180606001604052806060815260200160608152602001606081525090565b828054600181600116156101000203166002900490600052602060002090601f016020900481019282601f10612ba357805160ff1916838001178555612bd1565b82800160010185558215612bd1579182015b82811115612bd0578251825591602001919060010190612bb5565b5b509050612bde9190612d02565b5090565b828054828255906000526020600020906003028101928215612ca15760005260206000209160030282015b82811115612ca057828260008201816000019080546001816001161561010002031660029004612c3e929190612d27565b5060018201816001019080546001816001161561010002031660029004612c66929190612d27565b5060028201816002019080546001816001161561010002031660029004612c8e929190612d27565b50505091600301919060030190612c0d565b5b509050612cae9190612dae565b5090565b5080546000825560030290600052602060002090810190612cd39190612dae565b50565b815481835581811115612cfd57818360005260206000209182019101612cfc9190612d02565b5b505050565b612d2491905b80821115612d20576000816000905550600101612d08565b5090565b90565b828054600181600116156101000203166002900490600052602060002090601f016020900481019282601f10612d605780548555612d9d565b82800160010185558215612d9d57600052602060002091601f016020900482015b82811115612d9c578254825591600101919060010190612d81565b5b509050612daa9190612d02565b5090565b612dfa91905b80821115612df65760008082016000612dcd9190612dfd565b600182016000612ddd9190612dfd565b600282016000612ded9190612dfd565b50600301612db4565b5090565b90565b50805460018160011615610100020316600290046000825580601f10612e235750612e42565b601f016020900490600052602060002090810190612e419190612d02565b5b50565b600081359050612e54816143d1565b92915050565b600082601f830112612e6b57600080fd5b8135612e7e612e7982614187565b61415a565b9150818183526020840193506020810190508360005b83811015612ec45781358601612eaa8882612f61565b845260208401935060208301925050600181019050612e94565b5050505092915050565b600081359050612edd816143e8565b92915050565b600081359050612ef2816143ff565b92915050565b600081519050612f07816143ff565b92915050565b600082601f830112612f1e57600080fd5b8135612f31612f2c826141af565b61415a565b91508082526020830160208301858383011115612f4d57600080fd5b612f5883828461437e565b50505092915050565b600082601f830112612f7257600080fd5b8135612f85612f80826141db565b61415a565b91508082526020830160208301858383011115612fa157600080fd5b612fac83828461437e565b50505092915050565b600081359050612fc481614416565b92915050565b600060208284031215612fdc57600080fd5b6000612fea84828501612e45565b91505092915050565b6000806040838503121561300657600080fd5b600061301485828601612e45565b925050602061302585828601612e45565b9150509250929050565b60008060006060848603121561304457600080fd5b600061305286828701612e45565b935050602061306386828701612e45565b925050604061307486828701612fb5565b9150509250925092565b6000806000806080858703121561309457600080fd5b60006130a287828801612e45565b94505060206130b387828801612e45565b93505060406130c487828801612fb5565b925050606085013567ffffffffffffffff8111156130e157600080fd5b6130ed87828801612f0d565b91505092959194509250565b6000806040838503121561310c57600080fd5b600061311a85828601612e45565b925050602061312b85828601612ece565b9150509250929050565b6000806040838503121561314857600080fd5b600061315685828601612e45565b925050602061316785828601612fb5565b9150509250929050565b600080600080600060a0868803121561318957600080fd5b600061319788828901612e45565b95505060206131a888828901612fb5565b945050604086013567ffffffffffffffff8111156131c557600080fd5b6131d188828901612e5a565b935050606086013567ffffffffffffffff8111156131ee57600080fd5b6131fa88828901612e5a565b925050608086013567ffffffffffffffff81111561321757600080fd5b61322388828901612e5a565b9150509295509295909350565b60006020828403121561324257600080fd5b600061325084828501612ee3565b91505092915050565b60006020828403121561326b57600080fd5b600061327984828501612ef8565b91505092915050565b60006020828403121561329457600080fd5b60006132a284828501612fb5565b91505092915050565b60006132b78383613ce0565b905092915050565b60006132cb8383613d3e565b60208301905092915050565b6132e08161430a565b82525050565b6132ef816142f8565b82525050565b60006133008261423c565b61330a818561428d565b93508360208202850161331c85614207565b8060005b85811015613358578484038952815161333985826132ab565b945061334483614273565b925060208a01995050600181019050613320565b50829750879550505050505092915050565b600061337582614247565b61337f818561429e565b935061338a83614217565b8060005b838110156133bb5781516133a288826132bf565b97506133ad83614280565b92505060018101905061338e565b5085935050505092915050565b6133d18161431c565b82525050565b60006133e282614252565b6133ec81856142af565b93506133fc81856020860161438d565b613405816143c0565b840191505092915050565b600061341b82614252565b61342581856142c0565b935061343581856020860161438d565b80840191505092915050565b600061344c82614268565b61345681856142dc565b935061346681856020860161438d565b61346f816143c0565b840191505092915050565b600061348582614268565b61348f81856142ed565b935061349f81856020860161438d565b80840191505092915050565b60006134b68261425d565b6134c081856142cb565b93506134d081856020860161438d565b6134d9816143c0565b840191505092915050565b60008154600181166000811461350157600181146135265761356a565b607f600283041661351281876142ed565b955060ff198316865280860193505061356a565b6002820461353481876142ed565b955061353f85614227565b60005b8281101561356157815481890152600182019150602081019050613542565b82880195505050505b505092915050565b600061357f6010836142dc565b91507f707265736372697074696f6e73555249000000000000000000000000000000006000830152602082019050919050565b60006135bf601e836142dc565b91507f616c6c20617272617973206d7573742062652073616d65206c656e67746800006000830152602082019050919050565b60006135ff602b836142dc565b91507f455243373231456e756d657261626c653a206f776e657220696e646578206f7560008301527f74206f6620626f756e64730000000000000000000000000000000000000000006020830152604082019050919050565b60006136656032836142dc565b91507f4552433732313a207472616e7366657220746f206e6f6e20455243373231526560008301527f63656976657220696d706c656d656e74657200000000000000000000000000006020830152604082019050919050565b60006136cb601c836142dc565b91507f4552433732313a20746f6b656e20616c7265616479206d696e746564000000006000830152602082019050919050565b600061370b6013836142dc565b91507f616464707265736372697074696f6e44617461000000000000000000000000006000830152602082019050919050565b600061374b6013836142dc565b91507f746f6b656e4f664f776e65724279496e646578000000000000000000000000006000830152602082019050919050565b600061378b6024836142dc565b91507f4552433732313a207472616e7366657220746f20746865207a65726f2061646460008301527f72657373000000000000000000000000000000000000000000000000000000006020830152604082019050919050565b60006137f16019836142dc565b91507f4552433732313a20617070726f766520746f2063616c6c6572000000000000006000830152602082019050919050565b60006138316013836142dc565b91507f707265736372697074696f6e4279496e646578000000000000000000000000006000830152602082019050919050565b6000613871602c836142dc565b91507f4552433732313a206f70657261746f7220717565727920666f72206e6f6e657860008301527f697374656e7420746f6b656e00000000000000000000000000000000000000006020830152604082019050919050565b60006138d76038836142dc565b91507f4552433732313a20617070726f76652063616c6c6572206973206e6f74206f7760008301527f6e6572206e6f7220617070726f76656420666f7220616c6c00000000000000006020830152604082019050919050565b600061393d602a836142dc565b91507f4552433732313a2062616c616e636520717565727920666f7220746865207a6560008301527f726f2061646472657373000000000000000000000000000000000000000000006020830152604082019050919050565b60006139a36029836142dc565b91507f4552433732313a206f776e657220717565727920666f72206e6f6e657869737460008301527f656e7420746f6b656e00000000000000000000000000000000000000000000006020830152604082019050919050565b6000613a096020836142dc565b91507f4552433732313a206d696e7420746f20746865207a65726f20616464726573736000830152602082019050919050565b6000613a49602c836142dc565b91507f4552433732313a20617070726f76656420717565727920666f72206e6f6e657860008301527f697374656e7420746f6b656e00000000000000000000000000000000000000006020830152604082019050919050565b6000613aaf6029836142dc565b91507f4552433732313a207472616e73666572206f6620746f6b656e2074686174206960008301527f73206e6f74206f776e00000000000000000000000000000000000000000000006020830152604082019050919050565b6000613b15602f836142dc565b91507f4552433732314d657461646174613a2055524920717565727920666f72206e6f60008301527f6e6578697374656e7420746f6b656e00000000000000000000000000000000006020830152604082019050919050565b6000613b7b6021836142dc565b91507f4552433732313a20617070726f76616c20746f2063757272656e74206f776e6560008301527f72000000000000000000000000000000000000000000000000000000000000006020830152604082019050919050565b6000613be16031836142dc565b91507f4552433732313a207472616e736665722063616c6c6572206973206e6f74206f60008301527f776e6572206e6f7220617070726f7665640000000000000000000000000000006020830152604082019050919050565b6000613c47602c836142dc565b91507f455243373231456e756d657261626c653a20676c6f62616c20696e646578206f60008301527f7574206f6620626f756e647300000000000000000000000000000000000000006020830152604082019050919050565b6000613cad6013836142dc565b91507f676574707265736372697074696f6e44617461000000000000000000000000006000830152602082019050919050565b60006060830160008301518482036000860152613cfd82826134ab565b91505060208301518482036020860152613d1782826134ab565b91505060408301518482036040860152613d3182826134ab565b9150508091505092915050565b613d4781614374565b82525050565b613d5681614374565b82525050565b6000613d688284613410565b915081905092915050565b6000613d7f82856134e4565b9150613d8b828461347a565b91508190509392505050565b6000602082019050613dac60008301846132e6565b92915050565b6000608082019050613dc760008301876132d7565b613dd460208301866132e6565b613de16040830185613d4d565b8181036060830152613df381846133d7565b905095945050505050565b60006020820190508181036000830152613e1881846132f5565b905092915050565b60006020820190508181036000830152613e3a818461336a565b905092915050565b6000602082019050613e5760008301846133c8565b92915050565b60006020820190508181036000830152613e778184613441565b905092915050565b60006020820190508181036000830152613e9881613572565b9050919050565b60006020820190508181036000830152613eb8816135b2565b9050919050565b60006020820190508181036000830152613ed8816135f2565b9050919050565b60006020820190508181036000830152613ef881613658565b9050919050565b60006020820190508181036000830152613f18816136be565b9050919050565b60006020820190508181036000830152613f38816136fe565b9050919050565b60006020820190508181036000830152613f588161373e565b9050919050565b60006020820190508181036000830152613f788161377e565b9050919050565b60006020820190508181036000830152613f98816137e4565b9050919050565b60006020820190508181036000830152613fb881613824565b9050919050565b60006020820190508181036000830152613fd881613864565b9050919050565b60006020820190508181036000830152613ff8816138ca565b9050919050565b6000602082019050818103600083015261401881613930565b9050919050565b6000602082019050818103600083015261403881613996565b9050919050565b60006020820190508181036000830152614058816139fc565b9050919050565b6000602082019050818103600083015261407881613a3c565b9050919050565b6000602082019050818103600083015261409881613aa2565b9050919050565b600060208201905081810360008301526140b881613b08565b9050919050565b600060208201905081810360008301526140d881613b6e565b9050919050565b600060208201905081810360008301526140f881613bd4565b9050919050565b6000602082019050818103600083015261411881613c3a565b9050919050565b6000602082019050818103600083015261413881613ca0565b9050919050565b60006020820190506141546000830184613d4d565b92915050565b6000604051905081810181811067ffffffffffffffff8211171561417d57600080fd5b8060405250919050565b600067ffffffffffffffff82111561419e57600080fd5b602082029050602081019050919050565b600067ffffffffffffffff8211156141c657600080fd5b601f19601f8301169050602081019050919050565b600067ffffffffffffffff8211156141f257600080fd5b601f19601f8301169050602081019050919050565b6000819050602082019050919050565b6000819050602082019050919050565b60008190508160005260206000209050919050565b600081519050919050565b600081519050919050565b600081519050919050565b600081519050919050565b600081519050919050565b6000602082019050919050565b6000602082019050919050565b600082825260208201905092915050565b600082825260208201905092915050565b600082825260208201905092915050565b600081905092915050565b600082825260208201905092915050565b600082825260208201905092915050565b600081905092915050565b600061430382614354565b9050919050565b600061431582614354565b9050919050565b60008115159050919050565b60007fffffffff0000000000000000000000000000000000000000000000000000000082169050919050565b600073ffffffffffffffffffffffffffffffffffffffff82169050919050565b6000819050919050565b82818337600083830152505050565b60005b838110156143ab578082015181840152602081019050614390565b838111156143ba576000848401525b50505050565b6000601f19601f8301169050919050565b6143da816142f8565b81146143e557600080fd5b50565b6143f18161431c565b81146143fc57600080fd5b50565b61440881614328565b811461441357600080fd5b50565b61441f81614374565b811461442a57600080fd5b5056fea365627a7a7231582059bf1593a7d25127b9da09c78faa55e9c61e0733923409bb1dfb7b8a7ebe9a2b6c6578706572696d656e74616cf564736f6c634300050c0040",
  "source": "// File: contracts\\PresChain.sol\r\n\r\npragma solidity ^0.5.12;\r\n\r\npragma experimental ABIEncoderV2;\r\n\r\nimport \"./ERC721Full.sol\";\r\nimport \"./Ownable.sol\";\r\n\r\ncontract CryptoPres is  ERC721Full(\"CryptoPres\",\"PRES\"), Ownable {\r\n\r\n\r\n\r\n\r\n\r\n    // Token name \"CryptoPres\";\r\n\r\n\r\n    // Token symbol \"PRES\";\r\n\r\n\r\n    // Mapping from owner to list of owned token IDs\r\n\r\n    mapping(address => uint256[]) internal ownedPrescriptions;\r\n\r\n\r\n    // Mapping from token ID to index of the owner tokens list\r\n\r\n    mapping(uint256 => uint256) internal ownedPrescriptionsIndex;\r\n\r\n\r\n    // Array with all token ids, used for enumeration\r\n\r\n    uint256[] internal allPrescriptions;\r\n\r\n\r\n    // Mapping from token id to position in the allPrescriptions array\r\n\r\n    mapping(uint256 => uint256) internal allPrescriptionsIndex;\r\n\r\n\r\n    // Optional mapping for token URIs\r\n\r\n    mapping(uint256 => string) internal PrescriptionURIs;\r\n\r\n\r\n    struct Data{\r\n\r\n        string drugName;\r\n\r\n        string drugCode;\r\n\r\n        string dosage;\r\n\r\n    }\r\n\r\n    Data[] dataArray;\r\n\r\n\r\n\r\n    mapping(uint256 => Data[]) internal prescriptionData;\r\n\r\n\r\n\r\n\r\n    function mint(address _to, uint256 _id) external onlyDoctor {\r\n\r\n        _mint(_to, _id);\r\n\r\n    }\r\n\r\n\r\n    function arrayOfPrescriptionsByAddress(address _holder) public view returns(uint256[] memory) {\r\n\r\n        return ownedPrescriptions[_holder];\r\n\r\n    }\r\n\r\n\r\n    /**\r\n\r\n     * @dev Returns an URI for a given token ID\r\n\r\n     * @dev Throws if the token ID does not exist. May return an empty string.\r\n\r\n     * @param _presId uint256 ID of the token to query\r\n\r\n     */\r\n\r\n    function prescriptionsURI(uint256 _presId) public view returns (string memory) {\r\n\r\n        require(_exists(_presId),\"prescriptionsURI\");\r\n\r\n        return PrescriptionURIs[_presId];\r\n\r\n    }\r\n\r\n\r\n    /**\r\n\r\n     * @dev Gets the token ID at a given index of the tokens list of the requested owner\r\n\r\n     * @param _owner address owning the tokens list to be accessed\r\n\r\n     * @param _index uint256 representing the index to be accessed of the requested tokens list\r\n\r\n     * @return uint256 token ID at the given index of the tokens list owned by the requested address\r\n\r\n     */\r\n\r\n    function prescriptionOfOwnerByIndex(address _owner, uint256 _index) public view returns (uint256) {\r\n\r\n        require(_index < balanceOf(_owner), \"tokenOfOwnerByIndex\");\r\n\r\n        return ownedPrescriptions[_owner][_index];\r\n\r\n    }\r\n\r\n\r\n    /**\r\n\r\n     * @dev Gets the total amount of tokens stored by the contract\r\n\r\n     * @return uint256 representing the total amount of tokens\r\n\r\n     */\r\n\r\n    function totalSupply() public view returns (uint256) {\r\n\r\n        return allPrescriptions.length;\r\n\r\n    }\r\n\r\n\r\n    /**\r\n\r\n     * @dev Gets the token ID at a given index of all the tokens in this contract\r\n\r\n     * @dev Reverts if the index is greater or equal to the total number of tokens\r\n\r\n     * @param _index uint256 representing the index to be accessed of the tokens list\r\n\r\n     * @return uint256 token ID at the given index of the tokens list\r\n\r\n     */\r\n\r\n    function prescriptionByIndex(uint256 _index) public view returns (uint256) {\r\n\r\n        require(_index < totalSupply(),\"prescriptionByIndex\");\r\n\r\n        return allPrescriptions[_index];\r\n\r\n    }\r\n\r\n\r\n    /**\r\n\r\n     * @dev Internal function to set the token URI for a given token\r\n\r\n     * @dev Reverts if the token ID does not exist\r\n\r\n     * @param _presId uint256 ID of the token to set its URI\r\n\r\n     * @param _uri string URI to assign\r\n\r\n     */\r\n\r\n    function _setprescriptionsURI(uint256 _presId, string memory _uri) internal {\r\n\r\n        require(_exists(_presId),\"_setprescriptionsURI\");\r\n\r\n        PrescriptionURIs[_presId] = _uri;\r\n\r\n    }\r\n\r\n\r\n\r\n\r\n    /**\r\n\r\n     * @dev Internal function to add a token ID to the list of a given address\r\n\r\n     * @param _to address representing the new owner of the given token ID\r\n\r\n     * @param _presId uint256 ID of the token to be added to the tokens list of the given address\r\n\r\n     */\r\n\r\n    function addPrescriptionTo(address _to, uint256 _presId) internal {\r\n\r\n        super._mint(_to, _presId);\r\n\r\n        uint256 length = ownedPrescriptions[_to].length;\r\n\r\n        ownedPrescriptions[_to].push(_presId);\r\n\r\n        ownedPrescriptionsIndex[_presId] = length;\r\n\r\n    }\r\n\r\n\r\n    /**\r\n\r\n     * @dev Internal function to mint a new token\r\n\r\n     * @dev Reverts if the given token ID already exists\r\n\r\n     * @param _to address the beneficiary that will own the minted token\r\n\r\n     */\r\n\r\n    function _mint(address _to, uint256 _id) internal {\r\n\r\n        allPrescriptions.push(_id);\r\n\r\n        allPrescriptionsIndex[_id] = _id;\r\n\r\n        super._mint(_to, _id);\r\n\r\n        ownedPrescriptions[_to].push(_id);\r\n\r\n    }\r\n    function addprescriptionDatatoArrayBatch(address _to, uint256 _presId, string[] memory _drugName, string[] memory _drugCode, string[] memory _dosage) public onlyDoctor{\r\n        require(_drugName.length == _drugCode.length && _drugCode.length == _dosage.length, \"all arrays must be same length\");\r\n        _mint(_to, _presId);\r\n       for (uint i=0; i<_drugName.length; i++) {\r\n           addprescriptionDatatoArray(_drugName[i], _drugCode[i], _dosage[i]);\r\n        }\r\n        addprescriptionData(_presId);\r\n    }\r\n\r\n    function addprescriptionDatatoArray(string memory _drugName, string memory _drugCode, string memory _dosage) internal onlyDoctor{\r\n        Data memory d = Data(_drugName,_drugCode,_dosage);\r\n        dataArray.push(d);\r\n    }\r\n\r\n\r\n    function addprescriptionData(uint _presId) internal onlyDoctor{\r\n\r\n            require(doctor == msg.sender,\"addprescriptionData\");\r\n\r\n            prescriptionData[_presId] = dataArray;\r\n            delete dataArray;\r\n\r\n    }\r\n\r\n    function getprescriptionData(uint _presId) public view returns(Data[] memory _array){\r\n        require(_exists(_presId),\"getprescriptionData\");\r\n        _array = prescriptionData[_presId];\r\n    }\r\n\r\n}\r\n",
  "sourcePath": "C:/Users/Shane/Documents/truffleProjects/Currenty Working Directory/PresChain/contracts/PresChain.sol",
  "compiler": {
    "name": "solc",
    "version": "0.5.12+commit.7709ece9.Emscripten.clang"
  },
  "schemaVersion": "3.0.16",
  "updatedAt": "2020-05-01T20:08:07.067Z",
  "devdoc": {
    "methods": {
      "approve(address,uint256)": {
        "details": "Approves another address to transfer the given token ID The zero address indicates there is no approved address. There can only be one approved address per token at a given time. Can only be called by the token owner or an approved operator.",
        "params": {
          "to": "address to be approved for the given token ID",
          "tokenId": "uint256 ID of the token to be approved"
        }
      },
      "balanceOf(address)": {
        "details": "Gets the balance of the specified address.",
        "params": {
          "owner": "address to query the balance of"
        },
        "return": "uint256 representing the amount owned by the passed address"
      },
      "baseURI()": {
        "details": "Returns the base URI set via {_setBaseURI}. This will be automatically added as a preffix in {tokenURI} to each token's URI, when they are non-empty.     * _Available since v2.5.0._"
      },
      "claimOwnership()": {
        "details": "Allows the pendingOwner address to finalize the transfer."
      },
      "getApproved(uint256)": {
        "details": "Gets the approved address for a token ID, or zero if no address set Reverts if the token ID does not exist.",
        "params": {
          "tokenId": "uint256 ID of the token to query the approval of"
        },
        "return": "address currently approved for the given token ID"
      },
      "isApprovedForAll(address,address)": {
        "details": "Tells whether an operator is approved by a given owner.",
        "params": {
          "operator": "operator address which you want to query the approval of",
          "owner": "owner address which you want to query the approval of"
        },
        "return": "bool whether the given operator is approved by the given owner"
      },
      "name()": {
        "details": "Gets the token name.",
        "return": "string representing the token name"
      },
      "ownerOf(uint256)": {
        "details": "Gets the owner of the specified token ID.",
        "params": {
          "tokenId": "uint256 ID of the token to query the owner of"
        },
        "return": "address currently marked as the owner of the given token ID"
      },
      "prescriptionByIndex(uint256)": {
        "details": "Gets the token ID at a given index of all the tokens in this contractReverts if the index is greater or equal to the total number of tokens",
        "params": {
          "_index": "uint256 representing the index to be accessed of the tokens list"
        },
        "return": "uint256 token ID at the given index of the tokens list"
      },
      "prescriptionOfOwnerByIndex(address,uint256)": {
        "details": "Gets the token ID at a given index of the tokens list of the requested owner",
        "params": {
          "_index": "uint256 representing the index to be accessed of the requested tokens list",
          "_owner": "address owning the tokens list to be accessed"
        },
        "return": "uint256 token ID at the given index of the tokens list owned by the requested address"
      },
      "prescriptionsURI(uint256)": {
        "details": "Returns an URI for a given token IDThrows if the token ID does not exist. May return an empty string.",
        "params": {
          "_presId": "uint256 ID of the token to query"
        }
      },
      "safeTransferFrom(address,address,uint256)": {
        "details": "Safely transfers the ownership of a given token ID to another address If the target address is a contract, it must implement {IERC721Receiver-onERC721Received}, which is called upon a safe transfer, and return the magic value `bytes4(keccak256(\"onERC721Received(address,address,uint256,bytes)\"))`; otherwise, the transfer is reverted. Requires the msg.sender to be the owner, approved, or operator",
        "params": {
          "from": "current owner of the token",
          "to": "address to receive the ownership of the given token ID",
          "tokenId": "uint256 ID of the token to be transferred"
        }
      },
      "safeTransferFrom(address,address,uint256,bytes)": {
        "details": "Safely transfers the ownership of a given token ID to another address If the target address is a contract, it must implement {IERC721Receiver-onERC721Received}, which is called upon a safe transfer, and return the magic value `bytes4(keccak256(\"onERC721Received(address,address,uint256,bytes)\"))`; otherwise, the transfer is reverted. Requires the _msgSender() to be the owner, approved, or operator",
        "params": {
          "_data": "bytes data to send along with a safe transfer check",
          "from": "current owner of the token",
          "to": "address to receive the ownership of the given token ID",
          "tokenId": "uint256 ID of the token to be transferred"
        }
      },
      "setApprovalForAll(address,bool)": {
        "details": "Sets or unsets the approval of a given operator An operator is allowed to transfer all tokens of the sender on their behalf.",
        "params": {
          "approved": "representing the status of the approval to be set",
          "to": "operator address to set the approval"
        }
      },
      "setDoctor(address)": {
        "details": "Sets the doctor address.",
        "params": {
          "_doctor": "The doctor address."
        }
      },
      "supportsInterface(bytes4)": {
        "details": "See {IERC165-supportsInterface}.      * Time complexity O(1), guaranteed to always use less than 30 000 gas."
      },
      "symbol()": {
        "details": "Gets the token symbol.",
        "return": "string representing the token symbol"
      },
      "tokenByIndex(uint256)": {
        "details": "Gets the token ID at a given index of all the tokens in this contract Reverts if the index is greater or equal to the total number of tokens.",
        "params": {
          "index": "uint256 representing the index to be accessed of the tokens list"
        },
        "return": "uint256 token ID at the given index of the tokens list"
      },
      "tokenOfOwnerByIndex(address,uint256)": {
        "details": "Gets the token ID at a given index of the tokens list of the requested owner.",
        "params": {
          "index": "uint256 representing the index to be accessed of the requested tokens list",
          "owner": "address owning the tokens list to be accessed"
        },
        "return": "uint256 token ID at the given index of the tokens list owned by the requested address"
      },
      "tokenURI(uint256)": {
        "details": "Returns the URI for a given token ID. May return an empty string.      * If the token's URI is non-empty and a base URI was set (via {_setBaseURI}), it will be added to the token ID's URI as a prefix.      * Reverts if the token ID does not exist."
      },
      "totalSupply()": {
        "details": "Gets the total amount of tokens stored by the contract",
        "return": "uint256 representing the total amount of tokens"
      },
      "transferFrom(address,address,uint256)": {
        "details": "Transfers the ownership of a given token ID to another address. Usage of this method is discouraged, use {safeTransferFrom} whenever possible. Requires the msg.sender to be the owner, approved, or operator.",
        "params": {
          "from": "current owner of the token",
          "to": "address to receive the ownership of the given token ID",
          "tokenId": "uint256 ID of the token to be transferred"
        }
      },
      "transferOwnership(address)": {
        "details": "Allows the current owner to set the pendingOwner address.",
        "params": {
          "newOwner": "The address to transfer ownership to."
        }
      }
    }
  },
  "userdoc": {
    "methods": {}
  }
}