{
  "contractName": "CryptoPres",
  "abi": [
    {
      "anonymous": false,
      "inputs": [
        {
          "indexed": true,
          "internalType": "address",
          "name": "owner",
          "type": "address"
        },
        {
          "indexed": true,
          "internalType": "address",
          "name": "approved",
          "type": "address"
        },
        {
          "indexed": true,
          "internalType": "uint256",
          "name": "tokenId",
          "type": "uint256"
        }
      ],
      "name": "Approval",
      "type": "event"
    },
    {
      "anonymous": false,
      "inputs": [
        {
          "indexed": true,
          "internalType": "address",
          "name": "owner",
          "type": "address"
        },
        {
          "indexed": true,
          "internalType": "address",
          "name": "operator",
          "type": "address"
        },
        {
          "indexed": false,
          "internalType": "bool",
          "name": "approved",
          "type": "bool"
        }
      ],
      "name": "ApprovalForAll",
      "type": "event"
    },
    {
      "anonymous": false,
      "inputs": [
        {
          "indexed": true,
          "internalType": "address",
          "name": "previousOwner",
          "type": "address"
        },
        {
          "indexed": true,
          "internalType": "address",
          "name": "newOwner",
          "type": "address"
        }
      ],
      "name": "OwnershipTransferred",
      "type": "event"
    },
    {
      "anonymous": false,
      "inputs": [
        {
          "indexed": true,
          "internalType": "address",
          "name": "from",
          "type": "address"
        },
        {
          "indexed": true,
          "internalType": "address",
          "name": "to",
          "type": "address"
        },
        {
          "indexed": true,
          "internalType": "uint256",
          "name": "tokenId",
          "type": "uint256"
        }
      ],
      "name": "Transfer",
      "type": "event"
    },
    {
      "constant": false,
      "inputs": [
        {
          "internalType": "address",
          "name": "to",
          "type": "address"
        },
        {
          "internalType": "uint256",
          "name": "tokenId",
          "type": "uint256"
        }
      ],
      "name": "approve",
      "outputs": [],
      "payable": false,
      "stateMutability": "nonpayable",
      "type": "function"
    },
    {
      "constant": true,
      "inputs": [
        {
          "internalType": "address",
          "name": "owner",
          "type": "address"
        }
      ],
      "name": "balanceOf",
      "outputs": [
        {
          "internalType": "uint256",
          "name": "",
          "type": "uint256"
        }
      ],
      "payable": false,
      "stateMutability": "view",
      "type": "function"
    },
    {
      "constant": true,
      "inputs": [],
      "name": "baseURI",
      "outputs": [
        {
          "internalType": "string",
          "name": "",
          "type": "string"
        }
      ],
      "payable": false,
      "stateMutability": "view",
      "type": "function"
    },
    {
      "constant": false,
      "inputs": [],
      "name": "claimOwnership",
      "outputs": [],
      "payable": false,
      "stateMutability": "nonpayable",
      "type": "function"
    },
    {
      "constant": true,
      "inputs": [],
      "name": "doctor",
      "outputs": [
        {
          "internalType": "address",
          "name": "",
          "type": "address"
        }
      ],
      "payable": false,
      "stateMutability": "view",
      "type": "function"
    },
    {
      "constant": true,
      "inputs": [
        {
          "internalType": "uint256",
          "name": "tokenId",
          "type": "uint256"
        }
      ],
      "name": "getApproved",
      "outputs": [
        {
          "internalType": "address",
          "name": "",
          "type": "address"
        }
      ],
      "payable": false,
      "stateMutability": "view",
      "type": "function"
    },
    {
      "constant": true,
      "inputs": [
        {
          "internalType": "address",
          "name": "owner",
          "type": "address"
        },
        {
          "internalType": "address",
          "name": "operator",
          "type": "address"
        }
      ],
      "name": "isApprovedForAll",
      "outputs": [
        {
          "internalType": "bool",
          "name": "",
          "type": "bool"
        }
      ],
      "payable": false,
      "stateMutability": "view",
      "type": "function"
    },
    {
      "constant": true,
      "inputs": [],
      "name": "name",
      "outputs": [
        {
          "internalType": "string",
          "name": "",
          "type": "string"
        }
      ],
      "payable": false,
      "stateMutability": "view",
      "type": "function"
    },
    {
      "constant": true,
      "inputs": [],
      "name": "owner",
      "outputs": [
        {
          "internalType": "address",
          "name": "",
          "type": "address"
        }
      ],
      "payable": false,
      "stateMutability": "view",
      "type": "function"
    },
    {
      "constant": true,
      "inputs": [
        {
          "internalType": "uint256",
          "name": "tokenId",
          "type": "uint256"
        }
      ],
      "name": "ownerOf",
      "outputs": [
        {
          "internalType": "address",
          "name": "",
          "type": "address"
        }
      ],
      "payable": false,
      "stateMutability": "view",
      "type": "function"
    },
    {
      "constant": true,
      "inputs": [],
      "name": "pendingOwner",
      "outputs": [
        {
          "internalType": "address",
          "name": "",
          "type": "address"
        }
      ],
      "payable": false,
      "stateMutability": "view",
      "type": "function"
    },
    {
      "constant": false,
      "inputs": [
        {
          "internalType": "address",
          "name": "from",
          "type": "address"
        },
        {
          "internalType": "address",
          "name": "to",
          "type": "address"
        },
        {
          "internalType": "uint256",
          "name": "tokenId",
          "type": "uint256"
        }
      ],
      "name": "safeTransferFrom",
      "outputs": [],
      "payable": false,
      "stateMutability": "nonpayable",
      "type": "function"
    },
    {
      "constant": false,
      "inputs": [
        {
          "internalType": "address",
          "name": "from",
          "type": "address"
        },
        {
          "internalType": "address",
          "name": "to",
          "type": "address"
        },
        {
          "internalType": "uint256",
          "name": "tokenId",
          "type": "uint256"
        },
        {
          "internalType": "bytes",
          "name": "_data",
          "type": "bytes"
        }
      ],
      "name": "safeTransferFrom",
      "outputs": [],
      "payable": false,
      "stateMutability": "nonpayable",
      "type": "function"
    },
    {
      "constant": false,
      "inputs": [
        {
          "internalType": "address",
          "name": "to",
          "type": "address"
        },
        {
          "internalType": "bool",
          "name": "approved",
          "type": "bool"
        }
      ],
      "name": "setApprovalForAll",
      "outputs": [],
      "payable": false,
      "stateMutability": "nonpayable",
      "type": "function"
    },
    {
      "constant": false,
      "inputs": [
        {
          "internalType": "address",
          "name": "_doctor",
          "type": "address"
        }
      ],
      "name": "setDoctor",
      "outputs": [],
      "payable": false,
      "stateMutability": "nonpayable",
      "type": "function"
    },
    {
      "constant": true,
      "inputs": [
        {
          "internalType": "bytes4",
          "name": "interfaceId",
          "type": "bytes4"
        }
      ],
      "name": "supportsInterface",
      "outputs": [
        {
          "internalType": "bool",
          "name": "",
          "type": "bool"
        }
      ],
      "payable": false,
      "stateMutability": "view",
      "type": "function"
    },
    {
      "constant": true,
      "inputs": [],
      "name": "symbol",
      "outputs": [
        {
          "internalType": "string",
          "name": "",
          "type": "string"
        }
      ],
      "payable": false,
      "stateMutability": "view",
      "type": "function"
    },
    {
      "constant": true,
      "inputs": [
        {
          "internalType": "uint256",
          "name": "index",
          "type": "uint256"
        }
      ],
      "name": "tokenByIndex",
      "outputs": [
        {
          "internalType": "uint256",
          "name": "",
          "type": "uint256"
        }
      ],
      "payable": false,
      "stateMutability": "view",
      "type": "function"
    },
    {
      "constant": true,
      "inputs": [
        {
          "internalType": "address",
          "name": "owner",
          "type": "address"
        },
        {
          "internalType": "uint256",
          "name": "index",
          "type": "uint256"
        }
      ],
      "name": "tokenOfOwnerByIndex",
      "outputs": [
        {
          "internalType": "uint256",
          "name": "",
          "type": "uint256"
        }
      ],
      "payable": false,
      "stateMutability": "view",
      "type": "function"
    },
    {
      "constant": true,
      "inputs": [
        {
          "internalType": "uint256",
          "name": "tokenId",
          "type": "uint256"
        }
      ],
      "name": "tokenURI",
      "outputs": [
        {
          "internalType": "string",
          "name": "",
          "type": "string"
        }
      ],
      "payable": false,
      "stateMutability": "view",
      "type": "function"
    },
    {
      "constant": false,
      "inputs": [
        {
          "internalType": "address",
          "name": "from",
          "type": "address"
        },
        {
          "internalType": "address",
          "name": "to",
          "type": "address"
        },
        {
          "internalType": "uint256",
          "name": "tokenId",
          "type": "uint256"
        }
      ],
      "name": "transferFrom",
      "outputs": [],
      "payable": false,
      "stateMutability": "nonpayable",
      "type": "function"
    },
    {
      "constant": false,
      "inputs": [
        {
          "internalType": "address",
          "name": "newOwner",
          "type": "address"
        }
      ],
      "name": "transferOwnership",
      "outputs": [],
      "payable": false,
      "stateMutability": "nonpayable",
      "type": "function"
    },
    {
      "constant": false,
      "inputs": [
        {
          "internalType": "address",
          "name": "_to",
          "type": "address"
        },
        {
          "internalType": "uint256",
          "name": "_id",
          "type": "uint256"
        }
      ],
      "name": "mint",
      "outputs": [],
      "payable": false,
      "stateMutability": "nonpayable",
      "type": "function"
    },
    {
      "constant": true,
      "inputs": [
        {
          "internalType": "address",
          "name": "_holder",
          "type": "address"
        }
      ],
      "name": "arrayOfPrescriptionsByAddress",
      "outputs": [
        {
          "internalType": "uint256[]",
          "name": "",
          "type": "uint256[]"
        }
      ],
      "payable": false,
      "stateMutability": "view",
      "type": "function"
    },
    {
      "constant": true,
      "inputs": [
        {
          "internalType": "uint256",
          "name": "_presId",
          "type": "uint256"
        }
      ],
      "name": "prescriptionsURI",
      "outputs": [
        {
          "internalType": "string",
          "name": "",
          "type": "string"
        }
      ],
      "payable": false,
      "stateMutability": "view",
      "type": "function"
    },
    {
      "constant": true,
      "inputs": [
        {
          "internalType": "address",
          "name": "_owner",
          "type": "address"
        },
        {
          "internalType": "uint256",
          "name": "_index",
          "type": "uint256"
        }
      ],
      "name": "prescriptionOfOwnerByIndex",
      "outputs": [
        {
          "internalType": "uint256",
          "name": "",
          "type": "uint256"
        }
      ],
      "payable": false,
      "stateMutability": "view",
      "type": "function"
    },
    {
      "constant": true,
      "inputs": [],
      "name": "totalSupply",
      "outputs": [
        {
          "internalType": "uint256",
          "name": "",
          "type": "uint256"
        }
      ],
      "payable": false,
      "stateMutability": "view",
      "type": "function"
    },
    {
      "constant": true,
      "inputs": [
        {
          "internalType": "uint256",
          "name": "_index",
          "type": "uint256"
        }
      ],
      "name": "prescriptionByIndex",
      "outputs": [
        {
          "internalType": "uint256",
          "name": "",
          "type": "uint256"
        }
      ],
      "payable": false,
      "stateMutability": "view",
      "type": "function"
    },
    {
      "constant": false,
      "inputs": [
        {
          "internalType": "uint256",
          "name": "_presId",
          "type": "uint256"
        },
        {
          "internalType": "string[]",
          "name": "_drugName",
          "type": "string[]"
        },
        {
          "internalType": "string[]",
          "name": "_drugCode",
          "type": "string[]"
        },
        {
          "internalType": "string[]",
          "name": "_dosage",
          "type": "string[]"
        }
      ],
      "name": "addprescriptionDatatoArrayBatch",
      "outputs": [],
      "payable": false,
      "stateMutability": "nonpayable",
      "type": "function"
    },
    {
      "constant": true,
      "inputs": [
        {
          "internalType": "uint256",
          "name": "_presId",
          "type": "uint256"
        }
      ],
      "name": "getprescriptionData",
      "outputs": [
        {
          "components": [
            {
              "internalType": "string",
              "name": "drugName",
              "type": "string"
            },
            {
              "internalType": "string",
              "name": "drugCode",
              "type": "string"
            },
            {
              "internalType": "string",
              "name": "dosage",
              "type": "string"
            }
          ],
          "internalType": "struct CryptoPres.Data[]",
          "name": "_array",
          "type": "tuple[]"
        }
      ],
      "payable": false,
      "stateMutability": "view",
      "type": "function"
    }
  ],
  "bytecode": "0x60806040526040518060400160405280600a81526020017f43727970746f50726573000000000000000000000000000000000000000000008152506040518060400160405280600481526020017f505245530000000000000000000000000000000000000000000000000000000081525081816200008a6301ffc9a760e01b6200014f60201b60201c565b620000a26380ac58cd60e01b6200014f60201b60201c565b620000ba63780e9d6360e01b6200014f60201b60201c565b8160099080519060200190620000d292919062000227565b5080600a9080519060200190620000eb92919062000227565b5062000104635b5e139f60e01b6200014f60201b60201c565b5050505033600d60006101000a81548173ffffffffffffffffffffffffffffffffffffffff021916908373ffffffffffffffffffffffffffffffffffffffff1602179055506200034b565b63ffffffff60e01b817bffffffffffffffffffffffffffffffffffffffffffffffffffffffff19161415620001bb576040517f08c379a0000000000000000000000000000000000000000000000000000000008152600401620001b29062000318565b60405180910390fd5b6001600080837bffffffffffffffffffffffffffffffffffffffffffffffffffffffff19167bffffffffffffffffffffffffffffffffffffffffffffffffffffffff1916815260200190815260200160002060006101000a81548160ff02191690831515021790555050565b828054600181600116156101000203166002900490600052602060002090601f016020900481019282601f106200026a57805160ff19168380011785556200029b565b828001600101855582156200029b579182015b828111156200029a5782518255916020019190600101906200027d565b5b509050620002aa9190620002ae565b5090565b620002d391905b80821115620002cf576000816000905550600101620002b5565b5090565b90565b6000620002e5601c836200033a565b91507f4552433136353a20696e76616c696420696e74657266616365206964000000006000830152602082019050919050565b600060208201905081810360008301526200033381620002d6565b9050919050565b600082825260208201905092915050565b614451806200035b6000396000f3fe608060405234801561001057600080fd5b50600436106101da5760003560e01c80636352211e11610104578063a22cb465116100a2578063d60999c211610071578063d60999c21461058d578063e30c3978146105bd578063e985e9c5146105db578063f2fde38b1461060b576101da565b8063a22cb465146104f5578063b88d4fde14610511578063c6e26a201461052d578063c87b56dd1461055d576101da565b80637ea7118c116100de5780637ea7118c1461046b5780637ef1b4b3146104895780638da5cb5b146104b957806395d89b41146104d7576101da565b80636352211e146103ed5780636c0360eb1461041d57806370a082311461043b576101da565b806323b872dd1161017c57806342842e0e1161014b57806342842e0e1461037b57806348103e65146103975780634e71e0c8146103b35780634f6ccce7146103bd576101da565b806323b872dd146102e35780632f745c59146102ff57806330652fe01461032f57806340c10f191461035f576101da565b8063095ea7b3116101b8578063095ea7b31461025d5780630f3db2d71461027957806318160ddd146102955780631cf43d61146102b3576101da565b806301ffc9a7146101df57806306fdde031461020f578063081812fc1461022d575b600080fd5b6101f960048036036101f49190810190613166565b610627565b6040516102069190613e23565b60405180910390f35b61021761068e565b6040516102249190613e3e565b60405180910390f35b610247600480360361024291908101906131b8565b610730565b6040516102549190613d78565b60405180910390f35b6102776004803603610272919081019061312a565b6107b5565b005b610293600480360361028e91908101906131e1565b610970565b005b61029d610a8b565b6040516102aa9190614120565b60405180910390f35b6102cd60048036036102c8919081019061312a565b610a98565b6040516102da9190614120565b60405180910390f35b6102fd60048036036102f89190810190613024565b610b41565b005b6103196004803603610314919081019061312a565b610ba1565b6040516103269190614120565b60405180910390f35b61034960048036036103449190810190612fbf565b610c4a565b6040516103569190613e01565b60405180910390f35b6103796004803603610374919081019061312a565b610ce1565b005b61039560048036036103909190810190613024565b610d49565b005b6103b160048036036103ac9190810190612fbf565b610d69565b005b6103bb610e41565b005b6103d760048036036103d291908101906131b8565b610fe0565b6040516103e49190614120565b60405180910390f35b610407600480360361040291908101906131b8565b61104a565b6040516104149190613d78565b60405180910390f35b6104256110fc565b6040516104329190613e3e565b60405180910390f35b61045560048036036104509190810190612fbf565b61119e565b6040516104629190614120565b60405180910390f35b61047361125d565b6040516104809190613d78565b60405180910390f35b6104a3600480360361049e91908101906131b8565b611283565b6040516104b09190613ddf565b60405180910390f35b6104c1611523565b6040516104ce9190613d78565b60405180910390f35b6104df611549565b6040516104ec9190613e3e565b60405180910390f35b61050f600480360361050a91908101906130ee565b6115eb565b005b61052b60048036036105269190810190613073565b61176c565b005b610547600480360361054291908101906131b8565b6117ce565b6040516105549190614120565b60405180910390f35b610577600480360361057291908101906131b8565b611838565b6040516105849190613e3e565b60405180910390f35b6105a760048036036105a291908101906131b8565b611980565b6040516105b49190613e3e565b60405180910390f35b6105c5611a7d565b6040516105d29190613d78565b60405180910390f35b6105f560048036036105f09190810190612fe8565b611aa3565b6040516106029190613e23565b60405180910390f35b61062560048036036106209190810190612fbf565b611b37565b005b6000806000837bffffffffffffffffffffffffffffffffffffffffffffffffffffffff19167bffffffffffffffffffffffffffffffffffffffffffffffffffffffff1916815260200190815260200160002060009054906101000a900460ff169050919050565b606060098054600181600116156101000203166002900480601f0160208091040260200160405190810160405280929190818152602001828054600181600116156101000203166002900480156107265780601f106106fb57610100808354040283529160200191610726565b820191906000526020600020905b81548152906001019060200180831161070957829003601f168201915b5050505050905090565b600061073b82611bd5565b61077a576040517f08c379a000000000000000000000000000000000000000000000000000000000815260040161077190614040565b60405180910390fd5b6002600083815260200190815260200160002060009054906101000a900473ffffffffffffffffffffffffffffffffffffffff169050919050565b60006107c08261104a565b90508073ffffffffffffffffffffffffffffffffffffffff168373ffffffffffffffffffffffffffffffffffffffff161415610831576040517f08c379a0000000000000000000000000000000000000000000000000000000008152600401610828906140a0565b60405180910390fd5b8073ffffffffffffffffffffffffffffffffffffffff16610850611c47565b73ffffffffffffffffffffffffffffffffffffffff16148061087f575061087e81610879611c47565b611aa3565b5b6108be576040517f08c379a00000000000000000000000000000000000000000000000000000000081526004016108b590613fc0565b60405180910390fd5b826002600084815260200190815260200160002060006101000a81548173ffffffffffffffffffffffffffffffffffffffff021916908373ffffffffffffffffffffffffffffffffffffffff160217905550818373ffffffffffffffffffffffffffffffffffffffff168273ffffffffffffffffffffffffffffffffffffffff167f8c5be1e5ebec7d5bd14f71427d1e84f3dd0314c0f7b2291e5b200ac8c7c3b92560405160405180910390a4505050565b600f60009054906101000a900473ffffffffffffffffffffffffffffffffffffffff1673ffffffffffffffffffffffffffffffffffffffff163373ffffffffffffffffffffffffffffffffffffffff16146109ca57600080fd5b815183511480156109dc575080518251145b610a1b576040517f08c379a0000000000000000000000000000000000000000000000000000000008152600401610a1290613e80565b60405180910390fd5b60008090505b8351811015610a7b57610a6e848281518110610a3957fe5b6020026020010151848381518110610a4d57fe5b6020026020010151848481518110610a6157fe5b6020026020010151611c4f565b8080600101915050610a21565b50610a8584611d5c565b50505050565b6000601280549050905090565b6000610aa38361119e565b8210610ae4576040517f08c379a0000000000000000000000000000000000000000000000000000000008152600401610adb90613f20565b60405180910390fd5b601060008473ffffffffffffffffffffffffffffffffffffffff1673ffffffffffffffffffffffffffffffffffffffff1681526020019081526020016000208281548110610b2e57fe5b9060005260206000200154905092915050565b610b52610b4c611c47565b82611e7b565b610b91576040517f08c379a0000000000000000000000000000000000000000000000000000000008152600401610b88906140c0565b60405180910390fd5b610b9c838383611f59565b505050565b6000610bac8361119e565b8210610bed576040517f08c379a0000000000000000000000000000000000000000000000000000000008152600401610be490613ea0565b60405180910390fd5b600560008473ffffffffffffffffffffffffffffffffffffffff1673ffffffffffffffffffffffffffffffffffffffff1681526020019081526020016000208281548110610c3757fe5b9060005260206000200154905092915050565b6060601060008373ffffffffffffffffffffffffffffffffffffffff1673ffffffffffffffffffffffffffffffffffffffff168152602001908152602001600020805480602002602001604051908101604052809291908181526020018280548015610cd557602002820191906000526020600020905b815481526020019060010190808311610cc1575b50505050509050919050565b600f60009054906101000a900473ffffffffffffffffffffffffffffffffffffffff1673ffffffffffffffffffffffffffffffffffffffff163373ffffffffffffffffffffffffffffffffffffffff1614610d3b57600080fd5b610d458282611f7d565b5050565b610d648383836040518060200160405280600081525061176c565b505050565b600d60009054906101000a900473ffffffffffffffffffffffffffffffffffffffff1673ffffffffffffffffffffffffffffffffffffffff163373ffffffffffffffffffffffffffffffffffffffff1614610dc357600080fd5b600073ffffffffffffffffffffffffffffffffffffffff168173ffffffffffffffffffffffffffffffffffffffff161415610dfd57600080fd5b80600f60006101000a81548173ffffffffffffffffffffffffffffffffffffffff021916908373ffffffffffffffffffffffffffffffffffffffff16021790555050565b600e60009054906101000a900473ffffffffffffffffffffffffffffffffffffffff1673ffffffffffffffffffffffffffffffffffffffff163373ffffffffffffffffffffffffffffffffffffffff1614610e9b57600080fd5b600e60009054906101000a900473ffffffffffffffffffffffffffffffffffffffff1673ffffffffffffffffffffffffffffffffffffffff16600d60009054906101000a900473ffffffffffffffffffffffffffffffffffffffff1673ffffffffffffffffffffffffffffffffffffffff167f8be0079c531659141344cd1fd0a4f28419497f9722a3daafe3b4186f6b6457e060405160405180910390a3600e60009054906101000a900473ffffffffffffffffffffffffffffffffffffffff16600d60006101000a81548173ffffffffffffffffffffffffffffffffffffffff021916908373ffffffffffffffffffffffffffffffffffffffff1602179055506000600e60006101000a81548173ffffffffffffffffffffffffffffffffffffffff021916908373ffffffffffffffffffffffffffffffffffffffff160217905550565b6000610fea610a8b565b821061102b576040517f08c379a0000000000000000000000000000000000000000000000000000000008152600401611022906140e0565b60405180910390fd5b6007828154811061103857fe5b90600052602060002001549050919050565b6000806001600084815260200190815260200160002060009054906101000a900473ffffffffffffffffffffffffffffffffffffffff169050600073ffffffffffffffffffffffffffffffffffffffff168173ffffffffffffffffffffffffffffffffffffffff1614156110f3576040517f08c379a00000000000000000000000000000000000000000000000000000000081526004016110ea90614000565b60405180910390fd5b80915050919050565b6060600b8054600181600116156101000203166002900480601f0160208091040260200160405190810160405280929190818152602001828054600181600116156101000203166002900480156111945780601f1061116957610100808354040283529160200191611194565b820191906000526020600020905b81548152906001019060200180831161117757829003601f168201915b5050505050905090565b60008073ffffffffffffffffffffffffffffffffffffffff168273ffffffffffffffffffffffffffffffffffffffff16141561120f576040517f08c379a000000000000000000000000000000000000000000000000000000000815260040161120690613fe0565b60405180910390fd5b611256600360008473ffffffffffffffffffffffffffffffffffffffff1673ffffffffffffffffffffffffffffffffffffffff168152602001908152602001600020612038565b9050919050565b600f60009054906101000a900473ffffffffffffffffffffffffffffffffffffffff1681565b606061128e82611bd5565b6112cd576040517f08c379a00000000000000000000000000000000000000000000000000000000081526004016112c490614100565b60405180910390fd5b60166000838152602001908152602001600020805480602002602001604051908101604052809291908181526020016000905b828210156115185783829060005260206000209060030201604051806060016040529081600082018054600181600116156101000203166002900480601f0160208091040260200160405190810160405280929190818152602001828054600181600116156101000203166002900480156113bc5780601f10611391576101008083540402835291602001916113bc565b820191906000526020600020905b81548152906001019060200180831161139f57829003601f168201915b50505050508152602001600182018054600181600116156101000203166002900480601f01602080910402602001604051908101604052809291908181526020018280546001816001161561010002031660029004801561145e5780601f106114335761010080835404028352916020019161145e565b820191906000526020600020905b81548152906001019060200180831161144157829003601f168201915b50505050508152602001600282018054600181600116156101000203166002900480601f0160208091040260200160405190810160405280929190818152602001828054600181600116156101000203166002900480156115005780601f106114d557610100808354040283529160200191611500565b820191906000526020600020905b8154815290600101906020018083116114e357829003601f168201915b50505050508152505081526020019060010190611300565b505050509050919050565b600d60009054906101000a900473ffffffffffffffffffffffffffffffffffffffff1681565b6060600a8054600181600116156101000203166002900480601f0160208091040260200160405190810160405280929190818152602001828054600181600116156101000203166002900480156115e15780601f106115b6576101008083540402835291602001916115e1565b820191906000526020600020905b8154815290600101906020018083116115c457829003601f168201915b5050505050905090565b6115f3611c47565b73ffffffffffffffffffffffffffffffffffffffff168273ffffffffffffffffffffffffffffffffffffffff161415611661576040517f08c379a000000000000000000000000000000000000000000000000000000000815260040161165890613f60565b60405180910390fd5b806004600061166e611c47565b73ffffffffffffffffffffffffffffffffffffffff1673ffffffffffffffffffffffffffffffffffffffff16815260200190815260200160002060008473ffffffffffffffffffffffffffffffffffffffff1673ffffffffffffffffffffffffffffffffffffffff16815260200190815260200160002060006101000a81548160ff0219169083151502179055508173ffffffffffffffffffffffffffffffffffffffff1661171b611c47565b73ffffffffffffffffffffffffffffffffffffffff167f17307eab39ab6107e8899845ad3d59bd9653f200f220920489ca2b5937696c31836040516117609190613e23565b60405180910390a35050565b61177d611777611c47565b83611e7b565b6117bc576040517f08c379a00000000000000000000000000000000000000000000000000000000081526004016117b3906140c0565b60405180910390fd5b6117c884848484612046565b50505050565b60006117d8610a8b565b8210611819576040517f08c379a000000000000000000000000000000000000000000000000000000000815260040161181090613f80565b60405180910390fd5b6012828154811061182657fe5b90600052602060002001549050919050565b606061184382611bd5565b611882576040517f08c379a000000000000000000000000000000000000000000000000000000000815260040161187990614080565b60405180910390fd5b6060600c60008481526020019081526020016000208054600181600116156101000203166002900480601f01602080910402602001604051908101604052809291908181526020018280546001816001161561010002031660029004801561192b5780601f106119005761010080835404028352916020019161192b565b820191906000526020600020905b81548152906001019060200180831161190e57829003601f168201915b50505050509050600081511415611954576040518060200160405280600081525091505061197b565b600b81604051602001611968929190613d54565b6040516020818303038152906040529150505b919050565b606061198b82611bd5565b6119ca576040517f08c379a00000000000000000000000000000000000000000000000000000000081526004016119c190613e60565b60405180910390fd5b601460008381526020019081526020016000208054600181600116156101000203166002900480601f016020809104026020016040519081016040528092919081815260200182805460018160011615610100020316600290048015611a715780601f10611a4657610100808354040283529160200191611a71565b820191906000526020600020905b815481529060010190602001808311611a5457829003601f168201915b50505050509050919050565b600e60009054906101000a900473ffffffffffffffffffffffffffffffffffffffff1681565b6000600460008473ffffffffffffffffffffffffffffffffffffffff1673ffffffffffffffffffffffffffffffffffffffff16815260200190815260200160002060008373ffffffffffffffffffffffffffffffffffffffff1673ffffffffffffffffffffffffffffffffffffffff16815260200190815260200160002060009054906101000a900460ff16905092915050565b600d60009054906101000a900473ffffffffffffffffffffffffffffffffffffffff1673ffffffffffffffffffffffffffffffffffffffff163373ffffffffffffffffffffffffffffffffffffffff1614611b9157600080fd5b80600e60006101000a81548173ffffffffffffffffffffffffffffffffffffffff021916908373ffffffffffffffffffffffffffffffffffffffff16021790555050565b6000806001600084815260200190815260200160002060009054906101000a900473ffffffffffffffffffffffffffffffffffffffff169050600073ffffffffffffffffffffffffffffffffffffffff168173ffffffffffffffffffffffffffffffffffffffff161415915050919050565b600033905090565b600f60009054906101000a900473ffffffffffffffffffffffffffffffffffffffff1673ffffffffffffffffffffffffffffffffffffffff163373ffffffffffffffffffffffffffffffffffffffff1614611ca957600080fd5b611cb1612b36565b6040518060600160405280858152602001848152602001838152509050601581908060018154018082558091505090600182039060005260206000209060030201600090919290919091506000820151816000019080519060200190611d18929190612b57565b506020820151816001019080519060200190611d35929190612b57565b506040820151816002019080519060200190611d52929190612b57565b5050505050505050565b600f60009054906101000a900473ffffffffffffffffffffffffffffffffffffffff1673ffffffffffffffffffffffffffffffffffffffff163373ffffffffffffffffffffffffffffffffffffffff1614611db657600080fd5b3373ffffffffffffffffffffffffffffffffffffffff16600f60009054906101000a900473ffffffffffffffffffffffffffffffffffffffff1673ffffffffffffffffffffffffffffffffffffffff1614611e46576040517f08c379a0000000000000000000000000000000000000000000000000000000008152600401611e3d90613f00565b60405180910390fd5b601560166000838152602001908152602001600020908054611e69929190612bd7565b5060156000611e789190612ca7565b50565b6000611e8682611bd5565b611ec5576040517f08c379a0000000000000000000000000000000000000000000000000000000008152600401611ebc90613fa0565b60405180910390fd5b6000611ed08361104a565b90508073ffffffffffffffffffffffffffffffffffffffff168473ffffffffffffffffffffffffffffffffffffffff161480611f3f57508373ffffffffffffffffffffffffffffffffffffffff16611f2784610730565b73ffffffffffffffffffffffffffffffffffffffff16145b80611f505750611f4f8185611aa3565b5b91505092915050565b611f648383836120a2565b611f6e83826122d1565b611f78828261246f565b505050565b6012819080600181540180825580915050906001820390600052602060002001600090919290919091505550806013600083815260200190815260200160002081905550611fcb8282612536565b601060008373ffffffffffffffffffffffffffffffffffffffff1673ffffffffffffffffffffffffffffffffffffffff1681526020019081526020016000208190806001815401808255809150509060018203906000526020600020016000909192909190915055505050565b600081600001549050919050565b612051848484611f59565b61205d84848484612557565b61209c576040517f08c379a000000000000000000000000000000000000000000000000000000000815260040161209390613ec0565b60405180910390fd5b50505050565b8273ffffffffffffffffffffffffffffffffffffffff166120c28261104a565b73ffffffffffffffffffffffffffffffffffffffff1614612118576040517f08c379a000000000000000000000000000000000000000000000000000000000815260040161210f90614060565b60405180910390fd5b600073ffffffffffffffffffffffffffffffffffffffff168273ffffffffffffffffffffffffffffffffffffffff161415612188576040517f08c379a000000000000000000000000000000000000000000000000000000000815260040161217f90613f40565b60405180910390fd5b61219181612751565b6121d8600360008573ffffffffffffffffffffffffffffffffffffffff1673ffffffffffffffffffffffffffffffffffffffff16815260200190815260200160002061280f565b61221f600360008473ffffffffffffffffffffffffffffffffffffffff1673ffffffffffffffffffffffffffffffffffffffff168152602001908152602001600020612832565b816001600083815260200190815260200160002060006101000a81548173ffffffffffffffffffffffffffffffffffffffff021916908373ffffffffffffffffffffffffffffffffffffffff160217905550808273ffffffffffffffffffffffffffffffffffffffff168473ffffffffffffffffffffffffffffffffffffffff167fddf252ad1be2c89b69c2b068fc378daa952ba7f163c4a11628f55a4df523b3ef60405160405180910390a4505050565b60006123296001600560008673ffffffffffffffffffffffffffffffffffffffff1673ffffffffffffffffffffffffffffffffffffffff1681526020019081526020016000208054905061284890919063ffffffff16565b9050600060066000848152602001908152602001600020549050818114612416576000600560008673ffffffffffffffffffffffffffffffffffffffff1673ffffffffffffffffffffffffffffffffffffffff168152602001908152602001600020838154811061239657fe5b9060005260206000200154905080600560008773ffffffffffffffffffffffffffffffffffffffff1673ffffffffffffffffffffffffffffffffffffffff16815260200190815260200160002083815481106123ee57fe5b9060005260206000200181905550816006600083815260200190815260200160002081905550505b600560008573ffffffffffffffffffffffffffffffffffffffff1673ffffffffffffffffffffffffffffffffffffffff1681526020019081526020016000208054809190600190036124689190612ccb565b5050505050565b600560008373ffffffffffffffffffffffffffffffffffffffff1673ffffffffffffffffffffffffffffffffffffffff168152602001908152602001600020805490506006600083815260200190815260200160002081905550600560008373ffffffffffffffffffffffffffffffffffffffff1673ffffffffffffffffffffffffffffffffffffffff1681526020019081526020016000208190806001815401808255809150509060018203906000526020600020016000909192909190915055505050565b6125408282612892565b61254a828261246f565b61255381612a44565b5050565b60006125788473ffffffffffffffffffffffffffffffffffffffff16612a90565b6125855760019050612749565b600060608573ffffffffffffffffffffffffffffffffffffffff168673ffffffffffffffffffffffffffffffffffffffff1663150b7a02905060e01b6125c9611c47565b8988886040516024016125df9493929190613d93565b604051602081830303815290604052907bffffffffffffffffffffffffffffffffffffffffffffffffffffffff19166020820180517bffffffffffffffffffffffffffffffffffffffffffffffffffffffff83818316178352505050506040516126499190613d3d565b6000604051808303816000865af19150503d8060008114612686576040519150601f19603f3d011682016040523d82523d6000602084013e61268b565b606091505b5091509150816126e3576000815111156126a85780518082602001fd5b6040517f08c379a00000000000000000000000000000000000000000000000000000000081526004016126da90613ec0565b60405180910390fd5b6000818060200190516126f9919081019061318f565b905063150b7a0260e01b7bffffffffffffffffffffffffffffffffffffffffffffffffffffffff1916817bffffffffffffffffffffffffffffffffffffffffffffffffffffffff19161493505050505b949350505050565b600073ffffffffffffffffffffffffffffffffffffffff166002600083815260200190815260200160002060009054906101000a900473ffffffffffffffffffffffffffffffffffffffff1673ffffffffffffffffffffffffffffffffffffffff161461280c5760006002600083815260200190815260200160002060006101000a81548173ffffffffffffffffffffffffffffffffffffffff021916908373ffffffffffffffffffffffffffffffffffffffff1602179055505b50565b6128276001826000015461284890919063ffffffff16565b816000018190555050565b6001816000016000828254019250508190555050565b600061288a83836040518060400160405280601e81526020017f536166654d6174683a207375627472616374696f6e206f766572666c6f770000815250612adb565b905092915050565b600073ffffffffffffffffffffffffffffffffffffffff168273ffffffffffffffffffffffffffffffffffffffff161415612902576040517f08c379a00000000000000000000000000000000000000000000000000000000081526004016128f990614020565b60405180910390fd5b61290b81611bd5565b1561294b576040517f08c379a000000000000000000000000000000000000000000000000000000000815260040161294290613ee0565b60405180910390fd5b816001600083815260200190815260200160002060006101000a81548173ffffffffffffffffffffffffffffffffffffffff021916908373ffffffffffffffffffffffffffffffffffffffff1602179055506129e4600360008473ffffffffffffffffffffffffffffffffffffffff1673ffffffffffffffffffffffffffffffffffffffff168152602001908152602001600020612832565b808273ffffffffffffffffffffffffffffffffffffffff16600073ffffffffffffffffffffffffffffffffffffffff167fddf252ad1be2c89b69c2b068fc378daa952ba7f163c4a11628f55a4df523b3ef60405160405180910390a45050565b6007805490506008600083815260200190815260200160002081905550600781908060018154018082558091505090600182039060005260206000200160009091929091909150555050565b60008060007fc5d2460186f7233c927e7db2dcc703c0e500b653ca82273b7bfad8045d85a47060001b9050833f9150808214158015612ad257506000801b8214155b92505050919050565b6000838311158290612b23576040517f08c379a0000000000000000000000000000000000000000000000000000000008152600401612b1a9190613e3e565b60405180910390fd5b5060008385039050809150509392505050565b60405180606001604052806060815260200160608152602001606081525090565b828054600181600116156101000203166002900490600052602060002090601f016020900481019282601f10612b9857805160ff1916838001178555612bc6565b82800160010185558215612bc6579182015b82811115612bc5578251825591602001919060010190612baa565b5b509050612bd39190612cf7565b5090565b828054828255906000526020600020906003028101928215612c965760005260206000209160030282015b82811115612c9557828260008201816000019080546001816001161561010002031660029004612c33929190612d1c565b5060018201816001019080546001816001161561010002031660029004612c5b929190612d1c565b5060028201816002019080546001816001161561010002031660029004612c83929190612d1c565b50505091600301919060030190612c02565b5b509050612ca39190612da3565b5090565b5080546000825560030290600052602060002090810190612cc89190612da3565b50565b815481835581811115612cf257818360005260206000209182019101612cf19190612cf7565b5b505050565b612d1991905b80821115612d15576000816000905550600101612cfd565b5090565b90565b828054600181600116156101000203166002900490600052602060002090601f016020900481019282601f10612d555780548555612d92565b82800160010185558215612d9257600052602060002091601f016020900482015b82811115612d91578254825591600101919060010190612d76565b5b509050612d9f9190612cf7565b5090565b612def91905b80821115612deb5760008082016000612dc29190612df2565b600182016000612dd29190612df2565b600282016000612de29190612df2565b50600301612da9565b5090565b90565b50805460018160011615610100020316600290046000825580601f10612e185750612e37565b601f016020900490600052602060002090810190612e369190612cf7565b5b50565b600081359050612e49816143b2565b92915050565b600082601f830112612e6057600080fd5b8135612e73612e6e82614168565b61413b565b9150818183526020840193506020810190508360005b83811015612eb95781358601612e9f8882612f56565b845260208401935060208301925050600181019050612e89565b5050505092915050565b600081359050612ed2816143c9565b92915050565b600081359050612ee7816143e0565b92915050565b600081519050612efc816143e0565b92915050565b600082601f830112612f1357600080fd5b8135612f26612f2182614190565b61413b565b91508082526020830160208301858383011115612f4257600080fd5b612f4d83828461435f565b50505092915050565b600082601f830112612f6757600080fd5b8135612f7a612f75826141bc565b61413b565b91508082526020830160208301858383011115612f9657600080fd5b612fa183828461435f565b50505092915050565b600081359050612fb9816143f7565b92915050565b600060208284031215612fd157600080fd5b6000612fdf84828501612e3a565b91505092915050565b60008060408385031215612ffb57600080fd5b600061300985828601612e3a565b925050602061301a85828601612e3a565b9150509250929050565b60008060006060848603121561303957600080fd5b600061304786828701612e3a565b935050602061305886828701612e3a565b925050604061306986828701612faa565b9150509250925092565b6000806000806080858703121561308957600080fd5b600061309787828801612e3a565b94505060206130a887828801612e3a565b93505060406130b987828801612faa565b925050606085013567ffffffffffffffff8111156130d657600080fd5b6130e287828801612f02565b91505092959194509250565b6000806040838503121561310157600080fd5b600061310f85828601612e3a565b925050602061312085828601612ec3565b9150509250929050565b6000806040838503121561313d57600080fd5b600061314b85828601612e3a565b925050602061315c85828601612faa565b9150509250929050565b60006020828403121561317857600080fd5b600061318684828501612ed8565b91505092915050565b6000602082840312156131a157600080fd5b60006131af84828501612eed565b91505092915050565b6000602082840312156131ca57600080fd5b60006131d884828501612faa565b91505092915050565b600080600080608085870312156131f757600080fd5b600061320587828801612faa565b945050602085013567ffffffffffffffff81111561322257600080fd5b61322e87828801612e4f565b935050604085013567ffffffffffffffff81111561324b57600080fd5b61325787828801612e4f565b925050606085013567ffffffffffffffff81111561327457600080fd5b61328087828801612e4f565b91505092959194509250565b60006132988383613cc1565b905092915050565b60006132ac8383613d1f565b60208301905092915050565b6132c1816142eb565b82525050565b6132d0816142d9565b82525050565b60006132e18261421d565b6132eb818561426e565b9350836020820285016132fd856141e8565b8060005b85811015613339578484038952815161331a858261328c565b945061332583614254565b925060208a01995050600181019050613301565b50829750879550505050505092915050565b600061335682614228565b613360818561427f565b935061336b836141f8565b8060005b8381101561339c57815161338388826132a0565b975061338e83614261565b92505060018101905061336f565b5085935050505092915050565b6133b2816142fd565b82525050565b60006133c382614233565b6133cd8185614290565b93506133dd81856020860161436e565b6133e6816143a1565b840191505092915050565b60006133fc82614233565b61340681856142a1565b935061341681856020860161436e565b80840191505092915050565b600061342d82614249565b61343781856142bd565b935061344781856020860161436e565b613450816143a1565b840191505092915050565b600061346682614249565b61347081856142ce565b935061348081856020860161436e565b80840191505092915050565b60006134978261423e565b6134a181856142ac565b93506134b181856020860161436e565b6134ba816143a1565b840191505092915050565b6000815460018116600081146134e257600181146135075761354b565b607f60028304166134f381876142ce565b955060ff198316865280860193505061354b565b6002820461351581876142ce565b955061352085614208565b60005b8281101561354257815481890152600182019150602081019050613523565b82880195505050505b505092915050565b60006135606010836142bd565b91507f707265736372697074696f6e73555249000000000000000000000000000000006000830152602082019050919050565b60006135a0601e836142bd565b91507f616c6c20617272617973206d7573742062652073616d65206c656e67746800006000830152602082019050919050565b60006135e0602b836142bd565b91507f455243373231456e756d657261626c653a206f776e657220696e646578206f7560008301527f74206f6620626f756e64730000000000000000000000000000000000000000006020830152604082019050919050565b60006136466032836142bd565b91507f4552433732313a207472616e7366657220746f206e6f6e20455243373231526560008301527f63656976657220696d706c656d656e74657200000000000000000000000000006020830152604082019050919050565b60006136ac601c836142bd565b91507f4552433732313a20746f6b656e20616c7265616479206d696e746564000000006000830152602082019050919050565b60006136ec6013836142bd565b91507f616464707265736372697074696f6e44617461000000000000000000000000006000830152602082019050919050565b600061372c6013836142bd565b91507f746f6b656e4f664f776e65724279496e646578000000000000000000000000006000830152602082019050919050565b600061376c6024836142bd565b91507f4552433732313a207472616e7366657220746f20746865207a65726f2061646460008301527f72657373000000000000000000000000000000000000000000000000000000006020830152604082019050919050565b60006137d26019836142bd565b91507f4552433732313a20617070726f766520746f2063616c6c6572000000000000006000830152602082019050919050565b60006138126013836142bd565b91507f707265736372697074696f6e4279496e646578000000000000000000000000006000830152602082019050919050565b6000613852602c836142bd565b91507f4552433732313a206f70657261746f7220717565727920666f72206e6f6e657860008301527f697374656e7420746f6b656e00000000000000000000000000000000000000006020830152604082019050919050565b60006138b86038836142bd565b91507f4552433732313a20617070726f76652063616c6c6572206973206e6f74206f7760008301527f6e6572206e6f7220617070726f76656420666f7220616c6c00000000000000006020830152604082019050919050565b600061391e602a836142bd565b91507f4552433732313a2062616c616e636520717565727920666f7220746865207a6560008301527f726f2061646472657373000000000000000000000000000000000000000000006020830152604082019050919050565b60006139846029836142bd565b91507f4552433732313a206f776e657220717565727920666f72206e6f6e657869737460008301527f656e7420746f6b656e00000000000000000000000000000000000000000000006020830152604082019050919050565b60006139ea6020836142bd565b91507f4552433732313a206d696e7420746f20746865207a65726f20616464726573736000830152602082019050919050565b6000613a2a602c836142bd565b91507f4552433732313a20617070726f76656420717565727920666f72206e6f6e657860008301527f697374656e7420746f6b656e00000000000000000000000000000000000000006020830152604082019050919050565b6000613a906029836142bd565b91507f4552433732313a207472616e73666572206f6620746f6b656e2074686174206960008301527f73206e6f74206f776e00000000000000000000000000000000000000000000006020830152604082019050919050565b6000613af6602f836142bd565b91507f4552433732314d657461646174613a2055524920717565727920666f72206e6f60008301527f6e6578697374656e7420746f6b656e00000000000000000000000000000000006020830152604082019050919050565b6000613b5c6021836142bd565b91507f4552433732313a20617070726f76616c20746f2063757272656e74206f776e6560008301527f72000000000000000000000000000000000000000000000000000000000000006020830152604082019050919050565b6000613bc26031836142bd565b91507f4552433732313a207472616e736665722063616c6c6572206973206e6f74206f60008301527f776e6572206e6f7220617070726f7665640000000000000000000000000000006020830152604082019050919050565b6000613c28602c836142bd565b91507f455243373231456e756d657261626c653a20676c6f62616c20696e646578206f60008301527f7574206f6620626f756e647300000000000000000000000000000000000000006020830152604082019050919050565b6000613c8e6013836142bd565b91507f676574707265736372697074696f6e44617461000000000000000000000000006000830152602082019050919050565b60006060830160008301518482036000860152613cde828261348c565b91505060208301518482036020860152613cf8828261348c565b91505060408301518482036040860152613d12828261348c565b9150508091505092915050565b613d2881614355565b82525050565b613d3781614355565b82525050565b6000613d4982846133f1565b915081905092915050565b6000613d6082856134c5565b9150613d6c828461345b565b91508190509392505050565b6000602082019050613d8d60008301846132c7565b92915050565b6000608082019050613da860008301876132b8565b613db560208301866132c7565b613dc26040830185613d2e565b8181036060830152613dd481846133b8565b905095945050505050565b60006020820190508181036000830152613df981846132d6565b905092915050565b60006020820190508181036000830152613e1b818461334b565b905092915050565b6000602082019050613e3860008301846133a9565b92915050565b60006020820190508181036000830152613e588184613422565b905092915050565b60006020820190508181036000830152613e7981613553565b9050919050565b60006020820190508181036000830152613e9981613593565b9050919050565b60006020820190508181036000830152613eb9816135d3565b9050919050565b60006020820190508181036000830152613ed981613639565b9050919050565b60006020820190508181036000830152613ef98161369f565b9050919050565b60006020820190508181036000830152613f19816136df565b9050919050565b60006020820190508181036000830152613f398161371f565b9050919050565b60006020820190508181036000830152613f598161375f565b9050919050565b60006020820190508181036000830152613f79816137c5565b9050919050565b60006020820190508181036000830152613f9981613805565b9050919050565b60006020820190508181036000830152613fb981613845565b9050919050565b60006020820190508181036000830152613fd9816138ab565b9050919050565b60006020820190508181036000830152613ff981613911565b9050919050565b6000602082019050818103600083015261401981613977565b9050919050565b60006020820190508181036000830152614039816139dd565b9050919050565b6000602082019050818103600083015261405981613a1d565b9050919050565b6000602082019050818103600083015261407981613a83565b9050919050565b6000602082019050818103600083015261409981613ae9565b9050919050565b600060208201905081810360008301526140b981613b4f565b9050919050565b600060208201905081810360008301526140d981613bb5565b9050919050565b600060208201905081810360008301526140f981613c1b565b9050919050565b6000602082019050818103600083015261411981613c81565b9050919050565b60006020820190506141356000830184613d2e565b92915050565b6000604051905081810181811067ffffffffffffffff8211171561415e57600080fd5b8060405250919050565b600067ffffffffffffffff82111561417f57600080fd5b602082029050602081019050919050565b600067ffffffffffffffff8211156141a757600080fd5b601f19601f8301169050602081019050919050565b600067ffffffffffffffff8211156141d357600080fd5b601f19601f8301169050602081019050919050565b6000819050602082019050919050565b6000819050602082019050919050565b60008190508160005260206000209050919050565b600081519050919050565b600081519050919050565b600081519050919050565b600081519050919050565b600081519050919050565b6000602082019050919050565b6000602082019050919050565b600082825260208201905092915050565b600082825260208201905092915050565b600082825260208201905092915050565b600081905092915050565b600082825260208201905092915050565b600082825260208201905092915050565b600081905092915050565b60006142e482614335565b9050919050565b60006142f682614335565b9050919050565b60008115159050919050565b60007fffffffff0000000000000000000000000000000000000000000000000000000082169050919050565b600073ffffffffffffffffffffffffffffffffffffffff82169050919050565b6000819050919050565b82818337600083830152505050565b60005b8381101561438c578082015181840152602081019050614371565b8381111561439b576000848401525b50505050565b6000601f19601f8301169050919050565b6143bb816142d9565b81146143c657600080fd5b50565b6143d2816142fd565b81146143dd57600080fd5b50565b6143e981614309565b81146143f457600080fd5b50565b61440081614355565b811461440b57600080fd5b5056fea365627a7a72315820323a4110f91e35238093b2cfb01c0f263c6cc3b626d40c2f6a0b1b2dac1f775f6c6578706572696d656e74616cf564736f6c634300050c0040",
  "source": "// File: contracts\\PresChain.sol\r\n\r\npragma solidity ^0.5.12;\r\n\r\npragma experimental ABIEncoderV2;\r\n\r\nimport \"./ERC721Full.sol\";\r\nimport \"./Ownable.sol\";\r\n\r\ncontract CryptoPres is  ERC721Full(\"CryptoPres\",\"PRES\"), Ownable {\r\n\r\n\r\n\r\n\r\n\r\n    // Token name \"CryptoPres\";\r\n\r\n\r\n    // Token symbol \"PRES\";\r\n\r\n\r\n    // Mapping from owner to list of owned token IDs\r\n\r\n    mapping(address => uint256[]) internal ownedPrescriptions;\r\n\r\n\r\n    // Mapping from token ID to index of the owner tokens list\r\n\r\n    mapping(uint256 => uint256) internal ownedPrescriptionsIndex;\r\n\r\n\r\n    // Array with all token ids, used for enumeration\r\n\r\n    uint256[] internal allPrescriptions;\r\n\r\n\r\n    // Mapping from token id to position in the allPrescriptions array\r\n\r\n    mapping(uint256 => uint256) internal allPrescriptionsIndex;\r\n\r\n\r\n    // Optional mapping for token URIs\r\n\r\n    mapping(uint256 => string) internal PrescriptionURIs;\r\n\r\n\r\n    struct Data{\r\n\r\n        string drugName;\r\n\r\n        string drugCode;\r\n\r\n        string dosage;\r\n\r\n    }\r\n\r\n    Data[] dataArray;\r\n\r\n\r\n\r\n    mapping(uint256 => Data[]) internal prescriptionData;\r\n\r\n\r\n\r\n\r\n    function mint(address _to, uint256 _id) external onlyDoctor {\r\n\r\n        _mint(_to, _id);\r\n\r\n    }\r\n\r\n\r\n    function arrayOfPrescriptionsByAddress(address _holder) public view returns(uint256[] memory) {\r\n\r\n        return ownedPrescriptions[_holder];\r\n\r\n    }\r\n\r\n\r\n    /**\r\n\r\n     * @dev Returns an URI for a given token ID\r\n\r\n     * @dev Throws if the token ID does not exist. May return an empty string.\r\n\r\n     * @param _presId uint256 ID of the token to query\r\n\r\n     */\r\n\r\n    function prescriptionsURI(uint256 _presId) public view returns (string memory) {\r\n\r\n        require(_exists(_presId),\"prescriptionsURI\");\r\n\r\n        return PrescriptionURIs[_presId];\r\n\r\n    }\r\n\r\n\r\n    /**\r\n\r\n     * @dev Gets the token ID at a given index of the tokens list of the requested owner\r\n\r\n     * @param _owner address owning the tokens list to be accessed\r\n\r\n     * @param _index uint256 representing the index to be accessed of the requested tokens list\r\n\r\n     * @return uint256 token ID at the given index of the tokens list owned by the requested address\r\n\r\n     */\r\n\r\n    function prescriptionOfOwnerByIndex(address _owner, uint256 _index) public view returns (uint256) {\r\n\r\n        require(_index < balanceOf(_owner), \"tokenOfOwnerByIndex\");\r\n\r\n        return ownedPrescriptions[_owner][_index];\r\n\r\n    }\r\n\r\n\r\n    /**\r\n\r\n     * @dev Gets the total amount of tokens stored by the contract\r\n\r\n     * @return uint256 representing the total amount of tokens\r\n\r\n     */\r\n\r\n    function totalSupply() public view returns (uint256) {\r\n\r\n        return allPrescriptions.length;\r\n\r\n    }\r\n\r\n\r\n    /**\r\n\r\n     * @dev Gets the token ID at a given index of all the tokens in this contract\r\n\r\n     * @dev Reverts if the index is greater or equal to the total number of tokens\r\n\r\n     * @param _index uint256 representing the index to be accessed of the tokens list\r\n\r\n     * @return uint256 token ID at the given index of the tokens list\r\n\r\n     */\r\n\r\n    function prescriptionByIndex(uint256 _index) public view returns (uint256) {\r\n\r\n        require(_index < totalSupply(),\"prescriptionByIndex\");\r\n\r\n        return allPrescriptions[_index];\r\n\r\n    }\r\n\r\n\r\n    /**\r\n\r\n     * @dev Internal function to set the token URI for a given token\r\n\r\n     * @dev Reverts if the token ID does not exist\r\n\r\n     * @param _presId uint256 ID of the token to set its URI\r\n\r\n     * @param _uri string URI to assign\r\n\r\n     */\r\n\r\n    function _setprescriptionsURI(uint256 _presId, string memory _uri) internal {\r\n\r\n        require(_exists(_presId),\"_setprescriptionsURI\");\r\n\r\n        PrescriptionURIs[_presId] = _uri;\r\n\r\n    }\r\n\r\n\r\n\r\n\r\n    /**\r\n\r\n     * @dev Internal function to add a token ID to the list of a given address\r\n\r\n     * @param _to address representing the new owner of the given token ID\r\n\r\n     * @param _presId uint256 ID of the token to be added to the tokens list of the given address\r\n\r\n     */\r\n\r\n    function addPrescriptionTo(address _to, uint256 _presId) internal {\r\n\r\n        super._mint(_to, _presId);\r\n\r\n        uint256 length = ownedPrescriptions[_to].length;\r\n\r\n        ownedPrescriptions[_to].push(_presId);\r\n\r\n        ownedPrescriptionsIndex[_presId] = length;\r\n\r\n    }\r\n\r\n\r\n    /**\r\n\r\n     * @dev Internal function to mint a new token\r\n\r\n     * @dev Reverts if the given token ID already exists\r\n\r\n     * @param _to address the beneficiary that will own the minted token\r\n\r\n     */\r\n\r\n    function _mint(address _to, uint256 _id) internal {\r\n\r\n        allPrescriptions.push(_id);\r\n\r\n        allPrescriptionsIndex[_id] = _id;\r\n\r\n        super._mint(_to, _id);\r\n\r\n        ownedPrescriptions[_to].push(_id);\r\n\r\n    }\r\n    function addprescriptionDatatoArrayBatch(uint _presId, string[] memory _drugName, string[] memory _drugCode, string[] memory _dosage) public onlyDoctor{\r\n        require(_drugName.length == _drugCode.length && _drugCode.length == _dosage.length, \"all arrays must be same length\");\r\n\r\n       for (uint i=0; i<_drugName.length; i++) {\r\n           addprescriptionDatatoArray(_drugName[i], _drugCode[i], _dosage[i]);\r\n        }\r\n        addprescriptionData(_presId);\r\n    }\r\n\r\n    function addprescriptionDatatoArray(string memory _drugName, string memory _drugCode, string memory _dosage) internal onlyDoctor{\r\n        Data memory d = Data(_drugName,_drugCode,_dosage);\r\n        dataArray.push(d);\r\n    }\r\n\r\n\r\n    function addprescriptionData(uint _presId) internal onlyDoctor{\r\n\r\n            require(doctor == msg.sender,\"addprescriptionData\");\r\n\r\n            prescriptionData[_presId] = dataArray;\r\n            delete dataArray;\r\n\r\n    }\r\n\r\n    function getprescriptionData(uint _presId) public view returns(Data[] memory _array){\r\n        require(_exists(_presId),\"getprescriptionData\");\r\n        _array = prescriptionData[_presId];\r\n    }\r\n\r\n}\r\n",
  "sourcePath": "C:/Users/Shane/Documents/truffleProjects/Currenty Working Directory/PresChain/contracts/PresChain.sol",
  "compiler": {
    "name": "solc",
    "version": "0.5.12+commit.7709ece9.Emscripten.clang"
  },
  "schemaVersion": "3.0.16",
  "updatedAt": "2020-04-30T16:53:38.958Z",
  "devdoc": {
    "methods": {
      "approve(address,uint256)": {
        "details": "Approves another address to transfer the given token ID The zero address indicates there is no approved address. There can only be one approved address per token at a given time. Can only be called by the token owner or an approved operator.",
        "params": {
          "to": "address to be approved for the given token ID",
          "tokenId": "uint256 ID of the token to be approved"
        }
      },
      "balanceOf(address)": {
        "details": "Gets the balance of the specified address.",
        "params": {
          "owner": "address to query the balance of"
        },
        "return": "uint256 representing the amount owned by the passed address"
      },
      "baseURI()": {
        "details": "Returns the base URI set via {_setBaseURI}. This will be automatically added as a preffix in {tokenURI} to each token's URI, when they are non-empty.     * _Available since v2.5.0._"
      },
      "claimOwnership()": {
        "details": "Allows the pendingOwner address to finalize the transfer."
      },
      "getApproved(uint256)": {
        "details": "Gets the approved address for a token ID, or zero if no address set Reverts if the token ID does not exist.",
        "params": {
          "tokenId": "uint256 ID of the token to query the approval of"
        },
        "return": "address currently approved for the given token ID"
      },
      "isApprovedForAll(address,address)": {
        "details": "Tells whether an operator is approved by a given owner.",
        "params": {
          "operator": "operator address which you want to query the approval of",
          "owner": "owner address which you want to query the approval of"
        },
        "return": "bool whether the given operator is approved by the given owner"
      },
      "name()": {
        "details": "Gets the token name.",
        "return": "string representing the token name"
      },
      "ownerOf(uint256)": {
        "details": "Gets the owner of the specified token ID.",
        "params": {
          "tokenId": "uint256 ID of the token to query the owner of"
        },
        "return": "address currently marked as the owner of the given token ID"
      },
      "prescriptionByIndex(uint256)": {
        "details": "Gets the token ID at a given index of all the tokens in this contractReverts if the index is greater or equal to the total number of tokens",
        "params": {
          "_index": "uint256 representing the index to be accessed of the tokens list"
        },
        "return": "uint256 token ID at the given index of the tokens list"
      },
      "prescriptionOfOwnerByIndex(address,uint256)": {
        "details": "Gets the token ID at a given index of the tokens list of the requested owner",
        "params": {
          "_index": "uint256 representing the index to be accessed of the requested tokens list",
          "_owner": "address owning the tokens list to be accessed"
        },
        "return": "uint256 token ID at the given index of the tokens list owned by the requested address"
      },
      "prescriptionsURI(uint256)": {
        "details": "Returns an URI for a given token IDThrows if the token ID does not exist. May return an empty string.",
        "params": {
          "_presId": "uint256 ID of the token to query"
        }
      },
      "safeTransferFrom(address,address,uint256)": {
        "details": "Safely transfers the ownership of a given token ID to another address If the target address is a contract, it must implement {IERC721Receiver-onERC721Received}, which is called upon a safe transfer, and return the magic value `bytes4(keccak256(\"onERC721Received(address,address,uint256,bytes)\"))`; otherwise, the transfer is reverted. Requires the msg.sender to be the owner, approved, or operator",
        "params": {
          "from": "current owner of the token",
          "to": "address to receive the ownership of the given token ID",
          "tokenId": "uint256 ID of the token to be transferred"
        }
      },
      "safeTransferFrom(address,address,uint256,bytes)": {
        "details": "Safely transfers the ownership of a given token ID to another address If the target address is a contract, it must implement {IERC721Receiver-onERC721Received}, which is called upon a safe transfer, and return the magic value `bytes4(keccak256(\"onERC721Received(address,address,uint256,bytes)\"))`; otherwise, the transfer is reverted. Requires the _msgSender() to be the owner, approved, or operator",
        "params": {
          "_data": "bytes data to send along with a safe transfer check",
          "from": "current owner of the token",
          "to": "address to receive the ownership of the given token ID",
          "tokenId": "uint256 ID of the token to be transferred"
        }
      },
      "setApprovalForAll(address,bool)": {
        "details": "Sets or unsets the approval of a given operator An operator is allowed to transfer all tokens of the sender on their behalf.",
        "params": {
          "approved": "representing the status of the approval to be set",
          "to": "operator address to set the approval"
        }
      },
      "setDoctor(address)": {
        "details": "Sets the doctor address.",
        "params": {
          "_doctor": "The doctor address."
        }
      },
      "supportsInterface(bytes4)": {
        "details": "See {IERC165-supportsInterface}.      * Time complexity O(1), guaranteed to always use less than 30 000 gas."
      },
      "symbol()": {
        "details": "Gets the token symbol.",
        "return": "string representing the token symbol"
      },
      "tokenByIndex(uint256)": {
        "details": "Gets the token ID at a given index of all the tokens in this contract Reverts if the index is greater or equal to the total number of tokens.",
        "params": {
          "index": "uint256 representing the index to be accessed of the tokens list"
        },
        "return": "uint256 token ID at the given index of the tokens list"
      },
      "tokenOfOwnerByIndex(address,uint256)": {
        "details": "Gets the token ID at a given index of the tokens list of the requested owner.",
        "params": {
          "index": "uint256 representing the index to be accessed of the requested tokens list",
          "owner": "address owning the tokens list to be accessed"
        },
        "return": "uint256 token ID at the given index of the tokens list owned by the requested address"
      },
      "tokenURI(uint256)": {
        "details": "Returns the URI for a given token ID. May return an empty string.      * If the token's URI is non-empty and a base URI was set (via {_setBaseURI}), it will be added to the token ID's URI as a prefix.      * Reverts if the token ID does not exist."
      },
      "totalSupply()": {
        "details": "Gets the total amount of tokens stored by the contract",
        "return": "uint256 representing the total amount of tokens"
      },
      "transferFrom(address,address,uint256)": {
        "details": "Transfers the ownership of a given token ID to another address. Usage of this method is discouraged, use {safeTransferFrom} whenever possible. Requires the msg.sender to be the owner, approved, or operator.",
        "params": {
          "from": "current owner of the token",
          "to": "address to receive the ownership of the given token ID",
          "tokenId": "uint256 ID of the token to be transferred"
        }
      },
      "transferOwnership(address)": {
        "details": "Allows the current owner to set the pendingOwner address.",
        "params": {
          "newOwner": "The address to transfer ownership to."
        }
      }
    }
  },
  "userdoc": {
    "methods": {}
  }
}