{
  "contractName": "CryptoPres",
  "abi": [
    {
      "anonymous": false,
      "inputs": [
        {
          "indexed": true,
          "internalType": "address",
          "name": "owner",
          "type": "address"
        },
        {
          "indexed": true,
          "internalType": "address",
          "name": "approved",
          "type": "address"
        },
        {
          "indexed": true,
          "internalType": "uint256",
          "name": "tokenId",
          "type": "uint256"
        }
      ],
      "name": "Approval",
      "type": "event"
    },
    {
      "anonymous": false,
      "inputs": [
        {
          "indexed": true,
          "internalType": "address",
          "name": "owner",
          "type": "address"
        },
        {
          "indexed": true,
          "internalType": "address",
          "name": "operator",
          "type": "address"
        },
        {
          "indexed": false,
          "internalType": "bool",
          "name": "approved",
          "type": "bool"
        }
      ],
      "name": "ApprovalForAll",
      "type": "event"
    },
    {
      "anonymous": false,
      "inputs": [
        {
          "indexed": true,
          "internalType": "address",
          "name": "previousOwner",
          "type": "address"
        },
        {
          "indexed": true,
          "internalType": "address",
          "name": "newOwner",
          "type": "address"
        }
      ],
      "name": "OwnershipTransferred",
      "type": "event"
    },
    {
      "anonymous": false,
      "inputs": [
        {
          "components": [
            {
              "internalType": "string",
              "name": "drugName",
              "type": "string"
            },
            {
              "internalType": "string",
              "name": "drugCode",
              "type": "string"
            },
            {
              "internalType": "string",
              "name": "dosage",
              "type": "string"
            }
          ],
          "indexed": false,
          "internalType": "struct CryptoPres.Data[]",
          "name": "_array",
          "type": "tuple[]"
        }
      ],
      "name": "PrescriptionData",
      "type": "event"
    },
    {
      "anonymous": false,
      "inputs": [
        {
          "indexed": true,
          "internalType": "address",
          "name": "from",
          "type": "address"
        },
        {
          "indexed": true,
          "internalType": "address",
          "name": "to",
          "type": "address"
        },
        {
          "indexed": true,
          "internalType": "uint256",
          "name": "tokenId",
          "type": "uint256"
        }
      ],
      "name": "Transfer",
      "type": "event"
    },
    {
      "constant": false,
      "inputs": [
        {
          "internalType": "address",
          "name": "to",
          "type": "address"
        },
        {
          "internalType": "uint256",
          "name": "tokenId",
          "type": "uint256"
        }
      ],
      "name": "approve",
      "outputs": [],
      "payable": false,
      "stateMutability": "nonpayable",
      "type": "function"
    },
    {
      "constant": true,
      "inputs": [
        {
          "internalType": "address",
          "name": "owner",
          "type": "address"
        }
      ],
      "name": "balanceOf",
      "outputs": [
        {
          "internalType": "uint256",
          "name": "",
          "type": "uint256"
        }
      ],
      "payable": false,
      "stateMutability": "view",
      "type": "function"
    },
    {
      "constant": true,
      "inputs": [],
      "name": "baseURI",
      "outputs": [
        {
          "internalType": "string",
          "name": "",
          "type": "string"
        }
      ],
      "payable": false,
      "stateMutability": "view",
      "type": "function"
    },
    {
      "constant": false,
      "inputs": [],
      "name": "claimOwnership",
      "outputs": [],
      "payable": false,
      "stateMutability": "nonpayable",
      "type": "function"
    },
    {
      "constant": true,
      "inputs": [],
      "name": "doctor",
      "outputs": [
        {
          "internalType": "address",
          "name": "",
          "type": "address"
        }
      ],
      "payable": false,
      "stateMutability": "view",
      "type": "function"
    },
    {
      "constant": true,
      "inputs": [
        {
          "internalType": "uint256",
          "name": "tokenId",
          "type": "uint256"
        }
      ],
      "name": "getApproved",
      "outputs": [
        {
          "internalType": "address",
          "name": "",
          "type": "address"
        }
      ],
      "payable": false,
      "stateMutability": "view",
      "type": "function"
    },
    {
      "constant": true,
      "inputs": [
        {
          "internalType": "address",
          "name": "owner",
          "type": "address"
        },
        {
          "internalType": "address",
          "name": "operator",
          "type": "address"
        }
      ],
      "name": "isApprovedForAll",
      "outputs": [
        {
          "internalType": "bool",
          "name": "",
          "type": "bool"
        }
      ],
      "payable": false,
      "stateMutability": "view",
      "type": "function"
    },
    {
      "constant": true,
      "inputs": [],
      "name": "name",
      "outputs": [
        {
          "internalType": "string",
          "name": "",
          "type": "string"
        }
      ],
      "payable": false,
      "stateMutability": "view",
      "type": "function"
    },
    {
      "constant": true,
      "inputs": [],
      "name": "owner",
      "outputs": [
        {
          "internalType": "address",
          "name": "",
          "type": "address"
        }
      ],
      "payable": false,
      "stateMutability": "view",
      "type": "function"
    },
    {
      "constant": true,
      "inputs": [],
      "name": "pendingOwner",
      "outputs": [
        {
          "internalType": "address",
          "name": "",
          "type": "address"
        }
      ],
      "payable": false,
      "stateMutability": "view",
      "type": "function"
    },
    {
      "constant": false,
      "inputs": [
        {
          "internalType": "address",
          "name": "from",
          "type": "address"
        },
        {
          "internalType": "address",
          "name": "to",
          "type": "address"
        },
        {
          "internalType": "uint256",
          "name": "tokenId",
          "type": "uint256"
        }
      ],
      "name": "safeTransferFrom",
      "outputs": [],
      "payable": false,
      "stateMutability": "nonpayable",
      "type": "function"
    },
    {
      "constant": false,
      "inputs": [
        {
          "internalType": "address",
          "name": "from",
          "type": "address"
        },
        {
          "internalType": "address",
          "name": "to",
          "type": "address"
        },
        {
          "internalType": "uint256",
          "name": "tokenId",
          "type": "uint256"
        },
        {
          "internalType": "bytes",
          "name": "_data",
          "type": "bytes"
        }
      ],
      "name": "safeTransferFrom",
      "outputs": [],
      "payable": false,
      "stateMutability": "nonpayable",
      "type": "function"
    },
    {
      "constant": false,
      "inputs": [
        {
          "internalType": "address",
          "name": "to",
          "type": "address"
        },
        {
          "internalType": "bool",
          "name": "approved",
          "type": "bool"
        }
      ],
      "name": "setApprovalForAll",
      "outputs": [],
      "payable": false,
      "stateMutability": "nonpayable",
      "type": "function"
    },
    {
      "constant": false,
      "inputs": [
        {
          "internalType": "address",
          "name": "_doctor",
          "type": "address"
        }
      ],
      "name": "setDoctor",
      "outputs": [],
      "payable": false,
      "stateMutability": "nonpayable",
      "type": "function"
    },
    {
      "constant": true,
      "inputs": [
        {
          "internalType": "bytes4",
          "name": "interfaceId",
          "type": "bytes4"
        }
      ],
      "name": "supportsInterface",
      "outputs": [
        {
          "internalType": "bool",
          "name": "",
          "type": "bool"
        }
      ],
      "payable": false,
      "stateMutability": "view",
      "type": "function"
    },
    {
      "constant": true,
      "inputs": [],
      "name": "symbol",
      "outputs": [
        {
          "internalType": "string",
          "name": "",
          "type": "string"
        }
      ],
      "payable": false,
      "stateMutability": "view",
      "type": "function"
    },
    {
      "constant": true,
      "inputs": [
        {
          "internalType": "uint256",
          "name": "index",
          "type": "uint256"
        }
      ],
      "name": "tokenByIndex",
      "outputs": [
        {
          "internalType": "uint256",
          "name": "",
          "type": "uint256"
        }
      ],
      "payable": false,
      "stateMutability": "view",
      "type": "function"
    },
    {
      "constant": true,
      "inputs": [
        {
          "internalType": "address",
          "name": "owner",
          "type": "address"
        },
        {
          "internalType": "uint256",
          "name": "index",
          "type": "uint256"
        }
      ],
      "name": "tokenOfOwnerByIndex",
      "outputs": [
        {
          "internalType": "uint256",
          "name": "",
          "type": "uint256"
        }
      ],
      "payable": false,
      "stateMutability": "view",
      "type": "function"
    },
    {
      "constant": true,
      "inputs": [
        {
          "internalType": "uint256",
          "name": "tokenId",
          "type": "uint256"
        }
      ],
      "name": "tokenURI",
      "outputs": [
        {
          "internalType": "string",
          "name": "",
          "type": "string"
        }
      ],
      "payable": false,
      "stateMutability": "view",
      "type": "function"
    },
    {
      "constant": false,
      "inputs": [
        {
          "internalType": "address",
          "name": "from",
          "type": "address"
        },
        {
          "internalType": "address",
          "name": "to",
          "type": "address"
        },
        {
          "internalType": "uint256",
          "name": "tokenId",
          "type": "uint256"
        }
      ],
      "name": "transferFrom",
      "outputs": [],
      "payable": false,
      "stateMutability": "nonpayable",
      "type": "function"
    },
    {
      "constant": false,
      "inputs": [
        {
          "internalType": "address",
          "name": "newOwner",
          "type": "address"
        }
      ],
      "name": "transferOwnership",
      "outputs": [],
      "payable": false,
      "stateMutability": "nonpayable",
      "type": "function"
    },
    {
      "constant": false,
      "inputs": [
        {
          "internalType": "address",
          "name": "_to",
          "type": "address"
        },
        {
          "internalType": "uint256",
          "name": "_id",
          "type": "uint256"
        }
      ],
      "name": "mint",
      "outputs": [],
      "payable": false,
      "stateMutability": "nonpayable",
      "type": "function"
    },
    {
      "constant": true,
      "inputs": [
        {
          "internalType": "address",
          "name": "_holder",
          "type": "address"
        }
      ],
      "name": "arrayOfPrescriptionsByAddress",
      "outputs": [
        {
          "internalType": "uint256[]",
          "name": "",
          "type": "uint256[]"
        }
      ],
      "payable": false,
      "stateMutability": "view",
      "type": "function"
    },
    {
      "constant": true,
      "inputs": [
        {
          "internalType": "uint256",
          "name": "_presId",
          "type": "uint256"
        }
      ],
      "name": "prescriptionsURI",
      "outputs": [
        {
          "internalType": "string",
          "name": "",
          "type": "string"
        }
      ],
      "payable": false,
      "stateMutability": "view",
      "type": "function"
    },
    {
      "constant": true,
      "inputs": [
        {
          "internalType": "address",
          "name": "_owner",
          "type": "address"
        },
        {
          "internalType": "uint256",
          "name": "_index",
          "type": "uint256"
        }
      ],
      "name": "prescriptionOfOwnerByIndex",
      "outputs": [
        {
          "internalType": "uint256",
          "name": "",
          "type": "uint256"
        }
      ],
      "payable": false,
      "stateMutability": "view",
      "type": "function"
    },
    {
      "constant": true,
      "inputs": [],
      "name": "totalSupply",
      "outputs": [
        {
          "internalType": "uint256",
          "name": "",
          "type": "uint256"
        }
      ],
      "payable": false,
      "stateMutability": "view",
      "type": "function"
    },
    {
      "constant": true,
      "inputs": [
        {
          "internalType": "uint256",
          "name": "_index",
          "type": "uint256"
        }
      ],
      "name": "prescriptionByIndex",
      "outputs": [
        {
          "internalType": "uint256",
          "name": "",
          "type": "uint256"
        }
      ],
      "payable": false,
      "stateMutability": "view",
      "type": "function"
    },
    {
      "constant": false,
      "inputs": [
        {
          "internalType": "uint256",
          "name": "_id",
          "type": "uint256"
        }
      ],
      "name": "destroy",
      "outputs": [],
      "payable": false,
      "stateMutability": "nonpayable",
      "type": "function"
    },
    {
      "constant": false,
      "inputs": [
        {
          "internalType": "address",
          "name": "_to",
          "type": "address"
        },
        {
          "internalType": "uint256",
          "name": "_tokenId",
          "type": "uint256"
        }
      ],
      "name": "transferPres",
      "outputs": [],
      "payable": false,
      "stateMutability": "nonpayable",
      "type": "function"
    },
    {
      "constant": true,
      "inputs": [
        {
          "internalType": "uint256",
          "name": "tokenId",
          "type": "uint256"
        }
      ],
      "name": "ownerOf",
      "outputs": [
        {
          "internalType": "address",
          "name": "",
          "type": "address"
        }
      ],
      "payable": false,
      "stateMutability": "view",
      "type": "function"
    },
    {
      "constant": false,
      "inputs": [
        {
          "internalType": "address",
          "name": "_to",
          "type": "address"
        },
        {
          "internalType": "uint256",
          "name": "_presId",
          "type": "uint256"
        },
        {
          "internalType": "string[]",
          "name": "_drugName",
          "type": "string[]"
        },
        {
          "internalType": "string[]",
          "name": "_drugCode",
          "type": "string[]"
        },
        {
          "internalType": "string[]",
          "name": "_dosage",
          "type": "string[]"
        }
      ],
      "name": "addprescriptionDatatoArrayBatch",
      "outputs": [],
      "payable": false,
      "stateMutability": "nonpayable",
      "type": "function"
    },
    {
      "constant": true,
      "inputs": [
        {
          "internalType": "uint256",
          "name": "_presId",
          "type": "uint256"
        }
      ],
      "name": "getprescriptionData",
      "outputs": [
        {
          "components": [
            {
              "internalType": "string",
              "name": "drugName",
              "type": "string"
            },
            {
              "internalType": "string",
              "name": "drugCode",
              "type": "string"
            },
            {
              "internalType": "string",
              "name": "dosage",
              "type": "string"
            }
          ],
          "internalType": "struct CryptoPres.Data[]",
          "name": "_array",
          "type": "tuple[]"
        }
      ],
      "payable": false,
      "stateMutability": "view",
      "type": "function"
    }
  ],
  "bytecode": "0x60806040526040518060400160405280600a81526020017f43727970746f50726573000000000000000000000000000000000000000000008152506040518060400160405280600481526020017f505245530000000000000000000000000000000000000000000000000000000081525081816200008a6301ffc9a760e01b6200014f60201b60201c565b620000a26380ac58cd60e01b6200014f60201b60201c565b620000ba63780e9d6360e01b6200014f60201b60201c565b8160099080519060200190620000d292919062000227565b5080600a9080519060200190620000eb92919062000227565b5062000104635b5e139f60e01b6200014f60201b60201c565b5050505033600d60006101000a81548173ffffffffffffffffffffffffffffffffffffffff021916908373ffffffffffffffffffffffffffffffffffffffff1602179055506200034b565b63ffffffff60e01b817bffffffffffffffffffffffffffffffffffffffffffffffffffffffff19161415620001bb576040517f08c379a0000000000000000000000000000000000000000000000000000000008152600401620001b29062000318565b60405180910390fd5b6001600080837bffffffffffffffffffffffffffffffffffffffffffffffffffffffff19167bffffffffffffffffffffffffffffffffffffffffffffffffffffffff1916815260200190815260200160002060006101000a81548160ff02191690831515021790555050565b828054600181600116156101000203166002900490600052602060002090601f016020900481019282601f106200026a57805160ff19168380011785556200029b565b828001600101855582156200029b579182015b828111156200029a5782518255916020019190600101906200027d565b5b509050620002aa9190620002ae565b5090565b620002d391905b80821115620002cf576000816000905550600101620002b5565b5090565b90565b6000620002e5601c836200033a565b91507f4552433136353a20696e76616c696420696e74657266616365206964000000006000830152602082019050919050565b600060208201905081810360008301526200033381620002d6565b9050919050565b600082825260208201905092915050565b61516e806200035b6000396000f3fe608060405234801561001057600080fd5b50600436106101f05760003560e01c80636c0360eb1161010f578063aae0cc73116100a2578063d60999c211610071578063d60999c2146105db578063e30c39781461060b578063e985e9c514610629578063f2fde38b14610659576101f0565b8063aae0cc7314610543578063b88d4fde1461055f578063c6e26a201461057b578063c87b56dd146105ab576101f0565b80638da5cb5b116100de5780638da5cb5b146104cf57806395d89b41146104ed5780639d1187701461050b578063a22cb46514610527576101f0565b80636c0360eb1461043357806370a08231146104515780637ea7118c146104815780637ef1b4b31461049f576101f0565b80632f745c591161018757806348103e651161015657806348103e65146103ad5780634e71e0c8146103c95780634f6ccce7146103d35780636352211e14610403576101f0565b80632f745c591461031557806330652fe01461034557806340c10f191461037557806342842e0e14610391576101f0565b80630cdf0489116101c35780630cdf04891461028f57806318160ddd146102ab5780631cf43d61146102c957806323b872dd146102f9576101f0565b806301ffc9a7146101f557806306fdde0314610225578063081812fc14610243578063095ea7b314610273575b600080fd5b61020f600480360361020a91908101906139cc565b610675565b60405161021c9190614a00565b60405180910390f35b61022d6106dc565b60405161023a9190614a1b565b60405180910390f35b61025d60048036036102589190810190613a1e565b61077e565b60405161026a9190614955565b60405180910390f35b61028d600480360361028891908101906138d1565b610803565b005b6102a960048036036102a491908101906138d1565b6109be565b005b6102b3610cc4565b6040516102c09190614e3d565b60405180910390f35b6102e360048036036102de91908101906138d1565b610cd1565b6040516102f09190614e3d565b60405180910390f35b610313600480360361030e91908101906137cb565b610d7a565b005b61032f600480360361032a91908101906138d1565b610dda565b60405161033c9190614e3d565b60405180910390f35b61035f600480360361035a9190810190613766565b610e83565b60405161036c91906149de565b60405180910390f35b61038f600480360361038a91908101906138d1565b610f1a565b005b6103ab60048036036103a691908101906137cb565b610f82565b005b6103c760048036036103c29190810190613766565b610fa2565b005b6103d161110b565b005b6103ed60048036036103e89190810190613a1e565b6112aa565b6040516103fa9190614e3d565b60405180910390f35b61041d60048036036104189190810190613a1e565b611314565b60405161042a9190614955565b60405180910390f35b61043b6113c6565b6040516104489190614a1b565b60405180910390f35b61046b60048036036104669190810190613766565b611468565b6040516104789190614e3d565b60405180910390f35b610489611527565b6040516104969190614955565b60405180910390f35b6104b960048036036104b49190810190613a1e565b61154d565b6040516104c691906149bc565b60405180910390f35b6104d76117ed565b6040516104e49190614955565b60405180910390f35b6104f5611813565b6040516105029190614a1b565b60405180910390f35b61052560048036036105209190810190613a1e565b6118b5565b005b610541600480360361053c9190810190613895565b611a3f565b005b61055d6004803603610558919081019061390d565b611bc0565b005b6105796004803603610574919081019061381a565b611d55565b005b61059560048036036105909190810190613a1e565b611db7565b6040516105a29190614e3d565b60405180910390f35b6105c560048036036105c09190810190613a1e565b611e21565b6040516105d29190614a1b565b60405180910390f35b6105f560048036036105f09190810190613a1e565b611f69565b6040516106029190614a1b565b60405180910390f35b610613612066565b6040516106209190614955565b60405180910390f35b610643600480360361063e919081019061378f565b61208c565b6040516106509190614a00565b60405180910390f35b610673600480360361066e9190810190613766565b612120565b005b6000806000837bffffffffffffffffffffffffffffffffffffffffffffffffffffffff19167bffffffffffffffffffffffffffffffffffffffffffffffffffffffff1916815260200190815260200160002060009054906101000a900460ff169050919050565b606060098054600181600116156101000203166002900480601f0160208091040260200160405190810160405280929190818152602001828054600181600116156101000203166002900480156107745780601f1061074957610100808354040283529160200191610774565b820191906000526020600020905b81548152906001019060200180831161075757829003601f168201915b5050505050905090565b6000610789826121be565b6107c8576040517f08c379a00000000000000000000000000000000000000000000000000000000081526004016107bf90614c9d565b60405180910390fd5b6002600083815260200190815260200160002060009054906101000a900473ffffffffffffffffffffffffffffffffffffffff169050919050565b600061080e82611314565b90508073ffffffffffffffffffffffffffffffffffffffff168373ffffffffffffffffffffffffffffffffffffffff16141561087f576040517f08c379a000000000000000000000000000000000000000000000000000000000815260040161087690614d3d565b60405180910390fd5b8073ffffffffffffffffffffffffffffffffffffffff1661089e612230565b73ffffffffffffffffffffffffffffffffffffffff1614806108cd57506108cc816108c7612230565b61208c565b5b61090c576040517f08c379a000000000000000000000000000000000000000000000000000000000815260040161090390614c3d565b60405180910390fd5b826002600084815260200190815260200160002060006101000a81548173ffffffffffffffffffffffffffffffffffffffff021916908373ffffffffffffffffffffffffffffffffffffffff160217905550818373ffffffffffffffffffffffffffffffffffffffff168273ffffffffffffffffffffffffffffffffffffffff167f8c5be1e5ebec7d5bd14f71427d1e84f3dd0314c0f7b2291e5b200ac8c7c3b92560405160405180910390a4505050565b60003390508073ffffffffffffffffffffffffffffffffffffffff166109e383611314565b73ffffffffffffffffffffffffffffffffffffffff1614610a39576040517f08c379a0000000000000000000000000000000000000000000000000000000008152600401610a3090614c7d565b60405180910390fd5b600f60009054906101000a900473ffffffffffffffffffffffffffffffffffffffff1673ffffffffffffffffffffffffffffffffffffffff168373ffffffffffffffffffffffffffffffffffffffff161415610aca576040517f08c379a0000000000000000000000000000000000000000000000000000000008152600401610ac190614b5d565b60405180910390fd5b600d60009054906101000a900473ffffffffffffffffffffffffffffffffffffffff1673ffffffffffffffffffffffffffffffffffffffff168373ffffffffffffffffffffffffffffffffffffffff161415610b5b576040517f08c379a0000000000000000000000000000000000000000000000000000000008152600401610b5290614b1d565b60405180910390fd5b600073ffffffffffffffffffffffffffffffffffffffff168373ffffffffffffffffffffffffffffffffffffffff161415610bcb576040517f08c379a0000000000000000000000000000000000000000000000000000000008152600401610bc290614d1d565b60405180910390fd5b610c12601360008373ffffffffffffffffffffffffffffffffffffffff1673ffffffffffffffffffffffffffffffffffffffff168152602001908152602001600020612238565b610c59601360008573ffffffffffffffffffffffffffffffffffffffff1673ffffffffffffffffffffffffffffffffffffffff16815260200190815260200160002061225b565b826010600084815260200190815260200160002060006101000a81548173ffffffffffffffffffffffffffffffffffffffff021916908373ffffffffffffffffffffffffffffffffffffffff160217905550610cb58183612271565b610cbf838361240f565b505050565b6000601480549050905090565b6000610cdc83611468565b8210610d1d576040517f08c379a0000000000000000000000000000000000000000000000000000000008152600401610d1490614b3d565b60405180910390fd5b601160008473ffffffffffffffffffffffffffffffffffffffff1673ffffffffffffffffffffffffffffffffffffffff1681526020019081526020016000208281548110610d6757fe5b9060005260206000200154905092915050565b610d8b610d85612230565b826124d6565b610dca576040517f08c379a0000000000000000000000000000000000000000000000000000000008152600401610dc190614d7d565b60405180910390fd5b610dd58383836125b4565b505050565b6000610de583611468565b8210610e26576040517f08c379a0000000000000000000000000000000000000000000000000000000008152600401610e1d90614abd565b60405180910390fd5b600560008473ffffffffffffffffffffffffffffffffffffffff1673ffffffffffffffffffffffffffffffffffffffff1681526020019081526020016000208281548110610e7057fe5b9060005260206000200154905092915050565b6060601160008373ffffffffffffffffffffffffffffffffffffffff1673ffffffffffffffffffffffffffffffffffffffff168152602001908152602001600020805480602002602001604051908101604052809291908181526020018280548015610f0e57602002820191906000526020600020905b815481526020019060010190808311610efa575b50505050509050919050565b600f60009054906101000a900473ffffffffffffffffffffffffffffffffffffffff1673ffffffffffffffffffffffffffffffffffffffff163373ffffffffffffffffffffffffffffffffffffffff1614610f7457600080fd5b610f7e82826125d8565b5050565b610f9d83838360405180602001604052806000815250611d55565b505050565b600d60009054906101000a900473ffffffffffffffffffffffffffffffffffffffff1673ffffffffffffffffffffffffffffffffffffffff163373ffffffffffffffffffffffffffffffffffffffff1614610ffc57600080fd5b600d60009054906101000a900473ffffffffffffffffffffffffffffffffffffffff1673ffffffffffffffffffffffffffffffffffffffff168173ffffffffffffffffffffffffffffffffffffffff16141561108d576040517f08c379a000000000000000000000000000000000000000000000000000000000815260040161108490614b7d565b60405180910390fd5b600073ffffffffffffffffffffffffffffffffffffffff168173ffffffffffffffffffffffffffffffffffffffff1614156110c757600080fd5b80600f60006101000a81548173ffffffffffffffffffffffffffffffffffffffff021916908373ffffffffffffffffffffffffffffffffffffffff16021790555050565b600e60009054906101000a900473ffffffffffffffffffffffffffffffffffffffff1673ffffffffffffffffffffffffffffffffffffffff163373ffffffffffffffffffffffffffffffffffffffff161461116557600080fd5b600e60009054906101000a900473ffffffffffffffffffffffffffffffffffffffff1673ffffffffffffffffffffffffffffffffffffffff16600d60009054906101000a900473ffffffffffffffffffffffffffffffffffffffff1673ffffffffffffffffffffffffffffffffffffffff167f8be0079c531659141344cd1fd0a4f28419497f9722a3daafe3b4186f6b6457e060405160405180910390a3600e60009054906101000a900473ffffffffffffffffffffffffffffffffffffffff16600d60006101000a81548173ffffffffffffffffffffffffffffffffffffffff021916908373ffffffffffffffffffffffffffffffffffffffff1602179055506000600e60006101000a81548173ffffffffffffffffffffffffffffffffffffffff021916908373ffffffffffffffffffffffffffffffffffffffff160217905550565b60006112b4610cc4565b82106112f5576040517f08c379a00000000000000000000000000000000000000000000000000000000081526004016112ec90614d9d565b60405180910390fd5b6007828154811061130257fe5b90600052602060002001549050919050565b6000806010600084815260200190815260200160002060009054906101000a900473ffffffffffffffffffffffffffffffffffffffff169050600073ffffffffffffffffffffffffffffffffffffffff168173ffffffffffffffffffffffffffffffffffffffff1614156113bd576040517f08c379a00000000000000000000000000000000000000000000000000000000081526004016113b490614d5d565b60405180910390fd5b80915050919050565b6060600b8054600181600116156101000203166002900480601f01602080910402602001604051908101604052809291908181526020018280546001816001161561010002031660029004801561145e5780601f106114335761010080835404028352916020019161145e565b820191906000526020600020905b81548152906001019060200180831161144157829003601f168201915b5050505050905090565b60008073ffffffffffffffffffffffffffffffffffffffff168273ffffffffffffffffffffffffffffffffffffffff1614156114d9576040517f08c379a00000000000000000000000000000000000000000000000000000000081526004016114d090614c5d565b60405180910390fd5b611520600360008473ffffffffffffffffffffffffffffffffffffffff1673ffffffffffffffffffffffffffffffffffffffff168152602001908152602001600020612841565b9050919050565b600f60009054906101000a900473ffffffffffffffffffffffffffffffffffffffff1681565b6060611558826121be565b611597576040517f08c379a000000000000000000000000000000000000000000000000000000000815260040161158e90614a3d565b60405180910390fd5b60186000838152602001908152602001600020805480602002602001604051908101604052809291908181526020016000905b828210156117e25783829060005260206000209060030201604051806060016040529081600082018054600181600116156101000203166002900480601f0160208091040260200160405190810160405280929190818152602001828054600181600116156101000203166002900480156116865780601f1061165b57610100808354040283529160200191611686565b820191906000526020600020905b81548152906001019060200180831161166957829003601f168201915b50505050508152602001600182018054600181600116156101000203166002900480601f0160208091040260200160405190810160405280929190818152602001828054600181600116156101000203166002900480156117285780601f106116fd57610100808354040283529160200191611728565b820191906000526020600020905b81548152906001019060200180831161170b57829003601f168201915b50505050508152602001600282018054600181600116156101000203166002900480601f0160208091040260200160405190810160405280929190818152602001828054600181600116156101000203166002900480156117ca5780601f1061179f576101008083540402835291602001916117ca565b820191906000526020600020905b8154815290600101906020018083116117ad57829003601f168201915b505050505081525050815260200190600101906115ca565b505050509050919050565b600d60009054906101000a900473ffffffffffffffffffffffffffffffffffffffff1681565b6060600a8054600181600116156101000203166002900480601f0160208091040260200160405190810160405280929190818152602001828054600181600116156101000203166002900480156118ab5780601f10611880576101008083540402835291602001916118ab565b820191906000526020600020905b81548152906001019060200180831161188e57829003601f168201915b5050505050905090565b60606118c08261154d565b905060003390508073ffffffffffffffffffffffffffffffffffffffff166118e784611314565b73ffffffffffffffffffffffffffffffffffffffff161461193d576040517f08c379a000000000000000000000000000000000000000000000000000000000815260040161193490614b9d565b60405180910390fd5b611984601360008373ffffffffffffffffffffffffffffffffffffffff1673ffffffffffffffffffffffffffffffffffffffff168152602001908152602001600020612238565b60006010600085815260200190815260200160002060006101000a81548173ffffffffffffffffffffffffffffffffffffffff021916908373ffffffffffffffffffffffffffffffffffffffff1602179055506119e18184612271565b60006012600085815260200190815260200160002081905550611a038361284f565b7fc96088ba07f1863453130344c921400f948bae61f6c17526f6706fa246caf06a82604051611a3291906149bc565b60405180910390a1505050565b611a47612230565b73ffffffffffffffffffffffffffffffffffffffff168273ffffffffffffffffffffffffffffffffffffffff161415611ab5576040517f08c379a0000000000000000000000000000000000000000000000000000000008152600401611aac90614bdd565b60405180910390fd5b8060046000611ac2612230565b73ffffffffffffffffffffffffffffffffffffffff1673ffffffffffffffffffffffffffffffffffffffff16815260200190815260200160002060008473ffffffffffffffffffffffffffffffffffffffff1673ffffffffffffffffffffffffffffffffffffffff16815260200190815260200160002060006101000a81548160ff0219169083151502179055508173ffffffffffffffffffffffffffffffffffffffff16611b6f612230565b73ffffffffffffffffffffffffffffffffffffffff167f17307eab39ab6107e8899845ad3d59bd9653f200f220920489ca2b5937696c3183604051611bb49190614a00565b60405180910390a35050565b600f60009054906101000a900473ffffffffffffffffffffffffffffffffffffffff1673ffffffffffffffffffffffffffffffffffffffff163373ffffffffffffffffffffffffffffffffffffffff1614611c1a57600080fd5b81518351148015611c2c575080518251145b611c6b576040517f08c379a0000000000000000000000000000000000000000000000000000000008152600401611c6290614a9d565b60405180910390fd5b8473ffffffffffffffffffffffffffffffffffffffff163373ffffffffffffffffffffffffffffffffffffffff161415611cda576040517f08c379a0000000000000000000000000000000000000000000000000000000008152600401611cd190614ddd565b60405180910390fd5b611ce485856125d8565b60008090505b8351811015611d4457611d37848281518110611d0257fe5b6020026020010151848381518110611d1657fe5b6020026020010151848481518110611d2a57fe5b6020026020010151612909565b8080600101915050611cea565b50611d4e84612af7565b5050505050565b611d66611d60612230565b836124d6565b611da5576040517f08c379a0000000000000000000000000000000000000000000000000000000008152600401611d9c90614d7d565b60405180910390fd5b611db184848484612c5e565b50505050565b6000611dc1610cc4565b8210611e02576040517f08c379a0000000000000000000000000000000000000000000000000000000008152600401611df990614bfd565b60405180910390fd5b60148281548110611e0f57fe5b90600052602060002001549050919050565b6060611e2c826121be565b611e6b576040517f08c379a0000000000000000000000000000000000000000000000000000000008152600401611e6290614cdd565b60405180910390fd5b6060600c60008481526020019081526020016000208054600181600116156101000203166002900480601f016020809104026020016040519081016040528092919081815260200182805460018160011615610100020316600290048015611f145780601f10611ee957610100808354040283529160200191611f14565b820191906000526020600020905b815481529060010190602001808311611ef757829003601f168201915b50505050509050600081511415611f3d5760405180602001604052806000815250915050611f64565b600b81604051602001611f51929190614931565b6040516020818303038152906040529150505b919050565b6060611f74826121be565b611fb3576040517f08c379a0000000000000000000000000000000000000000000000000000000008152600401611faa90614a7d565b60405180910390fd5b601660008381526020019081526020016000208054600181600116156101000203166002900480601f01602080910402602001604051908101604052809291908181526020018280546001816001161561010002031660029004801561205a5780601f1061202f5761010080835404028352916020019161205a565b820191906000526020600020905b81548152906001019060200180831161203d57829003601f168201915b50505050509050919050565b600e60009054906101000a900473ffffffffffffffffffffffffffffffffffffffff1681565b6000600460008473ffffffffffffffffffffffffffffffffffffffff1673ffffffffffffffffffffffffffffffffffffffff16815260200190815260200160002060008373ffffffffffffffffffffffffffffffffffffffff1673ffffffffffffffffffffffffffffffffffffffff16815260200190815260200160002060009054906101000a900460ff16905092915050565b600d60009054906101000a900473ffffffffffffffffffffffffffffffffffffffff1673ffffffffffffffffffffffffffffffffffffffff163373ffffffffffffffffffffffffffffffffffffffff161461217a57600080fd5b80600e60006101000a81548173ffffffffffffffffffffffffffffffffffffffff021916908373ffffffffffffffffffffffffffffffffffffffff16021790555050565b6000806010600084815260200190815260200160002060009054906101000a900473ffffffffffffffffffffffffffffffffffffffff169050600073ffffffffffffffffffffffffffffffffffffffff168173ffffffffffffffffffffffffffffffffffffffff161415915050919050565b600033905090565b61225060018260000154612cba90919063ffffffff16565b816000018190555050565b6001816000016000828254019250508190555050565b60006122c96001601160008673ffffffffffffffffffffffffffffffffffffffff1673ffffffffffffffffffffffffffffffffffffffff16815260200190815260200160002080549050612cba90919063ffffffff16565b90506000601260008481526020019081526020016000205490508181146123b6576000601160008673ffffffffffffffffffffffffffffffffffffffff1673ffffffffffffffffffffffffffffffffffffffff168152602001908152602001600020838154811061233657fe5b9060005260206000200154905080601160008773ffffffffffffffffffffffffffffffffffffffff1673ffffffffffffffffffffffffffffffffffffffff168152602001908152602001600020838154811061238e57fe5b9060005260206000200181905550816012600083815260200190815260200160002081905550505b601160008573ffffffffffffffffffffffffffffffffffffffff1673ffffffffffffffffffffffffffffffffffffffff16815260200190815260200160002080548091906001900361240891906132dd565b5050505050565b601160008373ffffffffffffffffffffffffffffffffffffffff1673ffffffffffffffffffffffffffffffffffffffff168152602001908152602001600020805490506012600083815260200190815260200160002081905550601160008373ffffffffffffffffffffffffffffffffffffffff1673ffffffffffffffffffffffffffffffffffffffff1681526020019081526020016000208190806001815401808255809150509060018203906000526020600020016000909192909190915055505050565b60006124e1826121be565b612520576040517f08c379a000000000000000000000000000000000000000000000000000000000815260040161251790614c1d565b60405180910390fd5b600061252b83611314565b90508073ffffffffffffffffffffffffffffffffffffffff168473ffffffffffffffffffffffffffffffffffffffff16148061259a57508373ffffffffffffffffffffffffffffffffffffffff166125828461077e565b73ffffffffffffffffffffffffffffffffffffffff16145b806125ab57506125aa818561208c565b5b91505092915050565b6125bf838383612d04565b6125c98382612271565b6125d3828261240f565b505050565b3373ffffffffffffffffffffffffffffffffffffffff168273ffffffffffffffffffffffffffffffffffffffff161415612647576040517f08c379a000000000000000000000000000000000000000000000000000000000815260040161263e90614a5d565b60405180910390fd5b600d60009054906101000a900473ffffffffffffffffffffffffffffffffffffffff1673ffffffffffffffffffffffffffffffffffffffff168273ffffffffffffffffffffffffffffffffffffffff1614156126d8576040517f08c379a00000000000000000000000000000000000000000000000000000000081526004016126cf90614dbd565b60405180910390fd5b6126e181612f33565b6126eb828261240f565b600073ffffffffffffffffffffffffffffffffffffffff168273ffffffffffffffffffffffffffffffffffffffff16141561275b576040517f08c379a000000000000000000000000000000000000000000000000000000000815260040161275290614add565b60405180910390fd5b612764816121be565b156127a4576040517f08c379a000000000000000000000000000000000000000000000000000000000815260040161279b90614dfd565b60405180910390fd5b816010600083815260200190815260200160002060006101000a81548173ffffffffffffffffffffffffffffffffffffffff021916908373ffffffffffffffffffffffffffffffffffffffff16021790555061283d601360008473ffffffffffffffffffffffffffffffffffffffff1673ffffffffffffffffffffffffffffffffffffffff16815260200190815260200160002061225b565b5050565b600081600001549050919050565b600061286a6001601480549050612cba90919063ffffffff16565b905060006015600084815260200190815260200160002054905060006014838154811061289357fe5b9060005260206000200154905080601483815481106128ae57fe5b906000526020600020018190555081601560008381526020019081526020016000208190555060148054809190600190036128e991906132dd565b506000601560008681526020019081526020016000208190555050505050565b600f60009054906101000a900473ffffffffffffffffffffffffffffffffffffffff1673ffffffffffffffffffffffffffffffffffffffff163373ffffffffffffffffffffffffffffffffffffffff161461296357600080fd5b6060839050606083905060608390506000835114156129b7576040517f08c379a00000000000000000000000000000000000000000000000000000000081526004016129ae90614e1d565b60405180910390fd5b6000825114156129fc576040517f08c379a00000000000000000000000000000000000000000000000000000000081526004016129f390614e1d565b60405180910390fd5b600081511415612a41576040517f08c379a0000000000000000000000000000000000000000000000000000000008152600401612a3890614e1d565b60405180910390fd5b612a49613309565b6040518060600160405280888152602001878152602001868152509050601781908060018154018082558091505090600182039060005260206000209060030201600090919290919091506000820151816000019080519060200190612ab092919061332a565b506020820151816001019080519060200190612acd92919061332a565b506040820151816002019080519060200190612aea92919061332a565b5050505050505050505050565b600f60009054906101000a900473ffffffffffffffffffffffffffffffffffffffff1673ffffffffffffffffffffffffffffffffffffffff163373ffffffffffffffffffffffffffffffffffffffff1614612b5157600080fd5b612b5a816121be565b612b99576040517f08c379a0000000000000000000000000000000000000000000000000000000008152600401612b9090614a3d565b60405180910390fd5b3373ffffffffffffffffffffffffffffffffffffffff16600f60009054906101000a900473ffffffffffffffffffffffffffffffffffffffff1673ffffffffffffffffffffffffffffffffffffffff1614612c29576040517f08c379a0000000000000000000000000000000000000000000000000000000008152600401612c2090614cfd565b60405180910390fd5b601760186000838152602001908152602001600020908054612c4c9291906133aa565b5060176000612c5b919061347a565b50565b612c698484846125b4565b612c7584848484612f7f565b612cb4576040517f08c379a0000000000000000000000000000000000000000000000000000000008152600401612cab90614afd565b60405180910390fd5b50505050565b6000612cfc83836040518060400160405280601e81526020017f536166654d6174683a207375627472616374696f6e206f766572666c6f770000815250613179565b905092915050565b8273ffffffffffffffffffffffffffffffffffffffff16612d2482611314565b73ffffffffffffffffffffffffffffffffffffffff1614612d7a576040517f08c379a0000000000000000000000000000000000000000000000000000000008152600401612d7190614cbd565b60405180910390fd5b600073ffffffffffffffffffffffffffffffffffffffff168273ffffffffffffffffffffffffffffffffffffffff161415612dea576040517f08c379a0000000000000000000000000000000000000000000000000000000008152600401612de190614bbd565b60405180910390fd5b612df3816131d4565b612e3a600360008573ffffffffffffffffffffffffffffffffffffffff1673ffffffffffffffffffffffffffffffffffffffff168152602001908152602001600020612238565b612e81600360008473ffffffffffffffffffffffffffffffffffffffff1673ffffffffffffffffffffffffffffffffffffffff16815260200190815260200160002061225b565b816001600083815260200190815260200160002060006101000a81548173ffffffffffffffffffffffffffffffffffffffff021916908373ffffffffffffffffffffffffffffffffffffffff160217905550808273ffffffffffffffffffffffffffffffffffffffff168473ffffffffffffffffffffffffffffffffffffffff167fddf252ad1be2c89b69c2b068fc378daa952ba7f163c4a11628f55a4df523b3ef60405160405180910390a4505050565b6014805490506015600083815260200190815260200160002081905550601481908060018154018082558091505090600182039060005260206000200160009091929091909150555050565b6000612fa08473ffffffffffffffffffffffffffffffffffffffff16613292565b612fad5760019050613171565b600060608573ffffffffffffffffffffffffffffffffffffffff168673ffffffffffffffffffffffffffffffffffffffff1663150b7a02905060e01b612ff1612230565b8988886040516024016130079493929190614970565b604051602081830303815290604052907bffffffffffffffffffffffffffffffffffffffffffffffffffffffff19166020820180517bffffffffffffffffffffffffffffffffffffffffffffffffffffffff8381831617835250505050604051613071919061491a565b6000604051808303816000865af19150503d80600081146130ae576040519150601f19603f3d011682016040523d82523d6000602084013e6130b3565b606091505b50915091508161310b576000815111156130d05780518082602001fd5b6040517f08c379a000000000000000000000000000000000000000000000000000000000815260040161310290614afd565b60405180910390fd5b60008180602001905161312191908101906139f5565b905063150b7a0260e01b7bffffffffffffffffffffffffffffffffffffffffffffffffffffffff1916817bffffffffffffffffffffffffffffffffffffffffffffffffffffffff19161493505050505b949350505050565b60008383111582906131c1576040517f08c379a00000000000000000000000000000000000000000000000000000000081526004016131b89190614a1b565b60405180910390fd5b5060008385039050809150509392505050565b600073ffffffffffffffffffffffffffffffffffffffff166002600083815260200190815260200160002060009054906101000a900473ffffffffffffffffffffffffffffffffffffffff1673ffffffffffffffffffffffffffffffffffffffff161461328f5760006002600083815260200190815260200160002060006101000a81548173ffffffffffffffffffffffffffffffffffffffff021916908373ffffffffffffffffffffffffffffffffffffffff1602179055505b50565b60008060007fc5d2460186f7233c927e7db2dcc703c0e500b653ca82273b7bfad8045d85a47060001b9050833f91508082141580156132d457506000801b8214155b92505050919050565b81548183558181111561330457818360005260206000209182019101613303919061349e565b5b505050565b60405180606001604052806060815260200160608152602001606081525090565b828054600181600116156101000203166002900490600052602060002090601f016020900481019282601f1061336b57805160ff1916838001178555613399565b82800160010185558215613399579182015b8281111561339857825182559160200191906001019061337d565b5b5090506133a6919061349e565b5090565b8280548282559060005260206000209060030281019282156134695760005260206000209160030282015b82811115613468578282600082018160000190805460018160011615610100020316600290046134069291906134c3565b506001820181600101908054600181600116156101000203166002900461342e9291906134c3565b50600282018160020190805460018160011615610100020316600290046134569291906134c3565b505050916003019190600301906133d5565b5b509050613476919061354a565b5090565b508054600082556003029060005260206000209081019061349b919061354a565b50565b6134c091905b808211156134bc5760008160009055506001016134a4565b5090565b90565b828054600181600116156101000203166002900490600052602060002090601f016020900481019282601f106134fc5780548555613539565b8280016001018555821561353957600052602060002091601f016020900482015b8281111561353857825482559160010191906001019061351d565b5b509050613546919061349e565b5090565b61359691905b8082111561359257600080820160006135699190613599565b6001820160006135799190613599565b6002820160006135899190613599565b50600301613550565b5090565b90565b50805460018160011615610100020316600290046000825580601f106135bf57506135de565b601f0160209004906000526020600020908101906135dd919061349e565b5b50565b6000813590506135f0816150cf565b92915050565b600082601f83011261360757600080fd5b813561361a61361582614e85565b614e58565b9150818183526020840193506020810190508360005b83811015613660578135860161364688826136fd565b845260208401935060208301925050600181019050613630565b5050505092915050565b600081359050613679816150e6565b92915050565b60008135905061368e816150fd565b92915050565b6000815190506136a3816150fd565b92915050565b600082601f8301126136ba57600080fd5b81356136cd6136c882614ead565b614e58565b915080825260208301602083018583830111156136e957600080fd5b6136f483828461507c565b50505092915050565b600082601f83011261370e57600080fd5b813561372161371c82614ed9565b614e58565b9150808252602083016020830185838301111561373d57600080fd5b61374883828461507c565b50505092915050565b60008135905061376081615114565b92915050565b60006020828403121561377857600080fd5b6000613786848285016135e1565b91505092915050565b600080604083850312156137a257600080fd5b60006137b0858286016135e1565b92505060206137c1858286016135e1565b9150509250929050565b6000806000606084860312156137e057600080fd5b60006137ee868287016135e1565b93505060206137ff868287016135e1565b925050604061381086828701613751565b9150509250925092565b6000806000806080858703121561383057600080fd5b600061383e878288016135e1565b945050602061384f878288016135e1565b935050604061386087828801613751565b925050606085013567ffffffffffffffff81111561387d57600080fd5b613889878288016136a9565b91505092959194509250565b600080604083850312156138a857600080fd5b60006138b6858286016135e1565b92505060206138c78582860161366a565b9150509250929050565b600080604083850312156138e457600080fd5b60006138f2858286016135e1565b925050602061390385828601613751565b9150509250929050565b600080600080600060a0868803121561392557600080fd5b6000613933888289016135e1565b955050602061394488828901613751565b945050604086013567ffffffffffffffff81111561396157600080fd5b61396d888289016135f6565b935050606086013567ffffffffffffffff81111561398a57600080fd5b613996888289016135f6565b925050608086013567ffffffffffffffff8111156139b357600080fd5b6139bf888289016135f6565b9150509295509295909350565b6000602082840312156139de57600080fd5b60006139ec8482850161367f565b91505092915050565b600060208284031215613a0757600080fd5b6000613a1584828501613694565b91505092915050565b600060208284031215613a3057600080fd5b6000613a3e84828501613751565b91505092915050565b6000613a53838361489e565b905092915050565b6000613a6783836148fc565b60208301905092915050565b613a7c81615008565b82525050565b613a8b81614ff6565b82525050565b6000613a9c82614f3a565b613aa68185614f8b565b935083602082028501613ab885614f05565b8060005b85811015613af45784840389528151613ad58582613a47565b9450613ae083614f71565b925060208a01995050600181019050613abc565b50829750879550505050505092915050565b6000613b1182614f45565b613b1b8185614f9c565b9350613b2683614f15565b8060005b83811015613b57578151613b3e8882613a5b565b9750613b4983614f7e565b925050600181019050613b2a565b5085935050505092915050565b613b6d8161501a565b82525050565b6000613b7e82614f50565b613b888185614fad565b9350613b9881856020860161508b565b613ba1816150be565b840191505092915050565b6000613bb782614f50565b613bc18185614fbe565b9350613bd181856020860161508b565b80840191505092915050565b6000613be882614f66565b613bf28185614fda565b9350613c0281856020860161508b565b613c0b816150be565b840191505092915050565b6000613c2182614f66565b613c2b8185614feb565b9350613c3b81856020860161508b565b80840191505092915050565b6000613c5282614f5b565b613c5c8185614fc9565b9350613c6c81856020860161508b565b613c75816150be565b840191505092915050565b600081546001811660008114613c9d5760018114613cc257613d06565b607f6002830416613cae8187614feb565b955060ff1983168652808601935050613d06565b60028204613cd08187614feb565b9550613cdb85614f25565b60005b82811015613cfd57815481890152600182019150602081019050613cde565b82880195505050505b505092915050565b6000613d1b601d83614fda565b91507f43727970746f507265733a20494420646f6573206e6f742065786973740000006000830152602082019050919050565b6000613d5b603383614fda565b91507f43727970746f507265733a20796f752063616e6e6f742073656e6420796f757260008301527f73656c66206120707265736372697074696f6e000000000000000000000000006020830152604082019050919050565b6000613dc1601083614fda565b91507f707265736372697074696f6e73555249000000000000000000000000000000006000830152602082019050919050565b6000613e01601e83614fda565b91507f616c6c20617272617973206d7573742062652073616d65206c656e67746800006000830152602082019050919050565b6000613e41602b83614fda565b91507f455243373231456e756d657261626c653a206f776e657220696e646578206f7560008301527f74206f6620626f756e64730000000000000000000000000000000000000000006020830152604082019050919050565b6000613ea7602483614fda565b91507f43727970746f507265733a206d696e7420746f20746865207a65726f2061646460008301527f72657373000000000000000000000000000000000000000000000000000000006020830152604082019050919050565b6000613f0d603283614fda565b91507f4552433732313a207472616e7366657220746f206e6f6e20455243373231526560008301527f63656976657220696d706c656d656e74657200000000000000000000000000006020830152604082019050919050565b6000613f73602f83614fda565b91507f43727970746f507265733a2063616e6e6f742073656e6420746f6b656e20746f60008301527f20636f6e7472616374206f776e657200000000000000000000000000000000006020830152604082019050919050565b6000613fd9601383614fda565b91507f746f6b656e4f664f776e65724279496e646578000000000000000000000000006000830152602082019050919050565b6000614019602783614fda565b91507f43727970746f507265733a2063616e6e6f742073656e6420746f6b656e20746f60008301527f20446f63746f72000000000000000000000000000000000000000000000000006020830152604082019050919050565b600061407f602e83614fda565b91507f4f776e61626c653a204f776e65722063616e6e6f7420736574207468656d736560008301527f6c76657320617320646f63746f720000000000000000000000000000000000006020830152604082019050919050565b60006140e5602983614fda565b91507f43727970746f507265733a206275726e206f6620746f6b656e2074686174206960008301527f73206e6f74206f776e00000000000000000000000000000000000000000000006020830152604082019050919050565b600061414b602483614fda565b91507f4552433732313a207472616e7366657220746f20746865207a65726f2061646460008301527f72657373000000000000000000000000000000000000000000000000000000006020830152604082019050919050565b60006141b1601983614fda565b91507f4552433732313a20617070726f766520746f2063616c6c6572000000000000006000830152602082019050919050565b60006141f1601383614fda565b91507f707265736372697074696f6e4279496e646578000000000000000000000000006000830152602082019050919050565b6000614231602c83614fda565b91507f4552433732313a206f70657261746f7220717565727920666f72206e6f6e657860008301527f697374656e7420746f6b656e00000000000000000000000000000000000000006020830152604082019050919050565b6000614297603883614fda565b91507f4552433732313a20617070726f76652063616c6c6572206973206e6f74206f7760008301527f6e6572206e6f7220617070726f76656420666f7220616c6c00000000000000006020830152604082019050919050565b60006142fd602a83614fda565b91507f4552433732313a2062616c616e636520717565727920666f7220746865207a6560008301527f726f2061646472657373000000000000000000000000000000000000000000006020830152604082019050919050565b6000614363602d83614fda565b91507f43727970746f507265733a207472616e73666572206f6620746f6b656e20746860008301527f6174206973206e6f74206f776e000000000000000000000000000000000000006020830152604082019050919050565b60006143c9602c83614fda565b91507f4552433732313a20617070726f76656420717565727920666f72206e6f6e657860008301527f697374656e7420746f6b656e00000000000000000000000000000000000000006020830152604082019050919050565b600061442f602983614fda565b91507f4552433732313a207472616e73666572206f6620746f6b656e2074686174206960008301527f73206e6f74206f776e00000000000000000000000000000000000000000000006020830152604082019050919050565b6000614495602f83614fda565b91507f4552433732314d657461646174613a2055524920717565727920666f72206e6f60008301527f6e6578697374656e7420746f6b656e00000000000000000000000000000000006020830152604082019050919050565b60006144fb602d83614fda565b91507f43727970746f507265733a206f6e6c7920446f636f722063616e2063616c6c2060008301527f746869732066756e6374696f6e000000000000000000000000000000000000006020830152604082019050919050565b6000614561602883614fda565b91507f43727970746f507265733a207472616e7366657220746f20746865207a65726f60008301527f20616464726573730000000000000000000000000000000000000000000000006020830152604082019050919050565b60006145c7602183614fda565b91507f4552433732313a20617070726f76616c20746f2063757272656e74206f776e6560008301527f72000000000000000000000000000000000000000000000000000000000000006020830152604082019050919050565b600061462d602d83614fda565b91507f43727970746f507265733a206f776e657220717565727920666f72206e6f6e6560008301527f78697374656e7420746f6b656e000000000000000000000000000000000000006020830152604082019050919050565b6000614693603183614fda565b91507f4552433732313a207472616e736665722063616c6c6572206973206e6f74206f60008301527f776e6572206e6f7220617070726f7665640000000000000000000000000000006020830152604082019050919050565b60006146f9602c83614fda565b91507f455243373231456e756d657261626c653a20676c6f62616c20696e646578206f60008301527f7574206f6620626f756e647300000000000000000000000000000000000000006020830152604082019050919050565b600061475f603983614fda565b91507f43727970746f507265733a20796f752063616e6e6f742073656e6420636f6e7460008301527f72616374206f776e6572206120707265736372697074696f6e000000000000006020830152604082019050919050565b60006147c5602483614fda565b91507f43727970746f507265733a2063616e6e6f742073656e642073656c662061207460008301527f6f6b656e000000000000000000000000000000000000000000000000000000006020830152604082019050919050565b600061482b602083614fda565b91507f43727970746f507265733a20746f6b656e20616c7265616479206d696e7465646000830152602082019050919050565b600061486b602083614fda565b91507f43727970746f507265733a20656e7472792063616e6e6f74206265206e756c6c6000830152602082019050919050565b600060608301600083015184820360008601526148bb8282613c47565b915050602083015184820360208601526148d58282613c47565b915050604083015184820360408601526148ef8282613c47565b9150508091505092915050565b61490581615072565b82525050565b61491481615072565b82525050565b60006149268284613bac565b915081905092915050565b600061493d8285613c80565b91506149498284613c16565b91508190509392505050565b600060208201905061496a6000830184613a82565b92915050565b60006080820190506149856000830187613a73565b6149926020830186613a82565b61499f604083018561490b565b81810360608301526149b18184613b73565b905095945050505050565b600060208201905081810360008301526149d68184613a91565b905092915050565b600060208201905081810360008301526149f88184613b06565b905092915050565b6000602082019050614a156000830184613b64565b92915050565b60006020820190508181036000830152614a358184613bdd565b905092915050565b60006020820190508181036000830152614a5681613d0e565b9050919050565b60006020820190508181036000830152614a7681613d4e565b9050919050565b60006020820190508181036000830152614a9681613db4565b9050919050565b60006020820190508181036000830152614ab681613df4565b9050919050565b60006020820190508181036000830152614ad681613e34565b9050919050565b60006020820190508181036000830152614af681613e9a565b9050919050565b60006020820190508181036000830152614b1681613f00565b9050919050565b60006020820190508181036000830152614b3681613f66565b9050919050565b60006020820190508181036000830152614b5681613fcc565b9050919050565b60006020820190508181036000830152614b768161400c565b9050919050565b60006020820190508181036000830152614b9681614072565b9050919050565b60006020820190508181036000830152614bb6816140d8565b9050919050565b60006020820190508181036000830152614bd68161413e565b9050919050565b60006020820190508181036000830152614bf6816141a4565b9050919050565b60006020820190508181036000830152614c16816141e4565b9050919050565b60006020820190508181036000830152614c3681614224565b9050919050565b60006020820190508181036000830152614c568161428a565b9050919050565b60006020820190508181036000830152614c76816142f0565b9050919050565b60006020820190508181036000830152614c9681614356565b9050919050565b60006020820190508181036000830152614cb6816143bc565b9050919050565b60006020820190508181036000830152614cd681614422565b9050919050565b60006020820190508181036000830152614cf681614488565b9050919050565b60006020820190508181036000830152614d16816144ee565b9050919050565b60006020820190508181036000830152614d3681614554565b9050919050565b60006020820190508181036000830152614d56816145ba565b9050919050565b60006020820190508181036000830152614d7681614620565b9050919050565b60006020820190508181036000830152614d9681614686565b9050919050565b60006020820190508181036000830152614db6816146ec565b9050919050565b60006020820190508181036000830152614dd681614752565b9050919050565b60006020820190508181036000830152614df6816147b8565b9050919050565b60006020820190508181036000830152614e168161481e565b9050919050565b60006020820190508181036000830152614e368161485e565b9050919050565b6000602082019050614e52600083018461490b565b92915050565b6000604051905081810181811067ffffffffffffffff82111715614e7b57600080fd5b8060405250919050565b600067ffffffffffffffff821115614e9c57600080fd5b602082029050602081019050919050565b600067ffffffffffffffff821115614ec457600080fd5b601f19601f8301169050602081019050919050565b600067ffffffffffffffff821115614ef057600080fd5b601f19601f8301169050602081019050919050565b6000819050602082019050919050565b6000819050602082019050919050565b60008190508160005260206000209050919050565b600081519050919050565b600081519050919050565b600081519050919050565b600081519050919050565b600081519050919050565b6000602082019050919050565b6000602082019050919050565b600082825260208201905092915050565b600082825260208201905092915050565b600082825260208201905092915050565b600081905092915050565b600082825260208201905092915050565b600082825260208201905092915050565b600081905092915050565b600061500182615052565b9050919050565b600061501382615052565b9050919050565b60008115159050919050565b60007fffffffff0000000000000000000000000000000000000000000000000000000082169050919050565b600073ffffffffffffffffffffffffffffffffffffffff82169050919050565b6000819050919050565b82818337600083830152505050565b60005b838110156150a957808201518184015260208101905061508e565b838111156150b8576000848401525b50505050565b6000601f19601f8301169050919050565b6150d881614ff6565b81146150e357600080fd5b50565b6150ef8161501a565b81146150fa57600080fd5b50565b61510681615026565b811461511157600080fd5b50565b61511d81615072565b811461512857600080fd5b5056fea365627a7a72315820c17c78644fe1140d89707211ab4157db4ddbcfa29a96f7253c0cfad06bd0f2bb6c6578706572696d656e74616cf564736f6c634300050c0040",
  "source": "// File: contracts\\PresChain.sol\r\n\r\npragma solidity ^0.5.12;\r\n\r\npragma experimental ABIEncoderV2;\r\n\r\nimport \"./ERC721Full.sol\";\r\nimport \"./Ownable.sol\";\r\n\r\ncontract CryptoPres is  ERC721Full(\"CryptoPres\",\"PRES\"), Ownable {\r\n\r\n\r\n\r\n\r\n\r\n    // Token name \"CryptoPres\";\r\n\r\n\r\n    // Token symbol \"PRES\";\r\n\r\n    // Mapping from token ID to owner\r\n    mapping (uint256 => address) private tokenOwner;\r\n\r\n    // Mapping from owner to list of owned token IDs\r\n\r\n    mapping(address => uint256[]) internal ownedPrescriptions;\r\n\r\n\r\n    // Mapping from token ID to index of the owner tokens list\r\n\r\n    mapping(uint256 => uint256) internal ownedPrescriptionsIndex;\r\n\r\n    // Mapping from owner to number of owned token\r\n    mapping (address => Counters.Counter) private ownedTokensCount;\r\n\r\n    // Array with all token ids, used for enumeration\r\n\r\n    uint256[] internal allPrescriptions;\r\n\r\n\r\n    // Mapping from token id to position in the allPrescriptions array\r\n\r\n    mapping(uint256 => uint256) internal allPrescriptionsIndex;\r\n\r\n\r\n    // Optional mapping for token URIs\r\n\r\n    mapping(uint256 => string) internal PrescriptionURIs;\r\n\r\n\r\n    struct Data{\r\n\r\n        string drugName;\r\n\r\n        string drugCode;\r\n\r\n        string dosage;\r\n\r\n    }\r\n\r\n    Data[] dataArray;\r\n\r\n\r\n\r\n    mapping(uint256 => Data[]) internal prescriptionData;\r\n\r\n\r\n\r\n\r\n    function mint(address _to, uint256 _id) external onlyDoctor {\r\n\r\n        _mint(_to, _id);\r\n\r\n    }\r\n\r\n\r\n    function arrayOfPrescriptionsByAddress(address _holder) public view returns(uint256[] memory) {\r\n\r\n        return ownedPrescriptions[_holder];\r\n\r\n    }\r\n\r\n\r\n    /**\r\n\r\n     * @dev Returns an URI for a given token ID\r\n\r\n     * @dev Throws if the token ID does not exist. May return an empty string.\r\n\r\n     * @param _presId uint256 ID of the token to query\r\n\r\n     */\r\n\r\n    function prescriptionsURI(uint256 _presId) public view returns (string memory) {\r\n\r\n        require(_exists(_presId),\"prescriptionsURI\");\r\n\r\n        return PrescriptionURIs[_presId];\r\n\r\n    }\r\n\r\n\r\n    /**\r\n\r\n     * @dev Gets the token ID at a given index of the tokens list of the requested owner\r\n\r\n     * @param _owner address owning the tokens list to be accessed\r\n\r\n     * @param _index uint256 representing the index to be accessed of the requested tokens list\r\n\r\n     * @return uint256 token ID at the given index of the tokens list owned by the requested address\r\n\r\n     */\r\n\r\n    function prescriptionOfOwnerByIndex(address _owner, uint256 _index) public view returns (uint256) {\r\n\r\n        require(_index < balanceOf(_owner), \"tokenOfOwnerByIndex\");\r\n\r\n        return ownedPrescriptions[_owner][_index];\r\n\r\n    }\r\n\r\n\r\n    /**\r\n\r\n     * @dev Gets the total amount of tokens stored by the contract\r\n\r\n     * @return uint256 representing the total amount of tokens\r\n\r\n     */\r\n\r\n    function totalSupply() public view returns (uint256) {\r\n\r\n        return allPrescriptions.length;\r\n\r\n    }\r\n\r\n\r\n    /**\r\n\r\n     * @dev Gets the token ID at a given index of all the tokens in this contract\r\n\r\n     * @dev Reverts if the index is greater or equal to the total number of tokens\r\n\r\n     * @param _index uint256 representing the index to be accessed of the tokens list\r\n\r\n     * @return uint256 token ID at the given index of the tokens list\r\n\r\n     */\r\n\r\n    function prescriptionByIndex(uint256 _index) public view returns (uint256) {\r\n\r\n        require(_index < totalSupply(),\"prescriptionByIndex\");\r\n\r\n        return allPrescriptions[_index];\r\n\r\n    }\r\n\r\n\r\n    /**\r\n\r\n     * @dev Internal function to set the token URI for a given token\r\n\r\n     * @dev Reverts if the token ID does not exist\r\n\r\n     * @param _presId uint256 ID of the token to set its URI\r\n\r\n     * @param _uri string URI to assign\r\n\r\n     */\r\n\r\n    function _setprescriptionsURI(uint256 _presId, string memory _uri) internal {\r\n\r\n        require(_exists(_presId),\"_setprescriptionsURI\");\r\n\r\n        PrescriptionURIs[_presId] = _uri;\r\n\r\n    }\r\n\r\n\r\n\r\n\r\n    /**\r\n\r\n     * @dev Internal function to add a token ID to the list of a given address\r\n\r\n     * @param _to address representing the new owner of the given token ID\r\n\r\n     * @param _presId uint256 ID of the token to be added to the tokens list of the given address\r\n\r\n     */\r\n\r\n    function addPrescriptionTo(address _to, uint256 _presId) internal {\r\n\r\n        _mint(_to, _presId);\r\n\r\n        uint256 length = ownedPrescriptions[_to].length;\r\n\r\n        ownedPrescriptions[_to].push(_presId);\r\n\r\n        ownedPrescriptionsIndex[_presId] = length;\r\n\r\n    }\r\n\r\n    event PrescriptionData(Data[] _array);\r\n\r\n\r\n    function destroy(uint256 _id) public {\r\n        Data[] memory _array = getprescriptionData(_id);\r\n        address owner = msg.sender;\r\n        //requirements\r\n        require(ownerOf(_id) == owner, \"CryptoPres: burn of token that is not own\");\r\n\r\n        //reduce the amount of tokens owner has\r\n        ownedTokensCount[owner].decrement();\r\n        //remove old address for the token\r\n        tokenOwner[_id] = address(0);\r\n\r\n        //deal with the mappings\r\n        _removeTokenFromOwnerEnumeration(owner, _id);\r\n        // Since tokenId will be deleted, we can clear its slot in _ownedTokensIndex to trigger a gas refund\r\n        ownedPrescriptionsIndex[_id] = 0;\r\n\r\n        _removeTokenFromAllTokensEnumeration(_id);\r\n\r\n        //emit the data that was in the Prescription for use in other projects\r\n        emit PrescriptionData(_array);\r\n    }\r\n\r\n    function _removeTokenFromAllTokensEnumeration(uint256 tokenId) private {\r\n        // To prevent a gap in the tokens array, we store the last token in the index of the token to delete, and\r\n        // then delete the last slot (swap and pop).\r\n\r\n        uint256 lastTokenIndex = allPrescriptions.length.sub(1);\r\n        uint256 tokenIndex = allPrescriptionsIndex[tokenId];\r\n\r\n        // When the token to delete is the last token, the swap operation is unnecessary. However, since this occurs so\r\n        // rarely (when the last minted token is burnt) that we still do the swap here to avoid the gas cost of adding\r\n        // an 'if' statement (like in _removeTokenFromOwnerEnumeration)\r\n        uint256 lastTokenId = allPrescriptions[lastTokenIndex];\r\n\r\n        allPrescriptions[tokenIndex] = lastTokenId; // Move the last token to the slot of the to-delete token\r\n        allPrescriptionsIndex[lastTokenId] = tokenIndex; // Update the moved token's index\r\n\r\n        // This also deletes the contents at the last position of the array\r\n        allPrescriptions.length--;\r\n        allPrescriptionsIndex[tokenId] = 0;\r\n\r\n    }\r\n\r\n\r\n\r\n    function transferPres(address _to, uint256 _tokenId) public{\r\n        address from = msg.sender;\r\n\r\n        require(ownerOf(_tokenId) == from, \"CryptoPres: transfer of token that is not own\");\r\n        require(_to != doctor, \"CryptoPres: cannot send token to Doctor\");\r\n        require(_to != owner, \"CryptoPres: cannot send token to contract owner\");\r\n        require(_to != address(0), \"CryptoPres: transfer to the zero address\");\r\n\r\n\r\n        //increase remove the index from one and add to the other\r\n        ownedTokensCount[from].decrement();\r\n        ownedTokensCount[_to].increment();\r\n\r\n        //set new owner\r\n        tokenOwner[_tokenId] = _to;\r\n\r\n        //deal with the mappings\r\n        _removeTokenFromOwnerEnumeration(from, _tokenId);\r\n        _addTokenToOwnerEnumeration(_to, _tokenId);\r\n\r\n    }\r\n\r\n    //return error if token does not exist\r\n    function _exists(uint256 tokenId) internal view returns (bool) {\r\n        address owner = tokenOwner[tokenId];\r\n        return owner != address(0);\r\n    }\r\n\r\n    //return the owner of the token id\r\n     function ownerOf(uint256 tokenId) public view returns (address) {\r\n        address owner = tokenOwner[tokenId];\r\n        require(owner != address(0), \"CryptoPres: owner query for nonexistent token\");\r\n\r\n        return owner;\r\n    }\r\n\r\n    /*\r\n    * adding the token to the Owned prescriptions of the owner\r\n    */\r\n\r\n    function _addTokenToOwnerEnumeration(address to, uint256 tokenId) private {\r\n        ownedPrescriptionsIndex[tokenId] = ownedPrescriptions[to].length;\r\n        ownedPrescriptions[to].push(tokenId);\r\n    }\r\n\r\n     /**\r\n     * @dev Private function to add a token to this extension's token tracking data structures.\r\n     * @param tokenId uint256 ID of the token to be added to the tokens list\r\n     */\r\n    function _addTokenToAllTokensEnumeration(uint256 tokenId) private {\r\n        allPrescriptionsIndex[tokenId] = allPrescriptions.length;\r\n        allPrescriptions.push(tokenId);\r\n    }\r\n\r\n    /**\r\n\r\n     * @dev Internal function to mint a new token\r\n\r\n     * @dev Reverts if the given token ID already exists\r\n\r\n     * @param _to address the beneficiary that will own the minted token\r\n\r\n     */\r\n\r\n    function _mint(address _to, uint256 _id) internal {\r\n        require(_to != msg.sender, \"CryptoPres: you cannot send yourself a prescription\");\r\n        require(_to != owner, \"CryptoPres: you cannot send contract owner a prescription\");\r\n\r\n        _addTokenToAllTokensEnumeration(_id);\r\n\r\n        _addTokenToOwnerEnumeration(_to, _id);\r\n\r\n        require(_to != address(0), \"CryptoPres: mint to the zero address\");\r\n        require(!_exists(_id), \"CryptoPres: token already minted\");\r\n\r\n        tokenOwner[_id] = _to;\r\n        ownedTokensCount[_to].increment();\r\n\r\n\r\n    }\r\n\r\n    /**\r\n    *   ERC721 standard for adding and removing data from and to mappings correctly.\r\n    */\r\n\r\n    function _removeTokenFromOwnerEnumeration(address from, uint256 tokenId) private {\r\n        // To prevent a gap in from's tokens array, we store the last token in the index of the token to delete, and\r\n        // then delete the last slot (swap and pop).\r\n\r\n        uint256 lastTokenIndex = ownedPrescriptions[from].length.sub(1);\r\n        uint256 tokenIndex = ownedPrescriptionsIndex[tokenId];\r\n\r\n        // When the token to delete is the last token, the swap operation is unnecessary\r\n        if (tokenIndex != lastTokenIndex) {\r\n            uint256 lastTokenId = ownedPrescriptions[from][lastTokenIndex];\r\n\r\n            ownedPrescriptions[from][tokenIndex] = lastTokenId; // Move the last token to the slot of the to-delete token\r\n            ownedPrescriptionsIndex[lastTokenId] = tokenIndex; // Update the moved token's index\r\n        }\r\n\r\n        // This also deletes the contents at the last position of the array\r\n        ownedPrescriptions[from].length--;\r\n\r\n        // Note that _ownedTokensIndex[tokenId] hasn't been cleared: it still points to the old slot (now occupied by\r\n        // lastTokenId, or just over the end of the array if the token was the last one).\r\n    }\r\n\r\n    /**\r\n    *   This function is used to batch together some functions to reduce the transaction costs and quantity.\r\n    *   The function creates the token and mints it to the address of the customer - then generates the data from arrays to collect them into a single array and add that data to the token.\r\n    *   All in one transaction\r\n    */\r\n\r\n    function addprescriptionDatatoArrayBatch(address _to, uint _presId, string[] memory _drugName, string[] memory _drugCode, string[] memory _dosage) public onlyDoctor{\r\n        //requirements\r\n        require(_drugName.length == _drugCode.length && _drugCode.length == _dosage.length, \"all arrays must be same length\");\r\n        require(msg.sender != _to, \"CryptoPres: cannot send self a token\");\r\n        //call the mint function (create the token generate the data and push data to the token.)\r\n        _mint(_to, _presId);\r\n       for (uint i=0; i<_drugName.length; i++) {\r\n           addprescriptionDatatoArray(_drugName[i], _drugCode[i], _dosage[i]);\r\n        }\r\n        addprescriptionData(_presId);\r\n    }\r\n\r\n    //collect information from single arrays into an array of structs\r\n    function addprescriptionDatatoArray(string memory _drugName, string memory _drugCode, string memory _dosage) internal onlyDoctor{\r\n        bytes memory tempEmptyStringTest = bytes(_drugName); // Uses memory\r\n        bytes memory tempEmptyStringTest1 = bytes(_drugCode); // Uses memory\r\n        bytes memory tempEmptyStringTest2 = bytes(_dosage); // Uses memory\r\n        //Testing to make sure that there are no null values\r\n        require(tempEmptyStringTest.length != 0,\"CryptoPres: entry cannot be null\");\r\n        require(tempEmptyStringTest1.length != 0,\"CryptoPres: entry cannot be null\");\r\n        require(tempEmptyStringTest2.length != 0,\"CryptoPres: entry cannot be null\");\r\n\r\n        //create data struct\r\n        Data memory d = Data(_drugName,_drugCode,_dosage);\r\n        //push d to the global dataArray\r\n        dataArray.push(d);\r\n    }\r\n\r\n\r\n    function addprescriptionData(uint _presId) internal onlyDoctor{\r\n        //requirements\r\n        require(_exists(_presId),\"CryptoPres: ID does not exist\");\r\n        require(doctor == msg.sender,\"CryptoPres: only Docor can call this function\");\r\n            //add prescriptionData to mapping of ID\r\n            prescriptionData[_presId] = dataArray;\r\n            //empty the array\r\n            delete dataArray;\r\n\r\n    }\r\n\r\n    function getprescriptionData(uint _presId) public view returns(Data[] memory _array){\r\n        //make sure the id exists\r\n        require(_exists(_presId),\"CryptoPres: ID does not exist\");\r\n        //get the array of drugs from the id and return\r\n        _array = prescriptionData[_presId];\r\n    }\r\n\r\n\r\n\r\n}\r\n",
  "sourcePath": "C:/Users/Shane/Documents/truffleProjects/Currenty Working Directory/PresChain/contracts/PresChain.sol",
  "compiler": {
    "name": "solc",
    "version": "0.5.12+commit.7709ece9.Emscripten.clang"
  },
  "schemaVersion": "3.0.16",
  "updatedAt": "2020-05-07T18:17:10.759Z",
  "devdoc": {
    "methods": {
      "approve(address,uint256)": {
        "details": "Approves another address to transfer the given token ID The zero address indicates there is no approved address. There can only be one approved address per token at a given time. Can only be called by the token owner or an approved operator.",
        "params": {
          "to": "address to be approved for the given token ID",
          "tokenId": "uint256 ID of the token to be approved"
        }
      },
      "balanceOf(address)": {
        "details": "Gets the balance of the specified address.",
        "params": {
          "owner": "address to query the balance of"
        },
        "return": "uint256 representing the amount owned by the passed address"
      },
      "baseURI()": {
        "details": "Returns the base URI set via {_setBaseURI}. This will be automatically added as a preffix in {tokenURI} to each token's URI, when they are non-empty.     * _Available since v2.5.0._"
      },
      "claimOwnership()": {
        "details": "Allows the pendingOwner address to finalize the transfer."
      },
      "getApproved(uint256)": {
        "details": "Gets the approved address for a token ID, or zero if no address set Reverts if the token ID does not exist.",
        "params": {
          "tokenId": "uint256 ID of the token to query the approval of"
        },
        "return": "address currently approved for the given token ID"
      },
      "isApprovedForAll(address,address)": {
        "details": "Tells whether an operator is approved by a given owner.",
        "params": {
          "operator": "operator address which you want to query the approval of",
          "owner": "owner address which you want to query the approval of"
        },
        "return": "bool whether the given operator is approved by the given owner"
      },
      "name()": {
        "details": "Gets the token name.",
        "return": "string representing the token name"
      },
      "prescriptionByIndex(uint256)": {
        "details": "Gets the token ID at a given index of all the tokens in this contractReverts if the index is greater or equal to the total number of tokens",
        "params": {
          "_index": "uint256 representing the index to be accessed of the tokens list"
        },
        "return": "uint256 token ID at the given index of the tokens list"
      },
      "prescriptionOfOwnerByIndex(address,uint256)": {
        "details": "Gets the token ID at a given index of the tokens list of the requested owner",
        "params": {
          "_index": "uint256 representing the index to be accessed of the requested tokens list",
          "_owner": "address owning the tokens list to be accessed"
        },
        "return": "uint256 token ID at the given index of the tokens list owned by the requested address"
      },
      "prescriptionsURI(uint256)": {
        "details": "Returns an URI for a given token IDThrows if the token ID does not exist. May return an empty string.",
        "params": {
          "_presId": "uint256 ID of the token to query"
        }
      },
      "safeTransferFrom(address,address,uint256)": {
        "details": "Safely transfers the ownership of a given token ID to another address If the target address is a contract, it must implement {IERC721Receiver-onERC721Received}, which is called upon a safe transfer, and return the magic value `bytes4(keccak256(\"onERC721Received(address,address,uint256,bytes)\"))`; otherwise, the transfer is reverted. Requires the msg.sender to be the owner, approved, or operator",
        "params": {
          "from": "current owner of the token",
          "to": "address to receive the ownership of the given token ID",
          "tokenId": "uint256 ID of the token to be transferred"
        }
      },
      "safeTransferFrom(address,address,uint256,bytes)": {
        "details": "Safely transfers the ownership of a given token ID to another address If the target address is a contract, it must implement {IERC721Receiver-onERC721Received}, which is called upon a safe transfer, and return the magic value `bytes4(keccak256(\"onERC721Received(address,address,uint256,bytes)\"))`; otherwise, the transfer is reverted. Requires the _msgSender() to be the owner, approved, or operator",
        "params": {
          "_data": "bytes data to send along with a safe transfer check",
          "from": "current owner of the token",
          "to": "address to receive the ownership of the given token ID",
          "tokenId": "uint256 ID of the token to be transferred"
        }
      },
      "setApprovalForAll(address,bool)": {
        "details": "Sets or unsets the approval of a given operator An operator is allowed to transfer all tokens of the sender on their behalf.",
        "params": {
          "approved": "representing the status of the approval to be set",
          "to": "operator address to set the approval"
        }
      },
      "setDoctor(address)": {
        "details": "Sets the doctor address.",
        "params": {
          "_doctor": "The doctor address."
        }
      },
      "supportsInterface(bytes4)": {
        "details": "See {IERC165-supportsInterface}.      * Time complexity O(1), guaranteed to always use less than 30 000 gas."
      },
      "symbol()": {
        "details": "Gets the token symbol.",
        "return": "string representing the token symbol"
      },
      "tokenByIndex(uint256)": {
        "details": "Gets the token ID at a given index of all the tokens in this contract Reverts if the index is greater or equal to the total number of tokens.",
        "params": {
          "index": "uint256 representing the index to be accessed of the tokens list"
        },
        "return": "uint256 token ID at the given index of the tokens list"
      },
      "tokenOfOwnerByIndex(address,uint256)": {
        "details": "Gets the token ID at a given index of the tokens list of the requested owner.",
        "params": {
          "index": "uint256 representing the index to be accessed of the requested tokens list",
          "owner": "address owning the tokens list to be accessed"
        },
        "return": "uint256 token ID at the given index of the tokens list owned by the requested address"
      },
      "tokenURI(uint256)": {
        "details": "Returns the URI for a given token ID. May return an empty string.      * If the token's URI is non-empty and a base URI was set (via {_setBaseURI}), it will be added to the token ID's URI as a prefix.      * Reverts if the token ID does not exist."
      },
      "totalSupply()": {
        "details": "Gets the total amount of tokens stored by the contract",
        "return": "uint256 representing the total amount of tokens"
      },
      "transferFrom(address,address,uint256)": {
        "details": "Transfers the ownership of a given token ID to another address. Usage of this method is discouraged, use {safeTransferFrom} whenever possible. Requires the msg.sender to be the owner, approved, or operator.",
        "params": {
          "from": "current owner of the token",
          "to": "address to receive the ownership of the given token ID",
          "tokenId": "uint256 ID of the token to be transferred"
        }
      },
      "transferOwnership(address)": {
        "details": "Allows the current owner to set the pendingOwner address.",
        "params": {
          "newOwner": "The address to transfer ownership to."
        }
      }
    }
  },
  "userdoc": {
    "methods": {
      "addprescriptionDatatoArrayBatch(address,uint256,string[],string[],string[])": {
        "notice": "This function is used to batch together some functions to reduce the transaction costs and quantity.  The function creates the token and mints it to the address of the customer - then generates the data from arrays to collect them into a single array and add that data to the token.  All in one transaction"
      }
    }
  }
}