{
  "contractName": "CryptoPres",
  "abi": [
    {
      "anonymous": false,
      "inputs": [
        {
          "indexed": true,
          "internalType": "address",
          "name": "owner",
          "type": "address"
        },
        {
          "indexed": true,
          "internalType": "address",
          "name": "approved",
          "type": "address"
        },
        {
          "indexed": true,
          "internalType": "uint256",
          "name": "tokenId",
          "type": "uint256"
        }
      ],
      "name": "Approval",
      "type": "event"
    },
    {
      "anonymous": false,
      "inputs": [
        {
          "indexed": true,
          "internalType": "address",
          "name": "owner",
          "type": "address"
        },
        {
          "indexed": true,
          "internalType": "address",
          "name": "operator",
          "type": "address"
        },
        {
          "indexed": false,
          "internalType": "bool",
          "name": "approved",
          "type": "bool"
        }
      ],
      "name": "ApprovalForAll",
      "type": "event"
    },
    {
      "anonymous": false,
      "inputs": [
        {
          "indexed": true,
          "internalType": "address",
          "name": "previousOwner",
          "type": "address"
        },
        {
          "indexed": true,
          "internalType": "address",
          "name": "newOwner",
          "type": "address"
        }
      ],
      "name": "OwnershipTransferred",
      "type": "event"
    },
    {
      "anonymous": false,
      "inputs": [
        {
          "components": [
            {
              "internalType": "string",
              "name": "drugName",
              "type": "string"
            },
            {
              "internalType": "string",
              "name": "drugCode",
              "type": "string"
            },
            {
              "internalType": "string",
              "name": "dosage",
              "type": "string"
            }
          ],
          "indexed": false,
          "internalType": "struct CryptoPres.Data[]",
          "name": "_array",
          "type": "tuple[]"
        }
      ],
      "name": "PrescriptionData",
      "type": "event"
    },
    {
      "anonymous": false,
      "inputs": [
        {
          "indexed": true,
          "internalType": "address",
          "name": "from",
          "type": "address"
        },
        {
          "indexed": true,
          "internalType": "address",
          "name": "to",
          "type": "address"
        },
        {
          "indexed": true,
          "internalType": "uint256",
          "name": "tokenId",
          "type": "uint256"
        }
      ],
      "name": "Transfer",
      "type": "event"
    },
    {
      "constant": false,
      "inputs": [
        {
          "internalType": "address",
          "name": "to",
          "type": "address"
        },
        {
          "internalType": "uint256",
          "name": "tokenId",
          "type": "uint256"
        }
      ],
      "name": "approve",
      "outputs": [],
      "payable": false,
      "stateMutability": "nonpayable",
      "type": "function"
    },
    {
      "constant": true,
      "inputs": [
        {
          "internalType": "address",
          "name": "owner",
          "type": "address"
        }
      ],
      "name": "balanceOf",
      "outputs": [
        {
          "internalType": "uint256",
          "name": "",
          "type": "uint256"
        }
      ],
      "payable": false,
      "stateMutability": "view",
      "type": "function"
    },
    {
      "constant": true,
      "inputs": [],
      "name": "baseURI",
      "outputs": [
        {
          "internalType": "string",
          "name": "",
          "type": "string"
        }
      ],
      "payable": false,
      "stateMutability": "view",
      "type": "function"
    },
    {
      "constant": false,
      "inputs": [],
      "name": "claimOwnership",
      "outputs": [],
      "payable": false,
      "stateMutability": "nonpayable",
      "type": "function"
    },
    {
      "constant": true,
      "inputs": [],
      "name": "doctor",
      "outputs": [
        {
          "internalType": "address",
          "name": "",
          "type": "address"
        }
      ],
      "payable": false,
      "stateMutability": "view",
      "type": "function"
    },
    {
      "constant": true,
      "inputs": [
        {
          "internalType": "uint256",
          "name": "tokenId",
          "type": "uint256"
        }
      ],
      "name": "getApproved",
      "outputs": [
        {
          "internalType": "address",
          "name": "",
          "type": "address"
        }
      ],
      "payable": false,
      "stateMutability": "view",
      "type": "function"
    },
    {
      "constant": true,
      "inputs": [
        {
          "internalType": "address",
          "name": "owner",
          "type": "address"
        },
        {
          "internalType": "address",
          "name": "operator",
          "type": "address"
        }
      ],
      "name": "isApprovedForAll",
      "outputs": [
        {
          "internalType": "bool",
          "name": "",
          "type": "bool"
        }
      ],
      "payable": false,
      "stateMutability": "view",
      "type": "function"
    },
    {
      "constant": true,
      "inputs": [],
      "name": "name",
      "outputs": [
        {
          "internalType": "string",
          "name": "",
          "type": "string"
        }
      ],
      "payable": false,
      "stateMutability": "view",
      "type": "function"
    },
    {
      "constant": true,
      "inputs": [],
      "name": "owner",
      "outputs": [
        {
          "internalType": "address",
          "name": "",
          "type": "address"
        }
      ],
      "payable": false,
      "stateMutability": "view",
      "type": "function"
    },
    {
      "constant": true,
      "inputs": [],
      "name": "pendingOwner",
      "outputs": [
        {
          "internalType": "address",
          "name": "",
          "type": "address"
        }
      ],
      "payable": false,
      "stateMutability": "view",
      "type": "function"
    },
    {
      "constant": false,
      "inputs": [
        {
          "internalType": "address",
          "name": "from",
          "type": "address"
        },
        {
          "internalType": "address",
          "name": "to",
          "type": "address"
        },
        {
          "internalType": "uint256",
          "name": "tokenId",
          "type": "uint256"
        }
      ],
      "name": "safeTransferFrom",
      "outputs": [],
      "payable": false,
      "stateMutability": "nonpayable",
      "type": "function"
    },
    {
      "constant": false,
      "inputs": [
        {
          "internalType": "address",
          "name": "from",
          "type": "address"
        },
        {
          "internalType": "address",
          "name": "to",
          "type": "address"
        },
        {
          "internalType": "uint256",
          "name": "tokenId",
          "type": "uint256"
        },
        {
          "internalType": "bytes",
          "name": "_data",
          "type": "bytes"
        }
      ],
      "name": "safeTransferFrom",
      "outputs": [],
      "payable": false,
      "stateMutability": "nonpayable",
      "type": "function"
    },
    {
      "constant": false,
      "inputs": [
        {
          "internalType": "address",
          "name": "to",
          "type": "address"
        },
        {
          "internalType": "bool",
          "name": "approved",
          "type": "bool"
        }
      ],
      "name": "setApprovalForAll",
      "outputs": [],
      "payable": false,
      "stateMutability": "nonpayable",
      "type": "function"
    },
    {
      "constant": false,
      "inputs": [
        {
          "internalType": "address",
          "name": "_doctor",
          "type": "address"
        }
      ],
      "name": "setDoctor",
      "outputs": [],
      "payable": false,
      "stateMutability": "nonpayable",
      "type": "function"
    },
    {
      "constant": true,
      "inputs": [
        {
          "internalType": "bytes4",
          "name": "interfaceId",
          "type": "bytes4"
        }
      ],
      "name": "supportsInterface",
      "outputs": [
        {
          "internalType": "bool",
          "name": "",
          "type": "bool"
        }
      ],
      "payable": false,
      "stateMutability": "view",
      "type": "function"
    },
    {
      "constant": true,
      "inputs": [],
      "name": "symbol",
      "outputs": [
        {
          "internalType": "string",
          "name": "",
          "type": "string"
        }
      ],
      "payable": false,
      "stateMutability": "view",
      "type": "function"
    },
    {
      "constant": true,
      "inputs": [
        {
          "internalType": "uint256",
          "name": "index",
          "type": "uint256"
        }
      ],
      "name": "tokenByIndex",
      "outputs": [
        {
          "internalType": "uint256",
          "name": "",
          "type": "uint256"
        }
      ],
      "payable": false,
      "stateMutability": "view",
      "type": "function"
    },
    {
      "constant": true,
      "inputs": [
        {
          "internalType": "address",
          "name": "owner",
          "type": "address"
        },
        {
          "internalType": "uint256",
          "name": "index",
          "type": "uint256"
        }
      ],
      "name": "tokenOfOwnerByIndex",
      "outputs": [
        {
          "internalType": "uint256",
          "name": "",
          "type": "uint256"
        }
      ],
      "payable": false,
      "stateMutability": "view",
      "type": "function"
    },
    {
      "constant": true,
      "inputs": [
        {
          "internalType": "uint256",
          "name": "tokenId",
          "type": "uint256"
        }
      ],
      "name": "tokenURI",
      "outputs": [
        {
          "internalType": "string",
          "name": "",
          "type": "string"
        }
      ],
      "payable": false,
      "stateMutability": "view",
      "type": "function"
    },
    {
      "constant": false,
      "inputs": [
        {
          "internalType": "address",
          "name": "from",
          "type": "address"
        },
        {
          "internalType": "address",
          "name": "to",
          "type": "address"
        },
        {
          "internalType": "uint256",
          "name": "tokenId",
          "type": "uint256"
        }
      ],
      "name": "transferFrom",
      "outputs": [],
      "payable": false,
      "stateMutability": "nonpayable",
      "type": "function"
    },
    {
      "constant": false,
      "inputs": [
        {
          "internalType": "address",
          "name": "newOwner",
          "type": "address"
        }
      ],
      "name": "transferOwnership",
      "outputs": [],
      "payable": false,
      "stateMutability": "nonpayable",
      "type": "function"
    },
    {
      "constant": false,
      "inputs": [
        {
          "internalType": "address",
          "name": "_to",
          "type": "address"
        },
        {
          "internalType": "uint256",
          "name": "_id",
          "type": "uint256"
        }
      ],
      "name": "mint",
      "outputs": [],
      "payable": false,
      "stateMutability": "nonpayable",
      "type": "function"
    },
    {
      "constant": true,
      "inputs": [
        {
          "internalType": "address",
          "name": "_holder",
          "type": "address"
        }
      ],
      "name": "arrayOfPrescriptionsByAddress",
      "outputs": [
        {
          "internalType": "uint256[]",
          "name": "",
          "type": "uint256[]"
        }
      ],
      "payable": false,
      "stateMutability": "view",
      "type": "function"
    },
    {
      "constant": true,
      "inputs": [
        {
          "internalType": "uint256",
          "name": "_presId",
          "type": "uint256"
        }
      ],
      "name": "prescriptionsURI",
      "outputs": [
        {
          "internalType": "string",
          "name": "",
          "type": "string"
        }
      ],
      "payable": false,
      "stateMutability": "view",
      "type": "function"
    },
    {
      "constant": true,
      "inputs": [
        {
          "internalType": "address",
          "name": "_owner",
          "type": "address"
        },
        {
          "internalType": "uint256",
          "name": "_index",
          "type": "uint256"
        }
      ],
      "name": "prescriptionOfOwnerByIndex",
      "outputs": [
        {
          "internalType": "uint256",
          "name": "",
          "type": "uint256"
        }
      ],
      "payable": false,
      "stateMutability": "view",
      "type": "function"
    },
    {
      "constant": true,
      "inputs": [],
      "name": "totalSupply",
      "outputs": [
        {
          "internalType": "uint256",
          "name": "",
          "type": "uint256"
        }
      ],
      "payable": false,
      "stateMutability": "view",
      "type": "function"
    },
    {
      "constant": true,
      "inputs": [
        {
          "internalType": "uint256",
          "name": "_index",
          "type": "uint256"
        }
      ],
      "name": "prescriptionByIndex",
      "outputs": [
        {
          "internalType": "uint256",
          "name": "",
          "type": "uint256"
        }
      ],
      "payable": false,
      "stateMutability": "view",
      "type": "function"
    },
    {
      "constant": false,
      "inputs": [
        {
          "internalType": "uint256",
          "name": "_id",
          "type": "uint256"
        }
      ],
      "name": "destroy",
      "outputs": [],
      "payable": false,
      "stateMutability": "nonpayable",
      "type": "function"
    },
    {
      "constant": false,
      "inputs": [
        {
          "internalType": "address",
          "name": "_to",
          "type": "address"
        },
        {
          "internalType": "uint256",
          "name": "_tokenId",
          "type": "uint256"
        }
      ],
      "name": "transferPres",
      "outputs": [],
      "payable": false,
      "stateMutability": "nonpayable",
      "type": "function"
    },
    {
      "constant": true,
      "inputs": [
        {
          "internalType": "uint256",
          "name": "tokenId",
          "type": "uint256"
        }
      ],
      "name": "ownerOf",
      "outputs": [
        {
          "internalType": "address",
          "name": "",
          "type": "address"
        }
      ],
      "payable": false,
      "stateMutability": "view",
      "type": "function"
    },
    {
      "constant": false,
      "inputs": [
        {
          "internalType": "address",
          "name": "_to",
          "type": "address"
        },
        {
          "internalType": "uint256",
          "name": "_presId",
          "type": "uint256"
        },
        {
          "internalType": "string[]",
          "name": "_drugName",
          "type": "string[]"
        },
        {
          "internalType": "string[]",
          "name": "_drugCode",
          "type": "string[]"
        },
        {
          "internalType": "string[]",
          "name": "_dosage",
          "type": "string[]"
        }
      ],
      "name": "addprescriptionDatatoArrayBatch",
      "outputs": [],
      "payable": false,
      "stateMutability": "nonpayable",
      "type": "function"
    },
    {
      "constant": true,
      "inputs": [
        {
          "internalType": "uint256",
          "name": "_presId",
          "type": "uint256"
        }
      ],
      "name": "getprescriptionData",
      "outputs": [
        {
          "components": [
            {
              "internalType": "string",
              "name": "drugName",
              "type": "string"
            },
            {
              "internalType": "string",
              "name": "drugCode",
              "type": "string"
            },
            {
              "internalType": "string",
              "name": "dosage",
              "type": "string"
            }
          ],
          "internalType": "struct CryptoPres.Data[]",
          "name": "_array",
          "type": "tuple[]"
        }
      ],
      "payable": false,
      "stateMutability": "view",
      "type": "function"
    }
  ],
  "bytecode": "0x60806040526040518060400160405280600a81526020017f43727970746f50726573000000000000000000000000000000000000000000008152506040518060400160405280600481526020017f505245530000000000000000000000000000000000000000000000000000000081525081816200008a6301ffc9a760e01b6200014f60201b60201c565b620000a26380ac58cd60e01b6200014f60201b60201c565b620000ba63780e9d6360e01b6200014f60201b60201c565b8160099080519060200190620000d292919062000227565b5080600a9080519060200190620000eb92919062000227565b5062000104635b5e139f60e01b6200014f60201b60201c565b5050505033600d60006101000a81548173ffffffffffffffffffffffffffffffffffffffff021916908373ffffffffffffffffffffffffffffffffffffffff1602179055506200034b565b63ffffffff60e01b817bffffffffffffffffffffffffffffffffffffffffffffffffffffffff19161415620001bb576040517f08c379a0000000000000000000000000000000000000000000000000000000008152600401620001b29062000318565b60405180910390fd5b6001600080837bffffffffffffffffffffffffffffffffffffffffffffffffffffffff19167bffffffffffffffffffffffffffffffffffffffffffffffffffffffff1916815260200190815260200160002060006101000a81548160ff02191690831515021790555050565b828054600181600116156101000203166002900490600052602060002090601f016020900481019282601f106200026a57805160ff19168380011785556200029b565b828001600101855582156200029b579182015b828111156200029a5782518255916020019190600101906200027d565b5b509050620002aa9190620002ae565b5090565b620002d391905b80821115620002cf576000816000905550600101620002b5565b5090565b90565b6000620002e5601c836200033a565b91507f4552433136353a20696e76616c696420696e74657266616365206964000000006000830152602082019050919050565b600060208201905081810360008301526200033381620002d6565b9050919050565b600082825260208201905092915050565b6152ac806200035b6000396000f3fe608060405234801561001057600080fd5b50600436106101f05760003560e01c80636c0360eb1161010f578063aae0cc73116100a2578063d60999c211610071578063d60999c2146105db578063e30c39781461060b578063e985e9c514610629578063f2fde38b14610659576101f0565b8063aae0cc7314610543578063b88d4fde1461055f578063c6e26a201461057b578063c87b56dd146105ab576101f0565b80638da5cb5b116100de5780638da5cb5b146104cf57806395d89b41146104ed5780639d1187701461050b578063a22cb46514610527576101f0565b80636c0360eb1461043357806370a08231146104515780637ea7118c146104815780637ef1b4b31461049f576101f0565b80632f745c591161018757806348103e651161015657806348103e65146103ad5780634e71e0c8146103c95780634f6ccce7146103d35780636352211e14610403576101f0565b80632f745c591461031557806330652fe01461034557806340c10f191461037557806342842e0e14610391576101f0565b80630cdf0489116101c35780630cdf04891461028f57806318160ddd146102ab5780631cf43d61146102c957806323b872dd146102f9576101f0565b806301ffc9a7146101f557806306fdde0314610225578063081812fc14610243578063095ea7b314610273575b600080fd5b61020f600480360361020a9190810190613a84565b610675565b60405161021c9190614b1e565b60405180910390f35b61022d6106dc565b60405161023a9190614b39565b60405180910390f35b61025d60048036036102589190810190613ad6565b61077e565b60405161026a9190614a73565b60405180910390f35b61028d60048036036102889190810190613989565b610803565b005b6102a960048036036102a49190810190613989565b6109be565b005b6102b3610d50565b6040516102c09190614f7b565b60405180910390f35b6102e360048036036102de9190810190613989565b610d5d565b6040516102f09190614f7b565b60405180910390f35b610313600480360361030e9190810190613883565b610e06565b005b61032f600480360361032a9190810190613989565b610e66565b60405161033c9190614f7b565b60405180910390f35b61035f600480360361035a919081019061381e565b610f0f565b60405161036c9190614afc565b60405180910390f35b61038f600480360361038a9190810190613989565b610fa6565b005b6103ab60048036036103a69190810190613883565b61100e565b005b6103c760048036036103c2919081019061381e565b61102e565b005b6103d1611197565b005b6103ed60048036036103e89190810190613ad6565b611336565b6040516103fa9190614f7b565b60405180910390f35b61041d60048036036104189190810190613ad6565b6113a0565b60405161042a9190614a73565b60405180910390f35b61043b611452565b6040516104489190614b39565b60405180910390f35b61046b6004803603610466919081019061381e565b6114f4565b6040516104789190614f7b565b60405180910390f35b6104896115b3565b6040516104969190614a73565b60405180910390f35b6104b960048036036104b49190810190613ad6565b6115d9565b6040516104c69190614ada565b60405180910390f35b6104d7611879565b6040516104e49190614a73565b60405180910390f35b6104f561189f565b6040516105029190614b39565b60405180910390f35b61052560048036036105209190810190613ad6565b611941565b005b610541600480360361053c919081019061394d565b611acb565b005b61055d600480360361055891908101906139c5565b611c4c565b005b610579600480360361057491908101906138d2565b611de1565b005b61059560048036036105909190810190613ad6565b611e43565b6040516105a29190614f7b565b60405180910390f35b6105c560048036036105c09190810190613ad6565b611ead565b6040516105d29190614b39565b60405180910390f35b6105f560048036036105f09190810190613ad6565b611ff5565b6040516106029190614b39565b60405180910390f35b6106136120f2565b6040516106209190614a73565b60405180910390f35b610643600480360361063e9190810190613847565b612118565b6040516106509190614b1e565b60405180910390f35b610673600480360361066e919081019061381e565b6121ac565b005b6000806000837bffffffffffffffffffffffffffffffffffffffffffffffffffffffff19167bffffffffffffffffffffffffffffffffffffffffffffffffffffffff1916815260200190815260200160002060009054906101000a900460ff169050919050565b606060098054600181600116156101000203166002900480601f0160208091040260200160405190810160405280929190818152602001828054600181600116156101000203166002900480156107745780601f1061074957610100808354040283529160200191610774565b820191906000526020600020905b81548152906001019060200180831161075757829003601f168201915b5050505050905090565b60006107898261224a565b6107c8576040517f08c379a00000000000000000000000000000000000000000000000000000000081526004016107bf90614dbb565b60405180910390fd5b6002600083815260200190815260200160002060009054906101000a900473ffffffffffffffffffffffffffffffffffffffff169050919050565b600061080e826113a0565b90508073ffffffffffffffffffffffffffffffffffffffff168373ffffffffffffffffffffffffffffffffffffffff16141561087f576040517f08c379a000000000000000000000000000000000000000000000000000000000815260040161087690614e7b565b60405180910390fd5b8073ffffffffffffffffffffffffffffffffffffffff1661089e6122bc565b73ffffffffffffffffffffffffffffffffffffffff1614806108cd57506108cc816108c76122bc565b612118565b5b61090c576040517f08c379a000000000000000000000000000000000000000000000000000000000815260040161090390614d5b565b60405180910390fd5b826002600084815260200190815260200160002060006101000a81548173ffffffffffffffffffffffffffffffffffffffff021916908373ffffffffffffffffffffffffffffffffffffffff160217905550818373ffffffffffffffffffffffffffffffffffffffff168273ffffffffffffffffffffffffffffffffffffffff167f8c5be1e5ebec7d5bd14f71427d1e84f3dd0314c0f7b2291e5b200ac8c7c3b92560405160405180910390a4505050565b6013600082815260200190815260200160002060009054906101000a900460ff16610a1e576040517f08c379a0000000000000000000000000000000000000000000000000000000008152600401610a1590614ddb565b60405180910390fd5b60003390508073ffffffffffffffffffffffffffffffffffffffff16610a43836113a0565b73ffffffffffffffffffffffffffffffffffffffff1614610a99576040517f08c379a0000000000000000000000000000000000000000000000000000000008152600401610a9090614d9b565b60405180910390fd5b600f60009054906101000a900473ffffffffffffffffffffffffffffffffffffffff1673ffffffffffffffffffffffffffffffffffffffff168373ffffffffffffffffffffffffffffffffffffffff161415610b2a576040517f08c379a0000000000000000000000000000000000000000000000000000000008152600401610b2190614c7b565b60405180910390fd5b600d60009054906101000a900473ffffffffffffffffffffffffffffffffffffffff1673ffffffffffffffffffffffffffffffffffffffff168373ffffffffffffffffffffffffffffffffffffffff161415610bbb576040517f08c379a0000000000000000000000000000000000000000000000000000000008152600401610bb290614c3b565b60405180910390fd5b600073ffffffffffffffffffffffffffffffffffffffff168373ffffffffffffffffffffffffffffffffffffffff161415610c2b576040517f08c379a0000000000000000000000000000000000000000000000000000000008152600401610c2290614e5b565b60405180910390fd5b610c72601460008373ffffffffffffffffffffffffffffffffffffffff1673ffffffffffffffffffffffffffffffffffffffff1681526020019081526020016000206122c4565b610cb9601460008573ffffffffffffffffffffffffffffffffffffffff1673ffffffffffffffffffffffffffffffffffffffff1681526020019081526020016000206122e7565b826010600084815260200190815260200160002060006101000a81548173ffffffffffffffffffffffffffffffffffffffff021916908373ffffffffffffffffffffffffffffffffffffffff160217905550610d1581836122fd565b610d1f838361249b565b60006013600084815260200190815260200160002060006101000a81548160ff021916908315150217905550505050565b6000601580549050905090565b6000610d68836114f4565b8210610da9576040517f08c379a0000000000000000000000000000000000000000000000000000000008152600401610da090614c5b565b60405180910390fd5b601160008473ffffffffffffffffffffffffffffffffffffffff1673ffffffffffffffffffffffffffffffffffffffff1681526020019081526020016000208281548110610df357fe5b9060005260206000200154905092915050565b610e17610e116122bc565b82612562565b610e56576040517f08c379a0000000000000000000000000000000000000000000000000000000008152600401610e4d90614ebb565b60405180910390fd5b610e61838383612640565b505050565b6000610e71836114f4565b8210610eb2576040517f08c379a0000000000000000000000000000000000000000000000000000000008152600401610ea990614bdb565b60405180910390fd5b600560008473ffffffffffffffffffffffffffffffffffffffff1673ffffffffffffffffffffffffffffffffffffffff1681526020019081526020016000208281548110610efc57fe5b9060005260206000200154905092915050565b6060601160008373ffffffffffffffffffffffffffffffffffffffff1673ffffffffffffffffffffffffffffffffffffffff168152602001908152602001600020805480602002602001604051908101604052809291908181526020018280548015610f9a57602002820191906000526020600020905b815481526020019060010190808311610f86575b50505050509050919050565b600f60009054906101000a900473ffffffffffffffffffffffffffffffffffffffff1673ffffffffffffffffffffffffffffffffffffffff163373ffffffffffffffffffffffffffffffffffffffff161461100057600080fd5b61100a8282612664565b5050565b61102983838360405180602001604052806000815250611de1565b505050565b600d60009054906101000a900473ffffffffffffffffffffffffffffffffffffffff1673ffffffffffffffffffffffffffffffffffffffff163373ffffffffffffffffffffffffffffffffffffffff161461108857600080fd5b600d60009054906101000a900473ffffffffffffffffffffffffffffffffffffffff1673ffffffffffffffffffffffffffffffffffffffff168173ffffffffffffffffffffffffffffffffffffffff161415611119576040517f08c379a000000000000000000000000000000000000000000000000000000000815260040161111090614c9b565b60405180910390fd5b600073ffffffffffffffffffffffffffffffffffffffff168173ffffffffffffffffffffffffffffffffffffffff16141561115357600080fd5b80600f60006101000a81548173ffffffffffffffffffffffffffffffffffffffff021916908373ffffffffffffffffffffffffffffffffffffffff16021790555050565b600e60009054906101000a900473ffffffffffffffffffffffffffffffffffffffff1673ffffffffffffffffffffffffffffffffffffffff163373ffffffffffffffffffffffffffffffffffffffff16146111f157600080fd5b600e60009054906101000a900473ffffffffffffffffffffffffffffffffffffffff1673ffffffffffffffffffffffffffffffffffffffff16600d60009054906101000a900473ffffffffffffffffffffffffffffffffffffffff1673ffffffffffffffffffffffffffffffffffffffff167f8be0079c531659141344cd1fd0a4f28419497f9722a3daafe3b4186f6b6457e060405160405180910390a3600e60009054906101000a900473ffffffffffffffffffffffffffffffffffffffff16600d60006101000a81548173ffffffffffffffffffffffffffffffffffffffff021916908373ffffffffffffffffffffffffffffffffffffffff1602179055506000600e60006101000a81548173ffffffffffffffffffffffffffffffffffffffff021916908373ffffffffffffffffffffffffffffffffffffffff160217905550565b6000611340610d50565b8210611381576040517f08c379a000000000000000000000000000000000000000000000000000000000815260040161137890614edb565b60405180910390fd5b6007828154811061138e57fe5b90600052602060002001549050919050565b6000806010600084815260200190815260200160002060009054906101000a900473ffffffffffffffffffffffffffffffffffffffff169050600073ffffffffffffffffffffffffffffffffffffffff168173ffffffffffffffffffffffffffffffffffffffff161415611449576040517f08c379a000000000000000000000000000000000000000000000000000000000815260040161144090614e9b565b60405180910390fd5b80915050919050565b6060600b8054600181600116156101000203166002900480601f0160208091040260200160405190810160405280929190818152602001828054600181600116156101000203166002900480156114ea5780601f106114bf576101008083540402835291602001916114ea565b820191906000526020600020905b8154815290600101906020018083116114cd57829003601f168201915b5050505050905090565b60008073ffffffffffffffffffffffffffffffffffffffff168273ffffffffffffffffffffffffffffffffffffffff161415611565576040517f08c379a000000000000000000000000000000000000000000000000000000000815260040161155c90614d7b565b60405180910390fd5b6115ac600360008473ffffffffffffffffffffffffffffffffffffffff1673ffffffffffffffffffffffffffffffffffffffff1681526020019081526020016000206128cd565b9050919050565b600f60009054906101000a900473ffffffffffffffffffffffffffffffffffffffff1681565b60606115e48261224a565b611623576040517f08c379a000000000000000000000000000000000000000000000000000000000815260040161161a90614b5b565b60405180910390fd5b60196000838152602001908152602001600020805480602002602001604051908101604052809291908181526020016000905b8282101561186e5783829060005260206000209060030201604051806060016040529081600082018054600181600116156101000203166002900480601f0160208091040260200160405190810160405280929190818152602001828054600181600116156101000203166002900480156117125780601f106116e757610100808354040283529160200191611712565b820191906000526020600020905b8154815290600101906020018083116116f557829003601f168201915b50505050508152602001600182018054600181600116156101000203166002900480601f0160208091040260200160405190810160405280929190818152602001828054600181600116156101000203166002900480156117b45780601f10611789576101008083540402835291602001916117b4565b820191906000526020600020905b81548152906001019060200180831161179757829003601f168201915b50505050508152602001600282018054600181600116156101000203166002900480601f0160208091040260200160405190810160405280929190818152602001828054600181600116156101000203166002900480156118565780601f1061182b57610100808354040283529160200191611856565b820191906000526020600020905b81548152906001019060200180831161183957829003601f168201915b50505050508152505081526020019060010190611656565b505050509050919050565b600d60009054906101000a900473ffffffffffffffffffffffffffffffffffffffff1681565b6060600a8054600181600116156101000203166002900480601f0160208091040260200160405190810160405280929190818152602001828054600181600116156101000203166002900480156119375780601f1061190c57610100808354040283529160200191611937565b820191906000526020600020905b81548152906001019060200180831161191a57829003601f168201915b5050505050905090565b606061194c826115d9565b905060003390508073ffffffffffffffffffffffffffffffffffffffff16611973846113a0565b73ffffffffffffffffffffffffffffffffffffffff16146119c9576040517f08c379a00000000000000000000000000000000000000000000000000000000081526004016119c090614cbb565b60405180910390fd5b611a10601460008373ffffffffffffffffffffffffffffffffffffffff1673ffffffffffffffffffffffffffffffffffffffff1681526020019081526020016000206122c4565b60006010600085815260200190815260200160002060006101000a81548173ffffffffffffffffffffffffffffffffffffffff021916908373ffffffffffffffffffffffffffffffffffffffff160217905550611a6d81846122fd565b60006012600085815260200190815260200160002081905550611a8f836128db565b7fc96088ba07f1863453130344c921400f948bae61f6c17526f6706fa246caf06a82604051611abe9190614ada565b60405180910390a1505050565b611ad36122bc565b73ffffffffffffffffffffffffffffffffffffffff168273ffffffffffffffffffffffffffffffffffffffff161415611b41576040517f08c379a0000000000000000000000000000000000000000000000000000000008152600401611b3890614cfb565b60405180910390fd5b8060046000611b4e6122bc565b73ffffffffffffffffffffffffffffffffffffffff1673ffffffffffffffffffffffffffffffffffffffff16815260200190815260200160002060008473ffffffffffffffffffffffffffffffffffffffff1673ffffffffffffffffffffffffffffffffffffffff16815260200190815260200160002060006101000a81548160ff0219169083151502179055508173ffffffffffffffffffffffffffffffffffffffff16611bfb6122bc565b73ffffffffffffffffffffffffffffffffffffffff167f17307eab39ab6107e8899845ad3d59bd9653f200f220920489ca2b5937696c3183604051611c409190614b1e565b60405180910390a35050565b600f60009054906101000a900473ffffffffffffffffffffffffffffffffffffffff1673ffffffffffffffffffffffffffffffffffffffff163373ffffffffffffffffffffffffffffffffffffffff1614611ca657600080fd5b81518351148015611cb8575080518251145b611cf7576040517f08c379a0000000000000000000000000000000000000000000000000000000008152600401611cee90614bbb565b60405180910390fd5b8473ffffffffffffffffffffffffffffffffffffffff163373ffffffffffffffffffffffffffffffffffffffff161415611d66576040517f08c379a0000000000000000000000000000000000000000000000000000000008152600401611d5d90614f1b565b60405180910390fd5b611d708585612664565b60008090505b8351811015611dd057611dc3848281518110611d8e57fe5b6020026020010151848381518110611da257fe5b6020026020010151848481518110611db657fe5b6020026020010151612995565b8080600101915050611d76565b50611dda84612b83565b5050505050565b611df2611dec6122bc565b83612562565b611e31576040517f08c379a0000000000000000000000000000000000000000000000000000000008152600401611e2890614ebb565b60405180910390fd5b611e3d84848484612d16565b50505050565b6000611e4d610d50565b8210611e8e576040517f08c379a0000000000000000000000000000000000000000000000000000000008152600401611e8590614d1b565b60405180910390fd5b60158281548110611e9b57fe5b90600052602060002001549050919050565b6060611eb88261224a565b611ef7576040517f08c379a0000000000000000000000000000000000000000000000000000000008152600401611eee90614e1b565b60405180910390fd5b6060600c60008481526020019081526020016000208054600181600116156101000203166002900480601f016020809104026020016040519081016040528092919081815260200182805460018160011615610100020316600290048015611fa05780601f10611f7557610100808354040283529160200191611fa0565b820191906000526020600020905b815481529060010190602001808311611f8357829003601f168201915b50505050509050600081511415611fc95760405180602001604052806000815250915050611ff0565b600b81604051602001611fdd929190614a4f565b6040516020818303038152906040529150505b919050565b60606120008261224a565b61203f576040517f08c379a000000000000000000000000000000000000000000000000000000000815260040161203690614b9b565b60405180910390fd5b601760008381526020019081526020016000208054600181600116156101000203166002900480601f0160208091040260200160405190810160405280929190818152602001828054600181600116156101000203166002900480156120e65780601f106120bb576101008083540402835291602001916120e6565b820191906000526020600020905b8154815290600101906020018083116120c957829003601f168201915b50505050509050919050565b600e60009054906101000a900473ffffffffffffffffffffffffffffffffffffffff1681565b6000600460008473ffffffffffffffffffffffffffffffffffffffff1673ffffffffffffffffffffffffffffffffffffffff16815260200190815260200160002060008373ffffffffffffffffffffffffffffffffffffffff1673ffffffffffffffffffffffffffffffffffffffff16815260200190815260200160002060009054906101000a900460ff16905092915050565b600d60009054906101000a900473ffffffffffffffffffffffffffffffffffffffff1673ffffffffffffffffffffffffffffffffffffffff163373ffffffffffffffffffffffffffffffffffffffff161461220657600080fd5b80600e60006101000a81548173ffffffffffffffffffffffffffffffffffffffff021916908373ffffffffffffffffffffffffffffffffffffffff16021790555050565b6000806010600084815260200190815260200160002060009054906101000a900473ffffffffffffffffffffffffffffffffffffffff169050600073ffffffffffffffffffffffffffffffffffffffff168173ffffffffffffffffffffffffffffffffffffffff161415915050919050565b600033905090565b6122dc60018260000154612d7290919063ffffffff16565b816000018190555050565b6001816000016000828254019250508190555050565b60006123556001601160008673ffffffffffffffffffffffffffffffffffffffff1673ffffffffffffffffffffffffffffffffffffffff16815260200190815260200160002080549050612d7290919063ffffffff16565b9050600060126000848152602001908152602001600020549050818114612442576000601160008673ffffffffffffffffffffffffffffffffffffffff1673ffffffffffffffffffffffffffffffffffffffff16815260200190815260200160002083815481106123c257fe5b9060005260206000200154905080601160008773ffffffffffffffffffffffffffffffffffffffff1673ffffffffffffffffffffffffffffffffffffffff168152602001908152602001600020838154811061241a57fe5b9060005260206000200181905550816012600083815260200190815260200160002081905550505b601160008573ffffffffffffffffffffffffffffffffffffffff1673ffffffffffffffffffffffffffffffffffffffff1681526020019081526020016000208054809190600190036124949190613395565b5050505050565b601160008373ffffffffffffffffffffffffffffffffffffffff1673ffffffffffffffffffffffffffffffffffffffff168152602001908152602001600020805490506012600083815260200190815260200160002081905550601160008373ffffffffffffffffffffffffffffffffffffffff1673ffffffffffffffffffffffffffffffffffffffff1681526020019081526020016000208190806001815401808255809150509060018203906000526020600020016000909192909190915055505050565b600061256d8261224a565b6125ac576040517f08c379a00000000000000000000000000000000000000000000000000000000081526004016125a390614d3b565b60405180910390fd5b60006125b7836113a0565b90508073ffffffffffffffffffffffffffffffffffffffff168473ffffffffffffffffffffffffffffffffffffffff16148061262657508373ffffffffffffffffffffffffffffffffffffffff1661260e8461077e565b73ffffffffffffffffffffffffffffffffffffffff16145b8061263757506126368185612118565b5b91505092915050565b61264b838383612dbc565b61265583826122fd565b61265f828261249b565b505050565b3373ffffffffffffffffffffffffffffffffffffffff168273ffffffffffffffffffffffffffffffffffffffff1614156126d3576040517f08c379a00000000000000000000000000000000000000000000000000000000081526004016126ca90614b7b565b60405180910390fd5b600d60009054906101000a900473ffffffffffffffffffffffffffffffffffffffff1673ffffffffffffffffffffffffffffffffffffffff168273ffffffffffffffffffffffffffffffffffffffff161415612764576040517f08c379a000000000000000000000000000000000000000000000000000000000815260040161275b90614efb565b60405180910390fd5b61276d81612feb565b612777828261249b565b600073ffffffffffffffffffffffffffffffffffffffff168273ffffffffffffffffffffffffffffffffffffffff1614156127e7576040517f08c379a00000000000000000000000000000000000000000000000000000000081526004016127de90614bfb565b60405180910390fd5b6127f08161224a565b15612830576040517f08c379a000000000000000000000000000000000000000000000000000000000815260040161282790614f3b565b60405180910390fd5b816010600083815260200190815260200160002060006101000a81548173ffffffffffffffffffffffffffffffffffffffff021916908373ffffffffffffffffffffffffffffffffffffffff1602179055506128c9601460008473ffffffffffffffffffffffffffffffffffffffff1673ffffffffffffffffffffffffffffffffffffffff1681526020019081526020016000206122e7565b5050565b600081600001549050919050565b60006128f66001601580549050612d7290919063ffffffff16565b905060006016600084815260200190815260200160002054905060006015838154811061291f57fe5b90600052602060002001549050806015838154811061293a57fe5b906000526020600020018190555081601660008381526020019081526020016000208190555060158054809190600190036129759190613395565b506000601660008681526020019081526020016000208190555050505050565b600f60009054906101000a900473ffffffffffffffffffffffffffffffffffffffff1673ffffffffffffffffffffffffffffffffffffffff163373ffffffffffffffffffffffffffffffffffffffff16146129ef57600080fd5b606083905060608390506060839050600083511415612a43576040517f08c379a0000000000000000000000000000000000000000000000000000000008152600401612a3a90614f5b565b60405180910390fd5b600082511415612a88576040517f08c379a0000000000000000000000000000000000000000000000000000000008152600401612a7f90614f5b565b60405180910390fd5b600081511415612acd576040517f08c379a0000000000000000000000000000000000000000000000000000000008152600401612ac490614f5b565b60405180910390fd5b612ad56133c1565b6040518060600160405280888152602001878152602001868152509050601881908060018154018082558091505090600182039060005260206000209060030201600090919290919091506000820151816000019080519060200190612b3c9291906133e2565b506020820151816001019080519060200190612b599291906133e2565b506040820151816002019080519060200190612b769291906133e2565b5050505050505050505050565b600f60009054906101000a900473ffffffffffffffffffffffffffffffffffffffff1673ffffffffffffffffffffffffffffffffffffffff163373ffffffffffffffffffffffffffffffffffffffff1614612bdd57600080fd5b612be68161224a565b612c25576040517f08c379a0000000000000000000000000000000000000000000000000000000008152600401612c1c90614b5b565b60405180910390fd5b3373ffffffffffffffffffffffffffffffffffffffff16600f60009054906101000a900473ffffffffffffffffffffffffffffffffffffffff1673ffffffffffffffffffffffffffffffffffffffff1614612cb5576040517f08c379a0000000000000000000000000000000000000000000000000000000008152600401612cac90614e3b565b60405180910390fd5b601860196000838152602001908152602001600020908054612cd8929190613462565b5060016013600083815260200190815260200160002060006101000a81548160ff02191690831515021790555060186000612d139190613532565b50565b612d21848484612640565b612d2d84848484613037565b612d6c576040517f08c379a0000000000000000000000000000000000000000000000000000000008152600401612d6390614c1b565b60405180910390fd5b50505050565b6000612db483836040518060400160405280601e81526020017f536166654d6174683a207375627472616374696f6e206f766572666c6f770000815250613231565b905092915050565b8273ffffffffffffffffffffffffffffffffffffffff16612ddc826113a0565b73ffffffffffffffffffffffffffffffffffffffff1614612e32576040517f08c379a0000000000000000000000000000000000000000000000000000000008152600401612e2990614dfb565b60405180910390fd5b600073ffffffffffffffffffffffffffffffffffffffff168273ffffffffffffffffffffffffffffffffffffffff161415612ea2576040517f08c379a0000000000000000000000000000000000000000000000000000000008152600401612e9990614cdb565b60405180910390fd5b612eab8161328c565b612ef2600360008573ffffffffffffffffffffffffffffffffffffffff1673ffffffffffffffffffffffffffffffffffffffff1681526020019081526020016000206122c4565b612f39600360008473ffffffffffffffffffffffffffffffffffffffff1673ffffffffffffffffffffffffffffffffffffffff1681526020019081526020016000206122e7565b816001600083815260200190815260200160002060006101000a81548173ffffffffffffffffffffffffffffffffffffffff021916908373ffffffffffffffffffffffffffffffffffffffff160217905550808273ffffffffffffffffffffffffffffffffffffffff168473ffffffffffffffffffffffffffffffffffffffff167fddf252ad1be2c89b69c2b068fc378daa952ba7f163c4a11628f55a4df523b3ef60405160405180910390a4505050565b6015805490506016600083815260200190815260200160002081905550601581908060018154018082558091505090600182039060005260206000200160009091929091909150555050565b60006130588473ffffffffffffffffffffffffffffffffffffffff1661334a565b6130655760019050613229565b600060608573ffffffffffffffffffffffffffffffffffffffff168673ffffffffffffffffffffffffffffffffffffffff1663150b7a02905060e01b6130a96122bc565b8988886040516024016130bf9493929190614a8e565b604051602081830303815290604052907bffffffffffffffffffffffffffffffffffffffffffffffffffffffff19166020820180517bffffffffffffffffffffffffffffffffffffffffffffffffffffffff83818316178352505050506040516131299190614a38565b6000604051808303816000865af19150503d8060008114613166576040519150601f19603f3d011682016040523d82523d6000602084013e61316b565b606091505b5091509150816131c3576000815111156131885780518082602001fd5b6040517f08c379a00000000000000000000000000000000000000000000000000000000081526004016131ba90614c1b565b60405180910390fd5b6000818060200190516131d99190810190613aad565b905063150b7a0260e01b7bffffffffffffffffffffffffffffffffffffffffffffffffffffffff1916817bffffffffffffffffffffffffffffffffffffffffffffffffffffffff19161493505050505b949350505050565b6000838311158290613279576040517f08c379a00000000000000000000000000000000000000000000000000000000081526004016132709190614b39565b60405180910390fd5b5060008385039050809150509392505050565b600073ffffffffffffffffffffffffffffffffffffffff166002600083815260200190815260200160002060009054906101000a900473ffffffffffffffffffffffffffffffffffffffff1673ffffffffffffffffffffffffffffffffffffffff16146133475760006002600083815260200190815260200160002060006101000a81548173ffffffffffffffffffffffffffffffffffffffff021916908373ffffffffffffffffffffffffffffffffffffffff1602179055505b50565b60008060007fc5d2460186f7233c927e7db2dcc703c0e500b653ca82273b7bfad8045d85a47060001b9050833f915080821415801561338c57506000801b8214155b92505050919050565b8154818355818111156133bc578183600052602060002091820191016133bb9190613556565b5b505050565b60405180606001604052806060815260200160608152602001606081525090565b828054600181600116156101000203166002900490600052602060002090601f016020900481019282601f1061342357805160ff1916838001178555613451565b82800160010185558215613451579182015b82811115613450578251825591602001919060010190613435565b5b50905061345e9190613556565b5090565b8280548282559060005260206000209060030281019282156135215760005260206000209160030282015b82811115613520578282600082018160000190805460018160011615610100020316600290046134be92919061357b565b50600182018160010190805460018160011615610100020316600290046134e692919061357b565b506002820181600201908054600181600116156101000203166002900461350e92919061357b565b5050509160030191906003019061348d565b5b50905061352e9190613602565b5090565b50805460008255600302906000526020600020908101906135539190613602565b50565b61357891905b8082111561357457600081600090555060010161355c565b5090565b90565b828054600181600116156101000203166002900490600052602060002090601f016020900481019282601f106135b457805485556135f1565b828001600101855582156135f157600052602060002091601f016020900482015b828111156135f05782548255916001019190600101906135d5565b5b5090506135fe9190613556565b5090565b61364e91905b8082111561364a57600080820160006136219190613651565b6001820160006136319190613651565b6002820160006136419190613651565b50600301613608565b5090565b90565b50805460018160011615610100020316600290046000825580601f106136775750613696565b601f0160209004906000526020600020908101906136959190613556565b5b50565b6000813590506136a88161520d565b92915050565b600082601f8301126136bf57600080fd5b81356136d26136cd82614fc3565b614f96565b9150818183526020840193506020810190508360005b8381101561371857813586016136fe88826137b5565b8452602084019350602083019250506001810190506136e8565b5050505092915050565b60008135905061373181615224565b92915050565b6000813590506137468161523b565b92915050565b60008151905061375b8161523b565b92915050565b600082601f83011261377257600080fd5b813561378561378082614feb565b614f96565b915080825260208301602083018583830111156137a157600080fd5b6137ac8382846151ba565b50505092915050565b600082601f8301126137c657600080fd5b81356137d96137d482615017565b614f96565b915080825260208301602083018583830111156137f557600080fd5b6138008382846151ba565b50505092915050565b60008135905061381881615252565b92915050565b60006020828403121561383057600080fd5b600061383e84828501613699565b91505092915050565b6000806040838503121561385a57600080fd5b600061386885828601613699565b925050602061387985828601613699565b9150509250929050565b60008060006060848603121561389857600080fd5b60006138a686828701613699565b93505060206138b786828701613699565b92505060406138c886828701613809565b9150509250925092565b600080600080608085870312156138e857600080fd5b60006138f687828801613699565b945050602061390787828801613699565b935050604061391887828801613809565b925050606085013567ffffffffffffffff81111561393557600080fd5b61394187828801613761565b91505092959194509250565b6000806040838503121561396057600080fd5b600061396e85828601613699565b925050602061397f85828601613722565b9150509250929050565b6000806040838503121561399c57600080fd5b60006139aa85828601613699565b92505060206139bb85828601613809565b9150509250929050565b600080600080600060a086880312156139dd57600080fd5b60006139eb88828901613699565b95505060206139fc88828901613809565b945050604086013567ffffffffffffffff811115613a1957600080fd5b613a25888289016136ae565b935050606086013567ffffffffffffffff811115613a4257600080fd5b613a4e888289016136ae565b925050608086013567ffffffffffffffff811115613a6b57600080fd5b613a77888289016136ae565b9150509295509295909350565b600060208284031215613a9657600080fd5b6000613aa484828501613737565b91505092915050565b600060208284031215613abf57600080fd5b6000613acd8482850161374c565b91505092915050565b600060208284031215613ae857600080fd5b6000613af684828501613809565b91505092915050565b6000613b0b83836149bc565b905092915050565b6000613b1f8383614a1a565b60208301905092915050565b613b3481615146565b82525050565b613b4381615134565b82525050565b6000613b5482615078565b613b5e81856150c9565b935083602082028501613b7085615043565b8060005b85811015613bac5784840389528151613b8d8582613aff565b9450613b98836150af565b925060208a01995050600181019050613b74565b50829750879550505050505092915050565b6000613bc982615083565b613bd381856150da565b9350613bde83615053565b8060005b83811015613c0f578151613bf68882613b13565b9750613c01836150bc565b925050600181019050613be2565b5085935050505092915050565b613c2581615158565b82525050565b6000613c368261508e565b613c4081856150eb565b9350613c508185602086016151c9565b613c59816151fc565b840191505092915050565b6000613c6f8261508e565b613c7981856150fc565b9350613c898185602086016151c9565b80840191505092915050565b6000613ca0826150a4565b613caa8185615118565b9350613cba8185602086016151c9565b613cc3816151fc565b840191505092915050565b6000613cd9826150a4565b613ce38185615129565b9350613cf38185602086016151c9565b80840191505092915050565b6000613d0a82615099565b613d148185615107565b9350613d248185602086016151c9565b613d2d816151fc565b840191505092915050565b600081546001811660008114613d555760018114613d7a57613dbe565b607f6002830416613d668187615129565b955060ff1983168652808601935050613dbe565b60028204613d888187615129565b9550613d9385615063565b60005b82811015613db557815481890152600182019150602081019050613d96565b82880195505050505b505092915050565b6000613dd3601d83615118565b91507f43727970746f507265733a20494420646f6573206e6f742065786973740000006000830152602082019050919050565b6000613e13603383615118565b91507f43727970746f507265733a20796f752063616e6e6f742073656e6420796f757260008301527f73656c66206120707265736372697074696f6e000000000000000000000000006020830152604082019050919050565b6000613e79601083615118565b91507f707265736372697074696f6e73555249000000000000000000000000000000006000830152602082019050919050565b6000613eb9601e83615118565b91507f616c6c20617272617973206d7573742062652073616d65206c656e67746800006000830152602082019050919050565b6000613ef9602b83615118565b91507f455243373231456e756d657261626c653a206f776e657220696e646578206f7560008301527f74206f6620626f756e64730000000000000000000000000000000000000000006020830152604082019050919050565b6000613f5f602483615118565b91507f43727970746f507265733a206d696e7420746f20746865207a65726f2061646460008301527f72657373000000000000000000000000000000000000000000000000000000006020830152604082019050919050565b6000613fc5603283615118565b91507f4552433732313a207472616e7366657220746f206e6f6e20455243373231526560008301527f63656976657220696d706c656d656e74657200000000000000000000000000006020830152604082019050919050565b600061402b602f83615118565b91507f43727970746f507265733a2063616e6e6f742073656e6420746f6b656e20746f60008301527f20636f6e7472616374206f776e657200000000000000000000000000000000006020830152604082019050919050565b6000614091601383615118565b91507f746f6b656e4f664f776e65724279496e646578000000000000000000000000006000830152602082019050919050565b60006140d1602783615118565b91507f43727970746f507265733a2063616e6e6f742073656e6420746f6b656e20746f60008301527f20446f63746f72000000000000000000000000000000000000000000000000006020830152604082019050919050565b6000614137602e83615118565b91507f4f776e61626c653a204f776e65722063616e6e6f7420736574207468656d736560008301527f6c76657320617320646f63746f720000000000000000000000000000000000006020830152604082019050919050565b600061419d602983615118565b91507f43727970746f507265733a206275726e206f6620746f6b656e2074686174206960008301527f73206e6f74206f776e00000000000000000000000000000000000000000000006020830152604082019050919050565b6000614203602483615118565b91507f4552433732313a207472616e7366657220746f20746865207a65726f2061646460008301527f72657373000000000000000000000000000000000000000000000000000000006020830152604082019050919050565b6000614269601983615118565b91507f4552433732313a20617070726f766520746f2063616c6c6572000000000000006000830152602082019050919050565b60006142a9601383615118565b91507f707265736372697074696f6e4279496e646578000000000000000000000000006000830152602082019050919050565b60006142e9602c83615118565b91507f4552433732313a206f70657261746f7220717565727920666f72206e6f6e657860008301527f697374656e7420746f6b656e00000000000000000000000000000000000000006020830152604082019050919050565b600061434f603883615118565b91507f4552433732313a20617070726f76652063616c6c6572206973206e6f74206f7760008301527f6e6572206e6f7220617070726f76656420666f7220616c6c00000000000000006020830152604082019050919050565b60006143b5602a83615118565b91507f4552433732313a2062616c616e636520717565727920666f7220746865207a6560008301527f726f2061646472657373000000000000000000000000000000000000000000006020830152604082019050919050565b600061441b602d83615118565b91507f43727970746f507265733a207472616e73666572206f6620746f6b656e20746860008301527f6174206973206e6f74206f776e000000000000000000000000000000000000006020830152604082019050919050565b6000614481602c83615118565b91507f4552433732313a20617070726f76656420717565727920666f72206e6f6e657860008301527f697374656e7420746f6b656e00000000000000000000000000000000000000006020830152604082019050919050565b60006144e7603283615118565b91507f43727970746f507265733a2043616e6e6f742073656e64207468697320746f6b60008301527f656e206d6f7265207468616e206f6e63652100000000000000000000000000006020830152604082019050919050565b600061454d602983615118565b91507f4552433732313a207472616e73666572206f6620746f6b656e2074686174206960008301527f73206e6f74206f776e00000000000000000000000000000000000000000000006020830152604082019050919050565b60006145b3602f83615118565b91507f4552433732314d657461646174613a2055524920717565727920666f72206e6f60008301527f6e6578697374656e7420746f6b656e00000000000000000000000000000000006020830152604082019050919050565b6000614619602d83615118565b91507f43727970746f507265733a206f6e6c7920446f636f722063616e2063616c6c2060008301527f746869732066756e6374696f6e000000000000000000000000000000000000006020830152604082019050919050565b600061467f602883615118565b91507f43727970746f507265733a207472616e7366657220746f20746865207a65726f60008301527f20616464726573730000000000000000000000000000000000000000000000006020830152604082019050919050565b60006146e5602183615118565b91507f4552433732313a20617070726f76616c20746f2063757272656e74206f776e6560008301527f72000000000000000000000000000000000000000000000000000000000000006020830152604082019050919050565b600061474b602d83615118565b91507f43727970746f507265733a206f776e657220717565727920666f72206e6f6e6560008301527f78697374656e7420746f6b656e000000000000000000000000000000000000006020830152604082019050919050565b60006147b1603183615118565b91507f4552433732313a207472616e736665722063616c6c6572206973206e6f74206f60008301527f776e6572206e6f7220617070726f7665640000000000000000000000000000006020830152604082019050919050565b6000614817602c83615118565b91507f455243373231456e756d657261626c653a20676c6f62616c20696e646578206f60008301527f7574206f6620626f756e647300000000000000000000000000000000000000006020830152604082019050919050565b600061487d603983615118565b91507f43727970746f507265733a20796f752063616e6e6f742073656e6420636f6e7460008301527f72616374206f776e6572206120707265736372697074696f6e000000000000006020830152604082019050919050565b60006148e3602483615118565b91507f43727970746f507265733a2063616e6e6f742073656e642073656c662061207460008301527f6f6b656e000000000000000000000000000000000000000000000000000000006020830152604082019050919050565b6000614949602083615118565b91507f43727970746f507265733a20746f6b656e20616c7265616479206d696e7465646000830152602082019050919050565b6000614989602083615118565b91507f43727970746f507265733a20656e7472792063616e6e6f74206265206e756c6c6000830152602082019050919050565b600060608301600083015184820360008601526149d98282613cff565b915050602083015184820360208601526149f38282613cff565b91505060408301518482036040860152614a0d8282613cff565b9150508091505092915050565b614a23816151b0565b82525050565b614a32816151b0565b82525050565b6000614a448284613c64565b915081905092915050565b6000614a5b8285613d38565b9150614a678284613cce565b91508190509392505050565b6000602082019050614a886000830184613b3a565b92915050565b6000608082019050614aa36000830187613b2b565b614ab06020830186613b3a565b614abd6040830185614a29565b8181036060830152614acf8184613c2b565b905095945050505050565b60006020820190508181036000830152614af48184613b49565b905092915050565b60006020820190508181036000830152614b168184613bbe565b905092915050565b6000602082019050614b336000830184613c1c565b92915050565b60006020820190508181036000830152614b538184613c95565b905092915050565b60006020820190508181036000830152614b7481613dc6565b9050919050565b60006020820190508181036000830152614b9481613e06565b9050919050565b60006020820190508181036000830152614bb481613e6c565b9050919050565b60006020820190508181036000830152614bd481613eac565b9050919050565b60006020820190508181036000830152614bf481613eec565b9050919050565b60006020820190508181036000830152614c1481613f52565b9050919050565b60006020820190508181036000830152614c3481613fb8565b9050919050565b60006020820190508181036000830152614c548161401e565b9050919050565b60006020820190508181036000830152614c7481614084565b9050919050565b60006020820190508181036000830152614c94816140c4565b9050919050565b60006020820190508181036000830152614cb48161412a565b9050919050565b60006020820190508181036000830152614cd481614190565b9050919050565b60006020820190508181036000830152614cf4816141f6565b9050919050565b60006020820190508181036000830152614d148161425c565b9050919050565b60006020820190508181036000830152614d348161429c565b9050919050565b60006020820190508181036000830152614d54816142dc565b9050919050565b60006020820190508181036000830152614d7481614342565b9050919050565b60006020820190508181036000830152614d94816143a8565b9050919050565b60006020820190508181036000830152614db48161440e565b9050919050565b60006020820190508181036000830152614dd481614474565b9050919050565b60006020820190508181036000830152614df4816144da565b9050919050565b60006020820190508181036000830152614e1481614540565b9050919050565b60006020820190508181036000830152614e34816145a6565b9050919050565b60006020820190508181036000830152614e548161460c565b9050919050565b60006020820190508181036000830152614e7481614672565b9050919050565b60006020820190508181036000830152614e94816146d8565b9050919050565b60006020820190508181036000830152614eb48161473e565b9050919050565b60006020820190508181036000830152614ed4816147a4565b9050919050565b60006020820190508181036000830152614ef48161480a565b9050919050565b60006020820190508181036000830152614f1481614870565b9050919050565b60006020820190508181036000830152614f34816148d6565b9050919050565b60006020820190508181036000830152614f548161493c565b9050919050565b60006020820190508181036000830152614f748161497c565b9050919050565b6000602082019050614f906000830184614a29565b92915050565b6000604051905081810181811067ffffffffffffffff82111715614fb957600080fd5b8060405250919050565b600067ffffffffffffffff821115614fda57600080fd5b602082029050602081019050919050565b600067ffffffffffffffff82111561500257600080fd5b601f19601f8301169050602081019050919050565b600067ffffffffffffffff82111561502e57600080fd5b601f19601f8301169050602081019050919050565b6000819050602082019050919050565b6000819050602082019050919050565b60008190508160005260206000209050919050565b600081519050919050565b600081519050919050565b600081519050919050565b600081519050919050565b600081519050919050565b6000602082019050919050565b6000602082019050919050565b600082825260208201905092915050565b600082825260208201905092915050565b600082825260208201905092915050565b600081905092915050565b600082825260208201905092915050565b600082825260208201905092915050565b600081905092915050565b600061513f82615190565b9050919050565b600061515182615190565b9050919050565b60008115159050919050565b60007fffffffff0000000000000000000000000000000000000000000000000000000082169050919050565b600073ffffffffffffffffffffffffffffffffffffffff82169050919050565b6000819050919050565b82818337600083830152505050565b60005b838110156151e75780820151818401526020810190506151cc565b838111156151f6576000848401525b50505050565b6000601f19601f8301169050919050565b61521681615134565b811461522157600080fd5b50565b61522d81615158565b811461523857600080fd5b50565b61524481615164565b811461524f57600080fd5b50565b61525b816151b0565b811461526657600080fd5b5056fea365627a7a72315820e80dd64c60c23c46cfad8bd24f39a494db23b403a9e3980edceb2c1a246a85336c6578706572696d656e74616cf564736f6c634300050c0040",
  "source": "// File: contracts\\PresChain.sol\r\n\r\npragma solidity ^0.5.12;\r\n\r\npragma experimental ABIEncoderV2;\r\n\r\nimport \"./ERC721Full.sol\";\r\nimport \"./Ownable.sol\";\r\n\r\ncontract CryptoPres is  ERC721Full(\"CryptoPres\",\"PRES\"), Ownable {\r\n\r\n\r\n\r\n\r\n\r\n    // Token name \"CryptoPres\";\r\n\r\n\r\n    // Token symbol \"PRES\";\r\n\r\n    // Mapping from token ID to owner\r\n    mapping (uint256 => address) private tokenOwner;\r\n\r\n    // Mapping from owner to list of owned token IDs\r\n\r\n    mapping(address => uint256[]) internal ownedPrescriptions;\r\n\r\n\r\n    // Mapping from token ID to index of the owner tokens list\r\n\r\n    mapping(uint256 => uint256) internal ownedPrescriptionsIndex;\r\n\r\n    //mapping for transaction\r\n    mapping(uint256 => bool) internal isTransferrable;\r\n\r\n    // Mapping from owner to number of owned token\r\n    mapping (address => Counters.Counter) private ownedTokensCount;\r\n\r\n    // Array with all token ids, used for enumeration\r\n\r\n    uint256[] internal allPrescriptions;\r\n\r\n\r\n    // Mapping from token id to position in the allPrescriptions array\r\n\r\n    mapping(uint256 => uint256) internal allPrescriptionsIndex;\r\n\r\n\r\n    // Optional mapping for token URIs\r\n\r\n    mapping(uint256 => string) internal PrescriptionURIs;\r\n\r\n\r\n    struct Data{\r\n\r\n        string drugName;\r\n\r\n        string drugCode;\r\n\r\n        string dosage;\r\n\r\n    }\r\n\r\n    Data[] dataArray;\r\n\r\n\r\n\r\n    mapping(uint256 => Data[]) internal prescriptionData;\r\n\r\n\r\n\r\n\r\n    function mint(address _to, uint256 _id) external onlyDoctor {\r\n\r\n        _mint(_to, _id);\r\n\r\n    }\r\n\r\n\r\n    function arrayOfPrescriptionsByAddress(address _holder) public view returns(uint256[] memory) {\r\n\r\n        return ownedPrescriptions[_holder];\r\n\r\n    }\r\n\r\n\r\n    /**\r\n\r\n     * @dev Returns an URI for a given token ID\r\n\r\n     * @dev Throws if the token ID does not exist. May return an empty string.\r\n\r\n     * @param _presId uint256 ID of the token to query\r\n\r\n     */\r\n\r\n    function prescriptionsURI(uint256 _presId) public view returns (string memory) {\r\n\r\n        require(_exists(_presId),\"prescriptionsURI\");\r\n\r\n        return PrescriptionURIs[_presId];\r\n\r\n    }\r\n\r\n\r\n    /**\r\n\r\n     * @dev Gets the token ID at a given index of the tokens list of the requested owner\r\n\r\n     * @param _owner address owning the tokens list to be accessed\r\n\r\n     * @param _index uint256 representing the index to be accessed of the requested tokens list\r\n\r\n     * @return uint256 token ID at the given index of the tokens list owned by the requested address\r\n\r\n     */\r\n\r\n    function prescriptionOfOwnerByIndex(address _owner, uint256 _index) public view returns (uint256) {\r\n\r\n        require(_index < balanceOf(_owner), \"tokenOfOwnerByIndex\");\r\n\r\n        return ownedPrescriptions[_owner][_index];\r\n\r\n    }\r\n\r\n\r\n    /**\r\n\r\n     * @dev Gets the total amount of tokens stored by the contract\r\n\r\n     * @return uint256 representing the total amount of tokens\r\n\r\n     */\r\n\r\n    function totalSupply() public view returns (uint256) {\r\n\r\n        return allPrescriptions.length;\r\n\r\n    }\r\n\r\n\r\n    /**\r\n\r\n     * @dev Gets the token ID at a given index of all the tokens in this contract\r\n\r\n     * @dev Reverts if the index is greater or equal to the total number of tokens\r\n\r\n     * @param _index uint256 representing the index to be accessed of the tokens list\r\n\r\n     * @return uint256 token ID at the given index of the tokens list\r\n\r\n     */\r\n\r\n    function prescriptionByIndex(uint256 _index) public view returns (uint256) {\r\n\r\n        require(_index < totalSupply(),\"prescriptionByIndex\");\r\n\r\n        return allPrescriptions[_index];\r\n\r\n    }\r\n\r\n\r\n    /**\r\n\r\n     * @dev Internal function to set the token URI for a given token\r\n\r\n     * @dev Reverts if the token ID does not exist\r\n\r\n     * @param _presId uint256 ID of the token to set its URI\r\n\r\n     * @param _uri string URI to assign\r\n\r\n     */\r\n\r\n    function _setprescriptionsURI(uint256 _presId, string memory _uri) internal {\r\n\r\n        require(_exists(_presId),\"_setprescriptionsURI\");\r\n\r\n        PrescriptionURIs[_presId] = _uri;\r\n\r\n    }\r\n\r\n\r\n\r\n\r\n    /**\r\n\r\n     * @dev Internal function to add a token ID to the list of a given address\r\n\r\n     * @param _to address representing the new owner of the given token ID\r\n\r\n     * @param _presId uint256 ID of the token to be added to the tokens list of the given address\r\n\r\n     */\r\n\r\n    function addPrescriptionTo(address _to, uint256 _presId) internal {\r\n\r\n        _mint(_to, _presId);\r\n\r\n        uint256 length = ownedPrescriptions[_to].length;\r\n\r\n        ownedPrescriptions[_to].push(_presId);\r\n\r\n        ownedPrescriptionsIndex[_presId] = length;\r\n\r\n    }\r\n\r\n    event PrescriptionData(Data[] _array);\r\n\r\n\r\n    function destroy(uint256 _id) public {\r\n        Data[] memory _array = getprescriptionData(_id);\r\n        address owner = msg.sender;\r\n        //requirements\r\n        require(ownerOf(_id) == owner, \"CryptoPres: burn of token that is not own\");\r\n\r\n        //reduce the amount of tokens owner has\r\n        ownedTokensCount[owner].decrement();\r\n        //remove old address for the token\r\n        tokenOwner[_id] = address(0);\r\n\r\n        //deal with the mappings\r\n        _removeTokenFromOwnerEnumeration(owner, _id);\r\n        // Since tokenId will be deleted, we can clear its slot in _ownedTokensIndex to trigger a gas refund\r\n        ownedPrescriptionsIndex[_id] = 0;\r\n\r\n        _removeTokenFromAllTokensEnumeration(_id);\r\n\r\n        //emit the data that was in the Prescription for use in other projects\r\n        emit PrescriptionData(_array);\r\n    }\r\n\r\n    function _removeTokenFromAllTokensEnumeration(uint256 tokenId) private {\r\n        // To prevent a gap in the tokens array, we store the last token in the index of the token to delete, and\r\n        // then delete the last slot (swap and pop).\r\n\r\n        uint256 lastTokenIndex = allPrescriptions.length.sub(1);\r\n        uint256 tokenIndex = allPrescriptionsIndex[tokenId];\r\n\r\n        // When the token to delete is the last token, the swap operation is unnecessary. However, since this occurs so\r\n        // rarely (when the last minted token is burnt) that we still do the swap here to avoid the gas cost of adding\r\n        // an 'if' statement (like in _removeTokenFromOwnerEnumeration)\r\n        uint256 lastTokenId = allPrescriptions[lastTokenIndex];\r\n\r\n        allPrescriptions[tokenIndex] = lastTokenId; // Move the last token to the slot of the to-delete token\r\n        allPrescriptionsIndex[lastTokenId] = tokenIndex; // Update the moved token's index\r\n\r\n        // This also deletes the contents at the last position of the array\r\n        allPrescriptions.length--;\r\n        allPrescriptionsIndex[tokenId] = 0;\r\n\r\n    }\r\n\r\n\r\n\r\n    function transferPres(address _to, uint256 _tokenId) public{\r\n        require(isTransferrable[_tokenId], \"CryptoPres: Cannot send this token more than once!\");\r\n        address from = msg.sender;\r\n\r\n        require(ownerOf(_tokenId) == from, \"CryptoPres: transfer of token that is not own\");\r\n        require(_to != doctor, \"CryptoPres: cannot send token to Doctor\");\r\n        require(_to != owner, \"CryptoPres: cannot send token to contract owner\");\r\n        require(_to != address(0), \"CryptoPres: transfer to the zero address\");\r\n\r\n\r\n        //increase remove the index from one and add to the other\r\n        ownedTokensCount[from].decrement();\r\n        ownedTokensCount[_to].increment();\r\n\r\n        //set new owner\r\n        tokenOwner[_tokenId] = _to;\r\n\r\n        //deal with the mappings\r\n        _removeTokenFromOwnerEnumeration(from, _tokenId);\r\n        _addTokenToOwnerEnumeration(_to, _tokenId);\r\n\r\n        //remove the transferablility\r\n        isTransferrable[_tokenId] = false;\r\n\r\n    }\r\n\r\n    //return error if token does not exist\r\n    function _exists(uint256 tokenId) internal view returns (bool) {\r\n        address owner = tokenOwner[tokenId];\r\n        return owner != address(0);\r\n    }\r\n\r\n    //return the owner of the token id\r\n     function ownerOf(uint256 tokenId) public view returns (address) {\r\n        address owner = tokenOwner[tokenId];\r\n        require(owner != address(0), \"CryptoPres: owner query for nonexistent token\");\r\n\r\n        return owner;\r\n    }\r\n\r\n    /*\r\n    * adding the token to the Owned prescriptions of the owner\r\n    */\r\n\r\n    function _addTokenToOwnerEnumeration(address to, uint256 tokenId) private {\r\n        ownedPrescriptionsIndex[tokenId] = ownedPrescriptions[to].length;\r\n        ownedPrescriptions[to].push(tokenId);\r\n    }\r\n\r\n     /**\r\n     * @dev Private function to add a token to this extension's token tracking data structures.\r\n     * @param tokenId uint256 ID of the token to be added to the tokens list\r\n     */\r\n    function _addTokenToAllTokensEnumeration(uint256 tokenId) private {\r\n        allPrescriptionsIndex[tokenId] = allPrescriptions.length;\r\n        allPrescriptions.push(tokenId);\r\n    }\r\n\r\n    /**\r\n\r\n     * @dev Internal function to mint a new token\r\n\r\n     * @dev Reverts if the given token ID already exists\r\n\r\n     * @param _to address the beneficiary that will own the minted token\r\n\r\n     */\r\n\r\n    function _mint(address _to, uint256 _id) internal {\r\n        require(_to != msg.sender, \"CryptoPres: you cannot send yourself a prescription\");\r\n        require(_to != owner, \"CryptoPres: you cannot send contract owner a prescription\");\r\n\r\n        _addTokenToAllTokensEnumeration(_id);\r\n\r\n        _addTokenToOwnerEnumeration(_to, _id);\r\n\r\n        require(_to != address(0), \"CryptoPres: mint to the zero address\");\r\n        require(!_exists(_id), \"CryptoPres: token already minted\");\r\n\r\n        tokenOwner[_id] = _to;\r\n        ownedTokensCount[_to].increment();\r\n\r\n\r\n    }\r\n\r\n    /**\r\n    *   ERC721 standard for adding and removing data from and to mappings correctly.\r\n    */\r\n\r\n    function _removeTokenFromOwnerEnumeration(address from, uint256 tokenId) private {\r\n        // To prevent a gap in from's tokens array, we store the last token in the index of the token to delete, and\r\n        // then delete the last slot (swap and pop).\r\n\r\n        uint256 lastTokenIndex = ownedPrescriptions[from].length.sub(1);\r\n        uint256 tokenIndex = ownedPrescriptionsIndex[tokenId];\r\n\r\n        // When the token to delete is the last token, the swap operation is unnecessary\r\n        if (tokenIndex != lastTokenIndex) {\r\n            uint256 lastTokenId = ownedPrescriptions[from][lastTokenIndex];\r\n\r\n            ownedPrescriptions[from][tokenIndex] = lastTokenId; // Move the last token to the slot of the to-delete token\r\n            ownedPrescriptionsIndex[lastTokenId] = tokenIndex; // Update the moved token's index\r\n        }\r\n\r\n        // This also deletes the contents at the last position of the array\r\n        ownedPrescriptions[from].length--;\r\n\r\n        // Note that _ownedTokensIndex[tokenId] hasn't been cleared: it still points to the old slot (now occupied by\r\n        // lastTokenId, or just over the end of the array if the token was the last one).\r\n    }\r\n\r\n    /**\r\n    *   This function is used to batch together some functions to reduce the transaction costs and quantity.\r\n    *   The function creates the token and mints it to the address of the customer - then generates the data from arrays to collect them into a single array and add that data to the token.\r\n    *   All in one transaction\r\n    */\r\n\r\n    function addprescriptionDatatoArrayBatch(address _to, uint _presId, string[] memory _drugName, string[] memory _drugCode, string[] memory _dosage) public onlyDoctor{\r\n        //requirements\r\n        require(_drugName.length == _drugCode.length && _drugCode.length == _dosage.length, \"all arrays must be same length\");\r\n        require(msg.sender != _to, \"CryptoPres: cannot send self a token\");\r\n        //call the mint function (create the token generate the data and push data to the token.)\r\n        _mint(_to, _presId);\r\n       for (uint i=0; i<_drugName.length; i++) {\r\n           addprescriptionDatatoArray(_drugName[i], _drugCode[i], _dosage[i]);\r\n        }\r\n        addprescriptionData(_presId);\r\n    }\r\n\r\n    //collect information from single arrays into an array of structs\r\n    function addprescriptionDatatoArray(string memory _drugName, string memory _drugCode, string memory _dosage) internal onlyDoctor{\r\n        bytes memory tempEmptyStringTest = bytes(_drugName); // Uses memory\r\n        bytes memory tempEmptyStringTest1 = bytes(_drugCode); // Uses memory\r\n        bytes memory tempEmptyStringTest2 = bytes(_dosage); // Uses memory\r\n        //Testing to make sure that there are no null values\r\n        require(tempEmptyStringTest.length != 0,\"CryptoPres: entry cannot be null\");\r\n        require(tempEmptyStringTest1.length != 0,\"CryptoPres: entry cannot be null\");\r\n        require(tempEmptyStringTest2.length != 0,\"CryptoPres: entry cannot be null\");\r\n\r\n        //create data struct\r\n        Data memory d = Data(_drugName,_drugCode,_dosage);\r\n        //push d to the global dataArray\r\n        dataArray.push(d);\r\n    }\r\n\r\n\r\n    function addprescriptionData(uint _presId) internal onlyDoctor{\r\n        //requirements\r\n        require(_exists(_presId),\"CryptoPres: ID does not exist\");\r\n        require(doctor == msg.sender,\"CryptoPres: only Docor can call this function\");\r\n            //add prescriptionData to mapping of ID\r\n            prescriptionData[_presId] = dataArray;\r\n            isTransferrable[_presId] = true;\r\n            //empty the array\r\n            delete dataArray;\r\n\r\n    }\r\n\r\n    function getprescriptionData(uint _presId) public view returns(Data[] memory _array){\r\n        //make sure the id exists\r\n        require(_exists(_presId),\"CryptoPres: ID does not exist\");\r\n        //get the array of drugs from the id and return\r\n        _array = prescriptionData[_presId];\r\n    }\r\n\r\n\r\n\r\n}\r\n",
  "sourcePath": "C:/Users/Shane/Documents/truffleProjects/Currenty Working Directory/PresChain/contracts/PresChain.sol",
  "compiler": {
    "name": "solc",
    "version": "0.5.12+commit.7709ece9.Emscripten.clang"
  },
  "schemaVersion": "3.0.16",
  "updatedAt": "2020-05-08T17:41:28.170Z",
  "devdoc": {
    "methods": {
      "approve(address,uint256)": {
        "details": "Approves another address to transfer the given token ID The zero address indicates there is no approved address. There can only be one approved address per token at a given time. Can only be called by the token owner or an approved operator.",
        "params": {
          "to": "address to be approved for the given token ID",
          "tokenId": "uint256 ID of the token to be approved"
        }
      },
      "balanceOf(address)": {
        "details": "Gets the balance of the specified address.",
        "params": {
          "owner": "address to query the balance of"
        },
        "return": "uint256 representing the amount owned by the passed address"
      },
      "baseURI()": {
        "details": "Returns the base URI set via {_setBaseURI}. This will be automatically added as a preffix in {tokenURI} to each token's URI, when they are non-empty.     * _Available since v2.5.0._"
      },
      "claimOwnership()": {
        "details": "Allows the pendingOwner address to finalize the transfer."
      },
      "getApproved(uint256)": {
        "details": "Gets the approved address for a token ID, or zero if no address set Reverts if the token ID does not exist.",
        "params": {
          "tokenId": "uint256 ID of the token to query the approval of"
        },
        "return": "address currently approved for the given token ID"
      },
      "isApprovedForAll(address,address)": {
        "details": "Tells whether an operator is approved by a given owner.",
        "params": {
          "operator": "operator address which you want to query the approval of",
          "owner": "owner address which you want to query the approval of"
        },
        "return": "bool whether the given operator is approved by the given owner"
      },
      "name()": {
        "details": "Gets the token name.",
        "return": "string representing the token name"
      },
      "prescriptionByIndex(uint256)": {
        "details": "Gets the token ID at a given index of all the tokens in this contractReverts if the index is greater or equal to the total number of tokens",
        "params": {
          "_index": "uint256 representing the index to be accessed of the tokens list"
        },
        "return": "uint256 token ID at the given index of the tokens list"
      },
      "prescriptionOfOwnerByIndex(address,uint256)": {
        "details": "Gets the token ID at a given index of the tokens list of the requested owner",
        "params": {
          "_index": "uint256 representing the index to be accessed of the requested tokens list",
          "_owner": "address owning the tokens list to be accessed"
        },
        "return": "uint256 token ID at the given index of the tokens list owned by the requested address"
      },
      "prescriptionsURI(uint256)": {
        "details": "Returns an URI for a given token IDThrows if the token ID does not exist. May return an empty string.",
        "params": {
          "_presId": "uint256 ID of the token to query"
        }
      },
      "safeTransferFrom(address,address,uint256)": {
        "details": "Safely transfers the ownership of a given token ID to another address If the target address is a contract, it must implement {IERC721Receiver-onERC721Received}, which is called upon a safe transfer, and return the magic value `bytes4(keccak256(\"onERC721Received(address,address,uint256,bytes)\"))`; otherwise, the transfer is reverted. Requires the msg.sender to be the owner, approved, or operator",
        "params": {
          "from": "current owner of the token",
          "to": "address to receive the ownership of the given token ID",
          "tokenId": "uint256 ID of the token to be transferred"
        }
      },
      "safeTransferFrom(address,address,uint256,bytes)": {
        "details": "Safely transfers the ownership of a given token ID to another address If the target address is a contract, it must implement {IERC721Receiver-onERC721Received}, which is called upon a safe transfer, and return the magic value `bytes4(keccak256(\"onERC721Received(address,address,uint256,bytes)\"))`; otherwise, the transfer is reverted. Requires the _msgSender() to be the owner, approved, or operator",
        "params": {
          "_data": "bytes data to send along with a safe transfer check",
          "from": "current owner of the token",
          "to": "address to receive the ownership of the given token ID",
          "tokenId": "uint256 ID of the token to be transferred"
        }
      },
      "setApprovalForAll(address,bool)": {
        "details": "Sets or unsets the approval of a given operator An operator is allowed to transfer all tokens of the sender on their behalf.",
        "params": {
          "approved": "representing the status of the approval to be set",
          "to": "operator address to set the approval"
        }
      },
      "setDoctor(address)": {
        "details": "Sets the doctor address.",
        "params": {
          "_doctor": "The doctor address."
        }
      },
      "supportsInterface(bytes4)": {
        "details": "See {IERC165-supportsInterface}.      * Time complexity O(1), guaranteed to always use less than 30 000 gas."
      },
      "symbol()": {
        "details": "Gets the token symbol.",
        "return": "string representing the token symbol"
      },
      "tokenByIndex(uint256)": {
        "details": "Gets the token ID at a given index of all the tokens in this contract Reverts if the index is greater or equal to the total number of tokens.",
        "params": {
          "index": "uint256 representing the index to be accessed of the tokens list"
        },
        "return": "uint256 token ID at the given index of the tokens list"
      },
      "tokenOfOwnerByIndex(address,uint256)": {
        "details": "Gets the token ID at a given index of the tokens list of the requested owner.",
        "params": {
          "index": "uint256 representing the index to be accessed of the requested tokens list",
          "owner": "address owning the tokens list to be accessed"
        },
        "return": "uint256 token ID at the given index of the tokens list owned by the requested address"
      },
      "tokenURI(uint256)": {
        "details": "Returns the URI for a given token ID. May return an empty string.      * If the token's URI is non-empty and a base URI was set (via {_setBaseURI}), it will be added to the token ID's URI as a prefix.      * Reverts if the token ID does not exist."
      },
      "totalSupply()": {
        "details": "Gets the total amount of tokens stored by the contract",
        "return": "uint256 representing the total amount of tokens"
      },
      "transferFrom(address,address,uint256)": {
        "details": "Transfers the ownership of a given token ID to another address. Usage of this method is discouraged, use {safeTransferFrom} whenever possible. Requires the msg.sender to be the owner, approved, or operator.",
        "params": {
          "from": "current owner of the token",
          "to": "address to receive the ownership of the given token ID",
          "tokenId": "uint256 ID of the token to be transferred"
        }
      },
      "transferOwnership(address)": {
        "details": "Allows the current owner to set the pendingOwner address.",
        "params": {
          "newOwner": "The address to transfer ownership to."
        }
      }
    }
  },
  "userdoc": {
    "methods": {
      "addprescriptionDatatoArrayBatch(address,uint256,string[],string[],string[])": {
        "notice": "This function is used to batch together some functions to reduce the transaction costs and quantity.  The function creates the token and mints it to the address of the customer - then generates the data from arrays to collect them into a single array and add that data to the token.  All in one transaction"
      }
    }
  }
}