{
  "contractName": "CryptoPres",
  "abi": [
    {
      "anonymous": false,
      "inputs": [
        {
          "indexed": true,
          "internalType": "address",
          "name": "owner",
          "type": "address"
        },
        {
          "indexed": true,
          "internalType": "address",
          "name": "approved",
          "type": "address"
        },
        {
          "indexed": true,
          "internalType": "uint256",
          "name": "tokenId",
          "type": "uint256"
        }
      ],
      "name": "Approval",
      "type": "event"
    },
    {
      "anonymous": false,
      "inputs": [
        {
          "indexed": true,
          "internalType": "address",
          "name": "owner",
          "type": "address"
        },
        {
          "indexed": true,
          "internalType": "address",
          "name": "operator",
          "type": "address"
        },
        {
          "indexed": false,
          "internalType": "bool",
          "name": "approved",
          "type": "bool"
        }
      ],
      "name": "ApprovalForAll",
      "type": "event"
    },
    {
      "anonymous": false,
      "inputs": [
        {
          "indexed": true,
          "internalType": "address",
          "name": "previousOwner",
          "type": "address"
        },
        {
          "indexed": true,
          "internalType": "address",
          "name": "newOwner",
          "type": "address"
        }
      ],
      "name": "OwnershipTransferred",
      "type": "event"
    },
    {
      "anonymous": false,
      "inputs": [
        {
          "indexed": true,
          "internalType": "address",
          "name": "from",
          "type": "address"
        },
        {
          "indexed": true,
          "internalType": "address",
          "name": "to",
          "type": "address"
        },
        {
          "indexed": true,
          "internalType": "uint256",
          "name": "tokenId",
          "type": "uint256"
        }
      ],
      "name": "Transfer",
      "type": "event"
    },
    {
      "constant": false,
      "inputs": [
        {
          "internalType": "address",
          "name": "to",
          "type": "address"
        },
        {
          "internalType": "uint256",
          "name": "tokenId",
          "type": "uint256"
        }
      ],
      "name": "approve",
      "outputs": [],
      "payable": false,
      "stateMutability": "nonpayable",
      "type": "function"
    },
    {
      "constant": true,
      "inputs": [
        {
          "internalType": "address",
          "name": "owner",
          "type": "address"
        }
      ],
      "name": "balanceOf",
      "outputs": [
        {
          "internalType": "uint256",
          "name": "",
          "type": "uint256"
        }
      ],
      "payable": false,
      "stateMutability": "view",
      "type": "function"
    },
    {
      "constant": true,
      "inputs": [],
      "name": "baseURI",
      "outputs": [
        {
          "internalType": "string",
          "name": "",
          "type": "string"
        }
      ],
      "payable": false,
      "stateMutability": "view",
      "type": "function"
    },
    {
      "constant": false,
      "inputs": [],
      "name": "claimOwnership",
      "outputs": [],
      "payable": false,
      "stateMutability": "nonpayable",
      "type": "function"
    },
    {
      "constant": true,
      "inputs": [],
      "name": "doctor",
      "outputs": [
        {
          "internalType": "address",
          "name": "",
          "type": "address"
        }
      ],
      "payable": false,
      "stateMutability": "view",
      "type": "function"
    },
    {
      "constant": true,
      "inputs": [
        {
          "internalType": "uint256",
          "name": "tokenId",
          "type": "uint256"
        }
      ],
      "name": "getApproved",
      "outputs": [
        {
          "internalType": "address",
          "name": "",
          "type": "address"
        }
      ],
      "payable": false,
      "stateMutability": "view",
      "type": "function"
    },
    {
      "constant": true,
      "inputs": [
        {
          "internalType": "address",
          "name": "owner",
          "type": "address"
        },
        {
          "internalType": "address",
          "name": "operator",
          "type": "address"
        }
      ],
      "name": "isApprovedForAll",
      "outputs": [
        {
          "internalType": "bool",
          "name": "",
          "type": "bool"
        }
      ],
      "payable": false,
      "stateMutability": "view",
      "type": "function"
    },
    {
      "constant": true,
      "inputs": [],
      "name": "name_",
      "outputs": [
        {
          "internalType": "string",
          "name": "",
          "type": "string"
        }
      ],
      "payable": false,
      "stateMutability": "view",
      "type": "function"
    },
    {
      "constant": true,
      "inputs": [],
      "name": "owner",
      "outputs": [
        {
          "internalType": "address",
          "name": "",
          "type": "address"
        }
      ],
      "payable": false,
      "stateMutability": "view",
      "type": "function"
    },
    {
      "constant": true,
      "inputs": [
        {
          "internalType": "uint256",
          "name": "tokenId",
          "type": "uint256"
        }
      ],
      "name": "ownerOf",
      "outputs": [
        {
          "internalType": "address",
          "name": "",
          "type": "address"
        }
      ],
      "payable": false,
      "stateMutability": "view",
      "type": "function"
    },
    {
      "constant": true,
      "inputs": [],
      "name": "pendingOwner",
      "outputs": [
        {
          "internalType": "address",
          "name": "",
          "type": "address"
        }
      ],
      "payable": false,
      "stateMutability": "view",
      "type": "function"
    },
    {
      "constant": false,
      "inputs": [
        {
          "internalType": "address",
          "name": "from",
          "type": "address"
        },
        {
          "internalType": "address",
          "name": "to",
          "type": "address"
        },
        {
          "internalType": "uint256",
          "name": "tokenId",
          "type": "uint256"
        }
      ],
      "name": "safeTransferFrom",
      "outputs": [],
      "payable": false,
      "stateMutability": "nonpayable",
      "type": "function"
    },
    {
      "constant": false,
      "inputs": [
        {
          "internalType": "address",
          "name": "from",
          "type": "address"
        },
        {
          "internalType": "address",
          "name": "to",
          "type": "address"
        },
        {
          "internalType": "uint256",
          "name": "tokenId",
          "type": "uint256"
        },
        {
          "internalType": "bytes",
          "name": "_data",
          "type": "bytes"
        }
      ],
      "name": "safeTransferFrom",
      "outputs": [],
      "payable": false,
      "stateMutability": "nonpayable",
      "type": "function"
    },
    {
      "constant": false,
      "inputs": [
        {
          "internalType": "address",
          "name": "to",
          "type": "address"
        },
        {
          "internalType": "bool",
          "name": "approved",
          "type": "bool"
        }
      ],
      "name": "setApprovalForAll",
      "outputs": [],
      "payable": false,
      "stateMutability": "nonpayable",
      "type": "function"
    },
    {
      "constant": false,
      "inputs": [
        {
          "internalType": "address",
          "name": "_doctor",
          "type": "address"
        }
      ],
      "name": "setDoctor",
      "outputs": [],
      "payable": false,
      "stateMutability": "nonpayable",
      "type": "function"
    },
    {
      "constant": true,
      "inputs": [
        {
          "internalType": "bytes4",
          "name": "interfaceId",
          "type": "bytes4"
        }
      ],
      "name": "supportsInterface",
      "outputs": [
        {
          "internalType": "bool",
          "name": "",
          "type": "bool"
        }
      ],
      "payable": false,
      "stateMutability": "view",
      "type": "function"
    },
    {
      "constant": true,
      "inputs": [],
      "name": "symbol_",
      "outputs": [
        {
          "internalType": "string",
          "name": "",
          "type": "string"
        }
      ],
      "payable": false,
      "stateMutability": "view",
      "type": "function"
    },
    {
      "constant": true,
      "inputs": [
        {
          "internalType": "uint256",
          "name": "index",
          "type": "uint256"
        }
      ],
      "name": "tokenByIndex",
      "outputs": [
        {
          "internalType": "uint256",
          "name": "",
          "type": "uint256"
        }
      ],
      "payable": false,
      "stateMutability": "view",
      "type": "function"
    },
    {
      "constant": true,
      "inputs": [
        {
          "internalType": "address",
          "name": "owner",
          "type": "address"
        },
        {
          "internalType": "uint256",
          "name": "index",
          "type": "uint256"
        }
      ],
      "name": "tokenOfOwnerByIndex",
      "outputs": [
        {
          "internalType": "uint256",
          "name": "",
          "type": "uint256"
        }
      ],
      "payable": false,
      "stateMutability": "view",
      "type": "function"
    },
    {
      "constant": true,
      "inputs": [
        {
          "internalType": "uint256",
          "name": "tokenId",
          "type": "uint256"
        }
      ],
      "name": "tokenURI",
      "outputs": [
        {
          "internalType": "string",
          "name": "",
          "type": "string"
        }
      ],
      "payable": false,
      "stateMutability": "view",
      "type": "function"
    },
    {
      "constant": false,
      "inputs": [
        {
          "internalType": "address",
          "name": "from",
          "type": "address"
        },
        {
          "internalType": "address",
          "name": "to",
          "type": "address"
        },
        {
          "internalType": "uint256",
          "name": "tokenId",
          "type": "uint256"
        }
      ],
      "name": "transferFrom",
      "outputs": [],
      "payable": false,
      "stateMutability": "nonpayable",
      "type": "function"
    },
    {
      "constant": false,
      "inputs": [
        {
          "internalType": "address",
          "name": "newOwner",
          "type": "address"
        }
      ],
      "name": "transferOwnership",
      "outputs": [],
      "payable": false,
      "stateMutability": "nonpayable",
      "type": "function"
    },
    {
      "constant": false,
      "inputs": [
        {
          "internalType": "address",
          "name": "_to",
          "type": "address"
        },
        {
          "internalType": "uint256",
          "name": "_id",
          "type": "uint256"
        }
      ],
      "name": "mint",
      "outputs": [],
      "payable": false,
      "stateMutability": "nonpayable",
      "type": "function"
    },
    {
      "constant": true,
      "inputs": [],
      "name": "name",
      "outputs": [
        {
          "internalType": "string",
          "name": "",
          "type": "string"
        }
      ],
      "payable": false,
      "stateMutability": "view",
      "type": "function"
    },
    {
      "constant": true,
      "inputs": [],
      "name": "symbol",
      "outputs": [
        {
          "internalType": "string",
          "name": "",
          "type": "string"
        }
      ],
      "payable": false,
      "stateMutability": "view",
      "type": "function"
    },
    {
      "constant": true,
      "inputs": [
        {
          "internalType": "address",
          "name": "_holder",
          "type": "address"
        }
      ],
      "name": "arrayOfPrescriptionsByAddress",
      "outputs": [
        {
          "internalType": "uint256[]",
          "name": "",
          "type": "uint256[]"
        }
      ],
      "payable": false,
      "stateMutability": "view",
      "type": "function"
    },
    {
      "constant": true,
      "inputs": [
        {
          "internalType": "uint256",
          "name": "_presId",
          "type": "uint256"
        }
      ],
      "name": "prescriptionsURI",
      "outputs": [
        {
          "internalType": "string",
          "name": "",
          "type": "string"
        }
      ],
      "payable": false,
      "stateMutability": "view",
      "type": "function"
    },
    {
      "constant": true,
      "inputs": [
        {
          "internalType": "address",
          "name": "_owner",
          "type": "address"
        },
        {
          "internalType": "uint256",
          "name": "_index",
          "type": "uint256"
        }
      ],
      "name": "prescriptionOfOwnerByIndex",
      "outputs": [
        {
          "internalType": "uint256",
          "name": "",
          "type": "uint256"
        }
      ],
      "payable": false,
      "stateMutability": "view",
      "type": "function"
    },
    {
      "constant": true,
      "inputs": [],
      "name": "totalSupply",
      "outputs": [
        {
          "internalType": "uint256",
          "name": "",
          "type": "uint256"
        }
      ],
      "payable": false,
      "stateMutability": "view",
      "type": "function"
    },
    {
      "constant": true,
      "inputs": [
        {
          "internalType": "uint256",
          "name": "_index",
          "type": "uint256"
        }
      ],
      "name": "prescriptionByIndex",
      "outputs": [
        {
          "internalType": "uint256",
          "name": "",
          "type": "uint256"
        }
      ],
      "payable": false,
      "stateMutability": "view",
      "type": "function"
    },
    {
      "constant": false,
      "inputs": [
        {
          "internalType": "uint256",
          "name": "_presId",
          "type": "uint256"
        },
        {
          "internalType": "string",
          "name": "_drugName",
          "type": "string"
        },
        {
          "internalType": "string",
          "name": "_drugCode",
          "type": "string"
        }
      ],
      "name": "addprescriptionData",
      "outputs": [],
      "payable": false,
      "stateMutability": "nonpayable",
      "type": "function"
    },
    {
      "constant": true,
      "inputs": [
        {
          "internalType": "uint256",
          "name": "_presId",
          "type": "uint256"
        }
      ],
      "name": "getprescriptionData",
      "outputs": [
        {
          "internalType": "string",
          "name": "drugName",
          "type": "string"
        },
        {
          "internalType": "string",
          "name": "drugCode",
          "type": "string"
        }
      ],
      "payable": false,
      "stateMutability": "view",
      "type": "function"
    }
  ],
  "bytecode": "0x60806040526040518060400160405280600a81526020017f43727970746f50726573000000000000000000000000000000000000000000008152506010908051906020019062000051929190620002f4565b506040518060400160405280600481526020017f5052455300000000000000000000000000000000000000000000000000000000815250601190805190602001906200009f929190620002f4565b506040518060400160405280600a81526020017f43727970746f50726573000000000000000000000000000000000000000000008152506040518060400160405280600481526020017f50524553000000000000000000000000000000000000000000000000000000008152508181620001266301ffc9a760e01b620001eb60201b60201c565b6200013e6380ac58cd60e01b620001eb60201b60201c565b6200015663780e9d6360e01b620001eb60201b60201c565b81600990805190602001906200016e929190620002f4565b5080600a908051906020019062000187929190620002f4565b50620001a0635b5e139f60e01b620001eb60201b60201c565b5050505033600d60006101000a81548173ffffffffffffffffffffffffffffffffffffffff021916908373ffffffffffffffffffffffffffffffffffffffff160217905550620003a3565b63ffffffff60e01b817bffffffffffffffffffffffffffffffffffffffffffffffffffffffff1916141562000288576040517f08c379a000000000000000000000000000000000000000000000000000000000815260040180806020018281038252601c8152602001807f4552433136353a20696e76616c696420696e746572666163652069640000000081525060200191505060405180910390fd5b6001600080837bffffffffffffffffffffffffffffffffffffffffffffffffffffffff19167bffffffffffffffffffffffffffffffffffffffffffffffffffffffff1916815260200190815260200160002060006101000a81548160ff02191690831515021790555050565b828054600181600116156101000203166002900490600052602060002090601f016020900481019282601f106200033757805160ff191683800117855562000368565b8280016001018555821562000368579182015b82811115620003675782518255916020019190600101906200034a565b5b5090506200037791906200037b565b5090565b620003a091905b808211156200039c57600081600090555060010162000382565b5090565b90565b613b6b80620003b36000396000f3fe608060405234801561001057600080fd5b50600436106101f05760003560e01c806370a082311161010f578063c2762ab0116100a2578063e2b9e18611610071578063e2b9e18614610f05578063e30c397814610f88578063e985e9c514610fd2578063f2fde38b1461104e576101f0565b8063c2762ab014610c19578063c6e26a2014610d75578063c87b56dd14610db7578063d60999c214610e5e576101f0565b806395d89b41116100de57806395d89b41146109be578063a22cb46514610a41578063af17dea614610a91578063b88d4fde14610b14576101f0565b806370a08231146107bf5780637ea7118c146108175780637ef1b4b3146108615780638da5cb5b14610974576101f0565b806330652fe0116101875780634e71e0c8116101565780634e71e0c8146106825780634f6ccce71461068c5780636352211e146106ce5780636c0360eb1461073c576101f0565b806330652fe0146104e957806340c10f191461058257806342842e0e146105d057806348103e651461063e576101f0565b806318160ddd116101c357806318160ddd146103995780631cf43d61146103b757806323b872dd146104195780632f745c5914610487576101f0565b806301ffc9a7146101f557806306fdde031461025a578063081812fc146102dd578063095ea7b31461034b575b600080fd5b6102406004803603602081101561020b57600080fd5b8101908080357bffffffffffffffffffffffffffffffffffffffffffffffffffffffff19169060200190929190505050611092565b604051808215151515815260200191505060405180910390f35b6102626110f9565b6040518080602001828103825283818151815260200191508051906020019080838360005b838110156102a2578082015181840152602081019050610287565b50505050905090810190601f1680156102cf5780820380516001836020036101000a031916815260200191505b509250505060405180910390f35b610309600480360360208110156102f357600080fd5b810190808035906020019092919050505061119b565b604051808273ffffffffffffffffffffffffffffffffffffffff1673ffffffffffffffffffffffffffffffffffffffff16815260200191505060405180910390f35b6103976004803603604081101561036157600080fd5b81019080803573ffffffffffffffffffffffffffffffffffffffff16906020019092919080359060200190929190505050611236565b005b6103a161141d565b6040518082815260200191505060405180910390f35b610403600480360360408110156103cd57600080fd5b81019080803573ffffffffffffffffffffffffffffffffffffffff1690602001909291908035906020019092919050505061142a565b6040518082815260200191505060405180910390f35b6104856004803603606081101561042f57600080fd5b81019080803573ffffffffffffffffffffffffffffffffffffffff169060200190929190803573ffffffffffffffffffffffffffffffffffffffff16906020019092919080359060200190929190505050611506565b005b6104d36004803603604081101561049d57600080fd5b81019080803573ffffffffffffffffffffffffffffffffffffffff1690602001909291908035906020019092919050505061157c565b6040518082815260200191505060405180910390f35b61052b600480360360208110156104ff57600080fd5b81019080803573ffffffffffffffffffffffffffffffffffffffff16906020019092919050505061163b565b6040518080602001828103825283818151815260200191508051906020019060200280838360005b8381101561056e578082015181840152602081019050610553565b505050509050019250505060405180910390f35b6105ce6004803603604081101561059857600080fd5b81019080803573ffffffffffffffffffffffffffffffffffffffff169060200190929190803590602001909291905050506116d2565b005b61063c600480360360608110156105e657600080fd5b81019080803573ffffffffffffffffffffffffffffffffffffffff169060200190929190803573ffffffffffffffffffffffffffffffffffffffff1690602001909291908035906020019092919050505061173a565b005b6106806004803603602081101561065457600080fd5b81019080803573ffffffffffffffffffffffffffffffffffffffff16906020019092919050505061175a565b005b61068a611832565b005b6106b8600480360360208110156106a257600080fd5b81019080803590602001909291905050506119d1565b6040518082815260200191505060405180910390f35b6106fa600480360360208110156106e457600080fd5b8101908080359060200190929190505050611a51565b604051808273ffffffffffffffffffffffffffffffffffffffff1673ffffffffffffffffffffffffffffffffffffffff16815260200191505060405180910390f35b610744611b19565b6040518080602001828103825283818151815260200191508051906020019080838360005b83811015610784578082015181840152602081019050610769565b50505050905090810190601f1680156107b15780820380516001836020036101000a031916815260200191505b509250505060405180910390f35b610801600480360360208110156107d557600080fd5b81019080803573ffffffffffffffffffffffffffffffffffffffff169060200190929190505050611bbb565b6040518082815260200191505060405180910390f35b61081f611c90565b604051808273ffffffffffffffffffffffffffffffffffffffff1673ffffffffffffffffffffffffffffffffffffffff16815260200191505060405180910390f35b61088d6004803603602081101561087757600080fd5b8101908080359060200190929190505050611cb6565b604051808060200180602001838103835285818151815260200191508051906020019080838360005b838110156108d15780820151818401526020810190506108b6565b50505050905090810190601f1680156108fe5780820380516001836020036101000a031916815260200191505b50838103825284818151815260200191508051906020019080838360005b8381101561093757808201518184015260208101905061091c565b50505050905090810190601f1680156109645780820380516001836020036101000a031916815260200191505b5094505050505060405180910390f35b61097c611e9b565b604051808273ffffffffffffffffffffffffffffffffffffffff1673ffffffffffffffffffffffffffffffffffffffff16815260200191505060405180910390f35b6109c6611ec1565b6040518080602001828103825283818151815260200191508051906020019080838360005b83811015610a065780820151818401526020810190506109eb565b50505050905090810190601f168015610a335780820380516001836020036101000a031916815260200191505b509250505060405180910390f35b610a8f60048036036040811015610a5757600080fd5b81019080803573ffffffffffffffffffffffffffffffffffffffff169060200190929190803515159060200190929190505050611f63565b005b610a9961211b565b6040518080602001828103825283818151815260200191508051906020019080838360005b83811015610ad9578082015181840152602081019050610abe565b50505050905090810190601f168015610b065780820380516001836020036101000a031916815260200191505b509250505060405180910390f35b610c1760048036036080811015610b2a57600080fd5b81019080803573ffffffffffffffffffffffffffffffffffffffff169060200190929190803573ffffffffffffffffffffffffffffffffffffffff1690602001909291908035906020019092919080359060200190640100000000811115610b9157600080fd5b820183602082011115610ba357600080fd5b80359060200191846001830284011164010000000083111715610bc557600080fd5b91908080601f016020809104026020016040519081016040528093929190818152602001838380828437600081840152601f19601f8201169050808301925050505050505091929192905050506121b9565b005b610d7360048036036060811015610c2f57600080fd5b810190808035906020019092919080359060200190640100000000811115610c5657600080fd5b820183602082011115610c6857600080fd5b80359060200191846001830284011164010000000083111715610c8a57600080fd5b91908080601f016020809104026020016040519081016040528093929190818152602001838380828437600081840152601f19601f82011690508083019250505050505050919291929080359060200190640100000000811115610ced57600080fd5b820183602082011115610cff57600080fd5b80359060200191846001830284011164010000000083111715610d2157600080fd5b91908080601f016020809104026020016040519081016040528093929190818152602001838380828437600081840152601f19601f820116905080830192505050505050509192919290505050612231565b005b610da160048036036020811015610d8b57600080fd5b8101908080359060200190929190505050612335565b6040518082815260200191505060405180910390f35b610de360048036036020811015610dcd57600080fd5b81019080803590602001909291905050506123d2565b6040518080602001828103825283818151815260200191508051906020019080838360005b83811015610e23578082015181840152602081019050610e08565b50505050905090810190601f168015610e505780820380516001836020036101000a031916815260200191505b509250505060405180910390f35b610e8a60048036036020811015610e7457600080fd5b81019080803590602001909291905050506125d4565b6040518080602001828103825283818151815260200191508051906020019080838360005b83811015610eca578082015181840152602081019050610eaf565b50505050905090810190601f168015610ef75780820380516001836020036101000a031916815260200191505b509250505060405180910390f35b610f0d612704565b6040518080602001828103825283818151815260200191508051906020019080838360005b83811015610f4d578082015181840152602081019050610f32565b50505050905090810190601f168015610f7a5780820380516001836020036101000a031916815260200191505b509250505060405180910390f35b610f906127a2565b604051808273ffffffffffffffffffffffffffffffffffffffff1673ffffffffffffffffffffffffffffffffffffffff16815260200191505060405180910390f35b61103460048036036040811015610fe857600080fd5b81019080803573ffffffffffffffffffffffffffffffffffffffff169060200190929190803573ffffffffffffffffffffffffffffffffffffffff1690602001909291905050506127c8565b604051808215151515815260200191505060405180910390f35b6110906004803603602081101561106457600080fd5b81019080803573ffffffffffffffffffffffffffffffffffffffff16906020019092919050505061285c565b005b6000806000837bffffffffffffffffffffffffffffffffffffffffffffffffffffffff19167bffffffffffffffffffffffffffffffffffffffffffffffffffffffff1916815260200190815260200160002060009054906101000a900460ff169050919050565b606060108054600181600116156101000203166002900480601f0160208091040260200160405190810160405280929190818152602001828054600181600116156101000203166002900480156111915780601f1061116657610100808354040283529160200191611191565b820191906000526020600020905b81548152906001019060200180831161117457829003601f168201915b5050505050905090565b60006111a6826128fa565b6111fb576040517f08c379a000000000000000000000000000000000000000000000000000000000815260040180806020018281038252602c815260200180613a35602c913960400191505060405180910390fd5b6002600083815260200190815260200160002060009054906101000a900473ffffffffffffffffffffffffffffffffffffffff169050919050565b600061124182611a51565b90508073ffffffffffffffffffffffffffffffffffffffff168373ffffffffffffffffffffffffffffffffffffffff1614156112c8576040517f08c379a0000000000000000000000000000000000000000000000000000000008152600401808060200182810382526021815260200180613ab96021913960400191505060405180910390fd5b8073ffffffffffffffffffffffffffffffffffffffff166112e761296c565b73ffffffffffffffffffffffffffffffffffffffff16148061131657506113158161131061296c565b6127c8565b5b61136b576040517f08c379a00000000000000000000000000000000000000000000000000000000081526004018080602001828103825260388152602001806139aa6038913960400191505060405180910390fd5b826002600084815260200190815260200160002060006101000a81548173ffffffffffffffffffffffffffffffffffffffff021916908373ffffffffffffffffffffffffffffffffffffffff160217905550818373ffffffffffffffffffffffffffffffffffffffff168273ffffffffffffffffffffffffffffffffffffffff167f8c5be1e5ebec7d5bd14f71427d1e84f3dd0314c0f7b2291e5b200ac8c7c3b92560405160405180910390a4505050565b6000601480549050905090565b600061143583611bbb565b82106114a9576040517f08c379a00000000000000000000000000000000000000000000000000000000081526004018080602001828103825260138152602001807f746f6b656e4f664f776e65724279496e6465780000000000000000000000000081525060200191505060405180910390fd5b601260008473ffffffffffffffffffffffffffffffffffffffff1673ffffffffffffffffffffffffffffffffffffffff16815260200190815260200160002082815481106114f357fe5b9060005260206000200154905092915050565b61151761151161296c565b82612974565b61156c576040517f08c379a0000000000000000000000000000000000000000000000000000000008152600401808060200182810382526031815260200180613ada6031913960400191505060405180910390fd5b611577838383612a68565b505050565b600061158783611bbb565b82106115de576040517f08c379a000000000000000000000000000000000000000000000000000000000815260040180806020018281038252602b8152602001806138fd602b913960400191505060405180910390fd5b600560008473ffffffffffffffffffffffffffffffffffffffff1673ffffffffffffffffffffffffffffffffffffffff168152602001908152602001600020828154811061162857fe5b9060005260206000200154905092915050565b6060601260008373ffffffffffffffffffffffffffffffffffffffff1673ffffffffffffffffffffffffffffffffffffffff1681526020019081526020016000208054806020026020016040519081016040528092919081815260200182805480156116c657602002820191906000526020600020905b8154815260200190600101908083116116b2575b50505050509050919050565b600f60009054906101000a900473ffffffffffffffffffffffffffffffffffffffff1673ffffffffffffffffffffffffffffffffffffffff163373ffffffffffffffffffffffffffffffffffffffff161461172c57600080fd5b6117368282612a8c565b5050565b611755838383604051806020016040528060008152506121b9565b505050565b600d60009054906101000a900473ffffffffffffffffffffffffffffffffffffffff1673ffffffffffffffffffffffffffffffffffffffff163373ffffffffffffffffffffffffffffffffffffffff16146117b457600080fd5b600073ffffffffffffffffffffffffffffffffffffffff168173ffffffffffffffffffffffffffffffffffffffff1614156117ee57600080fd5b80600f60006101000a81548173ffffffffffffffffffffffffffffffffffffffff021916908373ffffffffffffffffffffffffffffffffffffffff16021790555050565b600e60009054906101000a900473ffffffffffffffffffffffffffffffffffffffff1673ffffffffffffffffffffffffffffffffffffffff163373ffffffffffffffffffffffffffffffffffffffff161461188c57600080fd5b600e60009054906101000a900473ffffffffffffffffffffffffffffffffffffffff1673ffffffffffffffffffffffffffffffffffffffff16600d60009054906101000a900473ffffffffffffffffffffffffffffffffffffffff1673ffffffffffffffffffffffffffffffffffffffff167f8be0079c531659141344cd1fd0a4f28419497f9722a3daafe3b4186f6b6457e060405160405180910390a3600e60009054906101000a900473ffffffffffffffffffffffffffffffffffffffff16600d60006101000a81548173ffffffffffffffffffffffffffffffffffffffff021916908373ffffffffffffffffffffffffffffffffffffffff1602179055506000600e60006101000a81548173ffffffffffffffffffffffffffffffffffffffff021916908373ffffffffffffffffffffffffffffffffffffffff160217905550565b60006119db61141d565b8210611a32576040517f08c379a000000000000000000000000000000000000000000000000000000000815260040180806020018281038252602c815260200180613b0b602c913960400191505060405180910390fd5b60078281548110611a3f57fe5b90600052602060002001549050919050565b6000806001600084815260200190815260200160002060009054906101000a900473ffffffffffffffffffffffffffffffffffffffff169050600073ffffffffffffffffffffffffffffffffffffffff168173ffffffffffffffffffffffffffffffffffffffff161415611b10576040517f08c379a0000000000000000000000000000000000000000000000000000000008152600401808060200182810382526029815260200180613a0c6029913960400191505060405180910390fd5b80915050919050565b6060600b8054600181600116156101000203166002900480601f016020809104026020016040519081016040528092919081815260200182805460018160011615610100020316600290048015611bb15780601f10611b8657610100808354040283529160200191611bb1565b820191906000526020600020905b815481529060010190602001808311611b9457829003601f168201915b5050505050905090565b60008073ffffffffffffffffffffffffffffffffffffffff168273ffffffffffffffffffffffffffffffffffffffff161415611c42576040517f08c379a000000000000000000000000000000000000000000000000000000000815260040180806020018281038252602a8152602001806139e2602a913960400191505060405180910390fd5b611c89600360008473ffffffffffffffffffffffffffffffffffffffff1673ffffffffffffffffffffffffffffffffffffffff168152602001908152602001600020612ade565b9050919050565b600f60009054906101000a900473ffffffffffffffffffffffffffffffffffffffff1681565b606080611cc2836128fa565b611d34576040517f08c379a00000000000000000000000000000000000000000000000000000000081526004018080602001828103825260138152602001807f676574707265736372697074696f6e446174610000000000000000000000000081525060200191505060405180910390fd5b601760008481526020019081526020016000206000018054600181600116156101000203166002900480601f016020809104026020016040519081016040528092919081815260200182805460018160011615610100020316600290048015611dde5780601f10611db357610100808354040283529160200191611dde565b820191906000526020600020905b815481529060010190602001808311611dc157829003601f168201915b50505050509150601760008481526020019081526020016000206001018054600181600116156101000203166002900480601f016020809104026020016040519081016040528092919081815260200182805460018160011615610100020316600290048015611e8f5780601f10611e6457610100808354040283529160200191611e8f565b820191906000526020600020905b815481529060010190602001808311611e7257829003601f168201915b50505050509050915091565b600d60009054906101000a900473ffffffffffffffffffffffffffffffffffffffff1681565b606060118054600181600116156101000203166002900480601f016020809104026020016040519081016040528092919081815260200182805460018160011615610100020316600290048015611f595780601f10611f2e57610100808354040283529160200191611f59565b820191906000526020600020905b815481529060010190602001808311611f3c57829003601f168201915b5050505050905090565b611f6b61296c565b73ffffffffffffffffffffffffffffffffffffffff168273ffffffffffffffffffffffffffffffffffffffff16141561200c576040517f08c379a00000000000000000000000000000000000000000000000000000000081526004018080602001828103825260198152602001807f4552433732313a20617070726f766520746f2063616c6c65720000000000000081525060200191505060405180910390fd5b806004600061201961296c565b73ffffffffffffffffffffffffffffffffffffffff1673ffffffffffffffffffffffffffffffffffffffff16815260200190815260200160002060008473ffffffffffffffffffffffffffffffffffffffff1673ffffffffffffffffffffffffffffffffffffffff16815260200190815260200160002060006101000a81548160ff0219169083151502179055508173ffffffffffffffffffffffffffffffffffffffff166120c661296c565b73ffffffffffffffffffffffffffffffffffffffff167f17307eab39ab6107e8899845ad3d59bd9653f200f220920489ca2b5937696c3183604051808215151515815260200191505060405180910390a35050565b60118054600181600116156101000203166002900480601f0160208091040260200160405190810160405280929190818152602001828054600181600116156101000203166002900480156121b15780601f10612186576101008083540402835291602001916121b1565b820191906000526020600020905b81548152906001019060200180831161219457829003601f168201915b505050505081565b6121ca6121c461296c565b83612974565b61221f576040517f08c379a0000000000000000000000000000000000000000000000000000000008152600401808060200182810382526031815260200180613ada6031913960400191505060405180910390fd5b61222b84848484612aec565b50505050565b3373ffffffffffffffffffffffffffffffffffffffff1661225184611a51565b73ffffffffffffffffffffffffffffffffffffffff16146122da576040517f08c379a00000000000000000000000000000000000000000000000000000000081526004018080602001828103825260138152602001807f616464707265736372697074696f6e446174610000000000000000000000000081525060200191505060405180910390fd5b8160176000858152602001908152602001600020600001908051906020019061230492919061382b565b508060176000858152602001908152602001600020600101908051906020019061232f92919061382b565b50505050565b600061233f61141d565b82106123b3576040517f08c379a00000000000000000000000000000000000000000000000000000000081526004018080602001828103825260138152602001807f707265736372697074696f6e4279496e6465780000000000000000000000000081525060200191505060405180910390fd5b601482815481106123c057fe5b90600052602060002001549050919050565b60606123dd826128fa565b612432576040517f08c379a000000000000000000000000000000000000000000000000000000000815260040180806020018281038252602f815260200180613a8a602f913960400191505060405180910390fd5b6060600c60008481526020019081526020016000208054600181600116156101000203166002900480601f0160208091040260200160405190810160405280929190818152602001828054600181600116156101000203166002900480156124db5780601f106124b0576101008083540402835291602001916124db565b820191906000526020600020905b8154815290600101906020018083116124be57829003601f168201915b5050505050905060008151141561250457604051806020016040528060008152509150506125cf565b600b8160405160200180838054600181600116156101000203166002900480156125655780601f10612543576101008083540402835291820191612565565b820191906000526020600020905b815481529060010190602001808311612551575b505082805190602001908083835b602083106125965780518252602082019150602081019050602083039250612573565b6001836020036101000a038019825116818451168082178552505050505050905001925050506040516020818303038152906040529150505b919050565b60606125df826128fa565b612651576040517f08c379a00000000000000000000000000000000000000000000000000000000081526004018080602001828103825260108152602001807f707265736372697074696f6e735552490000000000000000000000000000000081525060200191505060405180910390fd5b601660008381526020019081526020016000208054600181600116156101000203166002900480601f0160208091040260200160405190810160405280929190818152602001828054600181600116156101000203166002900480156126f85780601f106126cd576101008083540402835291602001916126f8565b820191906000526020600020905b8154815290600101906020018083116126db57829003601f168201915b50505050509050919050565b60108054600181600116156101000203166002900480601f01602080910402602001604051908101604052809291908181526020018280546001816001161561010002031660029004801561279a5780601f1061276f5761010080835404028352916020019161279a565b820191906000526020600020905b81548152906001019060200180831161277d57829003601f168201915b505050505081565b600e60009054906101000a900473ffffffffffffffffffffffffffffffffffffffff1681565b6000600460008473ffffffffffffffffffffffffffffffffffffffff1673ffffffffffffffffffffffffffffffffffffffff16815260200190815260200160002060008373ffffffffffffffffffffffffffffffffffffffff1673ffffffffffffffffffffffffffffffffffffffff16815260200190815260200160002060009054906101000a900460ff16905092915050565b600d60009054906101000a900473ffffffffffffffffffffffffffffffffffffffff1673ffffffffffffffffffffffffffffffffffffffff163373ffffffffffffffffffffffffffffffffffffffff16146128b657600080fd5b80600e60006101000a81548173ffffffffffffffffffffffffffffffffffffffff021916908373ffffffffffffffffffffffffffffffffffffffff16021790555050565b6000806001600084815260200190815260200160002060009054906101000a900473ffffffffffffffffffffffffffffffffffffffff169050600073ffffffffffffffffffffffffffffffffffffffff168173ffffffffffffffffffffffffffffffffffffffff161415915050919050565b600033905090565b600061297f826128fa565b6129d4576040517f08c379a000000000000000000000000000000000000000000000000000000000815260040180806020018281038252602c81526020018061397e602c913960400191505060405180910390fd5b60006129df83611a51565b90508073ffffffffffffffffffffffffffffffffffffffff168473ffffffffffffffffffffffffffffffffffffffff161480612a4e57508373ffffffffffffffffffffffffffffffffffffffff16612a368461119b565b73ffffffffffffffffffffffffffffffffffffffff16145b80612a5f5750612a5e81856127c8565b5b91505092915050565b612a73838383612b5e565b612a7d8382612db9565b612a878282612f57565b505050565b6014819080600181540180825580915050906001820390600052602060002001600090919290919091505550806015600083815260200190815260200160002081905550612ada828261301e565b5050565b600081600001549050919050565b612af7848484612a68565b612b038484848461303f565b612b58576040517f08c379a00000000000000000000000000000000000000000000000000000000081526004018080602001828103825260328152602001806139286032913960400191505060405180910390fd5b50505050565b8273ffffffffffffffffffffffffffffffffffffffff16612b7e82611a51565b73ffffffffffffffffffffffffffffffffffffffff1614612bea576040517f08c379a0000000000000000000000000000000000000000000000000000000008152600401808060200182810382526029815260200180613a616029913960400191505060405180910390fd5b600073ffffffffffffffffffffffffffffffffffffffff168273ffffffffffffffffffffffffffffffffffffffff161415612c70576040517f08c379a000000000000000000000000000000000000000000000000000000000815260040180806020018281038252602481526020018061395a6024913960400191505060405180910390fd5b612c798161337b565b612cc0600360008573ffffffffffffffffffffffffffffffffffffffff1673ffffffffffffffffffffffffffffffffffffffff168152602001908152602001600020613439565b612d07600360008473ffffffffffffffffffffffffffffffffffffffff1673ffffffffffffffffffffffffffffffffffffffff16815260200190815260200160002061345c565b816001600083815260200190815260200160002060006101000a81548173ffffffffffffffffffffffffffffffffffffffff021916908373ffffffffffffffffffffffffffffffffffffffff160217905550808273ffffffffffffffffffffffffffffffffffffffff168473ffffffffffffffffffffffffffffffffffffffff167fddf252ad1be2c89b69c2b068fc378daa952ba7f163c4a11628f55a4df523b3ef60405160405180910390a4505050565b6000612e116001600560008673ffffffffffffffffffffffffffffffffffffffff1673ffffffffffffffffffffffffffffffffffffffff1681526020019081526020016000208054905061347290919063ffffffff16565b9050600060066000848152602001908152602001600020549050818114612efe576000600560008673ffffffffffffffffffffffffffffffffffffffff1673ffffffffffffffffffffffffffffffffffffffff1681526020019081526020016000208381548110612e7e57fe5b9060005260206000200154905080600560008773ffffffffffffffffffffffffffffffffffffffff1673ffffffffffffffffffffffffffffffffffffffff1681526020019081526020016000208381548110612ed657fe5b9060005260206000200181905550816006600083815260200190815260200160002081905550505b600560008573ffffffffffffffffffffffffffffffffffffffff1673ffffffffffffffffffffffffffffffffffffffff168152602001908152602001600020805480919060019003612f5091906138ab565b5050505050565b600560008373ffffffffffffffffffffffffffffffffffffffff1673ffffffffffffffffffffffffffffffffffffffff168152602001908152602001600020805490506006600083815260200190815260200160002081905550600560008373ffffffffffffffffffffffffffffffffffffffff1673ffffffffffffffffffffffffffffffffffffffff1681526020019081526020016000208190806001815401808255809150509060018203906000526020600020016000909192909190915055505050565b61302882826134bc565b6130328282612f57565b61303b816136d4565b5050565b60006130608473ffffffffffffffffffffffffffffffffffffffff16613720565b61306d5760019050613373565b600060608573ffffffffffffffffffffffffffffffffffffffff168673ffffffffffffffffffffffffffffffffffffffff1663150b7a02905060e01b6130b161296c565b898888604051602401808573ffffffffffffffffffffffffffffffffffffffff1673ffffffffffffffffffffffffffffffffffffffff1681526020018473ffffffffffffffffffffffffffffffffffffffff1673ffffffffffffffffffffffffffffffffffffffff16815260200183815260200180602001828103825283818151815260200191508051906020019080838360005b83811015613161578082015181840152602081019050613146565b50505050905090810190601f16801561318e5780820380516001836020036101000a031916815260200191505b5095505050505050604051602081830303815290604052907bffffffffffffffffffffffffffffffffffffffffffffffffffffffff19166020820180517bffffffffffffffffffffffffffffffffffffffffffffffffffffffff83818316178352505050506040518082805190602001908083835b602083106132265780518252602082019150602081019050602083039250613203565b6001836020036101000a0380198251168184511680821785525050505050509050019150506000604051808303816000865af19150503d8060008114613288576040519150601f19603f3d011682016040523d82523d6000602084013e61328d565b606091505b5091509150816132fb576000815111156132aa5780518082602001fd5b6040517f08c379a00000000000000000000000000000000000000000000000000000000081526004018080602001828103825260328152602001806139286032913960400191505060405180910390fd5b600081806020019051602081101561331257600080fd5b8101908080519060200190929190505050905063150b7a0260e01b7bffffffffffffffffffffffffffffffffffffffffffffffffffffffff1916817bffffffffffffffffffffffffffffffffffffffffffffffffffffffff19161493505050505b949350505050565b600073ffffffffffffffffffffffffffffffffffffffff166002600083815260200190815260200160002060009054906101000a900473ffffffffffffffffffffffffffffffffffffffff1673ffffffffffffffffffffffffffffffffffffffff16146134365760006002600083815260200190815260200160002060006101000a81548173ffffffffffffffffffffffffffffffffffffffff021916908373ffffffffffffffffffffffffffffffffffffffff1602179055505b50565b6134516001826000015461347290919063ffffffff16565b816000018190555050565b6001816000016000828254019250508190555050565b60006134b483836040518060400160405280601e81526020017f536166654d6174683a207375627472616374696f6e206f766572666c6f77000081525061376b565b905092915050565b600073ffffffffffffffffffffffffffffffffffffffff168273ffffffffffffffffffffffffffffffffffffffff16141561355f576040517f08c379a00000000000000000000000000000000000000000000000000000000081526004018080602001828103825260208152602001807f4552433732313a206d696e7420746f20746865207a65726f206164647265737381525060200191505060405180910390fd5b613568816128fa565b156135db576040517f08c379a000000000000000000000000000000000000000000000000000000000815260040180806020018281038252601c8152602001807f4552433732313a20746f6b656e20616c7265616479206d696e7465640000000081525060200191505060405180910390fd5b816001600083815260200190815260200160002060006101000a81548173ffffffffffffffffffffffffffffffffffffffff021916908373ffffffffffffffffffffffffffffffffffffffff160217905550613674600360008473ffffffffffffffffffffffffffffffffffffffff1673ffffffffffffffffffffffffffffffffffffffff16815260200190815260200160002061345c565b808273ffffffffffffffffffffffffffffffffffffffff16600073ffffffffffffffffffffffffffffffffffffffff167fddf252ad1be2c89b69c2b068fc378daa952ba7f163c4a11628f55a4df523b3ef60405160405180910390a45050565b6007805490506008600083815260200190815260200160002081905550600781908060018154018082558091505090600182039060005260206000200160009091929091909150555050565b60008060007fc5d2460186f7233c927e7db2dcc703c0e500b653ca82273b7bfad8045d85a47060001b9050833f915080821415801561376257506000801b8214155b92505050919050565b6000838311158290613818576040517f08c379a00000000000000000000000000000000000000000000000000000000081526004018080602001828103825283818151815260200191508051906020019080838360005b838110156137dd5780820151818401526020810190506137c2565b50505050905090810190601f16801561380a5780820380516001836020036101000a031916815260200191505b509250505060405180910390fd5b5060008385039050809150509392505050565b828054600181600116156101000203166002900490600052602060002090601f016020900481019282601f1061386c57805160ff191683800117855561389a565b8280016001018555821561389a579182015b8281111561389957825182559160200191906001019061387e565b5b5090506138a791906138d7565b5090565b8154818355818111156138d2578183600052602060002091820191016138d191906138d7565b5b505050565b6138f991905b808211156138f55760008160009055506001016138dd565b5090565b9056fe455243373231456e756d657261626c653a206f776e657220696e646578206f7574206f6620626f756e64734552433732313a207472616e7366657220746f206e6f6e20455243373231526563656976657220696d706c656d656e7465724552433732313a207472616e7366657220746f20746865207a65726f20616464726573734552433732313a206f70657261746f7220717565727920666f72206e6f6e6578697374656e7420746f6b656e4552433732313a20617070726f76652063616c6c6572206973206e6f74206f776e6572206e6f7220617070726f76656420666f7220616c6c4552433732313a2062616c616e636520717565727920666f7220746865207a65726f20616464726573734552433732313a206f776e657220717565727920666f72206e6f6e6578697374656e7420746f6b656e4552433732313a20617070726f76656420717565727920666f72206e6f6e6578697374656e7420746f6b656e4552433732313a207472616e73666572206f6620746f6b656e2074686174206973206e6f74206f776e4552433732314d657461646174613a2055524920717565727920666f72206e6f6e6578697374656e7420746f6b656e4552433732313a20617070726f76616c20746f2063757272656e74206f776e65724552433732313a207472616e736665722063616c6c6572206973206e6f74206f776e6572206e6f7220617070726f766564455243373231456e756d657261626c653a20676c6f62616c20696e646578206f7574206f6620626f756e6473a265627a7a72315820af8c1f01b1dc352e1d317e45e1521efad009d598ae5a775ac375c19039feedeb64736f6c634300050c0032",
  "source": "// File: contracts\\PresChain.sol\r\n\r\npragma solidity ^0.5.12;\r\n\r\nimport \"./ERC721Full.sol\";\r\nimport \"./Ownable.sol\";\r\n\r\ncontract CryptoPres is  ERC721Full(\"CryptoPres\",\"PRES\"), Ownable {\r\n\r\n\r\n\r\n    // Token name\r\n\r\n    string public name_ = \"CryptoPres\";\r\n\r\n\r\n    // Token symbol\r\n\r\n    string public symbol_ = \"PRES\";\r\n\r\n\r\n    // Mapping from owner to list of owned token IDs\r\n\r\n    mapping(address => uint256[]) internal ownedPrescriptions;\r\n\r\n\r\n    // Mapping from token ID to index of the owner tokens list\r\n\r\n    mapping(uint256 => uint256) internal ownedPrescriptionsIndex;\r\n\r\n\r\n    // Array with all token ids, used for enumeration\r\n\r\n    uint256[] internal allPrescriptions;\r\n\r\n\r\n    // Mapping from token id to position in the allPrescriptions array\r\n\r\n    mapping(uint256 => uint256) internal allPrescriptionsIndex;\r\n\r\n\r\n    // Optional mapping for token URIs\r\n\r\n    mapping(uint256 => string) internal PrescriptionURIs;\r\n\r\n\r\n    struct Data{\r\n\r\n        string drugName;\r\n\r\n        string drugCode;\r\n\r\n    }\r\n\r\n\r\n\r\n    mapping(uint256 => Data) internal prescriptionData;\r\n\r\n\r\n    /**\r\n\r\n     * @dev External function to mint a new token\r\n\r\n     * @dev Reverts if the given token ID already exists\r\n\r\n     * @param _to address the beneficiary that will own the minted token\r\n\r\n     */\r\n\r\n    function mint(address _to, uint256 _id) external onlyDoctor {\r\n\r\n        _mint(_to, _id);\r\n\r\n    }\r\n\r\n\r\n    /**\r\n\r\n     * @dev Gets the token name\r\n\r\n     * @return string representing the token name\r\n\r\n     */\r\n\r\n    function name() external view returns (string memory) {\r\n\r\n        return name_;\r\n\r\n    }\r\n\r\n\r\n    /**\r\n\r\n     * @dev Gets the token symbol\r\n\r\n     * @return string representing the token symbol\r\n\r\n     */\r\n\r\n    function symbol() external view returns (string memory) {\r\n\r\n        return symbol_;\r\n\r\n    }\r\n\r\n\r\n    function arrayOfPrescriptionsByAddress(address _holder) public view returns(uint256[] memory) {\r\n\r\n        return ownedPrescriptions[_holder];\r\n\r\n    }\r\n\r\n\r\n    /**\r\n\r\n     * @dev Returns an URI for a given token ID\r\n\r\n     * @dev Throws if the token ID does not exist. May return an empty string.\r\n\r\n     * @param _presId uint256 ID of the token to query\r\n\r\n     */\r\n\r\n    function prescriptionsURI(uint256 _presId) public view returns (string memory) {\r\n\r\n        require(_exists(_presId),\"prescriptionsURI\");\r\n\r\n        return PrescriptionURIs[_presId];\r\n\r\n    }\r\n\r\n\r\n    /**\r\n\r\n     * @dev Gets the token ID at a given index of the tokens list of the requested owner\r\n\r\n     * @param _owner address owning the tokens list to be accessed\r\n\r\n     * @param _index uint256 representing the index to be accessed of the requested tokens list\r\n\r\n     * @return uint256 token ID at the given index of the tokens list owned by the requested address\r\n\r\n     */\r\n\r\n    function prescriptionOfOwnerByIndex(address _owner, uint256 _index) public view returns (uint256) {\r\n\r\n        require(_index < balanceOf(_owner), \"tokenOfOwnerByIndex\");\r\n\r\n        return ownedPrescriptions[_owner][_index];\r\n\r\n    }\r\n\r\n\r\n    /**\r\n\r\n     * @dev Gets the total amount of tokens stored by the contract\r\n\r\n     * @return uint256 representing the total amount of tokens\r\n\r\n     */\r\n\r\n    function totalSupply() public view returns (uint256) {\r\n\r\n        return allPrescriptions.length;\r\n\r\n    }\r\n\r\n\r\n    /**\r\n\r\n     * @dev Gets the token ID at a given index of all the tokens in this contract\r\n\r\n     * @dev Reverts if the index is greater or equal to the total number of tokens\r\n\r\n     * @param _index uint256 representing the index to be accessed of the tokens list\r\n\r\n     * @return uint256 token ID at the given index of the tokens list\r\n\r\n     */\r\n\r\n    function prescriptionByIndex(uint256 _index) public view returns (uint256) {\r\n\r\n        require(_index < totalSupply(),\"prescriptionByIndex\");\r\n\r\n        return allPrescriptions[_index];\r\n\r\n    }\r\n\r\n\r\n    /**\r\n\r\n     * @dev Internal function to set the token URI for a given token\r\n\r\n     * @dev Reverts if the token ID does not exist\r\n\r\n     * @param _presId uint256 ID of the token to set its URI\r\n\r\n     * @param _uri string URI to assign\r\n\r\n     */\r\n\r\n    function _setprescriptionsURI(uint256 _presId, string memory _uri) internal {\r\n\r\n        require(_exists(_presId),\"_setprescriptionsURI\");\r\n\r\n        PrescriptionURIs[_presId] = _uri;\r\n\r\n    }\r\n\r\n\r\n\r\n\r\n    /**\r\n\r\n     * @dev Internal function to add a token ID to the list of a given address\r\n\r\n     * @param _to address representing the new owner of the given token ID\r\n\r\n     * @param _presId uint256 ID of the token to be added to the tokens list of the given address\r\n\r\n     */\r\n\r\n    function addPrescriptionTo(address _to, uint256 _presId) internal {\r\n\r\n        super._mint(_to, _presId);\r\n\r\n        uint256 length = ownedPrescriptions[_to].length;\r\n\r\n        ownedPrescriptions[_to].push(_presId);\r\n\r\n        ownedPrescriptionsIndex[_presId] = length;\r\n\r\n    }\r\n\r\n\r\n    /**\r\n\r\n     * @dev Internal function to mint a new token\r\n\r\n     * @dev Reverts if the given token ID already exists\r\n\r\n     * @param _to address the beneficiary that will own the minted token\r\n\r\n     */\r\n\r\n    function _mint(address _to, uint256 _id) internal {\r\n\r\n        allPrescriptions.push(_id);\r\n\r\n        allPrescriptionsIndex[_id] = _id;\r\n\r\n        super._mint(_to, _id);\r\n\r\n    }\r\n\r\n\r\n    function addprescriptionData(uint _presId, string memory _drugName, string memory _drugCode) public {\r\n\r\n            require(ownerOf(_presId) == msg.sender,\"addprescriptionData\");\r\n\r\n            prescriptionData[_presId].drugName = _drugName;\r\n\r\n            prescriptionData[_presId].drugCode = _drugCode;\r\n\r\n\r\n\r\n\r\n    }\r\n\r\n\r\n\r\n    function getprescriptionData(uint _presId) public view returns(string memory drugName, string memory drugCode){\r\n\r\n        require(_exists(_presId),\"getprescriptionData\");\r\n\r\n        drugName = prescriptionData[_presId].drugName;\r\n\r\n        drugCode = prescriptionData[_presId].drugCode;\r\n\r\n    }\r\n\r\n}\r\n",
  "sourcePath": "C:/Users/Shane/Documents/truffleProjects/TEST/contracts/PresChain.sol",
  "compiler": {
    "name": "solc",
    "version": "0.5.12+commit.7709ece9.Emscripten.clang"
  },
  "schemaVersion": "3.0.16",
  "updatedAt": "2020-02-29T19:39:56.152Z",
  "devdoc": {
    "methods": {
      "approve(address,uint256)": {
        "details": "Approves another address to transfer the given token ID The zero address indicates there is no approved address. There can only be one approved address per token at a given time. Can only be called by the token owner or an approved operator.",
        "params": {
          "to": "address to be approved for the given token ID",
          "tokenId": "uint256 ID of the token to be approved"
        }
      },
      "balanceOf(address)": {
        "details": "Gets the balance of the specified address.",
        "params": {
          "owner": "address to query the balance of"
        },
        "return": "uint256 representing the amount owned by the passed address"
      },
      "baseURI()": {
        "details": "Returns the base URI set via {_setBaseURI}. This will be automatically added as a preffix in {tokenURI} to each token's URI, when they are non-empty.     * _Available since v2.5.0._"
      },
      "claimOwnership()": {
        "details": "Allows the pendingOwner address to finalize the transfer."
      },
      "getApproved(uint256)": {
        "details": "Gets the approved address for a token ID, or zero if no address set Reverts if the token ID does not exist.",
        "params": {
          "tokenId": "uint256 ID of the token to query the approval of"
        },
        "return": "address currently approved for the given token ID"
      },
      "isApprovedForAll(address,address)": {
        "details": "Tells whether an operator is approved by a given owner.",
        "params": {
          "operator": "operator address which you want to query the approval of",
          "owner": "owner address which you want to query the approval of"
        },
        "return": "bool whether the given operator is approved by the given owner"
      },
      "mint(address,uint256)": {
        "details": "External function to mint a new tokenReverts if the given token ID already exists",
        "params": {
          "_to": "address the beneficiary that will own the minted token"
        }
      },
      "name()": {
        "details": "Gets the token name",
        "return": "string representing the token name"
      },
      "ownerOf(uint256)": {
        "details": "Gets the owner of the specified token ID.",
        "params": {
          "tokenId": "uint256 ID of the token to query the owner of"
        },
        "return": "address currently marked as the owner of the given token ID"
      },
      "prescriptionByIndex(uint256)": {
        "details": "Gets the token ID at a given index of all the tokens in this contractReverts if the index is greater or equal to the total number of tokens",
        "params": {
          "_index": "uint256 representing the index to be accessed of the tokens list"
        },
        "return": "uint256 token ID at the given index of the tokens list"
      },
      "prescriptionOfOwnerByIndex(address,uint256)": {
        "details": "Gets the token ID at a given index of the tokens list of the requested owner",
        "params": {
          "_index": "uint256 representing the index to be accessed of the requested tokens list",
          "_owner": "address owning the tokens list to be accessed"
        },
        "return": "uint256 token ID at the given index of the tokens list owned by the requested address"
      },
      "prescriptionsURI(uint256)": {
        "details": "Returns an URI for a given token IDThrows if the token ID does not exist. May return an empty string.",
        "params": {
          "_presId": "uint256 ID of the token to query"
        }
      },
      "safeTransferFrom(address,address,uint256)": {
        "details": "Safely transfers the ownership of a given token ID to another address If the target address is a contract, it must implement {IERC721Receiver-onERC721Received}, which is called upon a safe transfer, and return the magic value `bytes4(keccak256(\"onERC721Received(address,address,uint256,bytes)\"))`; otherwise, the transfer is reverted. Requires the msg.sender to be the owner, approved, or operator",
        "params": {
          "from": "current owner of the token",
          "to": "address to receive the ownership of the given token ID",
          "tokenId": "uint256 ID of the token to be transferred"
        }
      },
      "safeTransferFrom(address,address,uint256,bytes)": {
        "details": "Safely transfers the ownership of a given token ID to another address If the target address is a contract, it must implement {IERC721Receiver-onERC721Received}, which is called upon a safe transfer, and return the magic value `bytes4(keccak256(\"onERC721Received(address,address,uint256,bytes)\"))`; otherwise, the transfer is reverted. Requires the _msgSender() to be the owner, approved, or operator",
        "params": {
          "_data": "bytes data to send along with a safe transfer check",
          "from": "current owner of the token",
          "to": "address to receive the ownership of the given token ID",
          "tokenId": "uint256 ID of the token to be transferred"
        }
      },
      "setApprovalForAll(address,bool)": {
        "details": "Sets or unsets the approval of a given operator An operator is allowed to transfer all tokens of the sender on their behalf.",
        "params": {
          "approved": "representing the status of the approval to be set",
          "to": "operator address to set the approval"
        }
      },
      "setDoctor(address)": {
        "details": "Sets the doctor address.",
        "params": {
          "_doctor": "The doctor address."
        }
      },
      "supportsInterface(bytes4)": {
        "details": "See {IERC165-supportsInterface}.      * Time complexity O(1), guaranteed to always use less than 30 000 gas."
      },
      "symbol()": {
        "details": "Gets the token symbol",
        "return": "string representing the token symbol"
      },
      "tokenByIndex(uint256)": {
        "details": "Gets the token ID at a given index of all the tokens in this contract Reverts if the index is greater or equal to the total number of tokens.",
        "params": {
          "index": "uint256 representing the index to be accessed of the tokens list"
        },
        "return": "uint256 token ID at the given index of the tokens list"
      },
      "tokenOfOwnerByIndex(address,uint256)": {
        "details": "Gets the token ID at a given index of the tokens list of the requested owner.",
        "params": {
          "index": "uint256 representing the index to be accessed of the requested tokens list",
          "owner": "address owning the tokens list to be accessed"
        },
        "return": "uint256 token ID at the given index of the tokens list owned by the requested address"
      },
      "tokenURI(uint256)": {
        "details": "Returns the URI for a given token ID. May return an empty string.      * If the token's URI is non-empty and a base URI was set (via {_setBaseURI}), it will be added to the token ID's URI as a prefix.      * Reverts if the token ID does not exist."
      },
      "totalSupply()": {
        "details": "Gets the total amount of tokens stored by the contract",
        "return": "uint256 representing the total amount of tokens"
      },
      "transferFrom(address,address,uint256)": {
        "details": "Transfers the ownership of a given token ID to another address. Usage of this method is discouraged, use {safeTransferFrom} whenever possible. Requires the msg.sender to be the owner, approved, or operator.",
        "params": {
          "from": "current owner of the token",
          "to": "address to receive the ownership of the given token ID",
          "tokenId": "uint256 ID of the token to be transferred"
        }
      },
      "transferOwnership(address)": {
        "details": "Allows the current owner to set the pendingOwner address.",
        "params": {
          "newOwner": "The address to transfer ownership to."
        }
      }
    }
  },
  "userdoc": {
    "methods": {}
  }
}