{
  "contractName": "Ownable",
  "abi": [
    {
      "inputs": [],
      "payable": false,
      "stateMutability": "nonpayable",
      "type": "constructor"
    },
    {
      "anonymous": false,
      "inputs": [
        {
          "indexed": true,
          "internalType": "address",
          "name": "previousOwner",
          "type": "address"
        },
        {
          "indexed": true,
          "internalType": "address",
          "name": "newOwner",
          "type": "address"
        }
      ],
      "name": "OwnershipTransferred",
      "type": "event"
    },
    {
      "constant": true,
      "inputs": [],
      "name": "doctor",
      "outputs": [
        {
          "internalType": "address",
          "name": "",
          "type": "address"
        }
      ],
      "payable": false,
      "stateMutability": "view",
      "type": "function"
    },
    {
      "constant": true,
      "inputs": [],
      "name": "owner",
      "outputs": [
        {
          "internalType": "address",
          "name": "",
          "type": "address"
        }
      ],
      "payable": false,
      "stateMutability": "view",
      "type": "function"
    },
    {
      "constant": true,
      "inputs": [],
      "name": "pendingOwner",
      "outputs": [
        {
          "internalType": "address",
          "name": "",
          "type": "address"
        }
      ],
      "payable": false,
      "stateMutability": "view",
      "type": "function"
    },
    {
      "constant": false,
      "inputs": [
        {
          "internalType": "address",
          "name": "newOwner",
          "type": "address"
        }
      ],
      "name": "transferOwnership",
      "outputs": [],
      "payable": false,
      "stateMutability": "nonpayable",
      "type": "function"
    },
    {
      "constant": false,
      "inputs": [],
      "name": "claimOwnership",
      "outputs": [],
      "payable": false,
      "stateMutability": "nonpayable",
      "type": "function"
    },
    {
      "constant": false,
      "inputs": [
        {
          "internalType": "address",
          "name": "_doctor",
          "type": "address"
        }
      ],
      "name": "setDoctor",
      "outputs": [],
      "payable": false,
      "stateMutability": "nonpayable",
      "type": "function"
    }
  ],
  "bytecode": "0x608060405234801561001057600080fd5b50336000806101000a81548173ffffffffffffffffffffffffffffffffffffffff021916908373ffffffffffffffffffffffffffffffffffffffff160217905550610662806100606000396000f3fe608060405234801561001057600080fd5b50600436106100625760003560e01c806348103e65146100675780634e71e0c8146100ab5780637ea7118c146100b55780638da5cb5b146100ff578063e30c397814610149578063f2fde38b14610193575b600080fd5b6100a96004803603602081101561007d57600080fd5b81019080803573ffffffffffffffffffffffffffffffffffffffff1690602001909291905050506101d7565b005b6100b3610354565b005b6100bd6104f1565b604051808273ffffffffffffffffffffffffffffffffffffffff1673ffffffffffffffffffffffffffffffffffffffff16815260200191505060405180910390f35b610107610517565b604051808273ffffffffffffffffffffffffffffffffffffffff1673ffffffffffffffffffffffffffffffffffffffff16815260200191505060405180910390f35b61015161053c565b604051808273ffffffffffffffffffffffffffffffffffffffff1673ffffffffffffffffffffffffffffffffffffffff16815260200191505060405180910390f35b6101d5600480360360208110156101a957600080fd5b81019080803573ffffffffffffffffffffffffffffffffffffffff169060200190929190505050610562565b005b6000809054906101000a900473ffffffffffffffffffffffffffffffffffffffff1673ffffffffffffffffffffffffffffffffffffffff163373ffffffffffffffffffffffffffffffffffffffff161461023057600080fd5b6000809054906101000a900473ffffffffffffffffffffffffffffffffffffffff1673ffffffffffffffffffffffffffffffffffffffff168173ffffffffffffffffffffffffffffffffffffffff1614156102d6576040517f08c379a000000000000000000000000000000000000000000000000000000000815260040180806020018281038252602e815260200180610600602e913960400191505060405180910390fd5b600073ffffffffffffffffffffffffffffffffffffffff168173ffffffffffffffffffffffffffffffffffffffff16141561031057600080fd5b80600260006101000a81548173ffffffffffffffffffffffffffffffffffffffff021916908373ffffffffffffffffffffffffffffffffffffffff16021790555050565b600160009054906101000a900473ffffffffffffffffffffffffffffffffffffffff1673ffffffffffffffffffffffffffffffffffffffff163373ffffffffffffffffffffffffffffffffffffffff16146103ae57600080fd5b600160009054906101000a900473ffffffffffffffffffffffffffffffffffffffff1673ffffffffffffffffffffffffffffffffffffffff166000809054906101000a900473ffffffffffffffffffffffffffffffffffffffff1673ffffffffffffffffffffffffffffffffffffffff167f8be0079c531659141344cd1fd0a4f28419497f9722a3daafe3b4186f6b6457e060405160405180910390a3600160009054906101000a900473ffffffffffffffffffffffffffffffffffffffff166000806101000a81548173ffffffffffffffffffffffffffffffffffffffff021916908373ffffffffffffffffffffffffffffffffffffffff1602179055506000600160006101000a81548173ffffffffffffffffffffffffffffffffffffffff021916908373ffffffffffffffffffffffffffffffffffffffff160217905550565b600260009054906101000a900473ffffffffffffffffffffffffffffffffffffffff1681565b6000809054906101000a900473ffffffffffffffffffffffffffffffffffffffff1681565b600160009054906101000a900473ffffffffffffffffffffffffffffffffffffffff1681565b6000809054906101000a900473ffffffffffffffffffffffffffffffffffffffff1673ffffffffffffffffffffffffffffffffffffffff163373ffffffffffffffffffffffffffffffffffffffff16146105bb57600080fd5b80600160006101000a81548173ffffffffffffffffffffffffffffffffffffffff021916908373ffffffffffffffffffffffffffffffffffffffff1602179055505056fe4f776e61626c653a204f776e65722063616e6e6f7420736574207468656d73656c76657320617320646f63746f72a265627a7a72315820b9d4d85842001378272a4f1fef1e49b5a5da35a3f03b141c5945b642b7e455af64736f6c634300050c0032",
  "source": "// File: contracts\\Ownable.sol\r\npragma solidity ^0.5.12;\r\n\r\ncontract Ownable {\r\n     address public owner;\r\n     address public pendingOwner;\r\n     address public doctor;\r\n\r\n\r\n     event OwnershipTransferred(address indexed previousOwner, address indexed newOwner);\r\n\r\n\r\n     /**\r\n     * @dev Throws if called by any account other than the owner.\r\n     */\r\n     modifier onlyOwner() {\r\n         require(msg.sender == owner);\r\n         _;\r\n     }\r\n\r\n\r\n     /**\r\n      * @dev Modifier throws if called by any account other than the doctor.\r\n      */\r\n     modifier onlyDoctor() {\r\n         require(msg.sender == doctor);\r\n         _;\r\n     }\r\n\r\n\r\n     /**\r\n      * @dev Modifier throws if called by any account other than the pendingOwner.\r\n      */\r\n     modifier onlyPendingOwner() {\r\n         require(msg.sender == pendingOwner);\r\n         _;\r\n     }\r\n\r\n\r\n     constructor() public {\r\n         owner = msg.sender;\r\n     }\r\n\r\n\r\n     /**\r\n      * @dev Allows the current owner to set the pendingOwner address.\r\n      * @param newOwner The address to transfer ownership to.\r\n      */\r\n     function transferOwnership(address newOwner) public onlyOwner {\r\n         pendingOwner = newOwner;\r\n     }\r\n\r\n\r\n     /**\r\n      * @dev Allows the pendingOwner address to finalize the transfer.\r\n      */\r\n     function claimOwnership() public onlyPendingOwner {\r\n         emit OwnershipTransferred(owner, pendingOwner);\r\n         owner = pendingOwner;\r\n         pendingOwner = address(0);\r\n     }\r\n\r\n\r\n     /**\r\n      * @dev Sets the doctor address.\r\n      * @param _doctor The doctor address.\r\n      */\r\n     function setDoctor(address _doctor) public onlyOwner {\r\n         require(_doctor != owner, \"Ownable: Owner cannot set themselves as doctor\");\r\n         require(_doctor != address(0));\r\n         doctor = _doctor;\r\n     }\r\n\r\n\r\n }\r\n",
  "sourcePath": "C:\\Users\\Shane\\Documents\\truffleProjects\\Currenty Working Directory\\PresChain\\contracts\\Ownable.sol",
  "compiler": {
    "name": "solc",
    "version": "0.5.12+commit.7709ece9.Emscripten.clang"
  },
  "schemaVersion": "3.0.16",
  "updatedAt": "2020-05-10T14:38:45.841Z",
  "devdoc": {
    "methods": {
      "claimOwnership()": {
        "details": "Allows the pendingOwner address to finalize the transfer."
      },
      "setDoctor(address)": {
        "details": "Sets the doctor address.",
        "params": {
          "_doctor": "The doctor address."
        }
      },
      "transferOwnership(address)": {
        "details": "Allows the current owner to set the pendingOwner address.",
        "params": {
          "newOwner": "The address to transfer ownership to."
        }
      }
    }
  },
  "userdoc": {
    "methods": {}
  }
}